{
  "_format": "hh-sol-artifact-1",
  "contractName": "Validator",
  "sourceName": "contracts/Validator.sol",
  "abi": [
    {
      "inputs": [
        {
          "internalType": "address",
          "name": "gateway_",
          "type": "address"
        },
        {
          "internalType": "address",
          "name": "gasReceiver_",
          "type": "address"
        },
        {
          "internalType": "address",
          "name": "_beneficiary",
          "type": "address"
        }
      ],
      "stateMutability": "nonpayable",
      "type": "constructor"
    },
    {
      "anonymous": false,
      "inputs": [
        {
          "indexed": false,
          "internalType": "address",
          "name": "newNftAddress",
          "type": "address"
        }
      ],
      "name": "NewWhitelistedNFT",
      "type": "event"
    },
    {
      "inputs": [],
      "name": "gasReceiver",
      "outputs": [
        {
          "internalType": "contract IAxelarGasService",
          "name": "",
          "type": "address"
        }
      ],
      "stateMutability": "view",
      "type": "function"
    },
    {
      "inputs": [],
      "name": "gateway",
      "outputs": [
        {
          "internalType": "contract IAxelarGateway",
          "name": "",
          "type": "address"
        }
      ],
      "stateMutability": "view",
      "type": "function"
    },
    {
      "inputs": [
        {
          "internalType": "address",
          "name": "",
          "type": "address"
        }
      ],
      "name": "nftIsSpent",
      "outputs": [
        {
          "internalType": "bool",
          "name": "",
          "type": "bool"
        }
      ],
      "stateMutability": "view",
      "type": "function"
    },
    {
      "inputs": [
        {
          "internalType": "string",
          "name": "destinationChain",
          "type": "string"
        },
        {
          "internalType": "string",
          "name": "destinationAddress",
          "type": "string"
        },
        {
          "internalType": "address",
          "name": "_nftAddress",
          "type": "address"
        },
        {
          "internalType": "uint256",
          "name": "_nftId",
          "type": "uint256"
        }
      ],
      "name": "validateAndClaim",
      "outputs": [],
      "stateMutability": "payable",
      "type": "function"
    },
    {
      "inputs": [
        {
          "internalType": "address",
          "name": "_newNftAddress",
          "type": "address"
        }
      ],
      "name": "whitelistNft",
      "outputs": [],
      "stateMutability": "nonpayable",
      "type": "function"
    },
    {
      "inputs": [
        {
          "internalType": "address",
          "name": "",
          "type": "address"
        }
      ],
      "name": "whitelistedNfts",
      "outputs": [
        {
          "internalType": "bool",
          "name": "",
          "type": "bool"
        }
      ],
      "stateMutability": "view",
      "type": "function"
    }
  ],
  "bytecode": "0x60c06040523480156200001157600080fd5b5060405162000fa738038062000fa7833981810160405281019062000037919062000112565b8173ffffffffffffffffffffffffffffffffffffffff1660808173ffffffffffffffffffffffffffffffffffffffff16815250508273ffffffffffffffffffffffffffffffffffffffff1660a08173ffffffffffffffffffffffffffffffffffffffff16815250505050506200016e565b600080fd5b600073ffffffffffffffffffffffffffffffffffffffff82169050919050565b6000620000da82620000ad565b9050919050565b620000ec81620000cd565b8114620000f857600080fd5b50565b6000815190506200010c81620000e1565b92915050565b6000806000606084860312156200012e576200012d620000a8565b5b60006200013e86828701620000fb565b93505060206200015186828701620000fb565b92505060406200016486828701620000fb565b9150509250925092565b60805160a051610e0c6200019b600039600061017301526000818161036801526104850152610e0c6000f3fe6080604052600436106100555760003560e01c8063116191b61461005a57806324dbbd091461008557806345c2658b146100ae57806380d14b4a146100ca578063a58c940a146100f5578063ae882a8a14610132575b600080fd5b34801561006657600080fd5b5061006f61016f565b60405161007c9190610712565b60405180910390f35b34801561009157600080fd5b506100ac60048036038101906100a79190610775565b610197565b005b6100c860048036038101906100c3919061083d565b61032b565b005b3480156100d657600080fd5b506100df610483565b6040516100ec9190610905565b60405180910390f35b34801561010157600080fd5b5061011c60048036038101906101179190610775565b6104a7565b604051610129919061093b565b60405180910390f35b34801561013e57600080fd5b5061015960048036038101906101549190610775565b6104c7565b604051610166919061093b565b60405180910390f35b60007f0000000000000000000000000000000000000000000000000000000000000000905090565b60001515600160008373ffffffffffffffffffffffffffffffffffffffff1673ffffffffffffffffffffffffffffffffffffffff16815260200190815260200160002060009054906101000a900460ff1615151461022a576040517f08c379a0000000000000000000000000000000000000000000000000000000008152600401610221906109d9565b60405180910390fd5b600073ffffffffffffffffffffffffffffffffffffffff168173ffffffffffffffffffffffffffffffffffffffff16141561029a576040517f08c379a000000000000000000000000000000000000000000000000000000000815260040161029190610a6b565b60405180910390fd5b60018060008373ffffffffffffffffffffffffffffffffffffffff1673ffffffffffffffffffffffffffffffffffffffff16815260200190815260200160002060006101000a81548160ff0219169083151502179055507f4864b3cb8ddce996e7c5f8ec0a006b69d432e6a5df2acff97f2a5ae75ff78f97816040516103209190610a9a565b60405180910390a150565b600061033783836104e7565b905060008160405160200161034c9190610a9a565b604051602081830303815290604052905060003411156103ff577f000000000000000000000000000000000000000000000000000000000000000073ffffffffffffffffffffffffffffffffffffffff16630c93e3bb34308b8b8b8b88336040518963ffffffff1660e01b81526004016103cc9796959493929190610b8a565b6000604051808303818588803b1580156103e557600080fd5b505af11580156103f9573d6000803e3d6000fd5b50505050505b61040761016f565b73ffffffffffffffffffffffffffffffffffffffff16631c92115f89898989866040518663ffffffff1660e01b8152600401610447959493929190610bf6565b600060405180830381600087803b15801561046157600080fd5b505af1158015610475573d6000803e3d6000fd5b505050505050505050505050565b7f000000000000000000000000000000000000000000000000000000000000000081565b60026020528060005260406000206000915054906101000a900460ff1681565b60016020528060005260406000206000915054906101000a900460ff1681565b6000600160008473ffffffffffffffffffffffffffffffffffffffff1673ffffffffffffffffffffffffffffffffffffffff16815260200190815260200160002060009054906101000a900460ff16610575576040517f08c379a000000000000000000000000000000000000000000000000000000000815260040161056c90610cb8565b60405180910390fd5b600260008473ffffffffffffffffffffffffffffffffffffffff1673ffffffffffffffffffffffffffffffffffffffff16815260200190815260200160002060009054906101000a900460ff1615610602576040517f08c379a00000000000000000000000000000000000000000000000000000000081526004016105f990610d4a565b60405180910390fd5b8273ffffffffffffffffffffffffffffffffffffffff16636352211e836040518263ffffffff1660e01b815260040161063b9190610d79565b60206040518083038186803b15801561065357600080fd5b505afa158015610667573d6000803e3d6000fd5b505050506040513d601f19601f8201168201806040525081019061068b9190610da9565b905092915050565b600073ffffffffffffffffffffffffffffffffffffffff82169050919050565b6000819050919050565b60006106d86106d36106ce84610693565b6106b3565b610693565b9050919050565b60006106ea826106bd565b9050919050565b60006106fc826106df565b9050919050565b61070c816106f1565b82525050565b60006020820190506107276000830184610703565b92915050565b600080fd5b600080fd5b600061074282610693565b9050919050565b61075281610737565b811461075d57600080fd5b50565b60008135905061076f81610749565b92915050565b60006020828403121561078b5761078a61072d565b5b600061079984828501610760565b91505092915050565b600080fd5b600080fd5b600080fd5b60008083601f8401126107c7576107c66107a2565b5b8235905067ffffffffffffffff8111156107e4576107e36107a7565b5b602083019150836001820283011115610800576107ff6107ac565b5b9250929050565b6000819050919050565b61081a81610807565b811461082557600080fd5b50565b60008135905061083781610811565b92915050565b6000806000806000806080878903121561085a5761085961072d565b5b600087013567ffffffffffffffff81111561087857610877610732565b5b61088489828a016107b1565b9650965050602087013567ffffffffffffffff8111156108a7576108a6610732565b5b6108b389828a016107b1565b945094505060406108c689828a01610760565b92505060606108d789828a01610828565b9150509295509295509295565b60006108ef826106df565b9050919050565b6108ff816108e4565b82525050565b600060208201905061091a60008301846108f6565b92915050565b60008115159050919050565b61093581610920565b82525050565b6000602082019050610950600083018461092c565b92915050565b600082825260208201905092915050565b7f76616c696461746f722e77686974656c6973744e66743a20616464726573732060008201527f616c726561647920616464656400000000000000000000000000000000000000602082015250565b60006109c3602d83610956565b91506109ce82610967565b604082019050919050565b600060208201905081810360008301526109f2816109b6565b9050919050565b7f76616c696461746f722e77686974656c6973744e66743a2063616e6e6f74206160008201527f6464203020616464726573730000000000000000000000000000000000000000602082015250565b6000610a55602c83610956565b9150610a60826109f9565b604082019050919050565b60006020820190508181036000830152610a8481610a48565b9050919050565b610a9481610737565b82525050565b6000602082019050610aaf6000830184610a8b565b92915050565b82818337600083830152505050565b6000601f19601f8301169050919050565b6000610ae18385610956565b9350610aee838584610ab5565b610af783610ac4565b840190509392505050565b600081519050919050565b600082825260208201905092915050565b60005b83811015610b3c578082015181840152602081019050610b21565b83811115610b4b576000848401525b50505050565b6000610b5c82610b02565b610b668185610b0d565b9350610b76818560208601610b1e565b610b7f81610ac4565b840191505092915050565b600060a082019050610b9f600083018a610a8b565b8181036020830152610bb281888a610ad5565b90508181036040830152610bc7818688610ad5565b90508181036060830152610bdb8185610b51565b9050610bea6080830184610a8b565b98975050505050505050565b60006060820190508181036000830152610c11818789610ad5565b90508181036020830152610c26818587610ad5565b90508181036040830152610c3a8184610b51565b90509695505050505050565b7f536f756c46756e642e636c61696d46756e64734561726c793a204e4654206e6f60008201527f742077686974656c697374656400000000000000000000000000000000000000602082015250565b6000610ca2602d83610956565b9150610cad82610c46565b604082019050919050565b60006020820190508181036000830152610cd181610c95565b9050919050565b7f536f756c46756e642e636c61696d46756e64734561726c793a20436c61696d2060008201527f746f6b656e204e46542068617320616c7265616479206265656e207370656e74602082015250565b6000610d34604083610956565b9150610d3f82610cd8565b604082019050919050565b60006020820190508181036000830152610d6381610d27565b9050919050565b610d7381610807565b82525050565b6000602082019050610d8e6000830184610d6a565b92915050565b600081519050610da381610749565b92915050565b600060208284031215610dbf57610dbe61072d565b5b6000610dcd84828501610d94565b9150509291505056fea2646970667358221220332d5992f174fac390ba68d469e20f8171f921c0f48e05cc0f13a4ee228db49864736f6c63430008090033",
  "linkReferences": {},
  "deployedLinkReferences": {}
}