{
  "_format": "hh-sol-artifact-1",
  "contractName": "SoulFundFactory",
  "sourceName": "contracts/SoulFundFactory.sol",
  "abi": [
    {
      "inputs": [],
      "stateMutability": "nonpayable",
      "type": "constructor"
    },
    {
      "anonymous": false,
      "inputs": [
        {
          "indexed": false,
          "internalType": "uint8",
          "name": "version",
          "type": "uint8"
        }
      ],
      "name": "Initialized",
      "type": "event"
    },
    {
      "anonymous": false,
      "inputs": [
        {
          "indexed": true,
          "internalType": "address",
          "name": "tokenAddress",
          "type": "address"
        },
        {
          "indexed": true,
          "internalType": "address",
          "name": "beneficiary",
          "type": "address"
        },
        {
          "indexed": false,
          "internalType": "uint256",
          "name": "vestingDate",
          "type": "uint256"
        },
        {
          "indexed": false,
          "internalType": "uint256",
          "name": "depositedAmount",
          "type": "uint256"
        }
      ],
      "name": "NewSoulFundTokenDeployed",
      "type": "event"
    },
    {
      "anonymous": false,
      "inputs": [
        {
          "indexed": false,
          "internalType": "address",
          "name": "account",
          "type": "address"
        }
      ],
      "name": "Paused",
      "type": "event"
    },
    {
      "anonymous": false,
      "inputs": [
        {
          "indexed": true,
          "internalType": "bytes32",
          "name": "role",
          "type": "bytes32"
        },
        {
          "indexed": true,
          "internalType": "bytes32",
          "name": "previousAdminRole",
          "type": "bytes32"
        },
        {
          "indexed": true,
          "internalType": "bytes32",
          "name": "newAdminRole",
          "type": "bytes32"
        }
      ],
      "name": "RoleAdminChanged",
      "type": "event"
    },
    {
      "anonymous": false,
      "inputs": [
        {
          "indexed": true,
          "internalType": "bytes32",
          "name": "role",
          "type": "bytes32"
        },
        {
          "indexed": true,
          "internalType": "address",
          "name": "account",
          "type": "address"
        },
        {
          "indexed": true,
          "internalType": "address",
          "name": "sender",
          "type": "address"
        }
      ],
      "name": "RoleGranted",
      "type": "event"
    },
    {
      "anonymous": false,
      "inputs": [
        {
          "indexed": true,
          "internalType": "bytes32",
          "name": "role",
          "type": "bytes32"
        },
        {
          "indexed": true,
          "internalType": "address",
          "name": "account",
          "type": "address"
        },
        {
          "indexed": true,
          "internalType": "address",
          "name": "sender",
          "type": "address"
        }
      ],
      "name": "RoleRevoked",
      "type": "event"
    },
    {
      "anonymous": false,
      "inputs": [
        {
          "indexed": false,
          "internalType": "address",
          "name": "account",
          "type": "address"
        }
      ],
      "name": "Unpaused",
      "type": "event"
    },
    {
      "inputs": [],
      "name": "DEFAULT_ADMIN_ROLE",
      "outputs": [
        {
          "internalType": "bytes32",
          "name": "",
          "type": "bytes32"
        }
      ],
      "stateMutability": "view",
      "type": "function"
    },
    {
      "inputs": [],
      "name": "PAUSER_ROLE",
      "outputs": [
        {
          "internalType": "bytes32",
          "name": "",
          "type": "bytes32"
        }
      ],
      "stateMutability": "view",
      "type": "function"
    },
    {
      "inputs": [
        {
          "internalType": "address",
          "name": "_beneficiary",
          "type": "address"
        },
        {
          "internalType": "uint256",
          "name": "_vestingDate",
          "type": "uint256"
        }
      ],
      "name": "deployNewSoulFund",
      "outputs": [],
      "stateMutability": "payable",
      "type": "function"
    },
    {
      "inputs": [
        {
          "internalType": "uint256",
          "name": "",
          "type": "uint256"
        }
      ],
      "name": "funds",
      "outputs": [
        {
          "internalType": "address",
          "name": "",
          "type": "address"
        }
      ],
      "stateMutability": "view",
      "type": "function"
    },
    {
      "inputs": [
        {
          "internalType": "bytes32",
          "name": "role",
          "type": "bytes32"
        }
      ],
      "name": "getRoleAdmin",
      "outputs": [
        {
          "internalType": "bytes32",
          "name": "",
          "type": "bytes32"
        }
      ],
      "stateMutability": "view",
      "type": "function"
    },
    {
      "inputs": [
        {
          "internalType": "bytes32",
          "name": "role",
          "type": "bytes32"
        },
        {
          "internalType": "address",
          "name": "account",
          "type": "address"
        }
      ],
      "name": "grantRole",
      "outputs": [],
      "stateMutability": "nonpayable",
      "type": "function"
    },
    {
      "inputs": [
        {
          "internalType": "bytes32",
          "name": "role",
          "type": "bytes32"
        },
        {
          "internalType": "address",
          "name": "account",
          "type": "address"
        }
      ],
      "name": "hasRole",
      "outputs": [
        {
          "internalType": "bool",
          "name": "",
          "type": "bool"
        }
      ],
      "stateMutability": "view",
      "type": "function"
    },
    {
      "inputs": [
        {
          "internalType": "address",
          "name": "_data",
          "type": "address"
        }
      ],
      "name": "initialize",
      "outputs": [],
      "stateMutability": "nonpayable",
      "type": "function"
    },
    {
      "inputs": [],
      "name": "pause",
      "outputs": [],
      "stateMutability": "nonpayable",
      "type": "function"
    },
    {
      "inputs": [],
      "name": "paused",
      "outputs": [
        {
          "internalType": "bool",
          "name": "",
          "type": "bool"
        }
      ],
      "stateMutability": "view",
      "type": "function"
    },
    {
      "inputs": [
        {
          "internalType": "bytes32",
          "name": "role",
          "type": "bytes32"
        },
        {
          "internalType": "address",
          "name": "account",
          "type": "address"
        }
      ],
      "name": "renounceRole",
      "outputs": [],
      "stateMutability": "nonpayable",
      "type": "function"
    },
    {
      "inputs": [
        {
          "internalType": "bytes32",
          "name": "role",
          "type": "bytes32"
        },
        {
          "internalType": "address",
          "name": "account",
          "type": "address"
        }
      ],
      "name": "revokeRole",
      "outputs": [],
      "stateMutability": "nonpayable",
      "type": "function"
    },
    {
      "inputs": [
        {
          "internalType": "bytes4",
          "name": "interfaceId",
          "type": "bytes4"
        }
      ],
      "name": "supportsInterface",
      "outputs": [
        {
          "internalType": "bool",
          "name": "",
          "type": "bool"
        }
      ],
      "stateMutability": "view",
      "type": "function"
    },
    {
      "inputs": [],
      "name": "unpause",
      "outputs": [],
      "stateMutability": "nonpayable",
      "type": "function"
    }
  ],
  "bytecode": "0x60806040523480156200001157600080fd5b50620000226200002860201b60201c565b620001d3565b600060019054906101000a900460ff16156200007b576040517f08c379a0000000000000000000000000000000000000000000000000000000008152600401620000729062000176565b60405180910390fd5b60ff801660008054906101000a900460ff1660ff161015620000ed5760ff6000806101000a81548160ff021916908360ff1602179055507f7f26b83ff96e1f2b6a682f133852f6798a09c465da95921460cefb384740249860ff604051620000e49190620001b6565b60405180910390a15b565b600082825260208201905092915050565b7f496e697469616c697a61626c653a20636f6e747261637420697320696e69746960008201527f616c697a696e6700000000000000000000000000000000000000000000000000602082015250565b60006200015e602783620000ef565b91506200016b8262000100565b604082019050919050565b6000602082019050818103600083015262000191816200014f565b9050919050565b600060ff82169050919050565b620001b08162000198565b82525050565b6000602082019050620001cd6000830184620001a5565b92915050565b6179ce80620001e36000396000f3fe608060405260043610620000f25760003560e01c80637b8e8895116200008b578063a217fddf1162000061578063a217fddf14620002e7578063c4d66de81462000317578063d547741f1462000345578063e63ab1e9146200037357620000f2565b80637b8e889514620002455780638456cb59146200028957806391d1485414620002a357620000f2565b806336568abe11620000cd57806336568abe14620001ad5780633f4ba83a14620001db5780635c975abb14620001f5578063653457b3146200022557620000f2565b806301ffc9a714620000f7578063248a9ca3146200013b5780632f2ff15d146200017f575b600080fd5b3480156200010457600080fd5b506200012360048036038101906200011d9190620012e1565b620003a3565b60405162000132919062001330565b60405180910390f35b3480156200014857600080fd5b5062000167600480360381019062000161919062001388565b62000420565b604051620001769190620013cb565b60405180910390f35b3480156200018c57600080fd5b50620001ab6004803603810190620001a591906200144d565b62000440565b005b348015620001ba57600080fd5b50620001d96004803603810190620001d391906200144d565b62000467565b005b348015620001e857600080fd5b50620001f3620004f1565b005b3480156200020257600080fd5b506200020d6200052a565b6040516200021c919062001330565b60405180910390f35b6200024360048036038101906200023d9190620014cf565b62000541565b005b3480156200025257600080fd5b506200027160048036038101906200026b919062001516565b620007dd565b60405162000280919062001559565b60405180910390f35b3480156200029657600080fd5b50620002a162000810565b005b348015620002b057600080fd5b50620002cf6004803603810190620002c991906200144d565b62000849565b604051620002de919062001330565b60405180910390f35b348015620002f457600080fd5b50620002ff620008b4565b6040516200030e9190620013cb565b60405180910390f35b3480156200032457600080fd5b506200034360048036038101906200033d919062001576565b620008bb565b005b3480156200035257600080fd5b506200037160048036038101906200036b91906200144d565b62000a49565b005b3480156200038057600080fd5b506200038b62000a70565b6040516200039a9190620013cb565b60405180910390f35b60007f7965db0b000000000000000000000000000000000000000000000000000000007bffffffffffffffffffffffffffffffffffffffffffffffffffffffff1916827bffffffffffffffffffffffffffffffffffffffffffffffffffffffff19161480620004195750620004188262000a94565b5b9050919050565b600060976000838152602001908152602001600020600101549050919050565b6200044b8262000420565b620004568162000afe565b62000462838362000b16565b505050565b6200047162000bfc565b73ffffffffffffffffffffffffffffffffffffffff168173ffffffffffffffffffffffffffffffffffffffff1614620004e1576040517f08c379a0000000000000000000000000000000000000000000000000000000008152600401620004d8906200162f565b60405180910390fd5b620004ed828262000c04565b5050565b7f65d7a28e3265b37a6474929f336521b332c1681b933f6cb9f3376673440d862a6200051d8162000afe565b6200052762000ceb565b50565b6000603360009054906101000a900460ff16905090565b600073ffffffffffffffffffffffffffffffffffffffff168273ffffffffffffffffffffffffffffffffffffffff161415620005b4576040517f08c379a0000000000000000000000000000000000000000000000000000000008152600401620005ab90620016ed565b60405180910390fd5b428111620005f9576040517f08c379a0000000000000000000000000000000000000000000000000000000008152600401620005f090620017ab565b60405180910390fd5b600034116200063f576040517f08c379a0000000000000000000000000000000000000000000000000000000008152600401620006369062001843565b60405180910390fd5b6200064b60c962000d54565b6000346040516200065c9062001271565b6040518091039082f09050801580156200067a573d6000803e3d6000fd5b5090508073ffffffffffffffffffffffffffffffffffffffff1663c350a1b5848460ca60009054906101000a900473ffffffffffffffffffffffffffffffffffffffff166040518463ffffffff1660e01b8152600401620006de9392919062001876565b600060405180830381600087803b158015620006f957600080fd5b505af11580156200070e573d6000803e3d6000fd5b505050508060cb60006200072360c962000d6a565b815260200190815260200160002060006101000a81548173ffffffffffffffffffffffffffffffffffffffff021916908373ffffffffffffffffffffffffffffffffffffffff1602179055508273ffffffffffffffffffffffffffffffffffffffff168173ffffffffffffffffffffffffffffffffffffffff167fd0fe6c5b2d1f8e291d71df81c1551cf30e28635b3e74c69f2314eb891e6e5d168434604051620007d0929190620018b3565b60405180910390a3505050565b60cb6020528060005260406000206000915054906101000a900473ffffffffffffffffffffffffffffffffffffffff1681565b7f65d7a28e3265b37a6474929f336521b332c1681b933f6cb9f3376673440d862a6200083c8162000afe565b6200084662000d78565b50565b60006097600084815260200190815260200160002060000160008373ffffffffffffffffffffffffffffffffffffffff1673ffffffffffffffffffffffffffffffffffffffff16815260200190815260200160002060009054906101000a900460ff16905092915050565b6000801b81565b60008060019054906101000a900460ff16159050808015620008ed5750600160008054906101000a900460ff1660ff16105b806200091e5750620008ff3062000de1565b1580156200091d5750600160008054906101000a900460ff1660ff16145b5b62000960576040517f08c379a0000000000000000000000000000000000000000000000000000000008152600401620009579062001956565b60405180910390fd5b60016000806101000a81548160ff021916908360ff16021790555080156200099e576001600060016101000a81548160ff0219169083151502179055505b620009a862000e04565b8160ca60006101000a81548173ffffffffffffffffffffffffffffffffffffffff021916908373ffffffffffffffffffffffffffffffffffffffff160217905550801562000a455760008060016101000a81548160ff0219169083151502179055507f7f26b83ff96e1f2b6a682f133852f6798a09c465da95921460cefb3847402498600160405162000a3c9190620019d2565b60405180910390a15b5050565b62000a548262000420565b62000a5f8162000afe565b62000a6b838362000c04565b505050565b7f65d7a28e3265b37a6474929f336521b332c1681b933f6cb9f3376673440d862a81565b60007f01ffc9a7000000000000000000000000000000000000000000000000000000007bffffffffffffffffffffffffffffffffffffffffffffffffffffffff1916827bffffffffffffffffffffffffffffffffffffffffffffffffffffffff1916149050919050565b62000b138162000b0d62000bfc565b62000e62565b50565b62000b22828262000849565b62000bf85760016097600084815260200190815260200160002060000160008373ffffffffffffffffffffffffffffffffffffffff1673ffffffffffffffffffffffffffffffffffffffff16815260200190815260200160002060006101000a81548160ff02191690831515021790555062000b9d62000bfc565b73ffffffffffffffffffffffffffffffffffffffff168173ffffffffffffffffffffffffffffffffffffffff16837f2f8788117e7eff1d82e926ec794901d17c78024a50270940304540a733656f0d60405160405180910390a45b5050565b600033905090565b62000c10828262000849565b1562000ce75760006097600084815260200190815260200160002060000160008373ffffffffffffffffffffffffffffffffffffffff1673ffffffffffffffffffffffffffffffffffffffff16815260200190815260200160002060006101000a81548160ff02191690831515021790555062000c8c62000bfc565b73ffffffffffffffffffffffffffffffffffffffff168173ffffffffffffffffffffffffffffffffffffffff16837ff6391f5c32d9c69d2a47ea670b442974b53935d1edc7fd64eb21e047a839171b60405160405180910390a45b5050565b62000cf562000f0a565b6000603360006101000a81548160ff0219169083151502179055507f5db9ee0a495bf2e6ff9c91a7834c1ba4fdd244a5e8aa4e537bd38aeae4b073aa62000d3b62000bfc565b60405162000d4a919062001559565b60405180910390a1565b6001816000016000828254019250508190555050565b600081600001549050919050565b62000d8262000f58565b6001603360006101000a81548160ff0219169083151502179055507f62e78cea01bee320cd4e420270b5ea74000d11b0c9f74754ebdbfc544b05a25862000dc862000bfc565b60405162000dd7919062001559565b60405180910390a1565b6000808273ffffffffffffffffffffffffffffffffffffffff163b119050919050565b600060019054906101000a900460ff1662000e56576040517f08c379a000000000000000000000000000000000000000000000000000000000815260040162000e4d9062001a65565b60405180910390fd5b62000e6062000fa7565b565b62000e6e828262000849565b62000f065762000e968173ffffffffffffffffffffffffffffffffffffffff16601462001016565b62000ea68360001c602062001016565b60405160200162000eb992919062001baa565b6040516020818303038152906040526040517f08c379a000000000000000000000000000000000000000000000000000000000815260040162000efd919062001c3e565b60405180910390fd5b5050565b62000f146200052a565b62000f56576040517f08c379a000000000000000000000000000000000000000000000000000000000815260040162000f4d9062001cb2565b60405180910390fd5b565b62000f626200052a565b1562000fa5576040517f08c379a000000000000000000000000000000000000000000000000000000000815260040162000f9c9062001d24565b60405180910390fd5b565b600060019054906101000a900460ff1662000ff9576040517f08c379a000000000000000000000000000000000000000000000000000000000815260040162000ff09062001a65565b60405180910390fd5b6000603360006101000a81548160ff021916908315150217905550565b6060600060028360026200102b919062001d75565b62001037919062001dd6565b67ffffffffffffffff81111562001053576200105262001e33565b5b6040519080825280601f01601f191660200182016040528015620010865781602001600182028036833780820191505090505b5090507f300000000000000000000000000000000000000000000000000000000000000081600081518110620010c157620010c062001e62565b5b60200101907effffffffffffffffffffffffffffffffffffffffffffffffffffffffffffff1916908160001a9053507f78000000000000000000000000000000000000000000000000000000000000008160018151811062001128576200112762001e62565b5b60200101907effffffffffffffffffffffffffffffffffffffffffffffffffffffffffffff1916908160001a905350600060018460026200116a919062001d75565b62001176919062001dd6565b90505b600181111562001220577f3031323334353637383961626364656600000000000000000000000000000000600f861660108110620011bc57620011bb62001e62565b5b1a60f81b828281518110620011d657620011d562001e62565b5b60200101907effffffffffffffffffffffffffffffffffffffffffffffffffffffffffffff1916908160001a905350600485901c945080620012189062001e91565b905062001179565b506000841462001267576040517f08c379a00000000000000000000000000000000000000000000000000000000081526004016200125e9062001f10565b60405180910390fd5b8091505092915050565b615a668062001f3383390190565b600080fd5b60007fffffffff0000000000000000000000000000000000000000000000000000000082169050919050565b620012bb8162001284565b8114620012c757600080fd5b50565b600081359050620012db81620012b0565b92915050565b600060208284031215620012fa57620012f96200127f565b5b60006200130a84828501620012ca565b91505092915050565b60008115159050919050565b6200132a8162001313565b82525050565b60006020820190506200134760008301846200131f565b92915050565b6000819050919050565b62001362816200134d565b81146200136e57600080fd5b50565b600081359050620013828162001357565b92915050565b600060208284031215620013a157620013a06200127f565b5b6000620013b18482850162001371565b91505092915050565b620013c5816200134d565b82525050565b6000602082019050620013e26000830184620013ba565b92915050565b600073ffffffffffffffffffffffffffffffffffffffff82169050919050565b60006200141582620013e8565b9050919050565b620014278162001408565b81146200143357600080fd5b50565b60008135905062001447816200141c565b92915050565b600080604083850312156200146757620014666200127f565b5b6000620014778582860162001371565b92505060206200148a8582860162001436565b9150509250929050565b6000819050919050565b620014a98162001494565b8114620014b557600080fd5b50565b600081359050620014c9816200149e565b92915050565b60008060408385031215620014e957620014e86200127f565b5b6000620014f98582860162001436565b92505060206200150c85828601620014b8565b9150509250929050565b6000602082840312156200152f576200152e6200127f565b5b60006200153f84828501620014b8565b91505092915050565b620015538162001408565b82525050565b600060208201905062001570600083018462001548565b92915050565b6000602082840312156200158f576200158e6200127f565b5b60006200159f8482850162001436565b91505092915050565b600082825260208201905092915050565b7f416363657373436f6e74726f6c3a2063616e206f6e6c792072656e6f756e636560008201527f20726f6c657320666f722073656c660000000000000000000000000000000000602082015250565b600062001617602f83620015a8565b91506200162482620015b9565b604082019050919050565b600060208201905081810360008301526200164a8162001608565b9050919050565b7f536f756c46756e64466163746f72792e6465706c6f794e6577536f756c46756e60008201527f643a206d7573742068617665206174206c65617374206f6e652062656e65666960208201527f6369617279000000000000000000000000000000000000000000000000000000604082015250565b6000620016d5604583620015a8565b9150620016e28262001651565b606082019050919050565b600060208201905081810360008301526200170881620016c6565b9050919050565b7f536f756c46756e64466163746f72792e6465706c6f794e6577536f756c46756e60008201527f643a2076657374696e67206d75737420626520736f6d6574696d6520696e207460208201527f6865206675747572650000000000000000000000000000000000000000000000604082015250565b600062001793604983620015a8565b9150620017a0826200170f565b606082019050919050565b60006020820190508181036000830152620017c68162001784565b9050919050565b7f536f756c46756e64466163746f72792e6465706c6f794e6577536f756c46756e60008201527f643a206e6f2066756e6473206465706f73697465640000000000000000000000602082015250565b60006200182b603583620015a8565b91506200183882620017cd565b604082019050919050565b600060208201905081810360008301526200185e816200181c565b9050919050565b620018708162001494565b82525050565b60006060820190506200188d600083018662001548565b6200189c602083018562001865565b620018ab604083018462001548565b949350505050565b6000604082019050620018ca600083018562001865565b620018d9602083018462001865565b9392505050565b7f496e697469616c697a61626c653a20636f6e747261637420697320616c72656160008201527f647920696e697469616c697a6564000000000000000000000000000000000000602082015250565b60006200193e602e83620015a8565b91506200194b82620018e0565b604082019050919050565b6000602082019050818103600083015262001971816200192f565b9050919050565b6000819050919050565b600060ff82169050919050565b6000819050919050565b6000620019ba620019b4620019ae8462001978565b6200198f565b62001982565b9050919050565b620019cc8162001999565b82525050565b6000602082019050620019e96000830184620019c1565b92915050565b7f496e697469616c697a61626c653a20636f6e7472616374206973206e6f74206960008201527f6e697469616c697a696e67000000000000000000000000000000000000000000602082015250565b600062001a4d602b83620015a8565b915062001a5a82620019ef565b604082019050919050565b6000602082019050818103600083015262001a808162001a3e565b9050919050565b600081905092915050565b7f416363657373436f6e74726f6c3a206163636f756e7420000000000000000000600082015250565b600062001aca60178362001a87565b915062001ad78262001a92565b601782019050919050565b600081519050919050565b60005b8381101562001b0d57808201518184015260208101905062001af0565b8381111562001b1d576000848401525b50505050565b600062001b308262001ae2565b62001b3c818562001a87565b935062001b4e81856020860162001aed565b80840191505092915050565b7f206973206d697373696e6720726f6c6520000000000000000000000000000000600082015250565b600062001b9260118362001a87565b915062001b9f8262001b5a565b601182019050919050565b600062001bb78262001abb565b915062001bc5828562001b23565b915062001bd28262001b83565b915062001be0828462001b23565b91508190509392505050565b6000601f19601f8301169050919050565b600062001c0a8262001ae2565b62001c168185620015a8565b935062001c2881856020860162001aed565b62001c338162001bec565b840191505092915050565b6000602082019050818103600083015262001c5a818462001bfd565b905092915050565b7f5061757361626c653a206e6f7420706175736564000000000000000000000000600082015250565b600062001c9a601483620015a8565b915062001ca78262001c62565b602082019050919050565b6000602082019050818103600083015262001ccd8162001c8b565b9050919050565b7f5061757361626c653a2070617573656400000000000000000000000000000000600082015250565b600062001d0c601083620015a8565b915062001d198262001cd4565b602082019050919050565b6000602082019050818103600083015262001d3f8162001cfd565b9050919050565b7f4e487b7100000000000000000000000000000000000000000000000000000000600052601160045260246000fd5b600062001d828262001494565b915062001d8f8362001494565b9250817fffffffffffffffffffffffffffffffffffffffffffffffffffffffffffffffff048311821515161562001dcb5762001dca62001d46565b5b828202905092915050565b600062001de38262001494565b915062001df08362001494565b9250827fffffffffffffffffffffffffffffffffffffffffffffffffffffffffffffffff0382111562001e285762001e2762001d46565b5b828201905092915050565b7f4e487b7100000000000000000000000000000000000000000000000000000000600052604160045260246000fd5b7f4e487b7100000000000000000000000000000000000000000000000000000000600052603260045260246000fd5b600062001e9e8262001494565b9150600082141562001eb55762001eb462001d46565b5b600182039050919050565b7f537472696e67733a20686578206c656e67746820696e73756666696369656e74600082015250565b600062001ef8602083620015a8565b915062001f058262001ec0565b602082019050919050565b6000602082019050818103600083015262001f2b8162001ee9565b905091905056fe6080604052620000146200001a60201b60201c565b620001c5565b600060019054906101000a900460ff16156200006d576040517f08c379a0000000000000000000000000000000000000000000000000000000008152600401620000649062000168565b60405180910390fd5b60ff801660008054906101000a900460ff1660ff161015620000df5760ff6000806101000a81548160ff021916908360ff1602179055507f7f26b83ff96e1f2b6a682f133852f6798a09c465da95921460cefb384740249860ff604051620000d69190620001a8565b60405180910390a15b565b600082825260208201905092915050565b7f496e697469616c697a61626c653a20636f6e747261637420697320696e69746960008201527f616c697a696e6700000000000000000000000000000000000000000000000000602082015250565b600062000150602783620000e1565b91506200015d82620000f2565b604082019050919050565b60006020820190508181036000830152620001838162000141565b9050919050565b600060ff82169050919050565b620001a2816200018a565b82525050565b6000602082019050620001bf600083018462000197565b92915050565b61589180620001d56000396000f3fe6080604052600436106102305760003560e01c80639590cf751161012e578063cef5234f116100ab578063e63ab1e91161006f578063e63ab1e91461085b578063e985e9c514610886578063f94c0a11146108c3578063fdb0467a146108ee578063fedce7a81461090a57610230565b8063cef5234f14610771578063d547741f146107ae578063d6706328146107d7578063d8f5df66146107f3578063db4796c01461081e57610230565b8063b7134dfa116100f2578063b7134dfa14610686578063b88d4fde146106c4578063c350a1b5146106ed578063c87b56dd14610709578063ced3a4031461074657610230565b80639590cf75146105ae57806395d89b41146105ca5780639e42ce18146105f5578063a217fddf14610632578063a22cb4651461065d57610230565b806340d097c3116101bc5780636352211e116101805780636352211e146104b557806370a08231146104f25780637ef656091461052f5780638456cb591461055a57806391d148541461057157610230565b806340d097c3146103d257806342842e0e146103fb578063438a8ece14610424578063551d4f2a146104615780635c975abb1461048a57610230565b806323b872dd1161020357806323b872dd14610303578063248a9ca31461032c5780632f2ff15d1461036957806336568abe146103925780633f4ba83a146103bb57610230565b806301ffc9a71461023557806306fdde0314610272578063081812fc1461029d578063095ea7b3146102da575b600080fd5b34801561024157600080fd5b5061025c6004803603810190610257919061399c565b610947565b60405161026991906139e4565b60405180910390f35b34801561027e57600080fd5b50610287610959565b6040516102949190613a98565b60405180910390f35b3480156102a957600080fd5b506102c460048036038101906102bf9190613af0565b6109eb565b6040516102d19190613b5e565b60405180910390f35b3480156102e657600080fd5b5061030160048036038101906102fc9190613ba5565b610a31565b005b34801561030f57600080fd5b5061032a60048036038101906103259190613be5565b610b49565b005b34801561033857600080fd5b50610353600480360381019061034e9190613c6e565b610ba9565b6040516103609190613caa565b60405180910390f35b34801561037557600080fd5b50610390600480360381019061038b9190613cc5565b610bc9565b005b34801561039e57600080fd5b506103b960048036038101906103b49190613cc5565b610bea565b005b3480156103c757600080fd5b506103d0610c6d565b005b3480156103de57600080fd5b506103f960048036038101906103f49190613d05565b610ca2565b005b34801561040757600080fd5b50610422600480360381019061041d9190613be5565b610cf3565b005b34801561043057600080fd5b5061044b60048036038101906104469190613d32565b610d13565b6040516104589190613d81565b60405180910390f35b34801561046d57600080fd5b5061048860048036038101906104839190613ba5565b610d39565b005b34801561049657600080fd5b5061049f610eff565b6040516104ac91906139e4565b60405180910390f35b3480156104c157600080fd5b506104dc60048036038101906104d79190613af0565b610f16565b6040516104e99190613b5e565b60405180910390f35b3480156104fe57600080fd5b5061051960048036038101906105149190613d05565b610fc8565b6040516105269190613d81565b60405180910390f35b34801561053b57600080fd5b50610544611080565b6040516105519190613d81565b60405180910390f35b34801561056657600080fd5b5061056f611086565b005b34801561057d57600080fd5b5061059860048036038101906105939190613cc5565b6110bb565b6040516105a591906139e4565b60405180910390f35b6105c860048036038101906105c39190613af0565b611126565b005b3480156105d657600080fd5b506105df6111ec565b6040516105ec9190613a98565b60405180910390f35b34801561060157600080fd5b5061061c60048036038101906106179190613af0565b61127e565b6040516106299190613d81565b60405180910390f35b34801561063e57600080fd5b50610647611297565b6040516106549190613caa565b60405180910390f35b34801561066957600080fd5b50610684600480360381019061067f9190613dc8565b61129e565b005b34801561069257600080fd5b506106ad60048036038101906106a89190613e08565b6112b4565b6040516106bb929190613e48565b60405180910390f35b3480156106d057600080fd5b506106eb60048036038101906106e69190613fa6565b61130b565b005b61070760048036038101906107029190614029565b61136d565b005b34801561071557600080fd5b50610730600480360381019061072b9190613af0565b6115fe565b60405161073d9190613a98565b60405180910390f35b34801561075257600080fd5b5061075b611702565b6040516107689190613caa565b60405180910390f35b34801561077d57600080fd5b5061079860048036038101906107939190613d32565b611726565b6040516107a591906139e4565b60405180910390f35b3480156107ba57600080fd5b506107d560048036038101906107d09190613cc5565b611755565b005b6107f160048036038101906107ec919061407c565b611776565b005b3480156107ff57600080fd5b50610808611ba4565b6040516108159190613d81565b60405180910390f35b34801561082a57600080fd5b5061084560048036038101906108409190613af0565b611baa565b60405161085291906141b8565b60405180910390f35b34801561086757600080fd5b50610870611c6f565b60405161087d9190613caa565b60405180910390f35b34801561089257600080fd5b506108ad60048036038101906108a891906141d4565b611c93565b6040516108ba91906139e4565b60405180910390f35b3480156108cf57600080fd5b506108d8611d27565b6040516108e59190613caa565b60405180910390f35b61090860048036038101906109039190614214565b611d4b565b005b34801561091657600080fd5b50610931600480360381019061092c9190613d32565b612107565b60405161093e91906139e4565b60405180910390f35b600061095282612136565b9050919050565b60606065805461096890614296565b80601f016020809104026020016040519081016040528092919081815260200182805461099490614296565b80156109e15780601f106109b6576101008083540402835291602001916109e1565b820191906000526020600020905b8154815290600101906020018083116109c457829003601f168201915b5050505050905090565b60006109f6826121b0565b6069600083815260200190815260200160002060009054906101000a900473ffffffffffffffffffffffffffffffffffffffff169050919050565b6000610a3c82610f16565b90508073ffffffffffffffffffffffffffffffffffffffff168373ffffffffffffffffffffffffffffffffffffffff161415610aad576040517f08c379a0000000000000000000000000000000000000000000000000000000008152600401610aa49061433a565b60405180910390fd5b8073ffffffffffffffffffffffffffffffffffffffff16610acc6121fb565b73ffffffffffffffffffffffffffffffffffffffff161480610afb5750610afa81610af56121fb565b611c93565b5b610b3a576040517f08c379a0000000000000000000000000000000000000000000000000000000008152600401610b31906143cc565b60405180910390fd5b610b448383612203565b505050565b610b5a610b546121fb565b826122bc565b610b99576040517f08c379a0000000000000000000000000000000000000000000000000000000008152600401610b909061445e565b60405180910390fd5b610ba4838383612351565b505050565b600060c96000838152602001908152602001600020600101549050919050565b610bd282610ba9565b610bdb816125b8565b610be583836125cc565b505050565b610bf26121fb565b73ffffffffffffffffffffffffffffffffffffffff168173ffffffffffffffffffffffffffffffffffffffff1614610c5f576040517f08c379a0000000000000000000000000000000000000000000000000000000008152600401610c56906144f0565b60405180910390fd5b610c6982826126ad565b5050565b7f65d7a28e3265b37a6474929f336521b332c1681b933f6cb9f3376673440d862a610c97816125b8565b610c9f61278f565b50565b7f2dee5dd865e09c7ce6788d674a03682994f0b44339403ca07ac129a9de4bed6a610ccc816125b8565b6000610cd860fb6127f2565b9050610ce460fb612800565b610cee8382612816565b505050565b610d0e8383836040518060200160405280600081525061130b565b505050565b610100602052816000526040600020602052806000526040600020600091509150505481565b6000801b610d46816125b8565b6000151560fd600084815260200190815260200160002060008573ffffffffffffffffffffffffffffffffffffffff1673ffffffffffffffffffffffffffffffffffffffff16815260200190815260200160002060009054906101000a900460ff16151514610dea576040517f08c379a0000000000000000000000000000000000000000000000000000000008152600401610de190614582565b60405180910390fd5b600073ffffffffffffffffffffffffffffffffffffffff168373ffffffffffffffffffffffffffffffffffffffff161415610e5a576040517f08c379a0000000000000000000000000000000000000000000000000000000008152600401610e5190614614565b60405180910390fd5b600160fd600084815260200190815260200160002060008573ffffffffffffffffffffffffffffffffffffffff1673ffffffffffffffffffffffffffffffffffffffff16815260200190815260200160002060006101000a81548160ff0219169083151502179055507f4864b3cb8ddce996e7c5f8ec0a006b69d432e6a5df2acff97f2a5ae75ff78f9783604051610ef29190613b5e565b60405180910390a1505050565b6000609760009054906101000a900460ff16905090565b6000806067600084815260200190815260200160002060009054906101000a900473ffffffffffffffffffffffffffffffffffffffff169050600073ffffffffffffffffffffffffffffffffffffffff168173ffffffffffffffffffffffffffffffffffffffff161415610fbf576040517f08c379a0000000000000000000000000000000000000000000000000000000008152600401610fb690614680565b60405180910390fd5b80915050919050565b60008073ffffffffffffffffffffffffffffffffffffffff168273ffffffffffffffffffffffffffffffffffffffff161415611039576040517f08c379a000000000000000000000000000000000000000000000000000000000815260040161103090614712565b60405180910390fd5b606860008373ffffffffffffffffffffffffffffffffffffffff1673ffffffffffffffffffffffffffffffffffffffff168152602001908152602001600020549050919050565b6101f481565b7f65d7a28e3265b37a6474929f336521b332c1681b933f6cb9f3376673440d862a6110b0816125b8565b6110b8612834565b50565b600060c9600084815260200190815260200160002060000160008373ffffffffffffffffffffffffffffffffffffffff1673ffffffffffffffffffffffffffffffffffffffff16815260200190815260200160002060009054906101000a900460ff16905092915050565b600073ffffffffffffffffffffffffffffffffffffffff1661114782610f16565b73ffffffffffffffffffffffffffffffffffffffff16141561119e576040517f08c379a0000000000000000000000000000000000000000000000000000000008152600401611195906147a4565b60405180910390fd5b6111a9816001612897565b6000600190507f34ef4ac64e0eac8a04fe2b95d0d037921287716ff3019d01b6712d2e9507509582826040516111e09291906147c4565b60405180910390a15050565b6060606680546111fb90614296565b80601f016020809104026020016040519081016040528092919081815260200182805461122790614296565b80156112745780601f1061124957610100808354040283529160200191611274565b820191906000526020600020905b81548152906001019060200180831161125757829003601f168201915b5050505050905090565b6101016020528060005260406000206000915090505481565b6000801b81565b6112b06112a96121fb565b8383612acf565b5050565b60ff60205281600052604060002081600581106112d057600080fd5b60020201600091509150508060000160009054906101000a900473ffffffffffffffffffffffffffffffffffffffff16908060010154905082565b61131c6113166121fb565b836122bc565b61135b576040517f08c379a00000000000000000000000000000000000000000000000000000000081526004016113529061445e565b60405180910390fd5b61136784848484612c3c565b50505050565b60008060019054906101000a900460ff1615905080801561139e5750600160008054906101000a900460ff1660ff16105b806113cb57506113ad30612c98565b1580156113ca5750600160008054906101000a900460ff1660ff16145b5b61140a576040517f08c379a00000000000000000000000000000000000000000000000000000000081526004016114019061485f565b60405180910390fd5b60016000806101000a81548160ff021916908360ff1602179055508015611447576001600060016101000a81548160ff0219169083151502179055505b6114bb6040518060400160405280600881526020017f536f756c46756e640000000000000000000000000000000000000000000000008152506040518060400160405280600381526020017f534c460000000000000000000000000000000000000000000000000000000000815250612cbb565b6114c3612d18565b6114cb612d71565b6114d86000801b336125cc565b6115027f65d7a28e3265b37a6474929f336521b332c1681b933f6cb9f3376673440d862a336125cc565b61152c7f2dee5dd865e09c7ce6788d674a03682994f0b44339403ca07ac129a9de4bed6a336125cc565b6115567fc8a41221bcd7fcf2c225f5a9265e1d4d39949d89197159d59e5f4b87b62c419e856125cc565b8260fc819055508161010260006101000a81548173ffffffffffffffffffffffffffffffffffffffff021916908373ffffffffffffffffffffffffffffffffffffffff16021790555080156115f85760008060016101000a81548160ff0219169083151502179055507f7f26b83ff96e1f2b6a682f133852f6798a09c465da95921460cefb384740249860016040516115ef91906148d1565b60405180910390a15b50505050565b606061160982612dc2565b611648576040517f08c379a000000000000000000000000000000000000000000000000000000000815260040161163f90614938565b60405180910390fd5b61010260009054906101000a900473ffffffffffffffffffffffffffffffffffffffff1673ffffffffffffffffffffffffffffffffffffffff1663611fc46930846040518363ffffffff1660e01b81526004016116a6929190613e48565b60006040518083038186803b1580156116be57600080fd5b505afa1580156116d2573d6000803e3d6000fd5b505050506040513d6000823e3d601f19601f820116820180604052508101906116fb91906149f9565b9050919050565b7fc8a41221bcd7fcf2c225f5a9265e1d4d39949d89197159d59e5f4b87b62c419e81565b60fe6020528160005260406000206020528060005260406000206000915091509054906101000a900460ff1681565b61175e82610ba9565b611767816125b8565b61177183836126ad565b505050565b7f2dee5dd865e09c7ce6788d674a03682994f0b44339403ca07ac129a9de4bed6a6117a0816125b8565b6000610100600086815260200190815260200160002060008573ffffffffffffffffffffffffffffffffffffffff1673ffffffffffffffffffffffffffffffffffffffff168152602001908152602001600020541015801561181657506005610101600086815260200190815260200160002054105b611855576040517f08c379a000000000000000000000000000000000000000000000000000000000815260040161184c90614ab4565b60405180910390fd5b6000610100600086815260200190815260200160002060008573ffffffffffffffffffffffffffffffffffffffff1673ffffffffffffffffffffffffffffffffffffffff1681526020019081526020016000205490506000811415611a0857610101600086815260200190815260200160002060008154809291906118d990614b03565b9190505550610101600086815260200190815260200160002054610100600087815260200190815260200160002060008673ffffffffffffffffffffffffffffffffffffffff1673ffffffffffffffffffffffffffffffffffffffff16815260200190815260200160002081905550610100600086815260200190815260200160002060008573ffffffffffffffffffffffffffffffffffffffff1673ffffffffffffffffffffffffffffffffffffffff1681526020019081526020016000205490508360ff600087815260200190815260200160002082600581106119c2576119c1614b4c565b5b6002020160000160006101000a81548173ffffffffffffffffffffffffffffffffffffffff021916908373ffffffffffffffffffffffffffffffffffffffff1602179055505b600073ffffffffffffffffffffffffffffffffffffffff168473ffffffffffffffffffffffffffffffffffffffff161415611a8457823414611a7f576040517f08c379a0000000000000000000000000000000000000000000000000000000008152600401611a7690614bed565b60405180910390fd5b611b15565b8373ffffffffffffffffffffffffffffffffffffffff166323b872dd3330866040518463ffffffff1660e01b8152600401611ac193929190614c0d565b602060405180830381600087803b158015611adb57600080fd5b505af1158015611aef573d6000803e3d6000fd5b505050506040513d601f19601f82011682018060405250810190611b139190614c59565b505b8260ff60008781526020019081526020016000208260058110611b3b57611b3a614b4c565b5b600202016001016000828254611b519190614c86565b925050819055507f03b9932ccfcbee04cee8cedad7802dbe5c786c57591e9a7cd4c8fea13b13be82858585611b8589610f16565b604051611b959493929190614cdc565b60405180910390a15050505050565b60fc5481565b611bb2613830565b60ff6000838152602001908152602001600020600580602002604051908101604052809291906000905b82821015611c64578382600202016040518060400160405290816000820160009054906101000a900473ffffffffffffffffffffffffffffffffffffffff1673ffffffffffffffffffffffffffffffffffffffff1673ffffffffffffffffffffffffffffffffffffffff16815260200160018201548152505081526020019060010190611bdc565b505050509050919050565b7f65d7a28e3265b37a6474929f336521b332c1681b933f6cb9f3376673440d862a81565b6000606a60008473ffffffffffffffffffffffffffffffffffffffff1673ffffffffffffffffffffffffffffffffffffffff16815260200190815260200160002060008373ffffffffffffffffffffffffffffffffffffffff1673ffffffffffffffffffffffffffffffffffffffff16815260200190815260200160002060009054906101000a900460ff16905092915050565b7f2dee5dd865e09c7ce6788d674a03682994f0b44339403ca07ac129a9de4bed6a81565b60fd600083815260200190815260200160002060008473ffffffffffffffffffffffffffffffffffffffff1673ffffffffffffffffffffffffffffffffffffffff16815260200190815260200160002060009054906101000a900460ff16611de8576040517f08c379a0000000000000000000000000000000000000000000000000000000008152600401611ddf90614d93565b60405180910390fd5b6000611df383610f16565b90508073ffffffffffffffffffffffffffffffffffffffff168473ffffffffffffffffffffffffffffffffffffffff16636352211e846040518263ffffffff1660e01b8152600401611e459190613d81565b60206040518083038186803b158015611e5d57600080fd5b505afa158015611e71573d6000803e3d6000fd5b505050506040513d601f19601f82011682018060405250810190611e959190614dc8565b73ffffffffffffffffffffffffffffffffffffffff1614611eeb576040517f08c379a0000000000000000000000000000000000000000000000000000000008152600401611ee290614e8d565b60405180910390fd5b600073ffffffffffffffffffffffffffffffffffffffff16611f0c84610f16565b73ffffffffffffffffffffffffffffffffffffffff161415611f63576040517f08c379a0000000000000000000000000000000000000000000000000000000008152600401611f5a906147a4565b60405180910390fd5b60fe600083815260200190815260200160002060008573ffffffffffffffffffffffffffffffffffffffff1673ffffffffffffffffffffffffffffffffffffffff16815260200190815260200160002060009054906101000a900460ff1615612001576040517f08c379a0000000000000000000000000000000000000000000000000000000008152600401611ff890614f1f565b60405180910390fd5b61200d836101f4612897565b600060019050600160fe600085815260200190815260200160002060008773ffffffffffffffffffffffffffffffffffffffff1673ffffffffffffffffffffffffffffffffffffffff16815260200190815260200160002060006101000a81548160ff0219169083151502179055508173ffffffffffffffffffffffffffffffffffffffff166108fc829081150290604051600060405180830381858888f193505050501580156120c2573d6000803e3d6000fd5b507f1063fb17e9a9b2ee9e38c97a5ded9fa5840d8f7023bebf0b0e0489f2e1344bbb848287866040516120f89493929190614f3f565b60405180910390a15050505050565b60fd6020528160005260406000206020528060005260406000206000915091509054906101000a900460ff1681565b60007f7965db0b000000000000000000000000000000000000000000000000000000007bffffffffffffffffffffffffffffffffffffffffffffffffffffffff1916827bffffffffffffffffffffffffffffffffffffffffffffffffffffffff191614806121a957506121a882612e2e565b5b9050919050565b6121b981612dc2565b6121f8576040517f08c379a00000000000000000000000000000000000000000000000000000000081526004016121ef90614680565b60405180910390fd5b50565b600033905090565b816069600083815260200190815260200160002060006101000a81548173ffffffffffffffffffffffffffffffffffffffff021916908373ffffffffffffffffffffffffffffffffffffffff160217905550808273ffffffffffffffffffffffffffffffffffffffff1661227683610f16565b73ffffffffffffffffffffffffffffffffffffffff167f8c5be1e5ebec7d5bd14f71427d1e84f3dd0314c0f7b2291e5b200ac8c7c3b92560405160405180910390a45050565b6000806122c883610f16565b90508073ffffffffffffffffffffffffffffffffffffffff168473ffffffffffffffffffffffffffffffffffffffff16148061230a57506123098185611c93565b5b8061234857508373ffffffffffffffffffffffffffffffffffffffff16612330846109eb565b73ffffffffffffffffffffffffffffffffffffffff16145b91505092915050565b8273ffffffffffffffffffffffffffffffffffffffff1661237182610f16565b73ffffffffffffffffffffffffffffffffffffffff16146123c7576040517f08c379a00000000000000000000000000000000000000000000000000000000081526004016123be90614ff6565b60405180910390fd5b600073ffffffffffffffffffffffffffffffffffffffff168273ffffffffffffffffffffffffffffffffffffffff161415612437576040517f08c379a000000000000000000000000000000000000000000000000000000000815260040161242e90615088565b60405180910390fd5b612442838383612f10565b61244d600082612203565b6001606860008573ffffffffffffffffffffffffffffffffffffffff1673ffffffffffffffffffffffffffffffffffffffff168152602001908152602001600020600082825461249d91906150a8565b925050819055506001606860008473ffffffffffffffffffffffffffffffffffffffff1673ffffffffffffffffffffffffffffffffffffffff16815260200190815260200160002060008282546124f49190614c86565b92505081905550816067600083815260200190815260200160002060006101000a81548173ffffffffffffffffffffffffffffffffffffffff021916908373ffffffffffffffffffffffffffffffffffffffff160217905550808273ffffffffffffffffffffffffffffffffffffffff168473ffffffffffffffffffffffffffffffffffffffff167fddf252ad1be2c89b69c2b068fc378daa952ba7f163c4a11628f55a4df523b3ef60405160405180910390a46125b3838383612f97565b505050565b6125c9816125c46121fb565b612f9c565b50565b6125d682826110bb565b6126a957600160c9600084815260200190815260200160002060000160008373ffffffffffffffffffffffffffffffffffffffff1673ffffffffffffffffffffffffffffffffffffffff16815260200190815260200160002060006101000a81548160ff02191690831515021790555061264e6121fb565b73ffffffffffffffffffffffffffffffffffffffff168173ffffffffffffffffffffffffffffffffffffffff16837f2f8788117e7eff1d82e926ec794901d17c78024a50270940304540a733656f0d60405160405180910390a45b5050565b6126b782826110bb565b1561278b57600060c9600084815260200190815260200160002060000160008373ffffffffffffffffffffffffffffffffffffffff1673ffffffffffffffffffffffffffffffffffffffff16815260200190815260200160002060006101000a81548160ff0219169083151502179055506127306121fb565b73ffffffffffffffffffffffffffffffffffffffff168173ffffffffffffffffffffffffffffffffffffffff16837ff6391f5c32d9c69d2a47ea670b442974b53935d1edc7fd64eb21e047a839171b60405160405180910390a45b5050565b612797613039565b6000609760006101000a81548160ff0219169083151502179055507f5db9ee0a495bf2e6ff9c91a7834c1ba4fdd244a5e8aa4e537bd38aeae4b073aa6127db6121fb565b6040516127e89190613b5e565b60405180910390a1565b600081600001549050919050565b6001816000016000828254019250508190555050565b612830828260405180602001604052806000815250613082565b5050565b61283c6130dd565b6001609760006101000a81548160ff0219169083151502179055507f62e78cea01bee320cd4e420270b5ea74000d11b0c9f74754ebdbfc544b05a2586128806121fb565b60405161288d9190613b5e565b60405180910390a1565b6127108111156128dc576040517f08c379a00000000000000000000000000000000000000000000000000000000081526004016128d390615128565b60405180910390fd5b60005b610101600084815260200190815260200160002054811015612aca57600060ff6000858152602001908152602001600020826005811061292257612921614b4c565b5b6002020160000160009054906101000a900473ffffffffffffffffffffffffffffffffffffffff16905060006127108460ff6000888152602001908152602001600020856005811061297757612976614b4c565b5b60020201600101546129899190615148565b61299391906151d1565b9050600073ffffffffffffffffffffffffffffffffffffffff168273ffffffffffffffffffffffffffffffffffffffff161415612a1e576129d385610f16565b73ffffffffffffffffffffffffffffffffffffffff166108fc829081150290604051600060405180830381858888f19350505050158015612a18573d6000803e3d6000fd5b50612ab5565b8173ffffffffffffffffffffffffffffffffffffffff1663a9059cbb612a4387610f16565b836040518363ffffffff1660e01b8152600401612a61929190613e48565b602060405180830381600087803b158015612a7b57600080fd5b505af1158015612a8f573d6000803e3d6000fd5b505050506040513d601f19601f82011682018060405250810190612ab39190614c59565b505b50508080612ac290614b03565b9150506128df565b505050565b8173ffffffffffffffffffffffffffffffffffffffff168373ffffffffffffffffffffffffffffffffffffffff161415612b3e576040517f08c379a0000000000000000000000000000000000000000000000000000000008152600401612b359061524e565b60405180910390fd5b80606a60008573ffffffffffffffffffffffffffffffffffffffff1673ffffffffffffffffffffffffffffffffffffffff16815260200190815260200160002060008473ffffffffffffffffffffffffffffffffffffffff1673ffffffffffffffffffffffffffffffffffffffff16815260200190815260200160002060006101000a81548160ff0219169083151502179055508173ffffffffffffffffffffffffffffffffffffffff168373ffffffffffffffffffffffffffffffffffffffff167f17307eab39ab6107e8899845ad3d59bd9653f200f220920489ca2b5937696c3183604051612c2f91906139e4565b60405180910390a3505050565b612c47848484612351565b612c5384848484613127565b612c92576040517f08c379a0000000000000000000000000000000000000000000000000000000008152600401612c89906152e0565b60405180910390fd5b50505050565b6000808273ffffffffffffffffffffffffffffffffffffffff163b119050919050565b600060019054906101000a900460ff16612d0a576040517f08c379a0000000000000000000000000000000000000000000000000000000008152600401612d0190615372565b60405180910390fd5b612d1482826132be565b5050565b600060019054906101000a900460ff16612d67576040517f08c379a0000000000000000000000000000000000000000000000000000000008152600401612d5e90615372565b60405180910390fd5b612d6f61333f565b565b600060019054906101000a900460ff16612dc0576040517f08c379a0000000000000000000000000000000000000000000000000000000008152600401612db790615372565b60405180910390fd5b565b60008073ffffffffffffffffffffffffffffffffffffffff166067600084815260200190815260200160002060009054906101000a900473ffffffffffffffffffffffffffffffffffffffff1673ffffffffffffffffffffffffffffffffffffffff1614159050919050565b60007f80ac58cd000000000000000000000000000000000000000000000000000000007bffffffffffffffffffffffffffffffffffffffffffffffffffffffff1916827bffffffffffffffffffffffffffffffffffffffffffffffffffffffff19161480612ef957507f5b5e139f000000000000000000000000000000000000000000000000000000007bffffffffffffffffffffffffffffffffffffffffffffffffffffffff1916827bffffffffffffffffffffffffffffffffffffffffffffffffffffffff1916145b80612f095750612f08826133ab565b5b9050919050565b612f186130dd565b600073ffffffffffffffffffffffffffffffffffffffff168373ffffffffffffffffffffffffffffffffffffffff1614612f87576040517f08c379a0000000000000000000000000000000000000000000000000000000008152600401612f7e90615404565b60405180910390fd5b612f92838383613415565b505050565b505050565b612fa682826110bb565b61303557612fcb8173ffffffffffffffffffffffffffffffffffffffff16601461341a565b612fd98360001c602061341a565b604051602001612fea9291906154f8565b6040516020818303038152906040526040517f08c379a000000000000000000000000000000000000000000000000000000000815260040161302c9190613a98565b60405180910390fd5b5050565b613041610eff565b613080576040517f08c379a00000000000000000000000000000000000000000000000000000000081526004016130779061557e565b60405180910390fd5b565b61308c8383613656565b6130996000848484613127565b6130d8576040517f08c379a00000000000000000000000000000000000000000000000000000000081526004016130cf906152e0565b60405180910390fd5b505050565b6130e5610eff565b15613125576040517f08c379a000000000000000000000000000000000000000000000000000000000815260040161311c906155ea565b60405180910390fd5b565b60006131488473ffffffffffffffffffffffffffffffffffffffff16612c98565b156132b1578373ffffffffffffffffffffffffffffffffffffffff1663150b7a026131716121fb565b8786866040518563ffffffff1660e01b8152600401613193949392919061565f565b602060405180830381600087803b1580156131ad57600080fd5b505af19250505080156131de57506040513d601f19601f820116820180604052508101906131db91906156c0565b60015b613261573d806000811461320e576040519150601f19603f3d011682016040523d82523d6000602084013e613213565b606091505b50600081511415613259576040517f08c379a0000000000000000000000000000000000000000000000000000000008152600401613250906152e0565b60405180910390fd5b805181602001fd5b63150b7a0260e01b7bffffffffffffffffffffffffffffffffffffffffffffffffffffffff1916817bffffffffffffffffffffffffffffffffffffffffffffffffffffffff1916149150506132b6565b600190505b949350505050565b600060019054906101000a900460ff1661330d576040517f08c379a000000000000000000000000000000000000000000000000000000000815260040161330490615372565b60405180910390fd5b816065908051906020019061332392919061385d565b50806066908051906020019061333a92919061385d565b505050565b600060019054906101000a900460ff1661338e576040517f08c379a000000000000000000000000000000000000000000000000000000000815260040161338590615372565b60405180910390fd5b6000609760006101000a81548160ff021916908315150217905550565b60007f01ffc9a7000000000000000000000000000000000000000000000000000000007bffffffffffffffffffffffffffffffffffffffffffffffffffffffff1916827bffffffffffffffffffffffffffffffffffffffffffffffffffffffff1916149050919050565b505050565b60606000600283600261342d9190615148565b6134379190614c86565b67ffffffffffffffff8111156134505761344f613e7b565b5b6040519080825280601f01601f1916602001820160405280156134825781602001600182028036833780820191505090505b5090507f3000000000000000000000000000000000000000000000000000000000000000816000815181106134ba576134b9614b4c565b5b60200101907effffffffffffffffffffffffffffffffffffffffffffffffffffffffffffff1916908160001a9053507f78000000000000000000000000000000000000000000000000000000000000008160018151811061351e5761351d614b4c565b5b60200101907effffffffffffffffffffffffffffffffffffffffffffffffffffffffffffff1916908160001a9053506000600184600261355e9190615148565b6135689190614c86565b90505b6001811115613608577f3031323334353637383961626364656600000000000000000000000000000000600f8616601081106135aa576135a9614b4c565b5b1a60f81b8282815181106135c1576135c0614b4c565b5b60200101907effffffffffffffffffffffffffffffffffffffffffffffffffffffffffffff1916908160001a905350600485901c945080613601906156ed565b905061356b565b506000841461364c576040517f08c379a000000000000000000000000000000000000000000000000000000000815260040161364390615763565b60405180910390fd5b8091505092915050565b600073ffffffffffffffffffffffffffffffffffffffff168273ffffffffffffffffffffffffffffffffffffffff1614156136c6576040517f08c379a00000000000000000000000000000000000000000000000000000000081526004016136bd906157cf565b60405180910390fd5b6136cf81612dc2565b1561370f576040517f08c379a00000000000000000000000000000000000000000000000000000000081526004016137069061583b565b60405180910390fd5b61371b60008383612f10565b6001606860008473ffffffffffffffffffffffffffffffffffffffff1673ffffffffffffffffffffffffffffffffffffffff168152602001908152602001600020600082825461376b9190614c86565b92505081905550816067600083815260200190815260200160002060006101000a81548173ffffffffffffffffffffffffffffffffffffffff021916908373ffffffffffffffffffffffffffffffffffffffff160217905550808273ffffffffffffffffffffffffffffffffffffffff16600073ffffffffffffffffffffffffffffffffffffffff167fddf252ad1be2c89b69c2b068fc378daa952ba7f163c4a11628f55a4df523b3ef60405160405180910390a461382c60008383612f97565b5050565b6040518060a001604052806005905b6138476138e3565b81526020019060019003908161383f5790505090565b82805461386990614296565b90600052602060002090601f01602090048101928261388b57600085556138d2565b82601f106138a457805160ff19168380011785556138d2565b828001600101855582156138d2579182015b828111156138d15782518255916020019190600101906138b6565b5b5090506138df9190613913565b5090565b6040518060400160405280600073ffffffffffffffffffffffffffffffffffffffff168152602001600081525090565b5b8082111561392c576000816000905550600101613914565b5090565b6000604051905090565b600080fd5b600080fd5b60007fffffffff0000000000000000000000000000000000000000000000000000000082169050919050565b61397981613944565b811461398457600080fd5b50565b60008135905061399681613970565b92915050565b6000602082840312156139b2576139b161393a565b5b60006139c084828501613987565b91505092915050565b60008115159050919050565b6139de816139c9565b82525050565b60006020820190506139f960008301846139d5565b92915050565b600081519050919050565b600082825260208201905092915050565b60005b83811015613a39578082015181840152602081019050613a1e565b83811115613a48576000848401525b50505050565b6000601f19601f8301169050919050565b6000613a6a826139ff565b613a748185613a0a565b9350613a84818560208601613a1b565b613a8d81613a4e565b840191505092915050565b60006020820190508181036000830152613ab28184613a5f565b905092915050565b6000819050919050565b613acd81613aba565b8114613ad857600080fd5b50565b600081359050613aea81613ac4565b92915050565b600060208284031215613b0657613b0561393a565b5b6000613b1484828501613adb565b91505092915050565b600073ffffffffffffffffffffffffffffffffffffffff82169050919050565b6000613b4882613b1d565b9050919050565b613b5881613b3d565b82525050565b6000602082019050613b736000830184613b4f565b92915050565b613b8281613b3d565b8114613b8d57600080fd5b50565b600081359050613b9f81613b79565b92915050565b60008060408385031215613bbc57613bbb61393a565b5b6000613bca85828601613b90565b9250506020613bdb85828601613adb565b9150509250929050565b600080600060608486031215613bfe57613bfd61393a565b5b6000613c0c86828701613b90565b9350506020613c1d86828701613b90565b9250506040613c2e86828701613adb565b9150509250925092565b6000819050919050565b613c4b81613c38565b8114613c5657600080fd5b50565b600081359050613c6881613c42565b92915050565b600060208284031215613c8457613c8361393a565b5b6000613c9284828501613c59565b91505092915050565b613ca481613c38565b82525050565b6000602082019050613cbf6000830184613c9b565b92915050565b60008060408385031215613cdc57613cdb61393a565b5b6000613cea85828601613c59565b9250506020613cfb85828601613b90565b9150509250929050565b600060208284031215613d1b57613d1a61393a565b5b6000613d2984828501613b90565b91505092915050565b60008060408385031215613d4957613d4861393a565b5b6000613d5785828601613adb565b9250506020613d6885828601613b90565b9150509250929050565b613d7b81613aba565b82525050565b6000602082019050613d966000830184613d72565b92915050565b613da5816139c9565b8114613db057600080fd5b50565b600081359050613dc281613d9c565b92915050565b60008060408385031215613ddf57613dde61393a565b5b6000613ded85828601613b90565b9250506020613dfe85828601613db3565b9150509250929050565b60008060408385031215613e1f57613e1e61393a565b5b6000613e2d85828601613adb565b9250506020613e3e85828601613adb565b9150509250929050565b6000604082019050613e5d6000830185613b4f565b613e6a6020830184613d72565b9392505050565b600080fd5b600080fd5b7f4e487b7100000000000000000000000000000000000000000000000000000000600052604160045260246000fd5b613eb382613a4e565b810181811067ffffffffffffffff82111715613ed257613ed1613e7b565b5b80604052505050565b6000613ee5613930565b9050613ef18282613eaa565b919050565b600067ffffffffffffffff821115613f1157613f10613e7b565b5b613f1a82613a4e565b9050602081019050919050565b82818337600083830152505050565b6000613f49613f4484613ef6565b613edb565b905082815260208101848484011115613f6557613f64613e76565b5b613f70848285613f27565b509392505050565b600082601f830112613f8d57613f8c613e71565b5b8135613f9d848260208601613f36565b91505092915050565b60008060008060808587031215613fc057613fbf61393a565b5b6000613fce87828801613b90565b9450506020613fdf87828801613b90565b9350506040613ff087828801613adb565b925050606085013567ffffffffffffffff8111156140115761401061393f565b5b61401d87828801613f78565b91505092959194509250565b6000806000606084860312156140425761404161393a565b5b600061405086828701613b90565b935050602061406186828701613adb565b925050604061407286828701613b90565b9150509250925092565b6000806000606084860312156140955761409461393a565b5b60006140a386828701613adb565b93505060206140b486828701613b90565b92505060406140c586828701613adb565b9150509250925092565b600060059050919050565b600081905092915050565b6000819050919050565b6140f881613b3d565b82525050565b61410781613aba565b82525050565b60408201600082015161412360008501826140ef565b50602082015161413660208501826140fe565b50505050565b6000614148838361410d565b60408301905092915050565b6000602082019050919050565b61416a816140cf565b61417481846140da565b925061417f826140e5565b8060005b838110156141b0578151614197878261413c565b96506141a283614154565b925050600181019050614183565b505050505050565b6000610140820190506141ce6000830184614161565b92915050565b600080604083850312156141eb576141ea61393a565b5b60006141f985828601613b90565b925050602061420a85828601613b90565b9150509250929050565b60008060006060848603121561422d5761422c61393a565b5b600061423b86828701613b90565b935050602061424c86828701613adb565b925050604061425d86828701613adb565b9150509250925092565b7f4e487b7100000000000000000000000000000000000000000000000000000000600052602260045260246000fd5b600060028204905060018216806142ae57607f821691505b602082108114156142c2576142c1614267565b5b50919050565b7f4552433732313a20617070726f76616c20746f2063757272656e74206f776e6560008201527f7200000000000000000000000000000000000000000000000000000000000000602082015250565b6000614324602183613a0a565b915061432f826142c8565b604082019050919050565b6000602082019050818103600083015261435381614317565b9050919050565b7f4552433732313a20617070726f76652063616c6c6572206973206e6f7420746f60008201527f6b656e206f776e6572206e6f7220617070726f76656420666f7220616c6c0000602082015250565b60006143b6603e83613a0a565b91506143c18261435a565b604082019050919050565b600060208201905081810360008301526143e5816143a9565b9050919050565b7f4552433732313a2063616c6c6572206973206e6f7420746f6b656e206f776e6560008201527f72206e6f7220617070726f766564000000000000000000000000000000000000602082015250565b6000614448602e83613a0a565b9150614453826143ec565b604082019050919050565b600060208201905081810360008301526144778161443b565b9050919050565b7f416363657373436f6e74726f6c3a2063616e206f6e6c792072656e6f756e636560008201527f20726f6c657320666f722073656c660000000000000000000000000000000000602082015250565b60006144da602f83613a0a565b91506144e58261447e565b604082019050919050565b60006020820190508181036000830152614509816144cd565b9050919050565b7f536f756c46756e642e77686974656c6973744e66743a2061646472657373206160008201527f6c72656164792061646465640000000000000000000000000000000000000000602082015250565b600061456c602c83613a0a565b915061457782614510565b604082019050919050565b6000602082019050818103600083015261459b8161455f565b9050919050565b7f536f756c46756e642e77686974656c6973744e66743a2063616e6e6f7420616460008201527f6420302061646472657373000000000000000000000000000000000000000000602082015250565b60006145fe602b83613a0a565b9150614609826145a2565b604082019050919050565b6000602082019050818103600083015261462d816145f1565b9050919050565b7f4552433732313a20696e76616c696420746f6b656e2049440000000000000000600082015250565b600061466a601883613a0a565b915061467582614634565b602082019050919050565b600060208201905081810360008301526146998161465d565b9050919050565b7f4552433732313a2061646472657373207a65726f206973206e6f74206120766160008201527f6c6964206f776e65720000000000000000000000000000000000000000000000602082015250565b60006146fc602983613a0a565b9150614707826146a0565b604082019050919050565b6000602082019050818103600083015261472b816146ef565b9050919050565b7f536f756c46756e642e636c61696d46756e64734561726c793a2066756e64206460008201527f6f6573206e6f7420657869737400000000000000000000000000000000000000602082015250565b600061478e602d83613a0a565b915061479982614732565b604082019050919050565b600060208201905081810360008301526147bd81614781565b9050919050565b60006040820190506147d96000830185613d72565b6147e66020830184613d72565b9392505050565b7f496e697469616c697a61626c653a20636f6e747261637420697320616c72656160008201527f647920696e697469616c697a6564000000000000000000000000000000000000602082015250565b6000614849602e83613a0a565b9150614854826147ed565b604082019050919050565b600060208201905081810360008301526148788161483c565b9050919050565b6000819050919050565b600060ff82169050919050565b6000819050919050565b60006148bb6148b66148b18461487f565b614896565b614889565b9050919050565b6148cb816148a0565b82525050565b60006020820190506148e660008301846148c2565b92915050565b7f546f6b656e20646f6573206e6f74206578697374000000000000000000000000600082015250565b6000614922601483613a0a565b915061492d826148ec565b602082019050919050565b6000602082019050818103600083015261495181614915565b9050919050565b600067ffffffffffffffff82111561497357614972613e7b565b5b61497c82613a4e565b9050602081019050919050565b600061499c61499784614958565b613edb565b9050828152602081018484840111156149b8576149b7613e76565b5b6149c3848285613a1b565b509392505050565b600082601f8301126149e0576149df613e71565b5b81516149f0848260208601614989565b91505092915050565b600060208284031215614a0f57614a0e61393a565b5b600082015167ffffffffffffffff811115614a2d57614a2c61393f565b5b614a39848285016149cb565b91505092915050565b7f536f756c46756e642e6465706f73697446756e643a206d61782063757272656e60008201527f6379207479706520726561636865642e00000000000000000000000000000000602082015250565b6000614a9e603083613a0a565b9150614aa982614a42565b604082019050919050565b60006020820190508181036000830152614acd81614a91565b9050919050565b7f4e487b7100000000000000000000000000000000000000000000000000000000600052601160045260246000fd5b6000614b0e82613aba565b91507fffffffffffffffffffffffffffffffffffffffffffffffffffffffffffffffff821415614b4157614b40614ad4565b5b600182019050919050565b7f4e487b7100000000000000000000000000000000000000000000000000000000600052603260045260246000fd5b7f536f756c46756e642e6465706f73697446756e643a20616d6f756e74206d697360008201527f6d617463682e0000000000000000000000000000000000000000000000000000602082015250565b6000614bd7602683613a0a565b9150614be282614b7b565b604082019050919050565b60006020820190508181036000830152614c0681614bca565b9050919050565b6000606082019050614c226000830186613b4f565b614c2f6020830185613b4f565b614c3c6040830184613d72565b949350505050565b600081519050614c5381613d9c565b92915050565b600060208284031215614c6f57614c6e61393a565b5b6000614c7d84828501614c44565b91505092915050565b6000614c9182613aba565b9150614c9c83613aba565b9250827fffffffffffffffffffffffffffffffffffffffffffffffffffffffffffffffff03821115614cd157614cd0614ad4565b5b828201905092915050565b6000608082019050614cf16000830187613d72565b614cfe6020830186613b4f565b614d0b6040830185613d72565b614d186060830184613b4f565b95945050505050565b7f536f756c46756e642e636c61696d46756e64734561726c793a204e4654206e6f60008201527f742077686974656c697374656400000000000000000000000000000000000000602082015250565b6000614d7d602d83613a0a565b9150614d8882614d21565b604082019050919050565b60006020820190508181036000830152614dac81614d70565b9050919050565b600081519050614dc281613b79565b92915050565b600060208284031215614dde57614ddd61393a565b5b6000614dec84828501614db3565b91505092915050565b7f536f756c46756e642e636c61696d46756e64734561726c793a2062656e65666960008201527f636961727920646f6573206e6f74206f776e206e66742072657175697265642060208201527f746f20636c61696d2066756e6473000000000000000000000000000000000000604082015250565b6000614e77604e83613a0a565b9150614e8282614df5565b606082019050919050565b60006020820190508181036000830152614ea681614e6a565b9050919050565b7f536f756c46756e642e636c61696d46756e64734561726c793a20436c61696d2060008201527f746f6b656e204e46542068617320616c7265616479206265656e207370656e74602082015250565b6000614f09604083613a0a565b9150614f1482614ead565b604082019050919050565b60006020820190508181036000830152614f3881614efc565b9050919050565b6000608082019050614f546000830187613d72565b614f616020830186613d72565b614f6e6040830185613b4f565b614f7b6060830184613d72565b95945050505050565b7f4552433732313a207472616e736665722066726f6d20696e636f72726563742060008201527f6f776e6572000000000000000000000000000000000000000000000000000000602082015250565b6000614fe0602583613a0a565b9150614feb82614f84565b604082019050919050565b6000602082019050818103600083015261500f81614fd3565b9050919050565b7f4552433732313a207472616e7366657220746f20746865207a65726f2061646460008201527f7265737300000000000000000000000000000000000000000000000000000000602082015250565b6000615072602483613a0a565b915061507d82615016565b604082019050919050565b600060208201905081810360008301526150a181615065565b9050919050565b60006150b382613aba565b91506150be83613aba565b9250828210156150d1576150d0614ad4565b5b828203905092915050565b7f50657263656e7420746f6f206869676800000000000000000000000000000000600082015250565b6000615112601083613a0a565b915061511d826150dc565b602082019050919050565b6000602082019050818103600083015261514181615105565b9050919050565b600061515382613aba565b915061515e83613aba565b9250817fffffffffffffffffffffffffffffffffffffffffffffffffffffffffffffffff048311821515161561519757615196614ad4565b5b828202905092915050565b7f4e487b7100000000000000000000000000000000000000000000000000000000600052601260045260246000fd5b60006151dc82613aba565b91506151e783613aba565b9250826151f7576151f66151a2565b5b828204905092915050565b7f4552433732313a20617070726f766520746f2063616c6c657200000000000000600082015250565b6000615238601983613a0a565b915061524382615202565b602082019050919050565b600060208201905081810360008301526152678161522b565b9050919050565b7f4552433732313a207472616e7366657220746f206e6f6e20455243373231526560008201527f63656976657220696d706c656d656e7465720000000000000000000000000000602082015250565b60006152ca603283613a0a565b91506152d58261526e565b604082019050919050565b600060208201905081810360008301526152f9816152bd565b9050919050565b7f496e697469616c697a61626c653a20636f6e7472616374206973206e6f74206960008201527f6e697469616c697a696e67000000000000000000000000000000000000000000602082015250565b600061535c602b83613a0a565b915061536782615300565b604082019050919050565b6000602082019050818103600083015261538b8161534f565b9050919050565b7f536f756c46756e643a20736f756c20626f756e6420746f6b656e2063616e6e6f60008201527f74206265207472616e7366657272656400000000000000000000000000000000602082015250565b60006153ee603083613a0a565b91506153f982615392565b604082019050919050565b6000602082019050818103600083015261541d816153e1565b9050919050565b600081905092915050565b7f416363657373436f6e74726f6c3a206163636f756e7420000000000000000000600082015250565b6000615465601783615424565b91506154708261542f565b601782019050919050565b6000615486826139ff565b6154908185615424565b93506154a0818560208601613a1b565b80840191505092915050565b7f206973206d697373696e6720726f6c6520000000000000000000000000000000600082015250565b60006154e2601183615424565b91506154ed826154ac565b601182019050919050565b600061550382615458565b915061550f828561547b565b915061551a826154d5565b9150615526828461547b565b91508190509392505050565b7f5061757361626c653a206e6f7420706175736564000000000000000000000000600082015250565b6000615568601483613a0a565b915061557382615532565b602082019050919050565b600060208201905081810360008301526155978161555b565b9050919050565b7f5061757361626c653a2070617573656400000000000000000000000000000000600082015250565b60006155d4601083613a0a565b91506155df8261559e565b602082019050919050565b60006020820190508181036000830152615603816155c7565b9050919050565b600081519050919050565b600082825260208201905092915050565b60006156318261560a565b61563b8185615615565b935061564b818560208601613a1b565b61565481613a4e565b840191505092915050565b60006080820190506156746000830187613b4f565b6156816020830186613b4f565b61568e6040830185613d72565b81810360608301526156a08184615626565b905095945050505050565b6000815190506156ba81613970565b92915050565b6000602082840312156156d6576156d561393a565b5b60006156e4848285016156ab565b91505092915050565b60006156f882613aba565b9150600082141561570c5761570b614ad4565b5b600182039050919050565b7f537472696e67733a20686578206c656e67746820696e73756666696369656e74600082015250565b600061574d602083613a0a565b915061575882615717565b602082019050919050565b6000602082019050818103600083015261577c81615740565b9050919050565b7f4552433732313a206d696e7420746f20746865207a65726f2061646472657373600082015250565b60006157b9602083613a0a565b91506157c482615783565b602082019050919050565b600060208201905081810360008301526157e8816157ac565b9050919050565b7f4552433732313a20746f6b656e20616c7265616479206d696e74656400000000600082015250565b6000615825601c83613a0a565b9150615830826157ef565b602082019050919050565b6000602082019050818103600083015261585481615818565b905091905056fea264697066735822122030cc029b0014154c5adc4aabad994f4d89f0e598373b46728b042a5bdd65578764736f6c63430008090033a26469706673582212205839e86fb3abec63734e1628462cebc4355f488dba83af685e07f6663ae30c7d64736f6c63430008090033",
  "linkReferences": {},
  "deployedLinkReferences": {}
}