{
  "_format": "hh-sol-artifact-1",
  "contractName": "SoulFundFactory",
  "sourceName": "contracts/SoulFundFactory.sol",
  "abi": [
    {
      "inputs": [],
      "stateMutability": "nonpayable",
      "type": "constructor"
    },
    {
      "anonymous": false,
      "inputs": [
        {
          "indexed": false,
          "internalType": "uint8",
          "name": "version",
          "type": "uint8"
        }
      ],
      "name": "Initialized",
      "type": "event"
    },
    {
      "anonymous": false,
      "inputs": [
        {
          "indexed": true,
          "internalType": "address",
          "name": "tokenAddress",
          "type": "address"
        },
        {
          "indexed": true,
          "internalType": "address",
          "name": "beneficiary",
          "type": "address"
        },
        {
          "indexed": false,
          "internalType": "uint256",
          "name": "vestingDate",
          "type": "uint256"
        },
        {
          "indexed": false,
          "internalType": "uint256",
          "name": "depositedAmount",
          "type": "uint256"
        }
      ],
      "name": "NewSoulFundTokenDeployed",
      "type": "event"
    },
    {
      "anonymous": false,
      "inputs": [
        {
          "indexed": false,
          "internalType": "address",
          "name": "account",
          "type": "address"
        }
      ],
      "name": "Paused",
      "type": "event"
    },
    {
      "anonymous": false,
      "inputs": [
        {
          "indexed": true,
          "internalType": "bytes32",
          "name": "role",
          "type": "bytes32"
        },
        {
          "indexed": true,
          "internalType": "bytes32",
          "name": "previousAdminRole",
          "type": "bytes32"
        },
        {
          "indexed": true,
          "internalType": "bytes32",
          "name": "newAdminRole",
          "type": "bytes32"
        }
      ],
      "name": "RoleAdminChanged",
      "type": "event"
    },
    {
      "anonymous": false,
      "inputs": [
        {
          "indexed": true,
          "internalType": "bytes32",
          "name": "role",
          "type": "bytes32"
        },
        {
          "indexed": true,
          "internalType": "address",
          "name": "account",
          "type": "address"
        },
        {
          "indexed": true,
          "internalType": "address",
          "name": "sender",
          "type": "address"
        }
      ],
      "name": "RoleGranted",
      "type": "event"
    },
    {
      "anonymous": false,
      "inputs": [
        {
          "indexed": true,
          "internalType": "bytes32",
          "name": "role",
          "type": "bytes32"
        },
        {
          "indexed": true,
          "internalType": "address",
          "name": "account",
          "type": "address"
        },
        {
          "indexed": true,
          "internalType": "address",
          "name": "sender",
          "type": "address"
        }
      ],
      "name": "RoleRevoked",
      "type": "event"
    },
    {
      "anonymous": false,
      "inputs": [
        {
          "indexed": false,
          "internalType": "address",
          "name": "account",
          "type": "address"
        }
      ],
      "name": "Unpaused",
      "type": "event"
    },
    {
      "inputs": [],
      "name": "DEFAULT_ADMIN_ROLE",
      "outputs": [
        {
          "internalType": "bytes32",
          "name": "",
          "type": "bytes32"
        }
      ],
      "stateMutability": "view",
      "type": "function"
    },
    {
      "inputs": [],
      "name": "PAUSER_ROLE",
      "outputs": [
        {
          "internalType": "bytes32",
          "name": "",
          "type": "bytes32"
        }
      ],
      "stateMutability": "view",
      "type": "function"
    },
    {
      "inputs": [
        {
          "internalType": "address",
          "name": "_beneficiary",
          "type": "address"
        },
        {
          "internalType": "uint256",
          "name": "_vestingDate",
          "type": "uint256"
        }
      ],
      "name": "deployNewSoulFund",
      "outputs": [],
      "stateMutability": "payable",
      "type": "function"
    },
    {
      "inputs": [
        {
          "internalType": "uint256",
          "name": "",
          "type": "uint256"
        }
      ],
      "name": "funds",
      "outputs": [
        {
          "internalType": "address",
          "name": "",
          "type": "address"
        }
      ],
      "stateMutability": "view",
      "type": "function"
    },
    {
      "inputs": [
        {
          "internalType": "bytes32",
          "name": "role",
          "type": "bytes32"
        }
      ],
      "name": "getRoleAdmin",
      "outputs": [
        {
          "internalType": "bytes32",
          "name": "",
          "type": "bytes32"
        }
      ],
      "stateMutability": "view",
      "type": "function"
    },
    {
      "inputs": [
        {
          "internalType": "bytes32",
          "name": "role",
          "type": "bytes32"
        },
        {
          "internalType": "address",
          "name": "account",
          "type": "address"
        }
      ],
      "name": "grantRole",
      "outputs": [],
      "stateMutability": "nonpayable",
      "type": "function"
    },
    {
      "inputs": [
        {
          "internalType": "bytes32",
          "name": "role",
          "type": "bytes32"
        },
        {
          "internalType": "address",
          "name": "account",
          "type": "address"
        }
      ],
      "name": "hasRole",
      "outputs": [
        {
          "internalType": "bool",
          "name": "",
          "type": "bool"
        }
      ],
      "stateMutability": "view",
      "type": "function"
    },
    {
      "inputs": [],
      "name": "initialize",
      "outputs": [],
      "stateMutability": "nonpayable",
      "type": "function"
    },
    {
      "inputs": [],
      "name": "pause",
      "outputs": [],
      "stateMutability": "nonpayable",
      "type": "function"
    },
    {
      "inputs": [],
      "name": "paused",
      "outputs": [
        {
          "internalType": "bool",
          "name": "",
          "type": "bool"
        }
      ],
      "stateMutability": "view",
      "type": "function"
    },
    {
      "inputs": [
        {
          "internalType": "bytes32",
          "name": "role",
          "type": "bytes32"
        },
        {
          "internalType": "address",
          "name": "account",
          "type": "address"
        }
      ],
      "name": "renounceRole",
      "outputs": [],
      "stateMutability": "nonpayable",
      "type": "function"
    },
    {
      "inputs": [
        {
          "internalType": "bytes32",
          "name": "role",
          "type": "bytes32"
        },
        {
          "internalType": "address",
          "name": "account",
          "type": "address"
        }
      ],
      "name": "revokeRole",
      "outputs": [],
      "stateMutability": "nonpayable",
      "type": "function"
    },
    {
      "inputs": [
        {
          "internalType": "bytes4",
          "name": "interfaceId",
          "type": "bytes4"
        }
      ],
      "name": "supportsInterface",
      "outputs": [
        {
          "internalType": "bool",
          "name": "",
          "type": "bool"
        }
      ],
      "stateMutability": "view",
      "type": "function"
    },
    {
      "inputs": [],
      "name": "unpause",
      "outputs": [],
      "stateMutability": "nonpayable",
      "type": "function"
    }
  ],
  "bytecode": "0x60806040523480156200001157600080fd5b50620000226200002860201b60201c565b620001d3565b600060019054906101000a900460ff16156200007b576040517f08c379a0000000000000000000000000000000000000000000000000000000008152600401620000729062000176565b60405180910390fd5b60ff801660008054906101000a900460ff1660ff161015620000ed5760ff6000806101000a81548160ff021916908360ff1602179055507f7f26b83ff96e1f2b6a682f133852f6798a09c465da95921460cefb384740249860ff604051620000e49190620001b6565b60405180910390a15b565b600082825260208201905092915050565b7f496e697469616c697a61626c653a20636f6e747261637420697320696e69746960008201527f616c697a696e6700000000000000000000000000000000000000000000000000602082015250565b60006200015e602783620000ef565b91506200016b8262000100565b604082019050919050565b6000602082019050818103600083015262000191816200014f565b9050919050565b600060ff82169050919050565b620001b08162000198565b82525050565b6000602082019050620001cd6000830184620001a5565b92915050565b615d3e80620001e36000396000f3fe608060405260043610620000f25760003560e01c80637b8e8895116200008b57806391d14854116200006157806391d1485414620002bd578063a217fddf1462000301578063d547741f1462000331578063e63ab1e9146200035f57620000f2565b80637b8e889514620002455780638129fc1c14620002895780638456cb5914620002a357620000f2565b806336568abe11620000cd57806336568abe14620001ad5780633f4ba83a14620001db5780635c975abb14620001f5578063653457b3146200022557620000f2565b806301ffc9a714620000f7578063248a9ca3146200013b5780632f2ff15d146200017f575b600080fd5b3480156200010457600080fd5b506200012360048036038101906200011d9190620011fe565b6200038f565b6040516200013291906200124d565b60405180910390f35b3480156200014857600080fd5b50620001676004803603810190620001619190620012a5565b6200040c565b604051620001769190620012e8565b60405180910390f35b3480156200018c57600080fd5b50620001ab6004803603810190620001a591906200136a565b6200042c565b005b348015620001ba57600080fd5b50620001d96004803603810190620001d391906200136a565b62000453565b005b348015620001e857600080fd5b50620001f3620004dd565b005b3480156200020257600080fd5b506200020d62000516565b6040516200021c91906200124d565b60405180910390f35b6200024360048036038101906200023d9190620013ec565b6200052d565b005b3480156200025257600080fd5b506200027160048036038101906200026b919062001433565b6200073c565b60405162000280919062001476565b60405180910390f35b3480156200029657600080fd5b50620002a16200076f565b005b348015620002b057600080fd5b50620002bb620008bb565b005b348015620002ca57600080fd5b50620002e96004803603810190620002e391906200136a565b620008f4565b604051620002f891906200124d565b60405180910390f35b3480156200030e57600080fd5b50620003196200095f565b604051620003289190620012e8565b60405180910390f35b3480156200033e57600080fd5b506200035d60048036038101906200035791906200136a565b62000966565b005b3480156200036c57600080fd5b50620003776200098d565b604051620003869190620012e8565b60405180910390f35b60007f7965db0b000000000000000000000000000000000000000000000000000000007bffffffffffffffffffffffffffffffffffffffffffffffffffffffff1916827bffffffffffffffffffffffffffffffffffffffffffffffffffffffff191614806200040557506200040482620009b1565b5b9050919050565b600060976000838152602001908152602001600020600101549050919050565b62000437826200040c565b620004428162000a1b565b6200044e838362000a33565b505050565b6200045d62000b19565b73ffffffffffffffffffffffffffffffffffffffff168173ffffffffffffffffffffffffffffffffffffffff1614620004cd576040517f08c379a0000000000000000000000000000000000000000000000000000000008152600401620004c4906200151a565b60405180910390fd5b620004d9828262000b21565b5050565b7f65d7a28e3265b37a6474929f336521b332c1681b933f6cb9f3376673440d862a620005098162000a1b565b6200051362000c08565b50565b6000603360009054906101000a900460ff16905090565b600073ffffffffffffffffffffffffffffffffffffffff168273ffffffffffffffffffffffffffffffffffffffff161415620005a0576040517f08c379a00000000000000000000000000000000000000000000000000000000081526004016200059790620015d8565b60405180910390fd5b428111620005e5576040517f08c379a0000000000000000000000000000000000000000000000000000000008152600401620005dc9062001696565b60405180910390fd5b600034116200062b576040517f08c379a000000000000000000000000000000000000000000000000000000000815260040162000622906200172e565b60405180910390fd5b6200063760c962000c71565b60003460405162000648906200118e565b6040518091039082f090508015801562000666573d6000803e3d6000fd5b5090508073ffffffffffffffffffffffffffffffffffffffff1663cd6dc68784846040518363ffffffff1660e01b8152600401620006a692919062001761565b600060405180830381600087803b158015620006c157600080fd5b505af1158015620006d6573d6000803e3d6000fd5b505050508060ca6000620006eb60c962000c87565b815260200190815260200160002060006101000a81548173ffffffffffffffffffffffffffffffffffffffff021916908373ffffffffffffffffffffffffffffffffffffffff160217905550505050565b60ca6020528060005260406000206000915054906101000a900473ffffffffffffffffffffffffffffffffffffffff1681565b60008060019054906101000a900460ff16159050808015620007a15750600160008054906101000a900460ff1660ff16105b80620007d25750620007b33062000c95565b158015620007d15750600160008054906101000a900460ff1660ff16145b5b62000814576040517f08c379a00000000000000000000000000000000000000000000000000000000081526004016200080b9062001804565b60405180910390fd5b60016000806101000a81548160ff021916908360ff160217905550801562000852576001600060016101000a81548160ff0219169083151502179055505b6200085c62000cb8565b8015620008b85760008060016101000a81548160ff0219169083151502179055507f7f26b83ff96e1f2b6a682f133852f6798a09c465da95921460cefb38474024986001604051620008af919062001880565b60405180910390a15b50565b7f65d7a28e3265b37a6474929f336521b332c1681b933f6cb9f3376673440d862a620008e78162000a1b565b620008f162000d16565b50565b60006097600084815260200190815260200160002060000160008373ffffffffffffffffffffffffffffffffffffffff1673ffffffffffffffffffffffffffffffffffffffff16815260200190815260200160002060009054906101000a900460ff16905092915050565b6000801b81565b62000971826200040c565b6200097c8162000a1b565b62000988838362000b21565b505050565b7f65d7a28e3265b37a6474929f336521b332c1681b933f6cb9f3376673440d862a81565b60007f01ffc9a7000000000000000000000000000000000000000000000000000000007bffffffffffffffffffffffffffffffffffffffffffffffffffffffff1916827bffffffffffffffffffffffffffffffffffffffffffffffffffffffff1916149050919050565b62000a308162000a2a62000b19565b62000d7f565b50565b62000a3f8282620008f4565b62000b155760016097600084815260200190815260200160002060000160008373ffffffffffffffffffffffffffffffffffffffff1673ffffffffffffffffffffffffffffffffffffffff16815260200190815260200160002060006101000a81548160ff02191690831515021790555062000aba62000b19565b73ffffffffffffffffffffffffffffffffffffffff168173ffffffffffffffffffffffffffffffffffffffff16837f2f8788117e7eff1d82e926ec794901d17c78024a50270940304540a733656f0d60405160405180910390a45b5050565b600033905090565b62000b2d8282620008f4565b1562000c045760006097600084815260200190815260200160002060000160008373ffffffffffffffffffffffffffffffffffffffff1673ffffffffffffffffffffffffffffffffffffffff16815260200190815260200160002060006101000a81548160ff02191690831515021790555062000ba962000b19565b73ffffffffffffffffffffffffffffffffffffffff168173ffffffffffffffffffffffffffffffffffffffff16837ff6391f5c32d9c69d2a47ea670b442974b53935d1edc7fd64eb21e047a839171b60405160405180910390a45b5050565b62000c1262000e27565b6000603360006101000a81548160ff0219169083151502179055507f5db9ee0a495bf2e6ff9c91a7834c1ba4fdd244a5e8aa4e537bd38aeae4b073aa62000c5862000b19565b60405162000c67919062001476565b60405180910390a1565b6001816000016000828254019250508190555050565b600081600001549050919050565b6000808273ffffffffffffffffffffffffffffffffffffffff163b119050919050565b600060019054906101000a900460ff1662000d0a576040517f08c379a000000000000000000000000000000000000000000000000000000000815260040162000d019062001913565b60405180910390fd5b62000d1462000e75565b565b62000d2062000ee4565b6001603360006101000a81548160ff0219169083151502179055507f62e78cea01bee320cd4e420270b5ea74000d11b0c9f74754ebdbfc544b05a25862000d6662000b19565b60405162000d75919062001476565b60405180910390a1565b62000d8b8282620008f4565b62000e235762000db38173ffffffffffffffffffffffffffffffffffffffff16601462000f33565b62000dc38360001c602062000f33565b60405160200162000dd692919062001a58565b6040516020818303038152906040526040517f08c379a000000000000000000000000000000000000000000000000000000000815260040162000e1a919062001aec565b60405180910390fd5b5050565b62000e3162000516565b62000e73576040517f08c379a000000000000000000000000000000000000000000000000000000000815260040162000e6a9062001b60565b60405180910390fd5b565b600060019054906101000a900460ff1662000ec7576040517f08c379a000000000000000000000000000000000000000000000000000000000815260040162000ebe9062001913565b60405180910390fd5b6000603360006101000a81548160ff021916908315150217905550565b62000eee62000516565b1562000f31576040517f08c379a000000000000000000000000000000000000000000000000000000000815260040162000f289062001bd2565b60405180910390fd5b565b60606000600283600262000f48919062001c23565b62000f54919062001c84565b67ffffffffffffffff81111562000f705762000f6f62001ce1565b5b6040519080825280601f01601f19166020018201604052801562000fa35781602001600182028036833780820191505090505b5090507f30000000000000000000000000000000000000000000000000000000000000008160008151811062000fde5762000fdd62001d10565b5b60200101907effffffffffffffffffffffffffffffffffffffffffffffffffffffffffffff1916908160001a9053507f78000000000000000000000000000000000000000000000000000000000000008160018151811062001045576200104462001d10565b5b60200101907effffffffffffffffffffffffffffffffffffffffffffffffffffffffffffff1916908160001a9053506000600184600262001087919062001c23565b62001093919062001c84565b90505b60018111156200113d577f3031323334353637383961626364656600000000000000000000000000000000600f861660108110620010d957620010d862001d10565b5b1a60f81b828281518110620010f357620010f262001d10565b5b60200101907effffffffffffffffffffffffffffffffffffffffffffffffffffffffffffff1916908160001a905350600485901c945080620011359062001d3f565b905062001096565b506000841462001184576040517f08c379a00000000000000000000000000000000000000000000000000000000081526004016200117b9062001dbe565b60405180910390fd5b8091505092915050565b613f288062001de183390190565b600080fd5b60007fffffffff0000000000000000000000000000000000000000000000000000000082169050919050565b620011d881620011a1565b8114620011e457600080fd5b50565b600081359050620011f881620011cd565b92915050565b6000602082840312156200121757620012166200119c565b5b60006200122784828501620011e7565b91505092915050565b60008115159050919050565b620012478162001230565b82525050565b60006020820190506200126460008301846200123c565b92915050565b6000819050919050565b6200127f816200126a565b81146200128b57600080fd5b50565b6000813590506200129f8162001274565b92915050565b600060208284031215620012be57620012bd6200119c565b5b6000620012ce848285016200128e565b91505092915050565b620012e2816200126a565b82525050565b6000602082019050620012ff6000830184620012d7565b92915050565b600073ffffffffffffffffffffffffffffffffffffffff82169050919050565b6000620013328262001305565b9050919050565b620013448162001325565b81146200135057600080fd5b50565b600081359050620013648162001339565b92915050565b600080604083850312156200138457620013836200119c565b5b600062001394858286016200128e565b9250506020620013a78582860162001353565b9150509250929050565b6000819050919050565b620013c681620013b1565b8114620013d257600080fd5b50565b600081359050620013e681620013bb565b92915050565b600080604083850312156200140657620014056200119c565b5b6000620014168582860162001353565b92505060206200142985828601620013d5565b9150509250929050565b6000602082840312156200144c576200144b6200119c565b5b60006200145c84828501620013d5565b91505092915050565b620014708162001325565b82525050565b60006020820190506200148d600083018462001465565b92915050565b600082825260208201905092915050565b7f416363657373436f6e74726f6c3a2063616e206f6e6c792072656e6f756e636560008201527f20726f6c657320666f722073656c660000000000000000000000000000000000602082015250565b600062001502602f8362001493565b91506200150f82620014a4565b604082019050919050565b600060208201905081810360008301526200153581620014f3565b9050919050565b7f536f756c46756e64466163746f72792e6465706c6f794e6577536f756c46756e60008201527f643a206d7573742068617665206174206c65617374206f6e652062656e65666960208201527f6369617279000000000000000000000000000000000000000000000000000000604082015250565b6000620015c060458362001493565b9150620015cd826200153c565b606082019050919050565b60006020820190508181036000830152620015f381620015b1565b9050919050565b7f536f756c46756e64466163746f72792e6465706c6f794e6577536f756c46756e60008201527f643a2076657374696e67206d75737420626520736f6d6574696d6520696e207460208201527f6865206675747572650000000000000000000000000000000000000000000000604082015250565b60006200167e60498362001493565b91506200168b82620015fa565b606082019050919050565b60006020820190508181036000830152620016b1816200166f565b9050919050565b7f536f756c46756e64466163746f72792e6465706c6f794e6577536f756c46756e60008201527f643a206e6f2066756e6473206465706f73697465640000000000000000000000602082015250565b60006200171660358362001493565b91506200172382620016b8565b604082019050919050565b60006020820190508181036000830152620017498162001707565b9050919050565b6200175b81620013b1565b82525050565b600060408201905062001778600083018562001465565b62001787602083018462001750565b9392505050565b7f496e697469616c697a61626c653a20636f6e747261637420697320616c72656160008201527f647920696e697469616c697a6564000000000000000000000000000000000000602082015250565b6000620017ec602e8362001493565b9150620017f9826200178e565b604082019050919050565b600060208201905081810360008301526200181f81620017dd565b9050919050565b6000819050919050565b600060ff82169050919050565b6000819050919050565b600062001868620018626200185c8462001826565b6200183d565b62001830565b9050919050565b6200187a8162001847565b82525050565b60006020820190506200189760008301846200186f565b92915050565b7f496e697469616c697a61626c653a20636f6e7472616374206973206e6f74206960008201527f6e697469616c697a696e67000000000000000000000000000000000000000000602082015250565b6000620018fb602b8362001493565b915062001908826200189d565b604082019050919050565b600060208201905081810360008301526200192e81620018ec565b9050919050565b600081905092915050565b7f416363657373436f6e74726f6c3a206163636f756e7420000000000000000000600082015250565b60006200197860178362001935565b9150620019858262001940565b601782019050919050565b600081519050919050565b60005b83811015620019bb5780820151818401526020810190506200199e565b83811115620019cb576000848401525b50505050565b6000620019de8262001990565b620019ea818562001935565b9350620019fc8185602086016200199b565b80840191505092915050565b7f206973206d697373696e6720726f6c6520000000000000000000000000000000600082015250565b600062001a4060118362001935565b915062001a4d8262001a08565b601182019050919050565b600062001a658262001969565b915062001a738285620019d1565b915062001a808262001a31565b915062001a8e8284620019d1565b91508190509392505050565b6000601f19601f8301169050919050565b600062001ab88262001990565b62001ac4818562001493565b935062001ad68185602086016200199b565b62001ae18162001a9a565b840191505092915050565b6000602082019050818103600083015262001b08818462001aab565b905092915050565b7f5061757361626c653a206e6f7420706175736564000000000000000000000000600082015250565b600062001b4860148362001493565b915062001b558262001b10565b602082019050919050565b6000602082019050818103600083015262001b7b8162001b39565b9050919050565b7f5061757361626c653a2070617573656400000000000000000000000000000000600082015250565b600062001bba60108362001493565b915062001bc78262001b82565b602082019050919050565b6000602082019050818103600083015262001bed8162001bab565b9050919050565b7f4e487b7100000000000000000000000000000000000000000000000000000000600052601160045260246000fd5b600062001c3082620013b1565b915062001c3d83620013b1565b9250817fffffffffffffffffffffffffffffffffffffffffffffffffffffffffffffffff048311821515161562001c795762001c7862001bf4565b5b828202905092915050565b600062001c9182620013b1565b915062001c9e83620013b1565b9250827fffffffffffffffffffffffffffffffffffffffffffffffffffffffffffffffff0382111562001cd65762001cd562001bf4565b5b828201905092915050565b7f4e487b7100000000000000000000000000000000000000000000000000000000600052604160045260246000fd5b7f4e487b7100000000000000000000000000000000000000000000000000000000600052603260045260246000fd5b600062001d4c82620013b1565b9150600082141562001d635762001d6262001bf4565b5b600182039050919050565b7f537472696e67733a20686578206c656e67746820696e73756666696369656e74600082015250565b600062001da660208362001493565b915062001db38262001d6e565b602082019050919050565b6000602082019050818103600083015262001dd98162001d97565b905091905056fe6080604052620000146200001a60201b60201c565b620001c5565b600060019054906101000a900460ff16156200006d576040517f08c379a0000000000000000000000000000000000000000000000000000000008152600401620000649062000168565b60405180910390fd5b60ff801660008054906101000a900460ff1660ff161015620000df5760ff6000806101000a81548160ff021916908360ff1602179055507f7f26b83ff96e1f2b6a682f133852f6798a09c465da95921460cefb384740249860ff604051620000d69190620001a8565b60405180910390a15b565b600082825260208201905092915050565b7f496e697469616c697a61626c653a20636f6e747261637420697320696e69746960008201527f616c697a696e6700000000000000000000000000000000000000000000000000602082015250565b600062000150602783620000e1565b91506200015d82620000f2565b604082019050919050565b60006020820190508181036000830152620001838162000141565b9050919050565b600060ff82169050919050565b620001a2816200018a565b82525050565b6000602082019050620001bf600083018462000197565b92915050565b613d5380620001d56000396000f3fe60806040526004361061019c5760003560e01c806370a08231116100ec578063c87b56dd1161008a578063d547741f11610064578063d547741f146105b5578063e63ab1e9146105de578063e985e9c514610609578063f94c0a11146106465761019c565b8063c87b56dd14610531578063cd6dc6871461056e578063ced3a4031461058a5761019c565b806395d89b41116100c657806395d89b4114610489578063a217fddf146104b4578063a22cb465146104df578063b88d4fde146105085761019c565b806370a08231146103f85780638456cb591461043557806391d148541461044c5761019c565b80632f2ff15d1161015957806340d097c31161013357806340d097c31461033e57806342842e0e146103675780635c975abb146103905780636352211e146103bb5761019c565b80632f2ff15d146102d557806336568abe146102fe5780633f4ba83a146103275761019c565b806301ffc9a7146101a157806306fdde03146101de578063081812fc14610209578063095ea7b31461024657806323b872dd1461026f578063248a9ca314610298575b600080fd5b3480156101ad57600080fd5b506101c860048036038101906101c39190612896565b610671565b6040516101d591906128de565b60405180910390f35b3480156101ea57600080fd5b506101f3610683565b6040516102009190612992565b60405180910390f35b34801561021557600080fd5b50610230600480360381019061022b91906129ea565b610715565b60405161023d9190612a58565b60405180910390f35b34801561025257600080fd5b5061026d60048036038101906102689190612a9f565b61075b565b005b34801561027b57600080fd5b5061029660048036038101906102919190612adf565b610873565b005b3480156102a457600080fd5b506102bf60048036038101906102ba9190612b68565b6108d3565b6040516102cc9190612ba4565b60405180910390f35b3480156102e157600080fd5b506102fc60048036038101906102f79190612bbf565b6108f3565b005b34801561030a57600080fd5b5061032560048036038101906103209190612bbf565b610914565b005b34801561033357600080fd5b5061033c610997565b005b34801561034a57600080fd5b5061036560048036038101906103609190612bff565b6109cc565b005b34801561037357600080fd5b5061038e60048036038101906103899190612adf565b610a1d565b005b34801561039c57600080fd5b506103a5610a3d565b6040516103b291906128de565b60405180910390f35b3480156103c757600080fd5b506103e260048036038101906103dd91906129ea565b610a54565b6040516103ef9190612a58565b60405180910390f35b34801561040457600080fd5b5061041f600480360381019061041a9190612bff565b610b06565b60405161042c9190612c3b565b60405180910390f35b34801561044157600080fd5b5061044a610bbe565b005b34801561045857600080fd5b50610473600480360381019061046e9190612bbf565b610bf3565b60405161048091906128de565b60405180910390f35b34801561049557600080fd5b5061049e610c5e565b6040516104ab9190612992565b60405180910390f35b3480156104c057600080fd5b506104c9610cf0565b6040516104d69190612ba4565b60405180910390f35b3480156104eb57600080fd5b5061050660048036038101906105019190612c82565b610cf7565b005b34801561051457600080fd5b5061052f600480360381019061052a9190612df7565b610d0d565b005b34801561053d57600080fd5b50610558600480360381019061055391906129ea565b610d6f565b6040516105659190612992565b60405180910390f35b61058860048036038101906105839190612a9f565b610dd7565b005b34801561059657600080fd5b5061059f61102c565b6040516105ac9190612ba4565b60405180910390f35b3480156105c157600080fd5b506105dc60048036038101906105d79190612bbf565b611050565b005b3480156105ea57600080fd5b506105f3611071565b6040516106009190612ba4565b60405180910390f35b34801561061557600080fd5b50610630600480360381019061062b9190612e7a565b611095565b60405161063d91906128de565b60405180910390f35b34801561065257600080fd5b5061065b611129565b6040516106689190612ba4565b60405180910390f35b600061067c8261114d565b9050919050565b60606065805461069290612ee9565b80601f01602080910402602001604051908101604052809291908181526020018280546106be90612ee9565b801561070b5780601f106106e05761010080835404028352916020019161070b565b820191906000526020600020905b8154815290600101906020018083116106ee57829003601f168201915b5050505050905090565b6000610720826111c7565b6069600083815260200190815260200160002060009054906101000a900473ffffffffffffffffffffffffffffffffffffffff169050919050565b600061076682610a54565b90508073ffffffffffffffffffffffffffffffffffffffff168373ffffffffffffffffffffffffffffffffffffffff1614156107d7576040517f08c379a00000000000000000000000000000000000000000000000000000000081526004016107ce90612f8d565b60405180910390fd5b8073ffffffffffffffffffffffffffffffffffffffff166107f6611212565b73ffffffffffffffffffffffffffffffffffffffff16148061082557506108248161081f611212565b611095565b5b610864576040517f08c379a000000000000000000000000000000000000000000000000000000000815260040161085b9061301f565b60405180910390fd5b61086e838361121a565b505050565b61088461087e611212565b826112d3565b6108c3576040517f08c379a00000000000000000000000000000000000000000000000000000000081526004016108ba906130b1565b60405180910390fd5b6108ce838383611368565b505050565b600060c96000838152602001908152602001600020600101549050919050565b6108fc826108d3565b610905816115cf565b61090f83836115e3565b505050565b61091c611212565b73ffffffffffffffffffffffffffffffffffffffff168173ffffffffffffffffffffffffffffffffffffffff1614610989576040517f08c379a000000000000000000000000000000000000000000000000000000000815260040161098090613143565b60405180910390fd5b61099382826116c4565b5050565b7f65d7a28e3265b37a6474929f336521b332c1681b933f6cb9f3376673440d862a6109c1816115cf565b6109c96117a6565b50565b7f2dee5dd865e09c7ce6788d674a03682994f0b44339403ca07ac129a9de4bed6a6109f6816115cf565b6000610a0260fb611809565b9050610a0e60fb611817565b610a18838261182d565b505050565b610a3883838360405180602001604052806000815250610d0d565b505050565b6000609760009054906101000a900460ff16905090565b6000806067600084815260200190815260200160002060009054906101000a900473ffffffffffffffffffffffffffffffffffffffff169050600073ffffffffffffffffffffffffffffffffffffffff168173ffffffffffffffffffffffffffffffffffffffff161415610afd576040517f08c379a0000000000000000000000000000000000000000000000000000000008152600401610af4906131af565b60405180910390fd5b80915050919050565b60008073ffffffffffffffffffffffffffffffffffffffff168273ffffffffffffffffffffffffffffffffffffffff161415610b77576040517f08c379a0000000000000000000000000000000000000000000000000000000008152600401610b6e90613241565b60405180910390fd5b606860008373ffffffffffffffffffffffffffffffffffffffff1673ffffffffffffffffffffffffffffffffffffffff168152602001908152602001600020549050919050565b7f65d7a28e3265b37a6474929f336521b332c1681b933f6cb9f3376673440d862a610be8816115cf565b610bf061184b565b50565b600060c9600084815260200190815260200160002060000160008373ffffffffffffffffffffffffffffffffffffffff1673ffffffffffffffffffffffffffffffffffffffff16815260200190815260200160002060009054906101000a900460ff16905092915050565b606060668054610c6d90612ee9565b80601f0160208091040260200160405190810160405280929190818152602001828054610c9990612ee9565b8015610ce65780601f10610cbb57610100808354040283529160200191610ce6565b820191906000526020600020905b815481529060010190602001808311610cc957829003601f168201915b5050505050905090565b6000801b81565b610d09610d02611212565b83836118ae565b5050565b610d1e610d18611212565b836112d3565b610d5d576040517f08c379a0000000000000000000000000000000000000000000000000000000008152600401610d54906130b1565b60405180910390fd5b610d6984848484611a1b565b50505050565b6060610d7a826111c7565b6000610d84611a77565b90506000815111610da45760405180602001604052806000815250610dcf565b80610dae84611a8e565b604051602001610dbf92919061329d565b6040516020818303038152906040525b915050919050565b60008060019054906101000a900460ff16159050808015610e085750600160008054906101000a900460ff1660ff16105b80610e355750610e1730611bef565b158015610e345750600160008054906101000a900460ff1660ff16145b5b610e74576040517f08c379a0000000000000000000000000000000000000000000000000000000008152600401610e6b90613333565b60405180910390fd5b60016000806101000a81548160ff021916908360ff1602179055508015610eb1576001600060016101000a81548160ff0219169083151502179055505b610f256040518060400160405280600881526020017f536f756c46756e640000000000000000000000000000000000000000000000008152506040518060400160405280600381526020017f534c460000000000000000000000000000000000000000000000000000000000815250611c12565b610f2d611c6f565b610f35611cc8565b610f426000801b336115e3565b610f6c7f65d7a28e3265b37a6474929f336521b332c1681b933f6cb9f3376673440d862a336115e3565b610f9d7f2dee5dd865e09c7ce6788d674a03682994f0b44339403ca07ac129a9de4bed6a610f98611212565b6115e3565b610fc77fc8a41221bcd7fcf2c225f5a9265e1d4d39949d89197159d59e5f4b87b62c419e846115e3565b8160fc8190555080156110275760008060016101000a81548160ff0219169083151502179055507f7f26b83ff96e1f2b6a682f133852f6798a09c465da95921460cefb3847402498600160405161101e91906133a5565b60405180910390a15b505050565b7fc8a41221bcd7fcf2c225f5a9265e1d4d39949d89197159d59e5f4b87b62c419e81565b611059826108d3565b611062816115cf565b61106c83836116c4565b505050565b7f65d7a28e3265b37a6474929f336521b332c1681b933f6cb9f3376673440d862a81565b6000606a60008473ffffffffffffffffffffffffffffffffffffffff1673ffffffffffffffffffffffffffffffffffffffff16815260200190815260200160002060008373ffffffffffffffffffffffffffffffffffffffff1673ffffffffffffffffffffffffffffffffffffffff16815260200190815260200160002060009054906101000a900460ff16905092915050565b7f2dee5dd865e09c7ce6788d674a03682994f0b44339403ca07ac129a9de4bed6a81565b60007f7965db0b000000000000000000000000000000000000000000000000000000007bffffffffffffffffffffffffffffffffffffffffffffffffffffffff1916827bffffffffffffffffffffffffffffffffffffffffffffffffffffffff191614806111c057506111bf82611d19565b5b9050919050565b6111d081611dfb565b61120f576040517f08c379a0000000000000000000000000000000000000000000000000000000008152600401611206906131af565b60405180910390fd5b50565b600033905090565b816069600083815260200190815260200160002060006101000a81548173ffffffffffffffffffffffffffffffffffffffff021916908373ffffffffffffffffffffffffffffffffffffffff160217905550808273ffffffffffffffffffffffffffffffffffffffff1661128d83610a54565b73ffffffffffffffffffffffffffffffffffffffff167f8c5be1e5ebec7d5bd14f71427d1e84f3dd0314c0f7b2291e5b200ac8c7c3b92560405160405180910390a45050565b6000806112df83610a54565b90508073ffffffffffffffffffffffffffffffffffffffff168473ffffffffffffffffffffffffffffffffffffffff16148061132157506113208185611095565b5b8061135f57508373ffffffffffffffffffffffffffffffffffffffff1661134784610715565b73ffffffffffffffffffffffffffffffffffffffff16145b91505092915050565b8273ffffffffffffffffffffffffffffffffffffffff1661138882610a54565b73ffffffffffffffffffffffffffffffffffffffff16146113de576040517f08c379a00000000000000000000000000000000000000000000000000000000081526004016113d590613432565b60405180910390fd5b600073ffffffffffffffffffffffffffffffffffffffff168273ffffffffffffffffffffffffffffffffffffffff16141561144e576040517f08c379a0000000000000000000000000000000000000000000000000000000008152600401611445906134c4565b60405180910390fd5b611459838383611e67565b61146460008261121a565b6001606860008573ffffffffffffffffffffffffffffffffffffffff1673ffffffffffffffffffffffffffffffffffffffff16815260200190815260200160002060008282546114b49190613513565b925050819055506001606860008473ffffffffffffffffffffffffffffffffffffffff1673ffffffffffffffffffffffffffffffffffffffff168152602001908152602001600020600082825461150b9190613547565b92505081905550816067600083815260200190815260200160002060006101000a81548173ffffffffffffffffffffffffffffffffffffffff021916908373ffffffffffffffffffffffffffffffffffffffff160217905550808273ffffffffffffffffffffffffffffffffffffffff168473ffffffffffffffffffffffffffffffffffffffff167fddf252ad1be2c89b69c2b068fc378daa952ba7f163c4a11628f55a4df523b3ef60405160405180910390a46115ca838383611eee565b505050565b6115e0816115db611212565b611ef3565b50565b6115ed8282610bf3565b6116c057600160c9600084815260200190815260200160002060000160008373ffffffffffffffffffffffffffffffffffffffff1673ffffffffffffffffffffffffffffffffffffffff16815260200190815260200160002060006101000a81548160ff021916908315150217905550611665611212565b73ffffffffffffffffffffffffffffffffffffffff168173ffffffffffffffffffffffffffffffffffffffff16837f2f8788117e7eff1d82e926ec794901d17c78024a50270940304540a733656f0d60405160405180910390a45b5050565b6116ce8282610bf3565b156117a257600060c9600084815260200190815260200160002060000160008373ffffffffffffffffffffffffffffffffffffffff1673ffffffffffffffffffffffffffffffffffffffff16815260200190815260200160002060006101000a81548160ff021916908315150217905550611747611212565b73ffffffffffffffffffffffffffffffffffffffff168173ffffffffffffffffffffffffffffffffffffffff16837ff6391f5c32d9c69d2a47ea670b442974b53935d1edc7fd64eb21e047a839171b60405160405180910390a45b5050565b6117ae611f90565b6000609760006101000a81548160ff0219169083151502179055507f5db9ee0a495bf2e6ff9c91a7834c1ba4fdd244a5e8aa4e537bd38aeae4b073aa6117f2611212565b6040516117ff9190612a58565b60405180910390a1565b600081600001549050919050565b6001816000016000828254019250508190555050565b611847828260405180602001604052806000815250611fd9565b5050565b611853612034565b6001609760006101000a81548160ff0219169083151502179055507f62e78cea01bee320cd4e420270b5ea74000d11b0c9f74754ebdbfc544b05a258611897611212565b6040516118a49190612a58565b60405180910390a1565b8173ffffffffffffffffffffffffffffffffffffffff168373ffffffffffffffffffffffffffffffffffffffff16141561191d576040517f08c379a0000000000000000000000000000000000000000000000000000000008152600401611914906135e9565b60405180910390fd5b80606a60008573ffffffffffffffffffffffffffffffffffffffff1673ffffffffffffffffffffffffffffffffffffffff16815260200190815260200160002060008473ffffffffffffffffffffffffffffffffffffffff1673ffffffffffffffffffffffffffffffffffffffff16815260200190815260200160002060006101000a81548160ff0219169083151502179055508173ffffffffffffffffffffffffffffffffffffffff168373ffffffffffffffffffffffffffffffffffffffff167f17307eab39ab6107e8899845ad3d59bd9653f200f220920489ca2b5937696c3183604051611a0e91906128de565b60405180910390a3505050565b611a26848484611368565b611a328484848461207e565b611a71576040517f08c379a0000000000000000000000000000000000000000000000000000000008152600401611a689061367b565b60405180910390fd5b50505050565b606060405180602001604052806000815250905090565b60606000821415611ad6576040518060400160405280600181526020017f30000000000000000000000000000000000000000000000000000000000000008152509050611bea565b600082905060005b60008214611b08578080611af19061369b565b915050600a82611b019190613713565b9150611ade565b60008167ffffffffffffffff811115611b2457611b23612ccc565b5b6040519080825280601f01601f191660200182016040528015611b565781602001600182028036833780820191505090505b5090505b60008514611be357600182611b6f9190613513565b9150600a85611b7e9190613744565b6030611b8a9190613547565b60f81b818381518110611ba057611b9f613775565b5b60200101907effffffffffffffffffffffffffffffffffffffffffffffffffffffffffffff1916908160001a905350600a85611bdc9190613713565b9450611b5a565b8093505050505b919050565b6000808273ffffffffffffffffffffffffffffffffffffffff163b119050919050565b600060019054906101000a900460ff16611c61576040517f08c379a0000000000000000000000000000000000000000000000000000000008152600401611c5890613816565b60405180910390fd5b611c6b8282612215565b5050565b600060019054906101000a900460ff16611cbe576040517f08c379a0000000000000000000000000000000000000000000000000000000008152600401611cb590613816565b60405180910390fd5b611cc6612296565b565b600060019054906101000a900460ff16611d17576040517f08c379a0000000000000000000000000000000000000000000000000000000008152600401611d0e90613816565b60405180910390fd5b565b60007f80ac58cd000000000000000000000000000000000000000000000000000000007bffffffffffffffffffffffffffffffffffffffffffffffffffffffff1916827bffffffffffffffffffffffffffffffffffffffffffffffffffffffff19161480611de457507f5b5e139f000000000000000000000000000000000000000000000000000000007bffffffffffffffffffffffffffffffffffffffffffffffffffffffff1916827bffffffffffffffffffffffffffffffffffffffffffffffffffffffff1916145b80611df45750611df382612302565b5b9050919050565b60008073ffffffffffffffffffffffffffffffffffffffff166067600084815260200190815260200160002060009054906101000a900473ffffffffffffffffffffffffffffffffffffffff1673ffffffffffffffffffffffffffffffffffffffff1614159050919050565b611e6f612034565b600073ffffffffffffffffffffffffffffffffffffffff168373ffffffffffffffffffffffffffffffffffffffff1614611ede576040517f08c379a0000000000000000000000000000000000000000000000000000000008152600401611ed5906138a8565b60405180910390fd5b611ee983838361236c565b505050565b505050565b611efd8282610bf3565b611f8c57611f228173ffffffffffffffffffffffffffffffffffffffff166014612371565b611f308360001c6020612371565b604051602001611f41929190613960565b6040516020818303038152906040526040517f08c379a0000000000000000000000000000000000000000000000000000000008152600401611f839190612992565b60405180910390fd5b5050565b611f98610a3d565b611fd7576040517f08c379a0000000000000000000000000000000000000000000000000000000008152600401611fce906139e6565b60405180910390fd5b565b611fe383836125ad565b611ff0600084848461207e565b61202f576040517f08c379a00000000000000000000000000000000000000000000000000000000081526004016120269061367b565b60405180910390fd5b505050565b61203c610a3d565b1561207c576040517f08c379a000000000000000000000000000000000000000000000000000000000815260040161207390613a52565b60405180910390fd5b565b600061209f8473ffffffffffffffffffffffffffffffffffffffff16611bef565b15612208578373ffffffffffffffffffffffffffffffffffffffff1663150b7a026120c8611212565b8786866040518563ffffffff1660e01b81526004016120ea9493929190613ac7565b602060405180830381600087803b15801561210457600080fd5b505af192505050801561213557506040513d601f19601f820116820180604052508101906121329190613b28565b60015b6121b8573d8060008114612165576040519150601f19603f3d011682016040523d82523d6000602084013e61216a565b606091505b506000815114156121b0576040517f08c379a00000000000000000000000000000000000000000000000000000000081526004016121a79061367b565b60405180910390fd5b805181602001fd5b63150b7a0260e01b7bffffffffffffffffffffffffffffffffffffffffffffffffffffffff1916817bffffffffffffffffffffffffffffffffffffffffffffffffffffffff19161491505061220d565b600190505b949350505050565b600060019054906101000a900460ff16612264576040517f08c379a000000000000000000000000000000000000000000000000000000000815260040161225b90613816565b60405180910390fd5b816065908051906020019061227a929190612787565b508060669080519060200190612291929190612787565b505050565b600060019054906101000a900460ff166122e5576040517f08c379a00000000000000000000000000000000000000000000000000000000081526004016122dc90613816565b60405180910390fd5b6000609760006101000a81548160ff021916908315150217905550565b60007f01ffc9a7000000000000000000000000000000000000000000000000000000007bffffffffffffffffffffffffffffffffffffffffffffffffffffffff1916827bffffffffffffffffffffffffffffffffffffffffffffffffffffffff1916149050919050565b505050565b6060600060028360026123849190613b55565b61238e9190613547565b67ffffffffffffffff8111156123a7576123a6612ccc565b5b6040519080825280601f01601f1916602001820160405280156123d95781602001600182028036833780820191505090505b5090507f30000000000000000000000000000000000000000000000000000000000000008160008151811061241157612410613775565b5b60200101907effffffffffffffffffffffffffffffffffffffffffffffffffffffffffffff1916908160001a9053507f78000000000000000000000000000000000000000000000000000000000000008160018151811061247557612474613775565b5b60200101907effffffffffffffffffffffffffffffffffffffffffffffffffffffffffffff1916908160001a905350600060018460026124b59190613b55565b6124bf9190613547565b90505b600181111561255f577f3031323334353637383961626364656600000000000000000000000000000000600f86166010811061250157612500613775565b5b1a60f81b82828151811061251857612517613775565b5b60200101907effffffffffffffffffffffffffffffffffffffffffffffffffffffffffffff1916908160001a905350600485901c94508061255890613baf565b90506124c2565b50600084146125a3576040517f08c379a000000000000000000000000000000000000000000000000000000000815260040161259a90613c25565b60405180910390fd5b8091505092915050565b600073ffffffffffffffffffffffffffffffffffffffff168273ffffffffffffffffffffffffffffffffffffffff16141561261d576040517f08c379a000000000000000000000000000000000000000000000000000000000815260040161261490613c91565b60405180910390fd5b61262681611dfb565b15612666576040517f08c379a000000000000000000000000000000000000000000000000000000000815260040161265d90613cfd565b60405180910390fd5b61267260008383611e67565b6001606860008473ffffffffffffffffffffffffffffffffffffffff1673ffffffffffffffffffffffffffffffffffffffff16815260200190815260200160002060008282546126c29190613547565b92505081905550816067600083815260200190815260200160002060006101000a81548173ffffffffffffffffffffffffffffffffffffffff021916908373ffffffffffffffffffffffffffffffffffffffff160217905550808273ffffffffffffffffffffffffffffffffffffffff16600073ffffffffffffffffffffffffffffffffffffffff167fddf252ad1be2c89b69c2b068fc378daa952ba7f163c4a11628f55a4df523b3ef60405160405180910390a461278360008383611eee565b5050565b82805461279390612ee9565b90600052602060002090601f0160209004810192826127b557600085556127fc565b82601f106127ce57805160ff19168380011785556127fc565b828001600101855582156127fc579182015b828111156127fb5782518255916020019190600101906127e0565b5b509050612809919061280d565b5090565b5b8082111561282657600081600090555060010161280e565b5090565b6000604051905090565b600080fd5b600080fd5b60007fffffffff0000000000000000000000000000000000000000000000000000000082169050919050565b6128738161283e565b811461287e57600080fd5b50565b6000813590506128908161286a565b92915050565b6000602082840312156128ac576128ab612834565b5b60006128ba84828501612881565b91505092915050565b60008115159050919050565b6128d8816128c3565b82525050565b60006020820190506128f360008301846128cf565b92915050565b600081519050919050565b600082825260208201905092915050565b60005b83811015612933578082015181840152602081019050612918565b83811115612942576000848401525b50505050565b6000601f19601f8301169050919050565b6000612964826128f9565b61296e8185612904565b935061297e818560208601612915565b61298781612948565b840191505092915050565b600060208201905081810360008301526129ac8184612959565b905092915050565b6000819050919050565b6129c7816129b4565b81146129d257600080fd5b50565b6000813590506129e4816129be565b92915050565b600060208284031215612a00576129ff612834565b5b6000612a0e848285016129d5565b91505092915050565b600073ffffffffffffffffffffffffffffffffffffffff82169050919050565b6000612a4282612a17565b9050919050565b612a5281612a37565b82525050565b6000602082019050612a6d6000830184612a49565b92915050565b612a7c81612a37565b8114612a8757600080fd5b50565b600081359050612a9981612a73565b92915050565b60008060408385031215612ab657612ab5612834565b5b6000612ac485828601612a8a565b9250506020612ad5858286016129d5565b9150509250929050565b600080600060608486031215612af857612af7612834565b5b6000612b0686828701612a8a565b9350506020612b1786828701612a8a565b9250506040612b28868287016129d5565b9150509250925092565b6000819050919050565b612b4581612b32565b8114612b5057600080fd5b50565b600081359050612b6281612b3c565b92915050565b600060208284031215612b7e57612b7d612834565b5b6000612b8c84828501612b53565b91505092915050565b612b9e81612b32565b82525050565b6000602082019050612bb96000830184612b95565b92915050565b60008060408385031215612bd657612bd5612834565b5b6000612be485828601612b53565b9250506020612bf585828601612a8a565b9150509250929050565b600060208284031215612c1557612c14612834565b5b6000612c2384828501612a8a565b91505092915050565b612c35816129b4565b82525050565b6000602082019050612c506000830184612c2c565b92915050565b612c5f816128c3565b8114612c6a57600080fd5b50565b600081359050612c7c81612c56565b92915050565b60008060408385031215612c9957612c98612834565b5b6000612ca785828601612a8a565b9250506020612cb885828601612c6d565b9150509250929050565b600080fd5b600080fd5b7f4e487b7100000000000000000000000000000000000000000000000000000000600052604160045260246000fd5b612d0482612948565b810181811067ffffffffffffffff82111715612d2357612d22612ccc565b5b80604052505050565b6000612d3661282a565b9050612d428282612cfb565b919050565b600067ffffffffffffffff821115612d6257612d61612ccc565b5b612d6b82612948565b9050602081019050919050565b82818337600083830152505050565b6000612d9a612d9584612d47565b612d2c565b905082815260208101848484011115612db657612db5612cc7565b5b612dc1848285612d78565b509392505050565b600082601f830112612dde57612ddd612cc2565b5b8135612dee848260208601612d87565b91505092915050565b60008060008060808587031215612e1157612e10612834565b5b6000612e1f87828801612a8a565b9450506020612e3087828801612a8a565b9350506040612e41878288016129d5565b925050606085013567ffffffffffffffff811115612e6257612e61612839565b5b612e6e87828801612dc9565b91505092959194509250565b60008060408385031215612e9157612e90612834565b5b6000612e9f85828601612a8a565b9250506020612eb085828601612a8a565b9150509250929050565b7f4e487b7100000000000000000000000000000000000000000000000000000000600052602260045260246000fd5b60006002820490506001821680612f0157607f821691505b60208210811415612f1557612f14612eba565b5b50919050565b7f4552433732313a20617070726f76616c20746f2063757272656e74206f776e6560008201527f7200000000000000000000000000000000000000000000000000000000000000602082015250565b6000612f77602183612904565b9150612f8282612f1b565b604082019050919050565b60006020820190508181036000830152612fa681612f6a565b9050919050565b7f4552433732313a20617070726f76652063616c6c6572206973206e6f7420746f60008201527f6b656e206f776e6572206e6f7220617070726f76656420666f7220616c6c0000602082015250565b6000613009603e83612904565b915061301482612fad565b604082019050919050565b6000602082019050818103600083015261303881612ffc565b9050919050565b7f4552433732313a2063616c6c6572206973206e6f7420746f6b656e206f776e6560008201527f72206e6f7220617070726f766564000000000000000000000000000000000000602082015250565b600061309b602e83612904565b91506130a68261303f565b604082019050919050565b600060208201905081810360008301526130ca8161308e565b9050919050565b7f416363657373436f6e74726f6c3a2063616e206f6e6c792072656e6f756e636560008201527f20726f6c657320666f722073656c660000000000000000000000000000000000602082015250565b600061312d602f83612904565b9150613138826130d1565b604082019050919050565b6000602082019050818103600083015261315c81613120565b9050919050565b7f4552433732313a20696e76616c696420746f6b656e2049440000000000000000600082015250565b6000613199601883612904565b91506131a482613163565b602082019050919050565b600060208201905081810360008301526131c88161318c565b9050919050565b7f4552433732313a2061646472657373207a65726f206973206e6f74206120766160008201527f6c6964206f776e65720000000000000000000000000000000000000000000000602082015250565b600061322b602983612904565b9150613236826131cf565b604082019050919050565b6000602082019050818103600083015261325a8161321e565b9050919050565b600081905092915050565b6000613277826128f9565b6132818185613261565b9350613291818560208601612915565b80840191505092915050565b60006132a9828561326c565b91506132b5828461326c565b91508190509392505050565b7f496e697469616c697a61626c653a20636f6e747261637420697320616c72656160008201527f647920696e697469616c697a6564000000000000000000000000000000000000602082015250565b600061331d602e83612904565b9150613328826132c1565b604082019050919050565b6000602082019050818103600083015261334c81613310565b9050919050565b6000819050919050565b600060ff82169050919050565b6000819050919050565b600061338f61338a61338584613353565b61336a565b61335d565b9050919050565b61339f81613374565b82525050565b60006020820190506133ba6000830184613396565b92915050565b7f4552433732313a207472616e736665722066726f6d20696e636f72726563742060008201527f6f776e6572000000000000000000000000000000000000000000000000000000602082015250565b600061341c602583612904565b9150613427826133c0565b604082019050919050565b6000602082019050818103600083015261344b8161340f565b9050919050565b7f4552433732313a207472616e7366657220746f20746865207a65726f2061646460008201527f7265737300000000000000000000000000000000000000000000000000000000602082015250565b60006134ae602483612904565b91506134b982613452565b604082019050919050565b600060208201905081810360008301526134dd816134a1565b9050919050565b7f4e487b7100000000000000000000000000000000000000000000000000000000600052601160045260246000fd5b600061351e826129b4565b9150613529836129b4565b92508282101561353c5761353b6134e4565b5b828203905092915050565b6000613552826129b4565b915061355d836129b4565b9250827fffffffffffffffffffffffffffffffffffffffffffffffffffffffffffffffff03821115613592576135916134e4565b5b828201905092915050565b7f4552433732313a20617070726f766520746f2063616c6c657200000000000000600082015250565b60006135d3601983612904565b91506135de8261359d565b602082019050919050565b60006020820190508181036000830152613602816135c6565b9050919050565b7f4552433732313a207472616e7366657220746f206e6f6e20455243373231526560008201527f63656976657220696d706c656d656e7465720000000000000000000000000000602082015250565b6000613665603283612904565b915061367082613609565b604082019050919050565b6000602082019050818103600083015261369481613658565b9050919050565b60006136a6826129b4565b91507fffffffffffffffffffffffffffffffffffffffffffffffffffffffffffffffff8214156136d9576136d86134e4565b5b600182019050919050565b7f4e487b7100000000000000000000000000000000000000000000000000000000600052601260045260246000fd5b600061371e826129b4565b9150613729836129b4565b925082613739576137386136e4565b5b828204905092915050565b600061374f826129b4565b915061375a836129b4565b92508261376a576137696136e4565b5b828206905092915050565b7f4e487b7100000000000000000000000000000000000000000000000000000000600052603260045260246000fd5b7f496e697469616c697a61626c653a20636f6e7472616374206973206e6f74206960008201527f6e697469616c697a696e67000000000000000000000000000000000000000000602082015250565b6000613800602b83612904565b915061380b826137a4565b604082019050919050565b6000602082019050818103600083015261382f816137f3565b9050919050565b7f536f756c46756e643a20736f756c20626f756e6420746f6b656e2063616e6e6f60008201527f74206265207472616e7366657272656400000000000000000000000000000000602082015250565b6000613892603083612904565b915061389d82613836565b604082019050919050565b600060208201905081810360008301526138c181613885565b9050919050565b7f416363657373436f6e74726f6c3a206163636f756e7420000000000000000000600082015250565b60006138fe601783613261565b9150613909826138c8565b601782019050919050565b7f206973206d697373696e6720726f6c6520000000000000000000000000000000600082015250565b600061394a601183613261565b915061395582613914565b601182019050919050565b600061396b826138f1565b9150613977828561326c565b91506139828261393d565b915061398e828461326c565b91508190509392505050565b7f5061757361626c653a206e6f7420706175736564000000000000000000000000600082015250565b60006139d0601483612904565b91506139db8261399a565b602082019050919050565b600060208201905081810360008301526139ff816139c3565b9050919050565b7f5061757361626c653a2070617573656400000000000000000000000000000000600082015250565b6000613a3c601083612904565b9150613a4782613a06565b602082019050919050565b60006020820190508181036000830152613a6b81613a2f565b9050919050565b600081519050919050565b600082825260208201905092915050565b6000613a9982613a72565b613aa38185613a7d565b9350613ab3818560208601612915565b613abc81612948565b840191505092915050565b6000608082019050613adc6000830187612a49565b613ae96020830186612a49565b613af66040830185612c2c565b8181036060830152613b088184613a8e565b905095945050505050565b600081519050613b228161286a565b92915050565b600060208284031215613b3e57613b3d612834565b5b6000613b4c84828501613b13565b91505092915050565b6000613b60826129b4565b9150613b6b836129b4565b9250817fffffffffffffffffffffffffffffffffffffffffffffffffffffffffffffffff0483118215151615613ba457613ba36134e4565b5b828202905092915050565b6000613bba826129b4565b91506000821415613bce57613bcd6134e4565b5b600182039050919050565b7f537472696e67733a20686578206c656e67746820696e73756666696369656e74600082015250565b6000613c0f602083612904565b9150613c1a82613bd9565b602082019050919050565b60006020820190508181036000830152613c3e81613c02565b9050919050565b7f4552433732313a206d696e7420746f20746865207a65726f2061646472657373600082015250565b6000613c7b602083612904565b9150613c8682613c45565b602082019050919050565b60006020820190508181036000830152613caa81613c6e565b9050919050565b7f4552433732313a20746f6b656e20616c7265616479206d696e74656400000000600082015250565b6000613ce7601c83612904565b9150613cf282613cb1565b602082019050919050565b60006020820190508181036000830152613d1681613cda565b905091905056fea2646970667358221220af6ab4b5e1af2649c418a19a69b6c53814286508213f5ca579477907c65baff964736f6c63430008090033a26469706673582212207218b3a4e5eb249927aacf8d483240c38223b5e1c1e9387c6477e3b7373225fc64736f6c63430008090033",
  "linkReferences": {},
  "deployedLinkReferences": {}
}