{
  "_format": "hh-sol-artifact-1",
  "contractName": "SoulFundFactory",
  "sourceName": "contracts/SoulFundFactory.sol",
  "abi": [
    {
      "inputs": [],
      "stateMutability": "nonpayable",
      "type": "constructor"
    },
    {
      "anonymous": false,
      "inputs": [
        {
          "indexed": false,
          "internalType": "uint8",
          "name": "version",
          "type": "uint8"
        }
      ],
      "name": "Initialized",
      "type": "event"
    },
    {
      "anonymous": false,
      "inputs": [
        {
          "indexed": true,
          "internalType": "address",
          "name": "tokenAddress",
          "type": "address"
        },
        {
          "indexed": true,
          "internalType": "address",
          "name": "beneficiary",
          "type": "address"
        },
        {
          "indexed": false,
          "internalType": "uint256",
          "name": "vestingDate",
          "type": "uint256"
        },
        {
          "indexed": false,
          "internalType": "uint256",
          "name": "depositedAmount",
          "type": "uint256"
        }
      ],
      "name": "NewSoulFundTokenDeployed",
      "type": "event"
    },
    {
      "anonymous": false,
      "inputs": [
        {
          "indexed": false,
          "internalType": "address",
          "name": "account",
          "type": "address"
        }
      ],
      "name": "Paused",
      "type": "event"
    },
    {
      "anonymous": false,
      "inputs": [
        {
          "indexed": true,
          "internalType": "bytes32",
          "name": "role",
          "type": "bytes32"
        },
        {
          "indexed": true,
          "internalType": "bytes32",
          "name": "previousAdminRole",
          "type": "bytes32"
        },
        {
          "indexed": true,
          "internalType": "bytes32",
          "name": "newAdminRole",
          "type": "bytes32"
        }
      ],
      "name": "RoleAdminChanged",
      "type": "event"
    },
    {
      "anonymous": false,
      "inputs": [
        {
          "indexed": true,
          "internalType": "bytes32",
          "name": "role",
          "type": "bytes32"
        },
        {
          "indexed": true,
          "internalType": "address",
          "name": "account",
          "type": "address"
        },
        {
          "indexed": true,
          "internalType": "address",
          "name": "sender",
          "type": "address"
        }
      ],
      "name": "RoleGranted",
      "type": "event"
    },
    {
      "anonymous": false,
      "inputs": [
        {
          "indexed": true,
          "internalType": "bytes32",
          "name": "role",
          "type": "bytes32"
        },
        {
          "indexed": true,
          "internalType": "address",
          "name": "account",
          "type": "address"
        },
        {
          "indexed": true,
          "internalType": "address",
          "name": "sender",
          "type": "address"
        }
      ],
      "name": "RoleRevoked",
      "type": "event"
    },
    {
      "anonymous": false,
      "inputs": [
        {
          "indexed": false,
          "internalType": "address",
          "name": "account",
          "type": "address"
        }
      ],
      "name": "Unpaused",
      "type": "event"
    },
    {
      "inputs": [],
      "name": "DEFAULT_ADMIN_ROLE",
      "outputs": [
        {
          "internalType": "bytes32",
          "name": "",
          "type": "bytes32"
        }
      ],
      "stateMutability": "view",
      "type": "function"
    },
    {
      "inputs": [],
      "name": "PAUSER_ROLE",
      "outputs": [
        {
          "internalType": "bytes32",
          "name": "",
          "type": "bytes32"
        }
      ],
      "stateMutability": "view",
      "type": "function"
    },
    {
      "inputs": [
        {
          "internalType": "address",
          "name": "_beneficiary",
          "type": "address"
        },
        {
          "internalType": "uint256",
          "name": "_vestingDate",
          "type": "uint256"
        }
      ],
      "name": "deployNewSoulFund",
      "outputs": [],
      "stateMutability": "payable",
      "type": "function"
    },
    {
      "inputs": [
        {
          "internalType": "uint256",
          "name": "",
          "type": "uint256"
        }
      ],
      "name": "funds",
      "outputs": [
        {
          "internalType": "address",
          "name": "",
          "type": "address"
        }
      ],
      "stateMutability": "view",
      "type": "function"
    },
    {
      "inputs": [
        {
          "internalType": "bytes32",
          "name": "role",
          "type": "bytes32"
        }
      ],
      "name": "getRoleAdmin",
      "outputs": [
        {
          "internalType": "bytes32",
          "name": "",
          "type": "bytes32"
        }
      ],
      "stateMutability": "view",
      "type": "function"
    },
    {
      "inputs": [
        {
          "internalType": "bytes32",
          "name": "role",
          "type": "bytes32"
        },
        {
          "internalType": "address",
          "name": "account",
          "type": "address"
        }
      ],
      "name": "grantRole",
      "outputs": [],
      "stateMutability": "nonpayable",
      "type": "function"
    },
    {
      "inputs": [
        {
          "internalType": "bytes32",
          "name": "role",
          "type": "bytes32"
        },
        {
          "internalType": "address",
          "name": "account",
          "type": "address"
        }
      ],
      "name": "hasRole",
      "outputs": [
        {
          "internalType": "bool",
          "name": "",
          "type": "bool"
        }
      ],
      "stateMutability": "view",
      "type": "function"
    },
    {
      "inputs": [],
      "name": "initialize",
      "outputs": [],
      "stateMutability": "nonpayable",
      "type": "function"
    },
    {
      "inputs": [],
      "name": "pause",
      "outputs": [],
      "stateMutability": "nonpayable",
      "type": "function"
    },
    {
      "inputs": [],
      "name": "paused",
      "outputs": [
        {
          "internalType": "bool",
          "name": "",
          "type": "bool"
        }
      ],
      "stateMutability": "view",
      "type": "function"
    },
    {
      "inputs": [
        {
          "internalType": "bytes32",
          "name": "role",
          "type": "bytes32"
        },
        {
          "internalType": "address",
          "name": "account",
          "type": "address"
        }
      ],
      "name": "renounceRole",
      "outputs": [],
      "stateMutability": "nonpayable",
      "type": "function"
    },
    {
      "inputs": [
        {
          "internalType": "bytes32",
          "name": "role",
          "type": "bytes32"
        },
        {
          "internalType": "address",
          "name": "account",
          "type": "address"
        }
      ],
      "name": "revokeRole",
      "outputs": [],
      "stateMutability": "nonpayable",
      "type": "function"
    },
    {
      "inputs": [
        {
          "internalType": "bytes4",
          "name": "interfaceId",
          "type": "bytes4"
        }
      ],
      "name": "supportsInterface",
      "outputs": [
        {
          "internalType": "bool",
          "name": "",
          "type": "bool"
        }
      ],
      "stateMutability": "view",
      "type": "function"
    },
    {
      "inputs": [],
      "name": "unpause",
      "outputs": [],
      "stateMutability": "nonpayable",
      "type": "function"
    }
  ],
  "bytecode": "0x60806040523480156200001157600080fd5b50620000226200002860201b60201c565b620001d3565b600060019054906101000a900460ff16156200007b576040517f08c379a0000000000000000000000000000000000000000000000000000000008152600401620000729062000176565b60405180910390fd5b60ff801660008054906101000a900460ff1660ff161015620000ed5760ff6000806101000a81548160ff021916908360ff1602179055507f7f26b83ff96e1f2b6a682f133852f6798a09c465da95921460cefb384740249860ff604051620000e49190620001b6565b60405180910390a15b565b600082825260208201905092915050565b7f496e697469616c697a61626c653a20636f6e747261637420697320696e69746960008201527f616c697a696e6700000000000000000000000000000000000000000000000000602082015250565b60006200015e602783620000ef565b91506200016b8262000100565b604082019050919050565b6000602082019050818103600083015262000191816200014f565b9050919050565b600060ff82169050919050565b620001b08162000198565b82525050565b6000602082019050620001cd6000830184620001a5565b92915050565b6172be80620001e36000396000f3fe608060405260043610620000f25760003560e01c80637b8e8895116200008b57806391d14854116200006157806391d1485414620002bd578063a217fddf1462000301578063d547741f1462000331578063e63ab1e9146200035f57620000f2565b80637b8e889514620002455780638129fc1c14620002895780638456cb5914620002a357620000f2565b806336568abe11620000cd57806336568abe14620001ad5780633f4ba83a14620001db5780635c975abb14620001f5578063653457b3146200022557620000f2565b806301ffc9a714620000f7578063248a9ca3146200013b5780632f2ff15d146200017f575b600080fd5b3480156200010457600080fd5b506200012360048036038101906200011d919062001267565b6200038f565b604051620001329190620012b6565b60405180910390f35b3480156200014857600080fd5b506200016760048036038101906200016191906200130e565b6200040c565b60405162000176919062001351565b60405180910390f35b3480156200018c57600080fd5b50620001ab6004803603810190620001a59190620013d3565b6200042c565b005b348015620001ba57600080fd5b50620001d96004803603810190620001d39190620013d3565b62000453565b005b348015620001e857600080fd5b50620001f3620004dd565b005b3480156200020257600080fd5b506200020d62000516565b6040516200021c9190620012b6565b60405180910390f35b6200024360048036038101906200023d919062001455565b6200052d565b005b3480156200025257600080fd5b506200027160048036038101906200026b91906200149c565b620007a5565b604051620002809190620014df565b60405180910390f35b3480156200029657600080fd5b50620002a1620007d8565b005b348015620002b057600080fd5b50620002bb62000924565b005b348015620002ca57600080fd5b50620002e96004803603810190620002e39190620013d3565b6200095d565b604051620002f89190620012b6565b60405180910390f35b3480156200030e57600080fd5b5062000319620009c8565b60405162000328919062001351565b60405180910390f35b3480156200033e57600080fd5b506200035d6004803603810190620003579190620013d3565b620009cf565b005b3480156200036c57600080fd5b5062000377620009f6565b60405162000386919062001351565b60405180910390f35b60007f7965db0b000000000000000000000000000000000000000000000000000000007bffffffffffffffffffffffffffffffffffffffffffffffffffffffff1916827bffffffffffffffffffffffffffffffffffffffffffffffffffffffff19161480620004055750620004048262000a1a565b5b9050919050565b600060976000838152602001908152602001600020600101549050919050565b62000437826200040c565b620004428162000a84565b6200044e838362000a9c565b505050565b6200045d62000b82565b73ffffffffffffffffffffffffffffffffffffffff168173ffffffffffffffffffffffffffffffffffffffff1614620004cd576040517f08c379a0000000000000000000000000000000000000000000000000000000008152600401620004c49062001583565b60405180910390fd5b620004d9828262000b8a565b5050565b7f65d7a28e3265b37a6474929f336521b332c1681b933f6cb9f3376673440d862a620005098162000a84565b6200051362000c71565b50565b6000603360009054906101000a900460ff16905090565b600073ffffffffffffffffffffffffffffffffffffffff168273ffffffffffffffffffffffffffffffffffffffff161415620005a0576040517f08c379a0000000000000000000000000000000000000000000000000000000008152600401620005979062001641565b60405180910390fd5b428111620005e5576040517f08c379a0000000000000000000000000000000000000000000000000000000008152600401620005dc90620016ff565b60405180910390fd5b600034116200062b576040517f08c379a0000000000000000000000000000000000000000000000000000000008152600401620006229062001797565b60405180910390fd5b6200063760c962000cda565b6000346040516200064890620011f7565b6040518091039082f090508015801562000666573d6000803e3d6000fd5b5090508073ffffffffffffffffffffffffffffffffffffffff1663cd6dc68784846040518363ffffffff1660e01b8152600401620006a6929190620017ca565b600060405180830381600087803b158015620006c157600080fd5b505af1158015620006d6573d6000803e3d6000fd5b505050508060ca6000620006eb60c962000cf0565b815260200190815260200160002060006101000a81548173ffffffffffffffffffffffffffffffffffffffff021916908373ffffffffffffffffffffffffffffffffffffffff1602179055508273ffffffffffffffffffffffffffffffffffffffff163073ffffffffffffffffffffffffffffffffffffffff167fd0fe6c5b2d1f8e291d71df81c1551cf30e28635b3e74c69f2314eb891e6e5d16843460405162000798929190620017f7565b60405180910390a3505050565b60ca6020528060005260406000206000915054906101000a900473ffffffffffffffffffffffffffffffffffffffff1681565b60008060019054906101000a900460ff161590508080156200080a5750600160008054906101000a900460ff1660ff16105b806200083b57506200081c3062000cfe565b1580156200083a5750600160008054906101000a900460ff1660ff16145b5b6200087d576040517f08c379a000000000000000000000000000000000000000000000000000000000815260040162000874906200189a565b60405180910390fd5b60016000806101000a81548160ff021916908360ff1602179055508015620008bb576001600060016101000a81548160ff0219169083151502179055505b620008c562000d21565b8015620009215760008060016101000a81548160ff0219169083151502179055507f7f26b83ff96e1f2b6a682f133852f6798a09c465da95921460cefb3847402498600160405162000918919062001916565b60405180910390a15b50565b7f65d7a28e3265b37a6474929f336521b332c1681b933f6cb9f3376673440d862a620009508162000a84565b6200095a62000d7f565b50565b60006097600084815260200190815260200160002060000160008373ffffffffffffffffffffffffffffffffffffffff1673ffffffffffffffffffffffffffffffffffffffff16815260200190815260200160002060009054906101000a900460ff16905092915050565b6000801b81565b620009da826200040c565b620009e58162000a84565b620009f1838362000b8a565b505050565b7f65d7a28e3265b37a6474929f336521b332c1681b933f6cb9f3376673440d862a81565b60007f01ffc9a7000000000000000000000000000000000000000000000000000000007bffffffffffffffffffffffffffffffffffffffffffffffffffffffff1916827bffffffffffffffffffffffffffffffffffffffffffffffffffffffff1916149050919050565b62000a998162000a9362000b82565b62000de8565b50565b62000aa882826200095d565b62000b7e5760016097600084815260200190815260200160002060000160008373ffffffffffffffffffffffffffffffffffffffff1673ffffffffffffffffffffffffffffffffffffffff16815260200190815260200160002060006101000a81548160ff02191690831515021790555062000b2362000b82565b73ffffffffffffffffffffffffffffffffffffffff168173ffffffffffffffffffffffffffffffffffffffff16837f2f8788117e7eff1d82e926ec794901d17c78024a50270940304540a733656f0d60405160405180910390a45b5050565b600033905090565b62000b9682826200095d565b1562000c6d5760006097600084815260200190815260200160002060000160008373ffffffffffffffffffffffffffffffffffffffff1673ffffffffffffffffffffffffffffffffffffffff16815260200190815260200160002060006101000a81548160ff02191690831515021790555062000c1262000b82565b73ffffffffffffffffffffffffffffffffffffffff168173ffffffffffffffffffffffffffffffffffffffff16837ff6391f5c32d9c69d2a47ea670b442974b53935d1edc7fd64eb21e047a839171b60405160405180910390a45b5050565b62000c7b62000e90565b6000603360006101000a81548160ff0219169083151502179055507f5db9ee0a495bf2e6ff9c91a7834c1ba4fdd244a5e8aa4e537bd38aeae4b073aa62000cc162000b82565b60405162000cd09190620014df565b60405180910390a1565b6001816000016000828254019250508190555050565b600081600001549050919050565b6000808273ffffffffffffffffffffffffffffffffffffffff163b119050919050565b600060019054906101000a900460ff1662000d73576040517f08c379a000000000000000000000000000000000000000000000000000000000815260040162000d6a90620019a9565b60405180910390fd5b62000d7d62000ede565b565b62000d8962000f4d565b6001603360006101000a81548160ff0219169083151502179055507f62e78cea01bee320cd4e420270b5ea74000d11b0c9f74754ebdbfc544b05a25862000dcf62000b82565b60405162000dde9190620014df565b60405180910390a1565b62000df482826200095d565b62000e8c5762000e1c8173ffffffffffffffffffffffffffffffffffffffff16601462000f9c565b62000e2c8360001c602062000f9c565b60405160200162000e3f92919062001aee565b6040516020818303038152906040526040517f08c379a000000000000000000000000000000000000000000000000000000000815260040162000e83919062001b82565b60405180910390fd5b5050565b62000e9a62000516565b62000edc576040517f08c379a000000000000000000000000000000000000000000000000000000000815260040162000ed39062001bf6565b60405180910390fd5b565b600060019054906101000a900460ff1662000f30576040517f08c379a000000000000000000000000000000000000000000000000000000000815260040162000f2790620019a9565b60405180910390fd5b6000603360006101000a81548160ff021916908315150217905550565b62000f5762000516565b1562000f9a576040517f08c379a000000000000000000000000000000000000000000000000000000000815260040162000f919062001c68565b60405180910390fd5b565b60606000600283600262000fb1919062001cb9565b62000fbd919062001d1a565b67ffffffffffffffff81111562000fd95762000fd862001d77565b5b6040519080825280601f01601f1916602001820160405280156200100c5781602001600182028036833780820191505090505b5090507f30000000000000000000000000000000000000000000000000000000000000008160008151811062001047576200104662001da6565b5b60200101907effffffffffffffffffffffffffffffffffffffffffffffffffffffffffffff1916908160001a9053507f780000000000000000000000000000000000000000000000000000000000000081600181518110620010ae57620010ad62001da6565b5b60200101907effffffffffffffffffffffffffffffffffffffffffffffffffffffffffffff1916908160001a90535060006001846002620010f0919062001cb9565b620010fc919062001d1a565b90505b6001811115620011a6577f3031323334353637383961626364656600000000000000000000000000000000600f86166010811062001142576200114162001da6565b5b1a60f81b8282815181106200115c576200115b62001da6565b5b60200101907effffffffffffffffffffffffffffffffffffffffffffffffffffffffffffff1916908160001a905350600485901c9450806200119e9062001dd5565b9050620010ff565b5060008414620011ed576040517f08c379a0000000000000000000000000000000000000000000000000000000008152600401620011e49062001e54565b60405180910390fd5b8091505092915050565b6154128062001e7783390190565b600080fd5b60007fffffffff0000000000000000000000000000000000000000000000000000000082169050919050565b62001241816200120a565b81146200124d57600080fd5b50565b600081359050620012618162001236565b92915050565b60006020828403121562001280576200127f62001205565b5b6000620012908482850162001250565b91505092915050565b60008115159050919050565b620012b08162001299565b82525050565b6000602082019050620012cd6000830184620012a5565b92915050565b6000819050919050565b620012e881620012d3565b8114620012f457600080fd5b50565b6000813590506200130881620012dd565b92915050565b60006020828403121562001327576200132662001205565b5b60006200133784828501620012f7565b91505092915050565b6200134b81620012d3565b82525050565b600060208201905062001368600083018462001340565b92915050565b600073ffffffffffffffffffffffffffffffffffffffff82169050919050565b60006200139b826200136e565b9050919050565b620013ad816200138e565b8114620013b957600080fd5b50565b600081359050620013cd81620013a2565b92915050565b60008060408385031215620013ed57620013ec62001205565b5b6000620013fd85828601620012f7565b92505060206200141085828601620013bc565b9150509250929050565b6000819050919050565b6200142f816200141a565b81146200143b57600080fd5b50565b6000813590506200144f8162001424565b92915050565b600080604083850312156200146f576200146e62001205565b5b60006200147f85828601620013bc565b925050602062001492858286016200143e565b9150509250929050565b600060208284031215620014b557620014b462001205565b5b6000620014c5848285016200143e565b91505092915050565b620014d9816200138e565b82525050565b6000602082019050620014f66000830184620014ce565b92915050565b600082825260208201905092915050565b7f416363657373436f6e74726f6c3a2063616e206f6e6c792072656e6f756e636560008201527f20726f6c657320666f722073656c660000000000000000000000000000000000602082015250565b60006200156b602f83620014fc565b915062001578826200150d565b604082019050919050565b600060208201905081810360008301526200159e816200155c565b9050919050565b7f536f756c46756e64466163746f72792e6465706c6f794e6577536f756c46756e60008201527f643a206d7573742068617665206174206c65617374206f6e652062656e65666960208201527f6369617279000000000000000000000000000000000000000000000000000000604082015250565b600062001629604583620014fc565b91506200163682620015a5565b606082019050919050565b600060208201905081810360008301526200165c816200161a565b9050919050565b7f536f756c46756e64466163746f72792e6465706c6f794e6577536f756c46756e60008201527f643a2076657374696e67206d75737420626520736f6d6574696d6520696e207460208201527f6865206675747572650000000000000000000000000000000000000000000000604082015250565b6000620016e7604983620014fc565b9150620016f48262001663565b606082019050919050565b600060208201905081810360008301526200171a81620016d8565b9050919050565b7f536f756c46756e64466163746f72792e6465706c6f794e6577536f756c46756e60008201527f643a206e6f2066756e6473206465706f73697465640000000000000000000000602082015250565b60006200177f603583620014fc565b91506200178c8262001721565b604082019050919050565b60006020820190508181036000830152620017b28162001770565b9050919050565b620017c4816200141a565b82525050565b6000604082019050620017e16000830185620014ce565b620017f06020830184620017b9565b9392505050565b60006040820190506200180e6000830185620017b9565b6200181d6020830184620017b9565b9392505050565b7f496e697469616c697a61626c653a20636f6e747261637420697320616c72656160008201527f647920696e697469616c697a6564000000000000000000000000000000000000602082015250565b600062001882602e83620014fc565b91506200188f8262001824565b604082019050919050565b60006020820190508181036000830152620018b58162001873565b9050919050565b6000819050919050565b600060ff82169050919050565b6000819050919050565b6000620018fe620018f8620018f284620018bc565b620018d3565b620018c6565b9050919050565b6200191081620018dd565b82525050565b60006020820190506200192d600083018462001905565b92915050565b7f496e697469616c697a61626c653a20636f6e7472616374206973206e6f74206960008201527f6e697469616c697a696e67000000000000000000000000000000000000000000602082015250565b600062001991602b83620014fc565b91506200199e8262001933565b604082019050919050565b60006020820190508181036000830152620019c48162001982565b9050919050565b600081905092915050565b7f416363657373436f6e74726f6c3a206163636f756e7420000000000000000000600082015250565b600062001a0e601783620019cb565b915062001a1b82620019d6565b601782019050919050565b600081519050919050565b60005b8381101562001a5157808201518184015260208101905062001a34565b8381111562001a61576000848401525b50505050565b600062001a748262001a26565b62001a808185620019cb565b935062001a9281856020860162001a31565b80840191505092915050565b7f206973206d697373696e6720726f6c6520000000000000000000000000000000600082015250565b600062001ad6601183620019cb565b915062001ae38262001a9e565b601182019050919050565b600062001afb82620019ff565b915062001b09828562001a67565b915062001b168262001ac7565b915062001b24828462001a67565b91508190509392505050565b6000601f19601f8301169050919050565b600062001b4e8262001a26565b62001b5a8185620014fc565b935062001b6c81856020860162001a31565b62001b778162001b30565b840191505092915050565b6000602082019050818103600083015262001b9e818462001b41565b905092915050565b7f5061757361626c653a206e6f7420706175736564000000000000000000000000600082015250565b600062001bde601483620014fc565b915062001beb8262001ba6565b602082019050919050565b6000602082019050818103600083015262001c118162001bcf565b9050919050565b7f5061757361626c653a2070617573656400000000000000000000000000000000600082015250565b600062001c50601083620014fc565b915062001c5d8262001c18565b602082019050919050565b6000602082019050818103600083015262001c838162001c41565b9050919050565b7f4e487b7100000000000000000000000000000000000000000000000000000000600052601160045260246000fd5b600062001cc6826200141a565b915062001cd3836200141a565b9250817fffffffffffffffffffffffffffffffffffffffffffffffffffffffffffffffff048311821515161562001d0f5762001d0e62001c8a565b5b828202905092915050565b600062001d27826200141a565b915062001d34836200141a565b9250827fffffffffffffffffffffffffffffffffffffffffffffffffffffffffffffffff0382111562001d6c5762001d6b62001c8a565b5b828201905092915050565b7f4e487b7100000000000000000000000000000000000000000000000000000000600052604160045260246000fd5b7f4e487b7100000000000000000000000000000000000000000000000000000000600052603260045260246000fd5b600062001de2826200141a565b9150600082141562001df95762001df862001c8a565b5b600182039050919050565b7f537472696e67733a20686578206c656e67746820696e73756666696369656e74600082015250565b600062001e3c602083620014fc565b915062001e498262001e04565b602082019050919050565b6000602082019050818103600083015262001e6f8162001e2d565b905091905056fe6080604052620000146200001a60201b60201c565b620001c5565b600060019054906101000a900460ff16156200006d576040517f08c379a0000000000000000000000000000000000000000000000000000000008152600401620000649062000168565b60405180910390fd5b60ff801660008054906101000a900460ff1660ff161015620000df5760ff6000806101000a81548160ff021916908360ff1602179055507f7f26b83ff96e1f2b6a682f133852f6798a09c465da95921460cefb384740249860ff604051620000d69190620001a8565b60405180910390a15b565b600082825260208201905092915050565b7f496e697469616c697a61626c653a20636f6e747261637420697320696e69746960008201527f616c697a696e6700000000000000000000000000000000000000000000000000602082015250565b600062000150602783620000e1565b91506200015d82620000f2565b604082019050919050565b60006020820190508181036000830152620001838162000141565b9050919050565b600060ff82169050919050565b620001a2816200018a565b82525050565b6000602082019050620001bf600083018462000197565b92915050565b61523d80620001d56000396000f3fe6080604052600436106102255760003560e01c80639590cf7511610123578063ced3a403116100ab578063e63ab1e91161006f578063e63ab1e914610813578063e985e9c51461083e578063f94c0a111461087b578063fdb0467a146108a6578063fedce7a8146108c257610225565b8063ced3a4031461073b578063cef5234f14610766578063d547741f146107a3578063d6706328146107cc578063d8f5df66146107e857610225565b8063a22cb465116100f2578063a22cb46514610652578063b7134dfa1461067b578063b88d4fde146106b9578063c87b56dd146106e2578063cd6dc6871461071f57610225565b80639590cf75146105a357806395d89b41146105bf5780639e42ce18146105ea578063a217fddf1461062757610225565b806340d097c3116101b15780636352211e116101755780636352211e146104aa57806370a08231146104e75780637ef65609146105245780638456cb591461054f57806391d148541461056657610225565b806340d097c3146103c757806342842e0e146103f0578063438a8ece14610419578063551d4f2a146104565780635c975abb1461047f57610225565b806323b872dd116101f857806323b872dd146102f8578063248a9ca3146103215780632f2ff15d1461035e57806336568abe146103875780633f4ba83a146103b057610225565b806301ffc9a71461022a57806306fdde0314610267578063081812fc14610292578063095ea7b3146102cf575b600080fd5b34801561023657600080fd5b50610251600480360381019061024c9190613689565b6108ff565b60405161025e91906136d1565b60405180910390f35b34801561027357600080fd5b5061027c610911565b6040516102899190613785565b60405180910390f35b34801561029e57600080fd5b506102b960048036038101906102b491906137dd565b6109a3565b6040516102c6919061384b565b60405180910390f35b3480156102db57600080fd5b506102f660048036038101906102f19190613892565b6109e9565b005b34801561030457600080fd5b5061031f600480360381019061031a91906138d2565b610b01565b005b34801561032d57600080fd5b506103486004803603810190610343919061395b565b610b61565b6040516103559190613997565b60405180910390f35b34801561036a57600080fd5b50610385600480360381019061038091906139b2565b610b81565b005b34801561039357600080fd5b506103ae60048036038101906103a991906139b2565b610ba2565b005b3480156103bc57600080fd5b506103c5610c25565b005b3480156103d357600080fd5b506103ee60048036038101906103e991906139f2565b610c5a565b005b3480156103fc57600080fd5b50610417600480360381019061041291906138d2565b610cab565b005b34801561042557600080fd5b50610440600480360381019061043b9190613a1f565b610ccb565b60405161044d9190613a6e565b60405180910390f35b34801561046257600080fd5b5061047d60048036038101906104789190613892565b610cf1565b005b34801561048b57600080fd5b50610494610eb7565b6040516104a191906136d1565b60405180910390f35b3480156104b657600080fd5b506104d160048036038101906104cc91906137dd565b610ece565b6040516104de919061384b565b60405180910390f35b3480156104f357600080fd5b5061050e600480360381019061050991906139f2565b610f80565b60405161051b9190613a6e565b60405180910390f35b34801561053057600080fd5b50610539611038565b6040516105469190613a6e565b60405180910390f35b34801561055b57600080fd5b5061056461103e565b005b34801561057257600080fd5b5061058d600480360381019061058891906139b2565b611073565b60405161059a91906136d1565b60405180910390f35b6105bd60048036038101906105b891906137dd565b6110de565b005b3480156105cb57600080fd5b506105d46111ee565b6040516105e19190613785565b60405180910390f35b3480156105f657600080fd5b50610611600480360381019061060c91906137dd565b611280565b60405161061e9190613a6e565b60405180910390f35b34801561063357600080fd5b5061063c611299565b6040516106499190613997565b60405180910390f35b34801561065e57600080fd5b5061067960048036038101906106749190613ab5565b6112a0565b005b34801561068757600080fd5b506106a2600480360381019061069d9190613af5565b6112b6565b6040516106b0929190613b35565b60405180910390f35b3480156106c557600080fd5b506106e060048036038101906106db9190613c93565b61130d565b005b3480156106ee57600080fd5b50610709600480360381019061070491906137dd565b61136f565b6040516107169190613785565b60405180910390f35b61073960048036038101906107349190613892565b6113d7565b005b34801561074757600080fd5b50610750611625565b60405161075d9190613997565b60405180910390f35b34801561077257600080fd5b5061078d60048036038101906107889190613a1f565b611649565b60405161079a91906136d1565b60405180910390f35b3480156107af57600080fd5b506107ca60048036038101906107c591906139b2565b611678565b005b6107e660048036038101906107e19190613d16565b611699565b005b3480156107f457600080fd5b506107fd611a7f565b60405161080a9190613a6e565b60405180910390f35b34801561081f57600080fd5b50610828611a85565b6040516108359190613997565b60405180910390f35b34801561084a57600080fd5b5061086560048036038101906108609190613d69565b611aa9565b60405161087291906136d1565b60405180910390f35b34801561088757600080fd5b50610890611b3d565b60405161089d9190613997565b60405180910390f35b6108c060048036038101906108bb9190613da9565b611b61565b005b3480156108ce57600080fd5b506108e960048036038101906108e49190613a1f565b611f11565b6040516108f691906136d1565b60405180910390f35b600061090a82611f40565b9050919050565b60606065805461092090613e2b565b80601f016020809104026020016040519081016040528092919081815260200182805461094c90613e2b565b80156109995780601f1061096e57610100808354040283529160200191610999565b820191906000526020600020905b81548152906001019060200180831161097c57829003601f168201915b5050505050905090565b60006109ae82611fba565b6069600083815260200190815260200160002060009054906101000a900473ffffffffffffffffffffffffffffffffffffffff169050919050565b60006109f482610ece565b90508073ffffffffffffffffffffffffffffffffffffffff168373ffffffffffffffffffffffffffffffffffffffff161415610a65576040517f08c379a0000000000000000000000000000000000000000000000000000000008152600401610a5c90613ecf565b60405180910390fd5b8073ffffffffffffffffffffffffffffffffffffffff16610a84612005565b73ffffffffffffffffffffffffffffffffffffffff161480610ab35750610ab281610aad612005565b611aa9565b5b610af2576040517f08c379a0000000000000000000000000000000000000000000000000000000008152600401610ae990613f61565b60405180910390fd5b610afc838361200d565b505050565b610b12610b0c612005565b826120c6565b610b51576040517f08c379a0000000000000000000000000000000000000000000000000000000008152600401610b4890613ff3565b60405180910390fd5b610b5c83838361215b565b505050565b600060c96000838152602001908152602001600020600101549050919050565b610b8a82610b61565b610b93816123c2565b610b9d83836123d6565b505050565b610baa612005565b73ffffffffffffffffffffffffffffffffffffffff168173ffffffffffffffffffffffffffffffffffffffff1614610c17576040517f08c379a0000000000000000000000000000000000000000000000000000000008152600401610c0e90614085565b60405180910390fd5b610c2182826124b7565b5050565b7f65d7a28e3265b37a6474929f336521b332c1681b933f6cb9f3376673440d862a610c4f816123c2565b610c57612599565b50565b7f2dee5dd865e09c7ce6788d674a03682994f0b44339403ca07ac129a9de4bed6a610c84816123c2565b6000610c9060fb6125fc565b9050610c9c60fb61260a565b610ca68382612620565b505050565b610cc68383836040518060200160405280600081525061130d565b505050565b610100602052816000526040600020602052806000526040600020600091509150505481565b6000801b610cfe816123c2565b6000151560fd600084815260200190815260200160002060008573ffffffffffffffffffffffffffffffffffffffff1673ffffffffffffffffffffffffffffffffffffffff16815260200190815260200160002060009054906101000a900460ff16151514610da2576040517f08c379a0000000000000000000000000000000000000000000000000000000008152600401610d9990614117565b60405180910390fd5b600073ffffffffffffffffffffffffffffffffffffffff168373ffffffffffffffffffffffffffffffffffffffff161415610e12576040517f08c379a0000000000000000000000000000000000000000000000000000000008152600401610e09906141a9565b60405180910390fd5b600160fd600084815260200190815260200160002060008573ffffffffffffffffffffffffffffffffffffffff1673ffffffffffffffffffffffffffffffffffffffff16815260200190815260200160002060006101000a81548160ff0219169083151502179055507f4864b3cb8ddce996e7c5f8ec0a006b69d432e6a5df2acff97f2a5ae75ff78f9783604051610eaa919061384b565b60405180910390a1505050565b6000609760009054906101000a900460ff16905090565b6000806067600084815260200190815260200160002060009054906101000a900473ffffffffffffffffffffffffffffffffffffffff169050600073ffffffffffffffffffffffffffffffffffffffff168173ffffffffffffffffffffffffffffffffffffffff161415610f77576040517f08c379a0000000000000000000000000000000000000000000000000000000008152600401610f6e90614215565b60405180910390fd5b80915050919050565b60008073ffffffffffffffffffffffffffffffffffffffff168273ffffffffffffffffffffffffffffffffffffffff161415610ff1576040517f08c379a0000000000000000000000000000000000000000000000000000000008152600401610fe8906142a7565b60405180910390fd5b606860008373ffffffffffffffffffffffffffffffffffffffff1673ffffffffffffffffffffffffffffffffffffffff168152602001908152602001600020549050919050565b6101f481565b7f65d7a28e3265b37a6474929f336521b332c1681b933f6cb9f3376673440d862a611068816123c2565b61107061263e565b50565b600060c9600084815260200190815260200160002060000160008373ffffffffffffffffffffffffffffffffffffffff1673ffffffffffffffffffffffffffffffffffffffff16815260200190815260200160002060009054906101000a900460ff16905092915050565b60006110e982610ece565b9050600073ffffffffffffffffffffffffffffffffffffffff1661110c83610ece565b73ffffffffffffffffffffffffffffffffffffffff161415611163576040517f08c379a000000000000000000000000000000000000000000000000000000000815260040161115a90614339565b60405180910390fd5b6000600a90508173ffffffffffffffffffffffffffffffffffffffff166108fc829081150290604051600060405180830381858888f193505050501580156111af573d6000803e3d6000fd5b507f34ef4ac64e0eac8a04fe2b95d0d037921287716ff3019d01b6712d2e9507509583826040516111e1929190614359565b60405180910390a1505050565b6060606680546111fd90613e2b565b80601f016020809104026020016040519081016040528092919081815260200182805461122990613e2b565b80156112765780601f1061124b57610100808354040283529160200191611276565b820191906000526020600020905b81548152906001019060200180831161125957829003601f168201915b5050505050905090565b6101016020528060005260406000206000915090505481565b6000801b81565b6112b26112ab612005565b83836126a1565b5050565b60ff60205281600052604060002081600581106112d257600080fd5b60020201600091509150508060000160009054906101000a900473ffffffffffffffffffffffffffffffffffffffff16908060010154905082565b61131e611318612005565b836120c6565b61135d576040517f08c379a000000000000000000000000000000000000000000000000000000000815260040161135490613ff3565b60405180910390fd5b6113698484848461280e565b50505050565b606061137a82611fba565b600061138461286a565b905060008151116113a457604051806020016040528060008152506113cf565b806113ae84612881565b6040516020016113bf9291906143be565b6040516020818303038152906040525b915050919050565b60008060019054906101000a900460ff161590508080156114085750600160008054906101000a900460ff1660ff16105b806114355750611417306129e2565b1580156114345750600160008054906101000a900460ff1660ff16145b5b611474576040517f08c379a000000000000000000000000000000000000000000000000000000000815260040161146b90614454565b60405180910390fd5b60016000806101000a81548160ff021916908360ff16021790555080156114b1576001600060016101000a81548160ff0219169083151502179055505b6115256040518060400160405280600881526020017f536f756c46756e640000000000000000000000000000000000000000000000008152506040518060400160405280600381526020017f534c460000000000000000000000000000000000000000000000000000000000815250612a05565b61152d612a62565b611535612abb565b6115426000801b336123d6565b61156c7f65d7a28e3265b37a6474929f336521b332c1681b933f6cb9f3376673440d862a336123d6565b6115967f2dee5dd865e09c7ce6788d674a03682994f0b44339403ca07ac129a9de4bed6a336123d6565b6115c07fc8a41221bcd7fcf2c225f5a9265e1d4d39949d89197159d59e5f4b87b62c419e846123d6565b8160fc8190555080156116205760008060016101000a81548160ff0219169083151502179055507f7f26b83ff96e1f2b6a682f133852f6798a09c465da95921460cefb3847402498600160405161161791906144c6565b60405180910390a15b505050565b7fc8a41221bcd7fcf2c225f5a9265e1d4d39949d89197159d59e5f4b87b62c419e81565b60fe6020528160005260406000206020528060005260406000206000915091509054906101000a900460ff1681565b61168182610b61565b61168a816123c2565b61169483836124b7565b505050565b7f2dee5dd865e09c7ce6788d674a03682994f0b44339403ca07ac129a9de4bed6a6116c3816123c2565b6000610100600086815260200190815260200160002060008573ffffffffffffffffffffffffffffffffffffffff1673ffffffffffffffffffffffffffffffffffffffff1681526020019081526020016000205411801561173857506005610101600086815260200190815260200160002054105b611777576040517f08c379a000000000000000000000000000000000000000000000000000000000815260040161176e90614553565b60405180910390fd5b6000610100600086815260200190815260200160002060008573ffffffffffffffffffffffffffffffffffffffff1673ffffffffffffffffffffffffffffffffffffffff168152602001908152602001600020549050600081141561192a57610101600086815260200190815260200160002060008154809291906117fb906145a2565b9190505550610101600086815260200190815260200160002054610100600087815260200190815260200160002060008673ffffffffffffffffffffffffffffffffffffffff1673ffffffffffffffffffffffffffffffffffffffff16815260200190815260200160002081905550610100600086815260200190815260200160002060008573ffffffffffffffffffffffffffffffffffffffff1673ffffffffffffffffffffffffffffffffffffffff1681526020019081526020016000205490508360ff600087815260200190815260200160002082600581106118e4576118e36145eb565b5b6002020160000160006101000a81548173ffffffffffffffffffffffffffffffffffffffff021916908373ffffffffffffffffffffffffffffffffffffffff1602179055505b600073ffffffffffffffffffffffffffffffffffffffff168473ffffffffffffffffffffffffffffffffffffffff1614156119a6578234146119a1576040517f08c379a00000000000000000000000000000000000000000000000000000000081526004016119989061468c565b60405180910390fd5b611a35565b8373ffffffffffffffffffffffffffffffffffffffff1663a9059cbb33856040518363ffffffff1660e01b81526004016119e1929190613b35565b602060405180830381600087803b1580156119fb57600080fd5b505af1158015611a0f573d6000803e3d6000fd5b505050506040513d601f19601f82011682018060405250810190611a3391906146c1565b505b8260ff60008781526020019081526020016000208260058110611a5b57611a5a6145eb565b5b600202016001016000828254611a7191906146ee565b925050819055505050505050565b60fc5481565b7f65d7a28e3265b37a6474929f336521b332c1681b933f6cb9f3376673440d862a81565b6000606a60008473ffffffffffffffffffffffffffffffffffffffff1673ffffffffffffffffffffffffffffffffffffffff16815260200190815260200160002060008373ffffffffffffffffffffffffffffffffffffffff1673ffffffffffffffffffffffffffffffffffffffff16815260200190815260200160002060009054906101000a900460ff16905092915050565b7f2dee5dd865e09c7ce6788d674a03682994f0b44339403ca07ac129a9de4bed6a81565b60fd600083815260200190815260200160002060008473ffffffffffffffffffffffffffffffffffffffff1673ffffffffffffffffffffffffffffffffffffffff16815260200190815260200160002060009054906101000a900460ff16611bfe576040517f08c379a0000000000000000000000000000000000000000000000000000000008152600401611bf5906147b6565b60405180910390fd5b6000611c0983610ece565b90508073ffffffffffffffffffffffffffffffffffffffff168473ffffffffffffffffffffffffffffffffffffffff16636352211e846040518263ffffffff1660e01b8152600401611c5b9190613a6e565b60206040518083038186803b158015611c7357600080fd5b505afa158015611c87573d6000803e3d6000fd5b505050506040513d601f19601f82011682018060405250810190611cab91906147eb565b73ffffffffffffffffffffffffffffffffffffffff1614611d01576040517f08c379a0000000000000000000000000000000000000000000000000000000008152600401611cf8906148b0565b60405180910390fd5b600073ffffffffffffffffffffffffffffffffffffffff16611d2284610ece565b73ffffffffffffffffffffffffffffffffffffffff161415611d79576040517f08c379a0000000000000000000000000000000000000000000000000000000008152600401611d7090614339565b60405180910390fd5b60fe600083815260200190815260200160002060008573ffffffffffffffffffffffffffffffffffffffff1673ffffffffffffffffffffffffffffffffffffffff16815260200190815260200160002060009054906101000a900460ff1615611e17576040517f08c379a0000000000000000000000000000000000000000000000000000000008152600401611e0e90614942565b60405180910390fd5b6000600a9050600160fe600085815260200190815260200160002060008773ffffffffffffffffffffffffffffffffffffffff1673ffffffffffffffffffffffffffffffffffffffff16815260200190815260200160002060006101000a81548160ff0219169083151502179055508173ffffffffffffffffffffffffffffffffffffffff166108fc829081150290604051600060405180830381858888f19350505050158015611ecc573d6000803e3d6000fd5b507f1063fb17e9a9b2ee9e38c97a5ded9fa5840d8f7023bebf0b0e0489f2e1344bbb84828786604051611f029493929190614962565b60405180910390a15050505050565b60fd6020528160005260406000206020528060005260406000206000915091509054906101000a900460ff1681565b60007f7965db0b000000000000000000000000000000000000000000000000000000007bffffffffffffffffffffffffffffffffffffffffffffffffffffffff1916827bffffffffffffffffffffffffffffffffffffffffffffffffffffffff19161480611fb35750611fb282612b0c565b5b9050919050565b611fc381612bee565b612002576040517f08c379a0000000000000000000000000000000000000000000000000000000008152600401611ff990614215565b60405180910390fd5b50565b600033905090565b816069600083815260200190815260200160002060006101000a81548173ffffffffffffffffffffffffffffffffffffffff021916908373ffffffffffffffffffffffffffffffffffffffff160217905550808273ffffffffffffffffffffffffffffffffffffffff1661208083610ece565b73ffffffffffffffffffffffffffffffffffffffff167f8c5be1e5ebec7d5bd14f71427d1e84f3dd0314c0f7b2291e5b200ac8c7c3b92560405160405180910390a45050565b6000806120d283610ece565b90508073ffffffffffffffffffffffffffffffffffffffff168473ffffffffffffffffffffffffffffffffffffffff16148061211457506121138185611aa9565b5b8061215257508373ffffffffffffffffffffffffffffffffffffffff1661213a846109a3565b73ffffffffffffffffffffffffffffffffffffffff16145b91505092915050565b8273ffffffffffffffffffffffffffffffffffffffff1661217b82610ece565b73ffffffffffffffffffffffffffffffffffffffff16146121d1576040517f08c379a00000000000000000000000000000000000000000000000000000000081526004016121c890614a19565b60405180910390fd5b600073ffffffffffffffffffffffffffffffffffffffff168273ffffffffffffffffffffffffffffffffffffffff161415612241576040517f08c379a000000000000000000000000000000000000000000000000000000000815260040161223890614aab565b60405180910390fd5b61224c838383612c5a565b61225760008261200d565b6001606860008573ffffffffffffffffffffffffffffffffffffffff1673ffffffffffffffffffffffffffffffffffffffff16815260200190815260200160002060008282546122a79190614acb565b925050819055506001606860008473ffffffffffffffffffffffffffffffffffffffff1673ffffffffffffffffffffffffffffffffffffffff16815260200190815260200160002060008282546122fe91906146ee565b92505081905550816067600083815260200190815260200160002060006101000a81548173ffffffffffffffffffffffffffffffffffffffff021916908373ffffffffffffffffffffffffffffffffffffffff160217905550808273ffffffffffffffffffffffffffffffffffffffff168473ffffffffffffffffffffffffffffffffffffffff167fddf252ad1be2c89b69c2b068fc378daa952ba7f163c4a11628f55a4df523b3ef60405160405180910390a46123bd838383612ce1565b505050565b6123d3816123ce612005565b612ce6565b50565b6123e08282611073565b6124b357600160c9600084815260200190815260200160002060000160008373ffffffffffffffffffffffffffffffffffffffff1673ffffffffffffffffffffffffffffffffffffffff16815260200190815260200160002060006101000a81548160ff021916908315150217905550612458612005565b73ffffffffffffffffffffffffffffffffffffffff168173ffffffffffffffffffffffffffffffffffffffff16837f2f8788117e7eff1d82e926ec794901d17c78024a50270940304540a733656f0d60405160405180910390a45b5050565b6124c18282611073565b1561259557600060c9600084815260200190815260200160002060000160008373ffffffffffffffffffffffffffffffffffffffff1673ffffffffffffffffffffffffffffffffffffffff16815260200190815260200160002060006101000a81548160ff02191690831515021790555061253a612005565b73ffffffffffffffffffffffffffffffffffffffff168173ffffffffffffffffffffffffffffffffffffffff16837ff6391f5c32d9c69d2a47ea670b442974b53935d1edc7fd64eb21e047a839171b60405160405180910390a45b5050565b6125a1612d83565b6000609760006101000a81548160ff0219169083151502179055507f5db9ee0a495bf2e6ff9c91a7834c1ba4fdd244a5e8aa4e537bd38aeae4b073aa6125e5612005565b6040516125f2919061384b565b60405180910390a1565b600081600001549050919050565b6001816000016000828254019250508190555050565b61263a828260405180602001604052806000815250612dcc565b5050565b612646612e27565b6001609760006101000a81548160ff0219169083151502179055507f62e78cea01bee320cd4e420270b5ea74000d11b0c9f74754ebdbfc544b05a25861268a612005565b604051612697919061384b565b60405180910390a1565b8173ffffffffffffffffffffffffffffffffffffffff168373ffffffffffffffffffffffffffffffffffffffff161415612710576040517f08c379a000000000000000000000000000000000000000000000000000000000815260040161270790614b4b565b60405180910390fd5b80606a60008573ffffffffffffffffffffffffffffffffffffffff1673ffffffffffffffffffffffffffffffffffffffff16815260200190815260200160002060008473ffffffffffffffffffffffffffffffffffffffff1673ffffffffffffffffffffffffffffffffffffffff16815260200190815260200160002060006101000a81548160ff0219169083151502179055508173ffffffffffffffffffffffffffffffffffffffff168373ffffffffffffffffffffffffffffffffffffffff167f17307eab39ab6107e8899845ad3d59bd9653f200f220920489ca2b5937696c318360405161280191906136d1565b60405180910390a3505050565b61281984848461215b565b61282584848484612e71565b612864576040517f08c379a000000000000000000000000000000000000000000000000000000000815260040161285b90614bdd565b60405180910390fd5b50505050565b606060405180602001604052806000815250905090565b606060008214156128c9576040518060400160405280600181526020017f300000000000000000000000000000000000000000000000000000000000000081525090506129dd565b600082905060005b600082146128fb5780806128e4906145a2565b915050600a826128f49190614c2c565b91506128d1565b60008167ffffffffffffffff81111561291757612916613b68565b5b6040519080825280601f01601f1916602001820160405280156129495781602001600182028036833780820191505090505b5090505b600085146129d6576001826129629190614acb565b9150600a856129719190614c5d565b603061297d91906146ee565b60f81b818381518110612993576129926145eb565b5b60200101907effffffffffffffffffffffffffffffffffffffffffffffffffffffffffffff1916908160001a905350600a856129cf9190614c2c565b945061294d565b8093505050505b919050565b6000808273ffffffffffffffffffffffffffffffffffffffff163b119050919050565b600060019054906101000a900460ff16612a54576040517f08c379a0000000000000000000000000000000000000000000000000000000008152600401612a4b90614d00565b60405180910390fd5b612a5e8282613008565b5050565b600060019054906101000a900460ff16612ab1576040517f08c379a0000000000000000000000000000000000000000000000000000000008152600401612aa890614d00565b60405180910390fd5b612ab9613089565b565b600060019054906101000a900460ff16612b0a576040517f08c379a0000000000000000000000000000000000000000000000000000000008152600401612b0190614d00565b60405180910390fd5b565b60007f80ac58cd000000000000000000000000000000000000000000000000000000007bffffffffffffffffffffffffffffffffffffffffffffffffffffffff1916827bffffffffffffffffffffffffffffffffffffffffffffffffffffffff19161480612bd757507f5b5e139f000000000000000000000000000000000000000000000000000000007bffffffffffffffffffffffffffffffffffffffffffffffffffffffff1916827bffffffffffffffffffffffffffffffffffffffffffffffffffffffff1916145b80612be75750612be6826130f5565b5b9050919050565b60008073ffffffffffffffffffffffffffffffffffffffff166067600084815260200190815260200160002060009054906101000a900473ffffffffffffffffffffffffffffffffffffffff1673ffffffffffffffffffffffffffffffffffffffff1614159050919050565b612c62612e27565b600073ffffffffffffffffffffffffffffffffffffffff168373ffffffffffffffffffffffffffffffffffffffff1614612cd1576040517f08c379a0000000000000000000000000000000000000000000000000000000008152600401612cc890614d92565b60405180910390fd5b612cdc83838361315f565b505050565b505050565b612cf08282611073565b612d7f57612d158173ffffffffffffffffffffffffffffffffffffffff166014613164565b612d238360001c6020613164565b604051602001612d34929190614e4a565b6040516020818303038152906040526040517f08c379a0000000000000000000000000000000000000000000000000000000008152600401612d769190613785565b60405180910390fd5b5050565b612d8b610eb7565b612dca576040517f08c379a0000000000000000000000000000000000000000000000000000000008152600401612dc190614ed0565b60405180910390fd5b565b612dd683836133a0565b612de36000848484612e71565b612e22576040517f08c379a0000000000000000000000000000000000000000000000000000000008152600401612e1990614bdd565b60405180910390fd5b505050565b612e2f610eb7565b15612e6f576040517f08c379a0000000000000000000000000000000000000000000000000000000008152600401612e6690614f3c565b60405180910390fd5b565b6000612e928473ffffffffffffffffffffffffffffffffffffffff166129e2565b15612ffb578373ffffffffffffffffffffffffffffffffffffffff1663150b7a02612ebb612005565b8786866040518563ffffffff1660e01b8152600401612edd9493929190614fb1565b602060405180830381600087803b158015612ef757600080fd5b505af1925050508015612f2857506040513d601f19601f82011682018060405250810190612f259190615012565b60015b612fab573d8060008114612f58576040519150601f19603f3d011682016040523d82523d6000602084013e612f5d565b606091505b50600081511415612fa3576040517f08c379a0000000000000000000000000000000000000000000000000000000008152600401612f9a90614bdd565b60405180910390fd5b805181602001fd5b63150b7a0260e01b7bffffffffffffffffffffffffffffffffffffffffffffffffffffffff1916817bffffffffffffffffffffffffffffffffffffffffffffffffffffffff191614915050613000565b600190505b949350505050565b600060019054906101000a900460ff16613057576040517f08c379a000000000000000000000000000000000000000000000000000000000815260040161304e90614d00565b60405180910390fd5b816065908051906020019061306d92919061357a565b50806066908051906020019061308492919061357a565b505050565b600060019054906101000a900460ff166130d8576040517f08c379a00000000000000000000000000000000000000000000000000000000081526004016130cf90614d00565b60405180910390fd5b6000609760006101000a81548160ff021916908315150217905550565b60007f01ffc9a7000000000000000000000000000000000000000000000000000000007bffffffffffffffffffffffffffffffffffffffffffffffffffffffff1916827bffffffffffffffffffffffffffffffffffffffffffffffffffffffff1916149050919050565b505050565b606060006002836002613177919061503f565b61318191906146ee565b67ffffffffffffffff81111561319a57613199613b68565b5b6040519080825280601f01601f1916602001820160405280156131cc5781602001600182028036833780820191505090505b5090507f300000000000000000000000000000000000000000000000000000000000000081600081518110613204576132036145eb565b5b60200101907effffffffffffffffffffffffffffffffffffffffffffffffffffffffffffff1916908160001a9053507f780000000000000000000000000000000000000000000000000000000000000081600181518110613268576132676145eb565b5b60200101907effffffffffffffffffffffffffffffffffffffffffffffffffffffffffffff1916908160001a905350600060018460026132a8919061503f565b6132b291906146ee565b90505b6001811115613352577f3031323334353637383961626364656600000000000000000000000000000000600f8616601081106132f4576132f36145eb565b5b1a60f81b82828151811061330b5761330a6145eb565b5b60200101907effffffffffffffffffffffffffffffffffffffffffffffffffffffffffffff1916908160001a905350600485901c94508061334b90615099565b90506132b5565b5060008414613396576040517f08c379a000000000000000000000000000000000000000000000000000000000815260040161338d9061510f565b60405180910390fd5b8091505092915050565b600073ffffffffffffffffffffffffffffffffffffffff168273ffffffffffffffffffffffffffffffffffffffff161415613410576040517f08c379a00000000000000000000000000000000000000000000000000000000081526004016134079061517b565b60405180910390fd5b61341981612bee565b15613459576040517f08c379a0000000000000000000000000000000000000000000000000000000008152600401613450906151e7565b60405180910390fd5b61346560008383612c5a565b6001606860008473ffffffffffffffffffffffffffffffffffffffff1673ffffffffffffffffffffffffffffffffffffffff16815260200190815260200160002060008282546134b591906146ee565b92505081905550816067600083815260200190815260200160002060006101000a81548173ffffffffffffffffffffffffffffffffffffffff021916908373ffffffffffffffffffffffffffffffffffffffff160217905550808273ffffffffffffffffffffffffffffffffffffffff16600073ffffffffffffffffffffffffffffffffffffffff167fddf252ad1be2c89b69c2b068fc378daa952ba7f163c4a11628f55a4df523b3ef60405160405180910390a461357660008383612ce1565b5050565b82805461358690613e2b565b90600052602060002090601f0160209004810192826135a857600085556135ef565b82601f106135c157805160ff19168380011785556135ef565b828001600101855582156135ef579182015b828111156135ee5782518255916020019190600101906135d3565b5b5090506135fc9190613600565b5090565b5b80821115613619576000816000905550600101613601565b5090565b6000604051905090565b600080fd5b600080fd5b60007fffffffff0000000000000000000000000000000000000000000000000000000082169050919050565b61366681613631565b811461367157600080fd5b50565b6000813590506136838161365d565b92915050565b60006020828403121561369f5761369e613627565b5b60006136ad84828501613674565b91505092915050565b60008115159050919050565b6136cb816136b6565b82525050565b60006020820190506136e660008301846136c2565b92915050565b600081519050919050565b600082825260208201905092915050565b60005b8381101561372657808201518184015260208101905061370b565b83811115613735576000848401525b50505050565b6000601f19601f8301169050919050565b6000613757826136ec565b61376181856136f7565b9350613771818560208601613708565b61377a8161373b565b840191505092915050565b6000602082019050818103600083015261379f818461374c565b905092915050565b6000819050919050565b6137ba816137a7565b81146137c557600080fd5b50565b6000813590506137d7816137b1565b92915050565b6000602082840312156137f3576137f2613627565b5b6000613801848285016137c8565b91505092915050565b600073ffffffffffffffffffffffffffffffffffffffff82169050919050565b60006138358261380a565b9050919050565b6138458161382a565b82525050565b6000602082019050613860600083018461383c565b92915050565b61386f8161382a565b811461387a57600080fd5b50565b60008135905061388c81613866565b92915050565b600080604083850312156138a9576138a8613627565b5b60006138b78582860161387d565b92505060206138c8858286016137c8565b9150509250929050565b6000806000606084860312156138eb576138ea613627565b5b60006138f98682870161387d565b935050602061390a8682870161387d565b925050604061391b868287016137c8565b9150509250925092565b6000819050919050565b61393881613925565b811461394357600080fd5b50565b6000813590506139558161392f565b92915050565b60006020828403121561397157613970613627565b5b600061397f84828501613946565b91505092915050565b61399181613925565b82525050565b60006020820190506139ac6000830184613988565b92915050565b600080604083850312156139c9576139c8613627565b5b60006139d785828601613946565b92505060206139e88582860161387d565b9150509250929050565b600060208284031215613a0857613a07613627565b5b6000613a168482850161387d565b91505092915050565b60008060408385031215613a3657613a35613627565b5b6000613a44858286016137c8565b9250506020613a558582860161387d565b9150509250929050565b613a68816137a7565b82525050565b6000602082019050613a836000830184613a5f565b92915050565b613a92816136b6565b8114613a9d57600080fd5b50565b600081359050613aaf81613a89565b92915050565b60008060408385031215613acc57613acb613627565b5b6000613ada8582860161387d565b9250506020613aeb85828601613aa0565b9150509250929050565b60008060408385031215613b0c57613b0b613627565b5b6000613b1a858286016137c8565b9250506020613b2b858286016137c8565b9150509250929050565b6000604082019050613b4a600083018561383c565b613b576020830184613a5f565b9392505050565b600080fd5b600080fd5b7f4e487b7100000000000000000000000000000000000000000000000000000000600052604160045260246000fd5b613ba08261373b565b810181811067ffffffffffffffff82111715613bbf57613bbe613b68565b5b80604052505050565b6000613bd261361d565b9050613bde8282613b97565b919050565b600067ffffffffffffffff821115613bfe57613bfd613b68565b5b613c078261373b565b9050602081019050919050565b82818337600083830152505050565b6000613c36613c3184613be3565b613bc8565b905082815260208101848484011115613c5257613c51613b63565b5b613c5d848285613c14565b509392505050565b600082601f830112613c7a57613c79613b5e565b5b8135613c8a848260208601613c23565b91505092915050565b60008060008060808587031215613cad57613cac613627565b5b6000613cbb8782880161387d565b9450506020613ccc8782880161387d565b9350506040613cdd878288016137c8565b925050606085013567ffffffffffffffff811115613cfe57613cfd61362c565b5b613d0a87828801613c65565b91505092959194509250565b600080600060608486031215613d2f57613d2e613627565b5b6000613d3d868287016137c8565b9350506020613d4e8682870161387d565b9250506040613d5f868287016137c8565b9150509250925092565b60008060408385031215613d8057613d7f613627565b5b6000613d8e8582860161387d565b9250506020613d9f8582860161387d565b9150509250929050565b600080600060608486031215613dc257613dc1613627565b5b6000613dd08682870161387d565b9350506020613de1868287016137c8565b9250506040613df2868287016137c8565b9150509250925092565b7f4e487b7100000000000000000000000000000000000000000000000000000000600052602260045260246000fd5b60006002820490506001821680613e4357607f821691505b60208210811415613e5757613e56613dfc565b5b50919050565b7f4552433732313a20617070726f76616c20746f2063757272656e74206f776e6560008201527f7200000000000000000000000000000000000000000000000000000000000000602082015250565b6000613eb96021836136f7565b9150613ec482613e5d565b604082019050919050565b60006020820190508181036000830152613ee881613eac565b9050919050565b7f4552433732313a20617070726f76652063616c6c6572206973206e6f7420746f60008201527f6b656e206f776e6572206e6f7220617070726f76656420666f7220616c6c0000602082015250565b6000613f4b603e836136f7565b9150613f5682613eef565b604082019050919050565b60006020820190508181036000830152613f7a81613f3e565b9050919050565b7f4552433732313a2063616c6c6572206973206e6f7420746f6b656e206f776e6560008201527f72206e6f7220617070726f766564000000000000000000000000000000000000602082015250565b6000613fdd602e836136f7565b9150613fe882613f81565b604082019050919050565b6000602082019050818103600083015261400c81613fd0565b9050919050565b7f416363657373436f6e74726f6c3a2063616e206f6e6c792072656e6f756e636560008201527f20726f6c657320666f722073656c660000000000000000000000000000000000602082015250565b600061406f602f836136f7565b915061407a82614013565b604082019050919050565b6000602082019050818103600083015261409e81614062565b9050919050565b7f536f756c46756e642e77686974656c6973744e66743a2061646472657373206160008201527f6c72656164792061646465640000000000000000000000000000000000000000602082015250565b6000614101602c836136f7565b915061410c826140a5565b604082019050919050565b60006020820190508181036000830152614130816140f4565b9050919050565b7f536f756c46756e642e77686974656c6973744e66743a2063616e6e6f7420616460008201527f6420302061646472657373000000000000000000000000000000000000000000602082015250565b6000614193602b836136f7565b915061419e82614137565b604082019050919050565b600060208201905081810360008301526141c281614186565b9050919050565b7f4552433732313a20696e76616c696420746f6b656e2049440000000000000000600082015250565b60006141ff6018836136f7565b915061420a826141c9565b602082019050919050565b6000602082019050818103600083015261422e816141f2565b9050919050565b7f4552433732313a2061646472657373207a65726f206973206e6f74206120766160008201527f6c6964206f776e65720000000000000000000000000000000000000000000000602082015250565b60006142916029836136f7565b915061429c82614235565b604082019050919050565b600060208201905081810360008301526142c081614284565b9050919050565b7f536f756c46756e642e636c61696d46756e64734561726c793a2066756e64206460008201527f6f6573206e6f7420657869737400000000000000000000000000000000000000602082015250565b6000614323602d836136f7565b915061432e826142c7565b604082019050919050565b6000602082019050818103600083015261435281614316565b9050919050565b600060408201905061436e6000830185613a5f565b61437b6020830184613a5f565b9392505050565b600081905092915050565b6000614398826136ec565b6143a28185614382565b93506143b2818560208601613708565b80840191505092915050565b60006143ca828561438d565b91506143d6828461438d565b91508190509392505050565b7f496e697469616c697a61626c653a20636f6e747261637420697320616c72656160008201527f647920696e697469616c697a6564000000000000000000000000000000000000602082015250565b600061443e602e836136f7565b9150614449826143e2565b604082019050919050565b6000602082019050818103600083015261446d81614431565b9050919050565b6000819050919050565b600060ff82169050919050565b6000819050919050565b60006144b06144ab6144a684614474565b61448b565b61447e565b9050919050565b6144c081614495565b82525050565b60006020820190506144db60008301846144b7565b92915050565b7f536f756c46756e642e6465706f73697446756e643a206d61782063757272656e60008201527f6379207479706520726561636865642e00000000000000000000000000000000602082015250565b600061453d6030836136f7565b9150614548826144e1565b604082019050919050565b6000602082019050818103600083015261456c81614530565b9050919050565b7f4e487b7100000000000000000000000000000000000000000000000000000000600052601160045260246000fd5b60006145ad826137a7565b91507fffffffffffffffffffffffffffffffffffffffffffffffffffffffffffffffff8214156145e0576145df614573565b5b600182019050919050565b7f4e487b7100000000000000000000000000000000000000000000000000000000600052603260045260246000fd5b7f536f756c46756e642e6465706f73697446756e643a20616d6f756e74206d697360008201527f6d617463682e0000000000000000000000000000000000000000000000000000602082015250565b60006146766026836136f7565b91506146818261461a565b604082019050919050565b600060208201905081810360008301526146a581614669565b9050919050565b6000815190506146bb81613a89565b92915050565b6000602082840312156146d7576146d6613627565b5b60006146e5848285016146ac565b91505092915050565b60006146f9826137a7565b9150614704836137a7565b9250827fffffffffffffffffffffffffffffffffffffffffffffffffffffffffffffffff0382111561473957614738614573565b5b828201905092915050565b7f536f756c46756e642e636c61696d46756e64734561726c793a204e4654206e6f60008201527f742077686974656c697374656400000000000000000000000000000000000000602082015250565b60006147a0602d836136f7565b91506147ab82614744565b604082019050919050565b600060208201905081810360008301526147cf81614793565b9050919050565b6000815190506147e581613866565b92915050565b60006020828403121561480157614800613627565b5b600061480f848285016147d6565b91505092915050565b7f536f756c46756e642e636c61696d46756e64734561726c793a2062656e65666960008201527f636961727920646f6573206e6f74206f776e206e66742072657175697265642060208201527f746f20636c61696d2066756e6473000000000000000000000000000000000000604082015250565b600061489a604e836136f7565b91506148a582614818565b606082019050919050565b600060208201905081810360008301526148c98161488d565b9050919050565b7f536f756c46756e642e636c61696d46756e64734561726c793a20436c61696d2060008201527f746f6b656e204e46542068617320616c7265616479206265656e207370656e74602082015250565b600061492c6040836136f7565b9150614937826148d0565b604082019050919050565b6000602082019050818103600083015261495b8161491f565b9050919050565b60006080820190506149776000830187613a5f565b6149846020830186613a5f565b614991604083018561383c565b61499e6060830184613a5f565b95945050505050565b7f4552433732313a207472616e736665722066726f6d20696e636f72726563742060008201527f6f776e6572000000000000000000000000000000000000000000000000000000602082015250565b6000614a036025836136f7565b9150614a0e826149a7565b604082019050919050565b60006020820190508181036000830152614a32816149f6565b9050919050565b7f4552433732313a207472616e7366657220746f20746865207a65726f2061646460008201527f7265737300000000000000000000000000000000000000000000000000000000602082015250565b6000614a956024836136f7565b9150614aa082614a39565b604082019050919050565b60006020820190508181036000830152614ac481614a88565b9050919050565b6000614ad6826137a7565b9150614ae1836137a7565b925082821015614af457614af3614573565b5b828203905092915050565b7f4552433732313a20617070726f766520746f2063616c6c657200000000000000600082015250565b6000614b356019836136f7565b9150614b4082614aff565b602082019050919050565b60006020820190508181036000830152614b6481614b28565b9050919050565b7f4552433732313a207472616e7366657220746f206e6f6e20455243373231526560008201527f63656976657220696d706c656d656e7465720000000000000000000000000000602082015250565b6000614bc76032836136f7565b9150614bd282614b6b565b604082019050919050565b60006020820190508181036000830152614bf681614bba565b9050919050565b7f4e487b7100000000000000000000000000000000000000000000000000000000600052601260045260246000fd5b6000614c37826137a7565b9150614c42836137a7565b925082614c5257614c51614bfd565b5b828204905092915050565b6000614c68826137a7565b9150614c73836137a7565b925082614c8357614c82614bfd565b5b828206905092915050565b7f496e697469616c697a61626c653a20636f6e7472616374206973206e6f74206960008201527f6e697469616c697a696e67000000000000000000000000000000000000000000602082015250565b6000614cea602b836136f7565b9150614cf582614c8e565b604082019050919050565b60006020820190508181036000830152614d1981614cdd565b9050919050565b7f536f756c46756e643a20736f756c20626f756e6420746f6b656e2063616e6e6f60008201527f74206265207472616e7366657272656400000000000000000000000000000000602082015250565b6000614d7c6030836136f7565b9150614d8782614d20565b604082019050919050565b60006020820190508181036000830152614dab81614d6f565b9050919050565b7f416363657373436f6e74726f6c3a206163636f756e7420000000000000000000600082015250565b6000614de8601783614382565b9150614df382614db2565b601782019050919050565b7f206973206d697373696e6720726f6c6520000000000000000000000000000000600082015250565b6000614e34601183614382565b9150614e3f82614dfe565b601182019050919050565b6000614e5582614ddb565b9150614e61828561438d565b9150614e6c82614e27565b9150614e78828461438d565b91508190509392505050565b7f5061757361626c653a206e6f7420706175736564000000000000000000000000600082015250565b6000614eba6014836136f7565b9150614ec582614e84565b602082019050919050565b60006020820190508181036000830152614ee981614ead565b9050919050565b7f5061757361626c653a2070617573656400000000000000000000000000000000600082015250565b6000614f266010836136f7565b9150614f3182614ef0565b602082019050919050565b60006020820190508181036000830152614f5581614f19565b9050919050565b600081519050919050565b600082825260208201905092915050565b6000614f8382614f5c565b614f8d8185614f67565b9350614f9d818560208601613708565b614fa68161373b565b840191505092915050565b6000608082019050614fc6600083018761383c565b614fd3602083018661383c565b614fe06040830185613a5f565b8181036060830152614ff28184614f78565b905095945050505050565b60008151905061500c8161365d565b92915050565b60006020828403121561502857615027613627565b5b600061503684828501614ffd565b91505092915050565b600061504a826137a7565b9150615055836137a7565b9250817fffffffffffffffffffffffffffffffffffffffffffffffffffffffffffffffff048311821515161561508e5761508d614573565b5b828202905092915050565b60006150a4826137a7565b915060008214156150b8576150b7614573565b5b600182039050919050565b7f537472696e67733a20686578206c656e67746820696e73756666696369656e74600082015250565b60006150f96020836136f7565b9150615104826150c3565b602082019050919050565b60006020820190508181036000830152615128816150ec565b9050919050565b7f4552433732313a206d696e7420746f20746865207a65726f2061646472657373600082015250565b60006151656020836136f7565b91506151708261512f565b602082019050919050565b6000602082019050818103600083015261519481615158565b9050919050565b7f4552433732313a20746f6b656e20616c7265616479206d696e74656400000000600082015250565b60006151d1601c836136f7565b91506151dc8261519b565b602082019050919050565b60006020820190508181036000830152615200816151c4565b905091905056fea2646970667358221220450ff044d642ca3cd88313371d184dbc9a488934b21d2d3b35c97d8249c8e55764736f6c63430008090033a264697066735822122059f60e8511a6374f7097d1d8f4fdb7c3aed4f30846ab7d4661b48d6f97b9496e64736f6c63430008090033",
  "linkReferences": {},
  "deployedLinkReferences": {}
}