{
  "_format": "hh-sol-artifact-1",
  "contractName": "SoulFundFactory",
  "sourceName": "contracts/SoulFundFactory.sol",
  "abi": [
    {
      "inputs": [],
      "stateMutability": "nonpayable",
      "type": "constructor"
    },
    {
      "anonymous": false,
      "inputs": [
        {
          "indexed": false,
          "internalType": "uint8",
          "name": "version",
          "type": "uint8"
        }
      ],
      "name": "Initialized",
      "type": "event"
    },
    {
      "anonymous": false,
      "inputs": [
        {
          "indexed": true,
          "internalType": "address",
          "name": "tokenAddress",
          "type": "address"
        },
        {
          "indexed": true,
          "internalType": "address",
          "name": "beneficiary",
          "type": "address"
        },
        {
          "indexed": false,
          "internalType": "uint256",
          "name": "vestingDate",
          "type": "uint256"
        },
        {
          "indexed": false,
          "internalType": "uint256",
          "name": "depositedAmount",
          "type": "uint256"
        }
      ],
      "name": "NewSoulFundTokenDeployed",
      "type": "event"
    },
    {
      "inputs": [],
      "name": "PAUSER_ROLE",
      "outputs": [
        {
          "internalType": "bytes32",
          "name": "",
          "type": "bytes32"
        }
      ],
      "stateMutability": "view",
      "type": "function"
    },
    {
      "inputs": [
        {
          "internalType": "address",
          "name": "_beneficiary",
          "type": "address"
        },
        {
          "internalType": "uint256",
          "name": "_vestingDate",
          "type": "uint256"
        }
      ],
      "name": "deployNewSoulFund",
      "outputs": [],
      "stateMutability": "payable",
      "type": "function"
    },
    {
      "inputs": [],
      "name": "fundCounter",
      "outputs": [
        {
          "internalType": "uint256",
          "name": "",
          "type": "uint256"
        }
      ],
      "stateMutability": "view",
      "type": "function"
    },
    {
      "inputs": [
        {
          "internalType": "uint256",
          "name": "",
          "type": "uint256"
        }
      ],
      "name": "funds",
      "outputs": [
        {
          "internalType": "address",
          "name": "",
          "type": "address"
        }
      ],
      "stateMutability": "view",
      "type": "function"
    },
    {
      "inputs": [
        {
          "internalType": "address",
          "name": "_data",
          "type": "address"
        }
      ],
      "name": "initialize",
      "outputs": [],
      "stateMutability": "nonpayable",
      "type": "function"
    }
  ],
  "bytecode": "0x608060405234801561001057600080fd5b5061001f61002460201b60201c565b6101bf565b600060019054906101000a900460ff1615610074576040517f08c379a000000000000000000000000000000000000000000000000000000000815260040161006b90610168565b60405180910390fd5b60ff801660008054906101000a900460ff1660ff1610156100e35760ff6000806101000a81548160ff021916908360ff1602179055507f7f26b83ff96e1f2b6a682f133852f6798a09c465da95921460cefb384740249860ff6040516100da91906101a4565b60405180910390a15b565b600082825260208201905092915050565b7f496e697469616c697a61626c653a20636f6e747261637420697320696e69746960008201527f616c697a696e6700000000000000000000000000000000000000000000000000602082015250565b60006101526027836100e5565b915061015d826100f6565b604082019050919050565b6000602082019050818103600083015261018181610145565b9050919050565b600060ff82169050919050565b61019e81610188565b82525050565b60006020820190506101b96000830184610195565b92915050565b615fae80620001cf6000396000f3fe608060405260043610620000505760003560e01c8063653457b3146200005557806376867eae14620000755780637b8e889514620000a5578063c4d66de814620000e9578063e63ab1e91462000117575b600080fd5b6200007360048036038101906200006d9190620006a0565b62000147565b005b3480156200008257600080fd5b506200008d620003e9565b6040516200009c9190620006f8565b60405180910390f35b348015620000b257600080fd5b50620000d16004803603810190620000cb919062000715565b620003ef565b604051620000e0919062000758565b60405180910390f35b348015620000f657600080fd5b506200011560048036038101906200010f919062000775565b62000422565b005b3480156200012457600080fd5b506200012f620005a6565b6040516200013e9190620007c2565b60405180910390f35b600073ffffffffffffffffffffffffffffffffffffffff168273ffffffffffffffffffffffffffffffffffffffff161415620001ba576040517f08c379a0000000000000000000000000000000000000000000000000000000008152600401620001b1906200088c565b60405180910390fd5b428111620001ff576040517f08c379a0000000000000000000000000000000000000000000000000000000008152600401620001f6906200094a565b60405180910390fd5b6000341162000245576040517f08c379a00000000000000000000000000000000000000000000000000000000081526004016200023c90620009e2565b60405180910390fd5b600180600082825462000259919062000a33565b925050819055506000346040516200027190620005ed565b6040518091039082f09050801580156200028f573d6000803e3d6000fd5b5090508073ffffffffffffffffffffffffffffffffffffffff1663c350a1b58484600260009054906101000a900473ffffffffffffffffffffffffffffffffffffffff166040518463ffffffff1660e01b8152600401620002f39392919062000a90565b600060405180830381600087803b1580156200030e57600080fd5b505af115801562000323573d6000803e3d6000fd5b505050508060036000600154815260200190815260200160002060006101000a81548173ffffffffffffffffffffffffffffffffffffffff021916908373ffffffffffffffffffffffffffffffffffffffff1602179055508273ffffffffffffffffffffffffffffffffffffffff163073ffffffffffffffffffffffffffffffffffffffff167fd0fe6c5b2d1f8e291d71df81c1551cf30e28635b3e74c69f2314eb891e6e5d168434604051620003dc92919062000acd565b60405180910390a3505050565b60015481565b60036020528060005260406000206000915054906101000a900473ffffffffffffffffffffffffffffffffffffffff1681565b60008060019054906101000a900460ff16159050808015620004545750600160008054906101000a900460ff1660ff16105b806200048557506200046630620005ca565b158015620004845750600160008054906101000a900460ff1660ff16145b5b620004c7576040517f08c379a0000000000000000000000000000000000000000000000000000000008152600401620004be9062000b70565b60405180910390fd5b60016000806101000a81548160ff021916908360ff160217905550801562000505576001600060016101000a81548160ff0219169083151502179055505b81600260006101000a81548173ffffffffffffffffffffffffffffffffffffffff021916908373ffffffffffffffffffffffffffffffffffffffff1602179055508015620005a25760008060016101000a81548160ff0219169083151502179055507f7f26b83ff96e1f2b6a682f133852f6798a09c465da95921460cefb3847402498600160405162000599919062000bec565b60405180910390a15b5050565b7f65d7a28e3265b37a6474929f336521b332c1681b933f6cb9f3376673440d862a81565b6000808273ffffffffffffffffffffffffffffffffffffffff163b119050919050565b61536f8062000c0a83390190565b600080fd5b600073ffffffffffffffffffffffffffffffffffffffff82169050919050565b60006200062d8262000600565b9050919050565b6200063f8162000620565b81146200064b57600080fd5b50565b6000813590506200065f8162000634565b92915050565b6000819050919050565b6200067a8162000665565b81146200068657600080fd5b50565b6000813590506200069a816200066f565b92915050565b60008060408385031215620006ba57620006b9620005fb565b5b6000620006ca858286016200064e565b9250506020620006dd8582860162000689565b9150509250929050565b620006f28162000665565b82525050565b60006020820190506200070f6000830184620006e7565b92915050565b6000602082840312156200072e576200072d620005fb565b5b60006200073e8482850162000689565b91505092915050565b620007528162000620565b82525050565b60006020820190506200076f600083018462000747565b92915050565b6000602082840312156200078e576200078d620005fb565b5b60006200079e848285016200064e565b91505092915050565b6000819050919050565b620007bc81620007a7565b82525050565b6000602082019050620007d96000830184620007b1565b92915050565b600082825260208201905092915050565b7f536f756c46756e64466163746f72792e6465706c6f794e6577536f756c46756e60008201527f643a206d7573742068617665206174206c65617374206f6e652062656e65666960208201527f6369617279000000000000000000000000000000000000000000000000000000604082015250565b600062000874604583620007df565b91506200088182620007f0565b606082019050919050565b60006020820190508181036000830152620008a78162000865565b9050919050565b7f536f756c46756e64466163746f72792e6465706c6f794e6577536f756c46756e60008201527f643a2076657374696e67206d75737420626520736f6d6574696d6520696e207460208201527f6865206675747572650000000000000000000000000000000000000000000000604082015250565b600062000932604983620007df565b91506200093f82620008ae565b606082019050919050565b60006020820190508181036000830152620009658162000923565b9050919050565b7f536f756c46756e64466163746f72792e6465706c6f794e6577536f756c46756e60008201527f643a206e6f2066756e6473206465706f73697465640000000000000000000000602082015250565b6000620009ca603583620007df565b9150620009d7826200096c565b604082019050919050565b60006020820190508181036000830152620009fd81620009bb565b9050919050565b7f4e487b7100000000000000000000000000000000000000000000000000000000600052601160045260246000fd5b600062000a408262000665565b915062000a4d8362000665565b9250827fffffffffffffffffffffffffffffffffffffffffffffffffffffffffffffffff0382111562000a855762000a8462000a04565b5b828201905092915050565b600060608201905062000aa7600083018662000747565b62000ab66020830185620006e7565b62000ac5604083018462000747565b949350505050565b600060408201905062000ae46000830185620006e7565b62000af36020830184620006e7565b9392505050565b7f496e697469616c697a61626c653a20636f6e747261637420697320616c72656160008201527f647920696e697469616c697a6564000000000000000000000000000000000000602082015250565b600062000b58602e83620007df565b915062000b658262000afa565b604082019050919050565b6000602082019050818103600083015262000b8b8162000b49565b9050919050565b6000819050919050565b600060ff82169050919050565b6000819050919050565b600062000bd462000bce62000bc88462000b92565b62000ba9565b62000b9c565b9050919050565b62000be68162000bb3565b82525050565b600060208201905062000c03600083018462000bdb565b9291505056fe6080604052620000146200001a60201b60201c565b620001c5565b600060019054906101000a900460ff16156200006d576040517f08c379a0000000000000000000000000000000000000000000000000000000008152600401620000649062000168565b60405180910390fd5b60ff801660008054906101000a900460ff1660ff161015620000df5760ff6000806101000a81548160ff021916908360ff1602179055507f7f26b83ff96e1f2b6a682f133852f6798a09c465da95921460cefb384740249860ff604051620000d69190620001a8565b60405180910390a15b565b600082825260208201905092915050565b7f496e697469616c697a61626c653a20636f6e747261637420697320696e69746960008201527f616c697a696e6700000000000000000000000000000000000000000000000000602082015250565b600062000150602783620000e1565b91506200015d82620000f2565b604082019050919050565b60006020820190508181036000830152620001838162000141565b9050919050565b600060ff82169050919050565b620001a2816200018a565b82525050565b6000602082019050620001bf600083018462000197565b92915050565b61519a80620001d56000396000f3fe6080604052600436106102045760003560e01c806395d89b4111610118578063cef5234f116100a0578063db4796c01161006f578063db4796c014610799578063e985e9c5146107d6578063f94c0a1114610813578063fdb0467a1461083e578063fedce7a81461085a57610204565b8063cef5234f146106ec578063d547741f14610729578063d670632814610752578063d8f5df661461076e57610204565b8063b7134dfa116100e7578063b7134dfa14610601578063b88d4fde1461063f578063c350a1b514610668578063c87b56dd14610684578063ced3a403146106c157610204565b806395d89b41146105455780639e42ce1814610570578063a217fddf146105ad578063a22cb465146105d857610204565b806340d097c31161019b5780636352211e1161016a5780636352211e1461044757806370a08231146104845780637ef65609146104c157806391d14854146104ec5780639590cf751461052957610204565b806340d097c31461038f57806342842e0e146103b8578063438a8ece146103e1578063551d4f2a1461041e57610204565b806323b872dd116101d757806323b872dd146102d7578063248a9ca3146103005780632f2ff15d1461033d57806336568abe1461036657610204565b806301ffc9a71461020957806306fdde0314610246578063081812fc14610271578063095ea7b3146102ae575b600080fd5b34801561021557600080fd5b50610230600480360381019061022b91906134d3565b610897565b60405161023d919061351b565b60405180910390f35b34801561025257600080fd5b5061025b6108a9565b60405161026891906135cf565b60405180910390f35b34801561027d57600080fd5b5061029860048036038101906102939190613627565b61093b565b6040516102a59190613695565b60405180910390f35b3480156102ba57600080fd5b506102d560048036038101906102d091906136dc565b610981565b005b3480156102e357600080fd5b506102fe60048036038101906102f9919061371c565b610a99565b005b34801561030c57600080fd5b50610327600480360381019061032291906137a5565b610af9565b60405161033491906137e1565b60405180910390f35b34801561034957600080fd5b50610364600480360381019061035f91906137fc565b610b19565b005b34801561037257600080fd5b5061038d600480360381019061038891906137fc565b610b3a565b005b34801561039b57600080fd5b506103b660048036038101906103b1919061383c565b610bbd565b005b3480156103c457600080fd5b506103df60048036038101906103da919061371c565b610c17565b005b3480156103ed57600080fd5b5061040860048036038101906104039190613869565b610c37565b60405161041591906138b8565b60405180910390f35b34801561042a57600080fd5b50610445600480360381019061044091906136dc565b610c5c565b005b34801561045357600080fd5b5061046e60048036038101906104699190613627565b610e24565b60405161047b9190613695565b60405180910390f35b34801561049057600080fd5b506104ab60048036038101906104a6919061383c565b610ed6565b6040516104b891906138b8565b60405180910390f35b3480156104cd57600080fd5b506104d6610f8e565b6040516104e391906138b8565b60405180910390f35b3480156104f857600080fd5b50610513600480360381019061050e91906137fc565b610f94565b604051610520919061351b565b60405180910390f35b610543600480360381019061053e9190613627565b610fff565b005b34801561055157600080fd5b5061055a6110c5565b60405161056791906135cf565b60405180910390f35b34801561057c57600080fd5b5061059760048036038101906105929190613627565b611157565b6040516105a491906138b8565b60405180910390f35b3480156105b957600080fd5b506105c261116f565b6040516105cf91906137e1565b60405180910390f35b3480156105e457600080fd5b506105ff60048036038101906105fa91906138ff565b611176565b005b34801561060d57600080fd5b506106286004803603810190610623919061393f565b61118c565b60405161063692919061397f565b60405180910390f35b34801561064b57600080fd5b5061066660048036038101906106619190613add565b6111e3565b005b610682600480360381019061067d9190613b60565b611245565b005b34801561069057600080fd5b506106ab60048036038101906106a69190613627565b611462565b6040516106b891906135cf565b60405180910390f35b3480156106cd57600080fd5b506106d66114b1565b6040516106e391906137e1565b60405180910390f35b3480156106f857600080fd5b50610713600480360381019061070e9190613869565b6114d5565b604051610720919061351b565b60405180910390f35b34801561073557600080fd5b50610750600480360381019061074b91906137fc565b611504565b005b61076c60048036038101906107679190613bb3565b611525565b005b34801561077a57600080fd5b5061078361194c565b60405161079091906138b8565b60405180910390f35b3480156107a557600080fd5b506107c060048036038101906107bb9190613627565b611952565b6040516107cd9190613cef565b60405180910390f35b3480156107e257600080fd5b506107fd60048036038101906107f89190613d0b565b611a17565b60405161080a919061351b565b60405180910390f35b34801561081f57600080fd5b50610828611aab565b60405161083591906137e1565b60405180910390f35b61085860048036038101906108539190613d4b565b611acf565b005b34801561086657600080fd5b50610881600480360381019061087c9190613869565b611e8b565b60405161088e919061351b565b60405180910390f35b60006108a282611eba565b9050919050565b6060606580546108b890613dcd565b80601f01602080910402602001604051908101604052809291908181526020018280546108e490613dcd565b80156109315780601f1061090657610100808354040283529160200191610931565b820191906000526020600020905b81548152906001019060200180831161091457829003601f168201915b5050505050905090565b600061094682611f34565b6069600083815260200190815260200160002060009054906101000a900473ffffffffffffffffffffffffffffffffffffffff169050919050565b600061098c82610e24565b90508073ffffffffffffffffffffffffffffffffffffffff168373ffffffffffffffffffffffffffffffffffffffff1614156109fd576040517f08c379a00000000000000000000000000000000000000000000000000000000081526004016109f490613e71565b60405180910390fd5b8073ffffffffffffffffffffffffffffffffffffffff16610a1c611f7f565b73ffffffffffffffffffffffffffffffffffffffff161480610a4b5750610a4a81610a45611f7f565b611a17565b5b610a8a576040517f08c379a0000000000000000000000000000000000000000000000000000000008152600401610a8190613f03565b60405180910390fd5b610a948383611f87565b505050565b610aaa610aa4611f7f565b82612040565b610ae9576040517f08c379a0000000000000000000000000000000000000000000000000000000008152600401610ae090613f95565b60405180910390fd5b610af48383836120d5565b505050565b600060976000838152602001908152602001600020600101549050919050565b610b2282610af9565b610b2b8161233c565b610b358383612350565b505050565b610b42611f7f565b73ffffffffffffffffffffffffffffffffffffffff168173ffffffffffffffffffffffffffffffffffffffff1614610baf576040517f08c379a0000000000000000000000000000000000000000000000000000000008152600401610ba690614027565b60405180910390fd5b610bb98282612431565b5050565b7f2dee5dd865e09c7ce6788d674a03682994f0b44339403ca07ac129a9de4bed6a610be78161233c565b600060c9549050600160c96000828254610c019190614076565b92505081905550610c128382612513565b505050565b610c32838383604051806020016040528060008152506111e3565b505050565b60ce602052816000526040600020602052806000526040600020600091509150505481565b6000801b610c698161233c565b6000151560cb600084815260200190815260200160002060008573ffffffffffffffffffffffffffffffffffffffff1673ffffffffffffffffffffffffffffffffffffffff16815260200190815260200160002060009054906101000a900460ff16151514610d0d576040517f08c379a0000000000000000000000000000000000000000000000000000000008152600401610d049061413e565b60405180910390fd5b600073ffffffffffffffffffffffffffffffffffffffff168373ffffffffffffffffffffffffffffffffffffffff161415610d7d576040517f08c379a0000000000000000000000000000000000000000000000000000000008152600401610d74906141d0565b60405180910390fd5b600160cb600084815260200190815260200160002060008573ffffffffffffffffffffffffffffffffffffffff1673ffffffffffffffffffffffffffffffffffffffff16815260200190815260200160002060006101000a81548160ff0219169083151502179055507fda2d276774468c5f10e6d2a90d49391d28dcf5f45b97f6f4f867444ff4d3319e8383604051610e1792919061397f565b60405180910390a1505050565b6000806067600084815260200190815260200160002060009054906101000a900473ffffffffffffffffffffffffffffffffffffffff169050600073ffffffffffffffffffffffffffffffffffffffff168173ffffffffffffffffffffffffffffffffffffffff161415610ecd576040517f08c379a0000000000000000000000000000000000000000000000000000000008152600401610ec49061423c565b60405180910390fd5b80915050919050565b60008073ffffffffffffffffffffffffffffffffffffffff168273ffffffffffffffffffffffffffffffffffffffff161415610f47576040517f08c379a0000000000000000000000000000000000000000000000000000000008152600401610f3e906142ce565b60405180910390fd5b606860008373ffffffffffffffffffffffffffffffffffffffff1673ffffffffffffffffffffffffffffffffffffffff168152602001908152602001600020549050919050565b6101f481565b60006097600084815260200190815260200160002060000160008373ffffffffffffffffffffffffffffffffffffffff1673ffffffffffffffffffffffffffffffffffffffff16815260200190815260200160002060009054906101000a900460ff16905092915050565b600073ffffffffffffffffffffffffffffffffffffffff1661102082610e24565b73ffffffffffffffffffffffffffffffffffffffff161415611077576040517f08c379a000000000000000000000000000000000000000000000000000000000815260040161106e90614360565b60405180910390fd5b611082816001612531565b6000600190507f34ef4ac64e0eac8a04fe2b95d0d037921287716ff3019d01b6712d2e9507509582826040516110b9929190614380565b60405180910390a15050565b6060606680546110d490613dcd565b80601f016020809104026020016040519081016040528092919081815260200182805461110090613dcd565b801561114d5780601f106111225761010080835404028352916020019161114d565b820191906000526020600020905b81548152906001019060200180831161113057829003601f168201915b5050505050905090565b60cf6020528060005260406000206000915090505481565b6000801b81565b611188611181611f7f565b8383612766565b5050565b60cd60205281600052604060002081600581106111a857600080fd5b60020201600091509150508060000160009054906101000a900473ffffffffffffffffffffffffffffffffffffffff16908060010154905082565b6111f46111ee611f7f565b83612040565b611233576040517f08c379a000000000000000000000000000000000000000000000000000000000815260040161122a90613f95565b60405180910390fd5b61123f848484846128d3565b50505050565b60008060019054906101000a900460ff161590508080156112765750600160008054906101000a900460ff1660ff16105b806112a357506112853061292f565b1580156112a25750600160008054906101000a900460ff1660ff16145b5b6112e2576040517f08c379a00000000000000000000000000000000000000000000000000000000081526004016112d99061441b565b60405180910390fd5b60016000806101000a81548160ff021916908360ff160217905550801561131f576001600060016101000a81548160ff0219169083151502179055505b6113936040518060400160405280600881526020017f536f756c46756e640000000000000000000000000000000000000000000000008152506040518060400160405280600381526020017f534c460000000000000000000000000000000000000000000000000000000000815250612952565b61139b6129af565b6113a86000801b33612350565b6113d27f2dee5dd865e09c7ce6788d674a03682994f0b44339403ca07ac129a9de4bed6a33612350565b6113fc7fc8a41221bcd7fcf2c225f5a9265e1d4d39949d89197159d59e5f4b87b62c419e85612350565b8260ca81905550801561145c5760008060016101000a81548160ff0219169083151502179055507f7f26b83ff96e1f2b6a682f133852f6798a09c465da95921460cefb38474024986001604051611453919061448d565b60405180910390a15b50505050565b606061146d82612a00565b6114ac576040517f08c379a00000000000000000000000000000000000000000000000000000000081526004016114a3906144f4565b60405180910390fd5b919050565b7fc8a41221bcd7fcf2c225f5a9265e1d4d39949d89197159d59e5f4b87b62c419e81565b60cc6020528160005260406000206020528060005260406000206000915091509054906101000a900460ff1681565b61150d82610af9565b6115168161233c565b6115208383612431565b505050565b7f2dee5dd865e09c7ce6788d674a03682994f0b44339403ca07ac129a9de4bed6a61154f8161233c565b600060ce600086815260200190815260200160002060008573ffffffffffffffffffffffffffffffffffffffff1673ffffffffffffffffffffffffffffffffffffffff16815260200190815260200160002054101580156115c35750600560cf600086815260200190815260200160002054105b611602576040517f08c379a00000000000000000000000000000000000000000000000000000000081526004016115f990614586565b60405180910390fd5b600060ce600086815260200190815260200160002060008573ffffffffffffffffffffffffffffffffffffffff1673ffffffffffffffffffffffffffffffffffffffff16815260200190815260200160002054905060008114156117b05760cf60008681526020019081526020016000206000815480929190611684906145a6565b919050555060cf60008681526020019081526020016000205460ce600087815260200190815260200160002060008673ffffffffffffffffffffffffffffffffffffffff1673ffffffffffffffffffffffffffffffffffffffff1681526020019081526020016000208190555060ce600086815260200190815260200160002060008573ffffffffffffffffffffffffffffffffffffffff1673ffffffffffffffffffffffffffffffffffffffff1681526020019081526020016000205490508360cd6000878152602001908152602001600020826005811061176a576117696145ef565b5b6002020160000160006101000a81548173ffffffffffffffffffffffffffffffffffffffff021916908373ffffffffffffffffffffffffffffffffffffffff1602179055505b600073ffffffffffffffffffffffffffffffffffffffff168473ffffffffffffffffffffffffffffffffffffffff16141561182c57823414611827576040517f08c379a000000000000000000000000000000000000000000000000000000000815260040161181e90614690565b60405180910390fd5b6118bd565b8373ffffffffffffffffffffffffffffffffffffffff166323b872dd3330866040518463ffffffff1660e01b8152600401611869939291906146b0565b602060405180830381600087803b15801561188357600080fd5b505af1158015611897573d6000803e3d6000fd5b505050506040513d601f19601f820116820180604052508101906118bb91906146fc565b505b8260cd600087815260200190815260200160002082600581106118e3576118e26145ef565b5b6002020160010160008282546118f99190614076565b925050819055507f03b9932ccfcbee04cee8cedad7802dbe5c786c57591e9a7cd4c8fea13b13be8285858561192d89610e24565b60405161193d9493929190614729565b60405180910390a15050505050565b60ca5481565b61195a613367565b60cd6000838152602001908152602001600020600580602002604051908101604052809291906000905b82821015611a0c578382600202016040518060400160405290816000820160009054906101000a900473ffffffffffffffffffffffffffffffffffffffff1673ffffffffffffffffffffffffffffffffffffffff1673ffffffffffffffffffffffffffffffffffffffff16815260200160018201548152505081526020019060010190611984565b505050509050919050565b6000606a60008473ffffffffffffffffffffffffffffffffffffffff1673ffffffffffffffffffffffffffffffffffffffff16815260200190815260200160002060008373ffffffffffffffffffffffffffffffffffffffff1673ffffffffffffffffffffffffffffffffffffffff16815260200190815260200160002060009054906101000a900460ff16905092915050565b7f2dee5dd865e09c7ce6788d674a03682994f0b44339403ca07ac129a9de4bed6a81565b60cb600083815260200190815260200160002060008473ffffffffffffffffffffffffffffffffffffffff1673ffffffffffffffffffffffffffffffffffffffff16815260200190815260200160002060009054906101000a900460ff16611b6c576040517f08c379a0000000000000000000000000000000000000000000000000000000008152600401611b63906147e0565b60405180910390fd5b6000611b7783610e24565b90508073ffffffffffffffffffffffffffffffffffffffff168473ffffffffffffffffffffffffffffffffffffffff16636352211e846040518263ffffffff1660e01b8152600401611bc991906138b8565b60206040518083038186803b158015611be157600080fd5b505afa158015611bf5573d6000803e3d6000fd5b505050506040513d601f19601f82011682018060405250810190611c199190614815565b73ffffffffffffffffffffffffffffffffffffffff1614611c6f576040517f08c379a0000000000000000000000000000000000000000000000000000000008152600401611c66906148da565b60405180910390fd5b600073ffffffffffffffffffffffffffffffffffffffff16611c9084610e24565b73ffffffffffffffffffffffffffffffffffffffff161415611ce7576040517f08c379a0000000000000000000000000000000000000000000000000000000008152600401611cde90614360565b60405180910390fd5b60cc600083815260200190815260200160002060008573ffffffffffffffffffffffffffffffffffffffff1673ffffffffffffffffffffffffffffffffffffffff16815260200190815260200160002060009054906101000a900460ff1615611d85576040517f08c379a0000000000000000000000000000000000000000000000000000000008152600401611d7c9061496c565b60405180910390fd5b611d91836101f4612531565b600060019050600160cc600085815260200190815260200160002060008773ffffffffffffffffffffffffffffffffffffffff1673ffffffffffffffffffffffffffffffffffffffff16815260200190815260200160002060006101000a81548160ff0219169083151502179055508173ffffffffffffffffffffffffffffffffffffffff166108fc829081150290604051600060405180830381858888f19350505050158015611e46573d6000803e3d6000fd5b507f1063fb17e9a9b2ee9e38c97a5ded9fa5840d8f7023bebf0b0e0489f2e1344bbb84828786604051611e7c949392919061498c565b60405180910390a15050505050565b60cb6020528160005260406000206020528060005260406000206000915091509054906101000a900460ff1681565b60007f7965db0b000000000000000000000000000000000000000000000000000000007bffffffffffffffffffffffffffffffffffffffffffffffffffffffff1916827bffffffffffffffffffffffffffffffffffffffffffffffffffffffff19161480611f2d5750611f2c82612a6c565b5b9050919050565b611f3d81612a00565b611f7c576040517f08c379a0000000000000000000000000000000000000000000000000000000008152600401611f739061423c565b60405180910390fd5b50565b600033905090565b816069600083815260200190815260200160002060006101000a81548173ffffffffffffffffffffffffffffffffffffffff021916908373ffffffffffffffffffffffffffffffffffffffff160217905550808273ffffffffffffffffffffffffffffffffffffffff16611ffa83610e24565b73ffffffffffffffffffffffffffffffffffffffff167f8c5be1e5ebec7d5bd14f71427d1e84f3dd0314c0f7b2291e5b200ac8c7c3b92560405160405180910390a45050565b60008061204c83610e24565b90508073ffffffffffffffffffffffffffffffffffffffff168473ffffffffffffffffffffffffffffffffffffffff16148061208e575061208d8185611a17565b5b806120cc57508373ffffffffffffffffffffffffffffffffffffffff166120b48461093b565b73ffffffffffffffffffffffffffffffffffffffff16145b91505092915050565b8273ffffffffffffffffffffffffffffffffffffffff166120f582610e24565b73ffffffffffffffffffffffffffffffffffffffff161461214b576040517f08c379a000000000000000000000000000000000000000000000000000000000815260040161214290614a43565b60405180910390fd5b600073ffffffffffffffffffffffffffffffffffffffff168273ffffffffffffffffffffffffffffffffffffffff1614156121bb576040517f08c379a00000000000000000000000000000000000000000000000000000000081526004016121b290614ad5565b60405180910390fd5b6121c6838383612b4e565b6121d1600082611f87565b6001606860008573ffffffffffffffffffffffffffffffffffffffff1673ffffffffffffffffffffffffffffffffffffffff16815260200190815260200160002060008282546122219190614af5565b925050819055506001606860008473ffffffffffffffffffffffffffffffffffffffff1673ffffffffffffffffffffffffffffffffffffffff16815260200190815260200160002060008282546122789190614076565b92505081905550816067600083815260200190815260200160002060006101000a81548173ffffffffffffffffffffffffffffffffffffffff021916908373ffffffffffffffffffffffffffffffffffffffff160217905550808273ffffffffffffffffffffffffffffffffffffffff168473ffffffffffffffffffffffffffffffffffffffff167fddf252ad1be2c89b69c2b068fc378daa952ba7f163c4a11628f55a4df523b3ef60405160405180910390a4612337838383612bcd565b505050565b61234d81612348611f7f565b612bd2565b50565b61235a8282610f94565b61242d5760016097600084815260200190815260200160002060000160008373ffffffffffffffffffffffffffffffffffffffff1673ffffffffffffffffffffffffffffffffffffffff16815260200190815260200160002060006101000a81548160ff0219169083151502179055506123d2611f7f565b73ffffffffffffffffffffffffffffffffffffffff168173ffffffffffffffffffffffffffffffffffffffff16837f2f8788117e7eff1d82e926ec794901d17c78024a50270940304540a733656f0d60405160405180910390a45b5050565b61243b8282610f94565b1561250f5760006097600084815260200190815260200160002060000160008373ffffffffffffffffffffffffffffffffffffffff1673ffffffffffffffffffffffffffffffffffffffff16815260200190815260200160002060006101000a81548160ff0219169083151502179055506124b4611f7f565b73ffffffffffffffffffffffffffffffffffffffff168173ffffffffffffffffffffffffffffffffffffffff16837ff6391f5c32d9c69d2a47ea670b442974b53935d1edc7fd64eb21e047a839171b60405160405180910390a45b5050565b61252d828260405180602001604052806000815250612c6f565b5050565b60005b60cf60008481526020019081526020016000205481101561276157600060cd60008581526020019081526020016000208260058110612576576125756145ef565b5b6002020160000160009054906101000a900473ffffffffffffffffffffffffffffffffffffffff16905060006127108460cd600088815260200190815260200160002085600581106125cb576125ca6145ef565b5b60020201600101546125dd9190614b29565b6125e79190614bb2565b90508060cd6000878152602001908152602001600020846005811061260f5761260e6145ef565b5b6002020160010160008282546126259190614af5565b92505081905550600073ffffffffffffffffffffffffffffffffffffffff168273ffffffffffffffffffffffffffffffffffffffff1614156126b55761266a85610e24565b73ffffffffffffffffffffffffffffffffffffffff166108fc829081150290604051600060405180830381858888f193505050501580156126af573d6000803e3d6000fd5b5061274c565b8173ffffffffffffffffffffffffffffffffffffffff1663a9059cbb6126da87610e24565b836040518363ffffffff1660e01b81526004016126f892919061397f565b602060405180830381600087803b15801561271257600080fd5b505af1158015612726573d6000803e3d6000fd5b505050506040513d601f19601f8201168201806040525081019061274a91906146fc565b505b50508080612759906145a6565b915050612534565b505050565b8173ffffffffffffffffffffffffffffffffffffffff168373ffffffffffffffffffffffffffffffffffffffff1614156127d5576040517f08c379a00000000000000000000000000000000000000000000000000000000081526004016127cc90614c2f565b60405180910390fd5b80606a60008573ffffffffffffffffffffffffffffffffffffffff1673ffffffffffffffffffffffffffffffffffffffff16815260200190815260200160002060008473ffffffffffffffffffffffffffffffffffffffff1673ffffffffffffffffffffffffffffffffffffffff16815260200190815260200160002060006101000a81548160ff0219169083151502179055508173ffffffffffffffffffffffffffffffffffffffff168373ffffffffffffffffffffffffffffffffffffffff167f17307eab39ab6107e8899845ad3d59bd9653f200f220920489ca2b5937696c31836040516128c6919061351b565b60405180910390a3505050565b6128de8484846120d5565b6128ea84848484612cca565b612929576040517f08c379a000000000000000000000000000000000000000000000000000000000815260040161292090614cc1565b60405180910390fd5b50505050565b6000808273ffffffffffffffffffffffffffffffffffffffff163b119050919050565b600060019054906101000a900460ff166129a1576040517f08c379a000000000000000000000000000000000000000000000000000000000815260040161299890614d53565b60405180910390fd5b6129ab8282612e61565b5050565b600060019054906101000a900460ff166129fe576040517f08c379a00000000000000000000000000000000000000000000000000000000081526004016129f590614d53565b60405180910390fd5b565b60008073ffffffffffffffffffffffffffffffffffffffff166067600084815260200190815260200160002060009054906101000a900473ffffffffffffffffffffffffffffffffffffffff1673ffffffffffffffffffffffffffffffffffffffff1614159050919050565b60007f80ac58cd000000000000000000000000000000000000000000000000000000007bffffffffffffffffffffffffffffffffffffffffffffffffffffffff1916827bffffffffffffffffffffffffffffffffffffffffffffffffffffffff19161480612b3757507f5b5e139f000000000000000000000000000000000000000000000000000000007bffffffffffffffffffffffffffffffffffffffffffffffffffffffff1916827bffffffffffffffffffffffffffffffffffffffffffffffffffffffff1916145b80612b475750612b4682612ee2565b5b9050919050565b600073ffffffffffffffffffffffffffffffffffffffff168373ffffffffffffffffffffffffffffffffffffffff1614612bbd576040517f08c379a0000000000000000000000000000000000000000000000000000000008152600401612bb490614de5565b60405180910390fd5b612bc8838383612f4c565b505050565b505050565b612bdc8282610f94565b612c6b57612c018173ffffffffffffffffffffffffffffffffffffffff166014612f51565b612c0f8360001c6020612f51565b604051602001612c20929190614ed9565b6040516020818303038152906040526040517f08c379a0000000000000000000000000000000000000000000000000000000008152600401612c6291906135cf565b60405180910390fd5b5050565b612c79838361318d565b612c866000848484612cca565b612cc5576040517f08c379a0000000000000000000000000000000000000000000000000000000008152600401612cbc90614cc1565b60405180910390fd5b505050565b6000612ceb8473ffffffffffffffffffffffffffffffffffffffff1661292f565b15612e54578373ffffffffffffffffffffffffffffffffffffffff1663150b7a02612d14611f7f565b8786866040518563ffffffff1660e01b8152600401612d369493929190614f68565b602060405180830381600087803b158015612d5057600080fd5b505af1925050508015612d8157506040513d601f19601f82011682018060405250810190612d7e9190614fc9565b60015b612e04573d8060008114612db1576040519150601f19603f3d011682016040523d82523d6000602084013e612db6565b606091505b50600081511415612dfc576040517f08c379a0000000000000000000000000000000000000000000000000000000008152600401612df390614cc1565b60405180910390fd5b805181602001fd5b63150b7a0260e01b7bffffffffffffffffffffffffffffffffffffffffffffffffffffffff1916817bffffffffffffffffffffffffffffffffffffffffffffffffffffffff191614915050612e59565b600190505b949350505050565b600060019054906101000a900460ff16612eb0576040517f08c379a0000000000000000000000000000000000000000000000000000000008152600401612ea790614d53565b60405180910390fd5b8160659080519060200190612ec6929190613394565b508060669080519060200190612edd929190613394565b505050565b60007f01ffc9a7000000000000000000000000000000000000000000000000000000007bffffffffffffffffffffffffffffffffffffffffffffffffffffffff1916827bffffffffffffffffffffffffffffffffffffffffffffffffffffffff1916149050919050565b505050565b606060006002836002612f649190614b29565b612f6e9190614076565b67ffffffffffffffff811115612f8757612f866139b2565b5b6040519080825280601f01601f191660200182016040528015612fb95781602001600182028036833780820191505090505b5090507f300000000000000000000000000000000000000000000000000000000000000081600081518110612ff157612ff06145ef565b5b60200101907effffffffffffffffffffffffffffffffffffffffffffffffffffffffffffff1916908160001a9053507f780000000000000000000000000000000000000000000000000000000000000081600181518110613055576130546145ef565b5b60200101907effffffffffffffffffffffffffffffffffffffffffffffffffffffffffffff1916908160001a905350600060018460026130959190614b29565b61309f9190614076565b90505b600181111561313f577f3031323334353637383961626364656600000000000000000000000000000000600f8616601081106130e1576130e06145ef565b5b1a60f81b8282815181106130f8576130f76145ef565b5b60200101907effffffffffffffffffffffffffffffffffffffffffffffffffffffffffffff1916908160001a905350600485901c94508061313890614ff6565b90506130a2565b5060008414613183576040517f08c379a000000000000000000000000000000000000000000000000000000000815260040161317a9061506c565b60405180910390fd5b8091505092915050565b600073ffffffffffffffffffffffffffffffffffffffff168273ffffffffffffffffffffffffffffffffffffffff1614156131fd576040517f08c379a00000000000000000000000000000000000000000000000000000000081526004016131f4906150d8565b60405180910390fd5b61320681612a00565b15613246576040517f08c379a000000000000000000000000000000000000000000000000000000000815260040161323d90615144565b60405180910390fd5b61325260008383612b4e565b6001606860008473ffffffffffffffffffffffffffffffffffffffff1673ffffffffffffffffffffffffffffffffffffffff16815260200190815260200160002060008282546132a29190614076565b92505081905550816067600083815260200190815260200160002060006101000a81548173ffffffffffffffffffffffffffffffffffffffff021916908373ffffffffffffffffffffffffffffffffffffffff160217905550808273ffffffffffffffffffffffffffffffffffffffff16600073ffffffffffffffffffffffffffffffffffffffff167fddf252ad1be2c89b69c2b068fc378daa952ba7f163c4a11628f55a4df523b3ef60405160405180910390a461336360008383612bcd565b5050565b6040518060a001604052806005905b61337e61341a565b8152602001906001900390816133765790505090565b8280546133a090613dcd565b90600052602060002090601f0160209004810192826133c25760008555613409565b82601f106133db57805160ff1916838001178555613409565b82800160010185558215613409579182015b828111156134085782518255916020019190600101906133ed565b5b509050613416919061344a565b5090565b6040518060400160405280600073ffffffffffffffffffffffffffffffffffffffff168152602001600081525090565b5b8082111561346357600081600090555060010161344b565b5090565b6000604051905090565b600080fd5b600080fd5b60007fffffffff0000000000000000000000000000000000000000000000000000000082169050919050565b6134b08161347b565b81146134bb57600080fd5b50565b6000813590506134cd816134a7565b92915050565b6000602082840312156134e9576134e8613471565b5b60006134f7848285016134be565b91505092915050565b60008115159050919050565b61351581613500565b82525050565b6000602082019050613530600083018461350c565b92915050565b600081519050919050565b600082825260208201905092915050565b60005b83811015613570578082015181840152602081019050613555565b8381111561357f576000848401525b50505050565b6000601f19601f8301169050919050565b60006135a182613536565b6135ab8185613541565b93506135bb818560208601613552565b6135c481613585565b840191505092915050565b600060208201905081810360008301526135e98184613596565b905092915050565b6000819050919050565b613604816135f1565b811461360f57600080fd5b50565b600081359050613621816135fb565b92915050565b60006020828403121561363d5761363c613471565b5b600061364b84828501613612565b91505092915050565b600073ffffffffffffffffffffffffffffffffffffffff82169050919050565b600061367f82613654565b9050919050565b61368f81613674565b82525050565b60006020820190506136aa6000830184613686565b92915050565b6136b981613674565b81146136c457600080fd5b50565b6000813590506136d6816136b0565b92915050565b600080604083850312156136f3576136f2613471565b5b6000613701858286016136c7565b925050602061371285828601613612565b9150509250929050565b60008060006060848603121561373557613734613471565b5b6000613743868287016136c7565b9350506020613754868287016136c7565b925050604061376586828701613612565b9150509250925092565b6000819050919050565b6137828161376f565b811461378d57600080fd5b50565b60008135905061379f81613779565b92915050565b6000602082840312156137bb576137ba613471565b5b60006137c984828501613790565b91505092915050565b6137db8161376f565b82525050565b60006020820190506137f660008301846137d2565b92915050565b6000806040838503121561381357613812613471565b5b600061382185828601613790565b9250506020613832858286016136c7565b9150509250929050565b60006020828403121561385257613851613471565b5b6000613860848285016136c7565b91505092915050565b600080604083850312156138805761387f613471565b5b600061388e85828601613612565b925050602061389f858286016136c7565b9150509250929050565b6138b2816135f1565b82525050565b60006020820190506138cd60008301846138a9565b92915050565b6138dc81613500565b81146138e757600080fd5b50565b6000813590506138f9816138d3565b92915050565b6000806040838503121561391657613915613471565b5b6000613924858286016136c7565b9250506020613935858286016138ea565b9150509250929050565b6000806040838503121561395657613955613471565b5b600061396485828601613612565b925050602061397585828601613612565b9150509250929050565b60006040820190506139946000830185613686565b6139a160208301846138a9565b9392505050565b600080fd5b600080fd5b7f4e487b7100000000000000000000000000000000000000000000000000000000600052604160045260246000fd5b6139ea82613585565b810181811067ffffffffffffffff82111715613a0957613a086139b2565b5b80604052505050565b6000613a1c613467565b9050613a2882826139e1565b919050565b600067ffffffffffffffff821115613a4857613a476139b2565b5b613a5182613585565b9050602081019050919050565b82818337600083830152505050565b6000613a80613a7b84613a2d565b613a12565b905082815260208101848484011115613a9c57613a9b6139ad565b5b613aa7848285613a5e565b509392505050565b600082601f830112613ac457613ac36139a8565b5b8135613ad4848260208601613a6d565b91505092915050565b60008060008060808587031215613af757613af6613471565b5b6000613b05878288016136c7565b9450506020613b16878288016136c7565b9350506040613b2787828801613612565b925050606085013567ffffffffffffffff811115613b4857613b47613476565b5b613b5487828801613aaf565b91505092959194509250565b600080600060608486031215613b7957613b78613471565b5b6000613b87868287016136c7565b9350506020613b9886828701613612565b9250506040613ba9868287016136c7565b9150509250925092565b600080600060608486031215613bcc57613bcb613471565b5b6000613bda86828701613612565b9350506020613beb868287016136c7565b9250506040613bfc86828701613612565b9150509250925092565b600060059050919050565b600081905092915050565b6000819050919050565b613c2f81613674565b82525050565b613c3e816135f1565b82525050565b604082016000820151613c5a6000850182613c26565b506020820151613c6d6020850182613c35565b50505050565b6000613c7f8383613c44565b60408301905092915050565b6000602082019050919050565b613ca181613c06565b613cab8184613c11565b9250613cb682613c1c565b8060005b83811015613ce7578151613cce8782613c73565b9650613cd983613c8b565b925050600181019050613cba565b505050505050565b600061014082019050613d056000830184613c98565b92915050565b60008060408385031215613d2257613d21613471565b5b6000613d30858286016136c7565b9250506020613d41858286016136c7565b9150509250929050565b600080600060608486031215613d6457613d63613471565b5b6000613d72868287016136c7565b9350506020613d8386828701613612565b9250506040613d9486828701613612565b9150509250925092565b7f4e487b7100000000000000000000000000000000000000000000000000000000600052602260045260246000fd5b60006002820490506001821680613de557607f821691505b60208210811415613df957613df8613d9e565b5b50919050565b7f4552433732313a20617070726f76616c20746f2063757272656e74206f776e6560008201527f7200000000000000000000000000000000000000000000000000000000000000602082015250565b6000613e5b602183613541565b9150613e6682613dff565b604082019050919050565b60006020820190508181036000830152613e8a81613e4e565b9050919050565b7f4552433732313a20617070726f76652063616c6c6572206973206e6f7420746f60008201527f6b656e206f776e6572206e6f7220617070726f76656420666f7220616c6c0000602082015250565b6000613eed603e83613541565b9150613ef882613e91565b604082019050919050565b60006020820190508181036000830152613f1c81613ee0565b9050919050565b7f4552433732313a2063616c6c6572206973206e6f7420746f6b656e206f776e6560008201527f72206e6f7220617070726f766564000000000000000000000000000000000000602082015250565b6000613f7f602e83613541565b9150613f8a82613f23565b604082019050919050565b60006020820190508181036000830152613fae81613f72565b9050919050565b7f416363657373436f6e74726f6c3a2063616e206f6e6c792072656e6f756e636560008201527f20726f6c657320666f722073656c660000000000000000000000000000000000602082015250565b6000614011602f83613541565b915061401c82613fb5565b604082019050919050565b6000602082019050818103600083015261404081614004565b9050919050565b7f4e487b7100000000000000000000000000000000000000000000000000000000600052601160045260246000fd5b6000614081826135f1565b915061408c836135f1565b9250827fffffffffffffffffffffffffffffffffffffffffffffffffffffffffffffffff038211156140c1576140c0614047565b5b828201905092915050565b7f536f756c46756e642e77686974656c6973744e66743a2061646472657373206160008201527f6c72656164792061646465640000000000000000000000000000000000000000602082015250565b6000614128602c83613541565b9150614133826140cc565b604082019050919050565b600060208201905081810360008301526141578161411b565b9050919050565b7f536f756c46756e642e77686974656c6973744e66743a2063616e6e6f7420616460008201527f6420302061646472657373000000000000000000000000000000000000000000602082015250565b60006141ba602b83613541565b91506141c58261415e565b604082019050919050565b600060208201905081810360008301526141e9816141ad565b9050919050565b7f4552433732313a20696e76616c696420746f6b656e2049440000000000000000600082015250565b6000614226601883613541565b9150614231826141f0565b602082019050919050565b6000602082019050818103600083015261425581614219565b9050919050565b7f4552433732313a2061646472657373207a65726f206973206e6f74206120766160008201527f6c6964206f776e65720000000000000000000000000000000000000000000000602082015250565b60006142b8602983613541565b91506142c38261425c565b604082019050919050565b600060208201905081810360008301526142e7816142ab565b9050919050565b7f536f756c46756e642e636c61696d46756e64734561726c793a2066756e64206460008201527f6f6573206e6f7420657869737400000000000000000000000000000000000000602082015250565b600061434a602d83613541565b9150614355826142ee565b604082019050919050565b600060208201905081810360008301526143798161433d565b9050919050565b600060408201905061439560008301856138a9565b6143a260208301846138a9565b9392505050565b7f496e697469616c697a61626c653a20636f6e747261637420697320616c72656160008201527f647920696e697469616c697a6564000000000000000000000000000000000000602082015250565b6000614405602e83613541565b9150614410826143a9565b604082019050919050565b60006020820190508181036000830152614434816143f8565b9050919050565b6000819050919050565b600060ff82169050919050565b6000819050919050565b600061447761447261446d8461443b565b614452565b614445565b9050919050565b6144878161445c565b82525050565b60006020820190506144a2600083018461447e565b92915050565b7f546f6b656e20646f6573206e6f74206578697374000000000000000000000000600082015250565b60006144de601483613541565b91506144e9826144a8565b602082019050919050565b6000602082019050818103600083015261450d816144d1565b9050919050565b7f536f756c46756e642e6465706f73697446756e643a206d61782063757272656e60008201527f6379207479706520726561636865642e00000000000000000000000000000000602082015250565b6000614570603083613541565b915061457b82614514565b604082019050919050565b6000602082019050818103600083015261459f81614563565b9050919050565b60006145b1826135f1565b91507fffffffffffffffffffffffffffffffffffffffffffffffffffffffffffffffff8214156145e4576145e3614047565b5b600182019050919050565b7f4e487b7100000000000000000000000000000000000000000000000000000000600052603260045260246000fd5b7f536f756c46756e642e6465706f73697446756e643a20616d6f756e74206d697360008201527f6d617463682e0000000000000000000000000000000000000000000000000000602082015250565b600061467a602683613541565b91506146858261461e565b604082019050919050565b600060208201905081810360008301526146a98161466d565b9050919050565b60006060820190506146c56000830186613686565b6146d26020830185613686565b6146df60408301846138a9565b949350505050565b6000815190506146f6816138d3565b92915050565b60006020828403121561471257614711613471565b5b6000614720848285016146e7565b91505092915050565b600060808201905061473e60008301876138a9565b61474b6020830186613686565b61475860408301856138a9565b6147656060830184613686565b95945050505050565b7f536f756c46756e642e636c61696d46756e64734561726c793a204e4654206e6f60008201527f742077686974656c697374656400000000000000000000000000000000000000602082015250565b60006147ca602d83613541565b91506147d58261476e565b604082019050919050565b600060208201905081810360008301526147f9816147bd565b9050919050565b60008151905061480f816136b0565b92915050565b60006020828403121561482b5761482a613471565b5b600061483984828501614800565b91505092915050565b7f536f756c46756e642e636c61696d46756e64734561726c793a2062656e65666960008201527f636961727920646f6573206e6f74206f776e206e66742072657175697265642060208201527f746f20636c61696d2066756e6473000000000000000000000000000000000000604082015250565b60006148c4604e83613541565b91506148cf82614842565b606082019050919050565b600060208201905081810360008301526148f3816148b7565b9050919050565b7f536f756c46756e642e636c61696d46756e64734561726c793a20436c61696d2060008201527f746f6b656e204e46542068617320616c7265616479206265656e207370656e74602082015250565b6000614956604083613541565b9150614961826148fa565b604082019050919050565b6000602082019050818103600083015261498581614949565b9050919050565b60006080820190506149a160008301876138a9565b6149ae60208301866138a9565b6149bb6040830185613686565b6149c860608301846138a9565b95945050505050565b7f4552433732313a207472616e736665722066726f6d20696e636f72726563742060008201527f6f776e6572000000000000000000000000000000000000000000000000000000602082015250565b6000614a2d602583613541565b9150614a38826149d1565b604082019050919050565b60006020820190508181036000830152614a5c81614a20565b9050919050565b7f4552433732313a207472616e7366657220746f20746865207a65726f2061646460008201527f7265737300000000000000000000000000000000000000000000000000000000602082015250565b6000614abf602483613541565b9150614aca82614a63565b604082019050919050565b60006020820190508181036000830152614aee81614ab2565b9050919050565b6000614b00826135f1565b9150614b0b836135f1565b925082821015614b1e57614b1d614047565b5b828203905092915050565b6000614b34826135f1565b9150614b3f836135f1565b9250817fffffffffffffffffffffffffffffffffffffffffffffffffffffffffffffffff0483118215151615614b7857614b77614047565b5b828202905092915050565b7f4e487b7100000000000000000000000000000000000000000000000000000000600052601260045260246000fd5b6000614bbd826135f1565b9150614bc8836135f1565b925082614bd857614bd7614b83565b5b828204905092915050565b7f4552433732313a20617070726f766520746f2063616c6c657200000000000000600082015250565b6000614c19601983613541565b9150614c2482614be3565b602082019050919050565b60006020820190508181036000830152614c4881614c0c565b9050919050565b7f4552433732313a207472616e7366657220746f206e6f6e20455243373231526560008201527f63656976657220696d706c656d656e7465720000000000000000000000000000602082015250565b6000614cab603283613541565b9150614cb682614c4f565b604082019050919050565b60006020820190508181036000830152614cda81614c9e565b9050919050565b7f496e697469616c697a61626c653a20636f6e7472616374206973206e6f74206960008201527f6e697469616c697a696e67000000000000000000000000000000000000000000602082015250565b6000614d3d602b83613541565b9150614d4882614ce1565b604082019050919050565b60006020820190508181036000830152614d6c81614d30565b9050919050565b7f536f756c46756e643a20736f756c20626f756e6420746f6b656e2063616e6e6f60008201527f74206265207472616e7366657272656400000000000000000000000000000000602082015250565b6000614dcf603083613541565b9150614dda82614d73565b604082019050919050565b60006020820190508181036000830152614dfe81614dc2565b9050919050565b600081905092915050565b7f416363657373436f6e74726f6c3a206163636f756e7420000000000000000000600082015250565b6000614e46601783614e05565b9150614e5182614e10565b601782019050919050565b6000614e6782613536565b614e718185614e05565b9350614e81818560208601613552565b80840191505092915050565b7f206973206d697373696e6720726f6c6520000000000000000000000000000000600082015250565b6000614ec3601183614e05565b9150614ece82614e8d565b601182019050919050565b6000614ee482614e39565b9150614ef08285614e5c565b9150614efb82614eb6565b9150614f078284614e5c565b91508190509392505050565b600081519050919050565b600082825260208201905092915050565b6000614f3a82614f13565b614f448185614f1e565b9350614f54818560208601613552565b614f5d81613585565b840191505092915050565b6000608082019050614f7d6000830187613686565b614f8a6020830186613686565b614f9760408301856138a9565b8181036060830152614fa98184614f2f565b905095945050505050565b600081519050614fc3816134a7565b92915050565b600060208284031215614fdf57614fde613471565b5b6000614fed84828501614fb4565b91505092915050565b6000615001826135f1565b9150600082141561501557615014614047565b5b600182039050919050565b7f537472696e67733a20686578206c656e67746820696e73756666696369656e74600082015250565b6000615056602083613541565b915061506182615020565b602082019050919050565b6000602082019050818103600083015261508581615049565b9050919050565b7f4552433732313a206d696e7420746f20746865207a65726f2061646472657373600082015250565b60006150c2602083613541565b91506150cd8261508c565b602082019050919050565b600060208201905081810360008301526150f1816150b5565b9050919050565b7f4552433732313a20746f6b656e20616c7265616479206d696e74656400000000600082015250565b600061512e601c83613541565b9150615139826150f8565b602082019050919050565b6000602082019050818103600083015261515d81615121565b905091905056fea2646970667358221220bbfc73ad7b8750f0cc5cd71c240c29f03cd1867a5ce56433f6f3f6547276462b64736f6c63430008090033a2646970667358221220d83734f47c97db2189939c310c5099df3d519f1f3c1307d5eca951946590ade264736f6c63430008090033",
  "linkReferences": {},
  "deployedLinkReferences": {}
}