{
  "_format": "hh-sol-artifact-1",
  "contractName": "TokenRenderer",
  "sourceName": "contracts/TokenRenderer.sol",
  "abi": [
    {
      "anonymous": false,
      "inputs": [
        {
          "indexed": false,
          "internalType": "address",
          "name": "previousAdmin",
          "type": "address"
        },
        {
          "indexed": false,
          "internalType": "address",
          "name": "newAdmin",
          "type": "address"
        }
      ],
      "name": "AdminChanged",
      "type": "event"
    },
    {
      "anonymous": false,
      "inputs": [
        {
          "indexed": true,
          "internalType": "address",
          "name": "beacon",
          "type": "address"
        }
      ],
      "name": "BeaconUpgraded",
      "type": "event"
    },
    {
      "anonymous": false,
      "inputs": [
        {
          "indexed": false,
          "internalType": "uint8",
          "name": "version",
          "type": "uint8"
        }
      ],
      "name": "Initialized",
      "type": "event"
    },
    {
      "anonymous": false,
      "inputs": [
        {
          "indexed": true,
          "internalType": "address",
          "name": "previousOwner",
          "type": "address"
        },
        {
          "indexed": true,
          "internalType": "address",
          "name": "newOwner",
          "type": "address"
        }
      ],
      "name": "OwnershipTransferred",
      "type": "event"
    },
    {
      "anonymous": false,
      "inputs": [
        {
          "indexed": true,
          "internalType": "address",
          "name": "implementation",
          "type": "address"
        }
      ],
      "name": "Upgraded",
      "type": "event"
    },
    {
      "inputs": [
        {
          "internalType": "address[]",
          "name": "_addresses",
          "type": "address[]"
        },
        {
          "internalType": "string[]",
          "name": "_names",
          "type": "string[]"
        },
        {
          "internalType": "string[]",
          "name": "_colors",
          "type": "string[]"
        },
        {
          "internalType": "address[]",
          "name": "_aggregators",
          "type": "address[]"
        }
      ],
      "name": "initialize",
      "outputs": [],
      "stateMutability": "nonpayable",
      "type": "function"
    },
    {
      "inputs": [],
      "name": "owner",
      "outputs": [
        {
          "internalType": "address",
          "name": "",
          "type": "address"
        }
      ],
      "stateMutability": "view",
      "type": "function"
    },
    {
      "inputs": [],
      "name": "proxiableUUID",
      "outputs": [
        {
          "internalType": "bytes32",
          "name": "",
          "type": "bytes32"
        }
      ],
      "stateMutability": "view",
      "type": "function"
    },
    {
      "inputs": [
        {
          "internalType": "address",
          "name": "_soulfund",
          "type": "address"
        },
        {
          "internalType": "uint256",
          "name": "_tokenId",
          "type": "uint256"
        }
      ],
      "name": "renderToken",
      "outputs": [
        {
          "internalType": "string",
          "name": "",
          "type": "string"
        }
      ],
      "stateMutability": "view",
      "type": "function"
    },
    {
      "inputs": [],
      "name": "renounceOwnership",
      "outputs": [],
      "stateMutability": "nonpayable",
      "type": "function"
    },
    {
      "inputs": [
        {
          "internalType": "address",
          "name": "newOwner",
          "type": "address"
        }
      ],
      "name": "transferOwnership",
      "outputs": [],
      "stateMutability": "nonpayable",
      "type": "function"
    },
    {
      "inputs": [
        {
          "internalType": "address",
          "name": "newImplementation",
          "type": "address"
        }
      ],
      "name": "upgradeTo",
      "outputs": [],
      "stateMutability": "nonpayable",
      "type": "function"
    },
    {
      "inputs": [
        {
          "internalType": "address",
          "name": "newImplementation",
          "type": "address"
        },
        {
          "internalType": "bytes",
          "name": "data",
          "type": "bytes"
        }
      ],
      "name": "upgradeToAndCall",
      "outputs": [],
      "stateMutability": "payable",
      "type": "function"
    }
  ],
  "bytecode": "0x60a06040523073ffffffffffffffffffffffffffffffffffffffff1660809073ffffffffffffffffffffffffffffffffffffffff1681525034801561004357600080fd5b5060805161404461007b600039600081816101c3015281816102520152818161034c015281816103db015261048b01526140446000f3fe60806040526004361061007b5760003560e01c8063715018a61161004e578063715018a61461012d57806374debc3a146101445780638da5cb5b1461016d578063f2fde38b146101985761007b565b80633659cfe6146100805780634f1ef286146100a957806352d1902d146100c5578063611fc469146100f0575b600080fd5b34801561008c57600080fd5b506100a760048036038101906100a29190611c83565b6101c1565b005b6100c360048036038101906100be9190611df6565b61034a565b005b3480156100d157600080fd5b506100da610487565b6040516100e79190611e6b565b60405180910390f35b3480156100fc57600080fd5b5061011760048036038101906101129190611ebc565b610540565b6040516101249190611f84565b60405180910390f35b34801561013957600080fd5b50610142610709565b005b34801561015057600080fd5b5061016b600480360381019061016691906121f0565b61071d565b005b34801561017957600080fd5b50610182610a40565b60405161018f91906122d6565b60405180910390f35b3480156101a457600080fd5b506101bf60048036038101906101ba9190611c83565b610a6a565b005b7f000000000000000000000000000000000000000000000000000000000000000073ffffffffffffffffffffffffffffffffffffffff163073ffffffffffffffffffffffffffffffffffffffff161415610250576040517f08c379a000000000000000000000000000000000000000000000000000000000815260040161024790612363565b60405180910390fd5b7f000000000000000000000000000000000000000000000000000000000000000073ffffffffffffffffffffffffffffffffffffffff1661028f610aee565b73ffffffffffffffffffffffffffffffffffffffff16146102e5576040517f08c379a00000000000000000000000000000000000000000000000000000000081526004016102dc906123f5565b60405180910390fd5b6102ee81610b45565b61034781600067ffffffffffffffff81111561030d5761030c611ccb565b5b6040519080825280601f01601f19166020018201604052801561033f5781602001600182028036833780820191505090505b506000610b50565b50565b7f000000000000000000000000000000000000000000000000000000000000000073ffffffffffffffffffffffffffffffffffffffff163073ffffffffffffffffffffffffffffffffffffffff1614156103d9576040517f08c379a00000000000000000000000000000000000000000000000000000000081526004016103d090612363565b60405180910390fd5b7f000000000000000000000000000000000000000000000000000000000000000073ffffffffffffffffffffffffffffffffffffffff16610418610aee565b73ffffffffffffffffffffffffffffffffffffffff161461046e576040517f08c379a0000000000000000000000000000000000000000000000000000000008152600401610465906123f5565b60405180910390fd5b61047782610b45565b61048382826001610b50565b5050565b60007f000000000000000000000000000000000000000000000000000000000000000073ffffffffffffffffffffffffffffffffffffffff163073ffffffffffffffffffffffffffffffffffffffff1614610517576040517f08c379a000000000000000000000000000000000000000000000000000000000815260040161050e90612487565b60405180910390fd5b7f360894a13ba1a3210667c828492db98dca3e2076cc3735a920a3ca505d382bbc60001b905090565b606060008373ffffffffffffffffffffffffffffffffffffffff1663db4796c0846040518263ffffffff1660e01b815260040161057d91906124b6565b6101406040518083038186803b15801561059657600080fd5b505afa1580156105aa573d6000803e3d6000fd5b505050506040513d601f19601f820116820180604052508101906105ce9190612601565b905060606000606060008773ffffffffffffffffffffffffffffffffffffffff1663d8f5df666040518163ffffffff1660e01b815260040160206040518083038186803b15801561061e57600080fd5b505afa158015610632573d6000803e3d6000fd5b505050506040513d601f19601f82011682018060405250810190610656919061262f565b90508042106106685760009050610683565b603c4282610676919061268b565b61068091906126ee565b90505b61068c85610ccd565b80945081955082965050505060006106a686858585611083565b90506106dc6106b489611363565b82876040516020016106c893929190612995565b6040516020818303038152906040526114c4565b6040516020016106ec9190612a54565b604051602081830303815290604052965050505050505092915050565b610711611649565b61071b60006116c7565b565b60008060019054906101000a900460ff1615905080801561074e5750600160008054906101000a900460ff1660ff16105b8061077b575061075d3061178d565b15801561077a5750600160008054906101000a900460ff1660ff16145b5b6107ba576040517f08c379a00000000000000000000000000000000000000000000000000000000081526004016107b190612ae8565b60405180910390fd5b60016000806101000a81548160ff021916908360ff16021790555080156107f7576001600060016101000a81548160ff0219169083151502179055505b83518551148015610809575082518451145b8015610816575081518351145b610855576040517f08c379a000000000000000000000000000000000000000000000000000000000815260040161084c90612b54565b60405180910390fd5b60005b85518160ff1610156109df576040518060600160405280868360ff168151811061088557610884612b74565b5b60200260200101518152602001858360ff16815181106108a8576108a7612b74565b5b60200260200101518152602001848360ff16815181106108cb576108ca612b74565b5b602002602001015173ffffffffffffffffffffffffffffffffffffffff1681525060c96000888460ff168151811061090657610905612b74565b5b602002602001015173ffffffffffffffffffffffffffffffffffffffff1673ffffffffffffffffffffffffffffffffffffffff1681526020019081526020016000206000820151816000019080519060200190610964929190611b6e565b506020820151816001019080519060200190610981929190611b6e565b5060408201518160020160006101000a81548173ffffffffffffffffffffffffffffffffffffffff021916908373ffffffffffffffffffffffffffffffffffffffff16021790555090505080806109d790612bb0565b915050610858565b508015610a395760008060016101000a81548160ff0219169083151502179055507f7f26b83ff96e1f2b6a682f133852f6798a09c465da95921460cefb38474024986001604051610a309190612c1f565b60405180910390a15b5050505050565b6000609760009054906101000a900473ffffffffffffffffffffffffffffffffffffffff16905090565b610a72611649565b600073ffffffffffffffffffffffffffffffffffffffff168173ffffffffffffffffffffffffffffffffffffffff161415610ae2576040517f08c379a0000000000000000000000000000000000000000000000000000000008152600401610ad990612cac565b60405180910390fd5b610aeb816116c7565b50565b6000610b1c7f360894a13ba1a3210667c828492db98dca3e2076cc3735a920a3ca505d382bbc60001b6117b0565b60000160009054906101000a900473ffffffffffffffffffffffffffffffffffffffff16905090565b610b4d611649565b50565b610b7c7f4910fdfa16fed3260ed0e7147f7cc6da11a60208b5b9406d12a635614ffd914360001b6117ba565b60000160009054906101000a900460ff1615610ba057610b9b836117c4565b610cc8565b8273ffffffffffffffffffffffffffffffffffffffff166352d1902d6040518163ffffffff1660e01b815260040160206040518083038186803b158015610be657600080fd5b505afa925050508015610c1757506040513d601f19601f82011682018060405250810190610c149190612cf8565b60015b610c56576040517f08c379a0000000000000000000000000000000000000000000000000000000008152600401610c4d90612d97565b60405180910390fd5b7f360894a13ba1a3210667c828492db98dca3e2076cc3735a920a3ca505d382bbc60001b8114610cbb576040517f08c379a0000000000000000000000000000000000000000000000000000000008152600401610cb290612e29565b60405180910390fd5b50610cc783838361187d565b5b505050565b606060006060600080600567ffffffffffffffff811115610cf157610cf0611ccb565b5b604051908082528060200260200182016040528015610d1f5781602001602082028036833780820191505090505b5090506000600567ffffffffffffffff811115610d3f57610d3e611ccb565b5b604051908082528060200260200182016040528015610d6d5781602001602082028036833780820191505090505b509050606060005b6005811015610f3b57670de0b6b3a7640000898260058110610d9a57610d99612b74565b5b602002015160200151610e2960c960008d8660058110610dbd57610dbc612b74565b5b60200201516000015173ffffffffffffffffffffffffffffffffffffffff1673ffffffffffffffffffffffffffffffffffffffff16815260200190815260200160002060020160009054906101000a900473ffffffffffffffffffffffffffffffffffffffff166118a9565b610e339190612e49565b610e3d91906126ee565b848281518110610e5057610e4f612b74565b5b602002602001018181525050670de0b6b3a7640000898260058110610e7857610e77612b74565b5b602002015160200151610f0760c960008d8660058110610e9b57610e9a612b74565b5b60200201516000015173ffffffffffffffffffffffffffffffffffffffff1673ffffffffffffffffffffffffffffffffffffffff16815260200190815260200160002060020160009054906101000a900473ffffffffffffffffffffffffffffffffffffffff166118a9565b610f119190612e49565b610f1b91906126ee565b85610f269190612ea3565b94508080610f3390612ef9565b915050610d75565b5060005b835181101561104257610f6c848281518110610f5e57610f5d612b74565b5b602002602001015186611949565b838281518110610f7f57610f7e612b74565b5b6020026020010181815250508160c960008b8460058110610fa357610fa2612b74565b5b60200201516000015173ffffffffffffffffffffffffffffffffffffffff1673ffffffffffffffffffffffffffffffffffffffff16815260200190815260200160002060000161100c868481518110610fff57610ffe612b74565b5b60200260200101516119a1565b60405160200161101e9392919061311b565b6040516020818303038152906040529150808061103a90612ef9565b915050610f3f565b508061104d856119a1565b60405160200161105e92919061322b565b6040516020818303038152906040529050808483965096509650505050509193909250565b606080606080606060006001905060005b88518110156113125760c960008c83600581106110b4576110b3612b74565b5b60200201516000015173ffffffffffffffffffffffffffffffffffffffff1673ffffffffffffffffffffffffffffffffffffffff168152602001908152602001600020600001805461110590612fbd565b80601f016020809104026020016040519081016040528092919081815260200182805461113190612fbd565b801561117e5780601f106111535761010080835404028352916020019161117e565b820191906000526020600020905b81548152906001019060200180831161116157829003601f168201915b5050505050925060c960008c836005811061119c5761119b612b74565b5b60200201516000015173ffffffffffffffffffffffffffffffffffffffff1673ffffffffffffffffffffffffffffffffffffffff16815260200190815260200160002060010180546111ed90612fbd565b80601f016020809104026020016040519081016040528092919081815260200182805461121990612fbd565b80156112665780601f1061123b57610100808354040283529160200191611266565b820191906000526020600020905b81548152906001019060200180831161124957829003601f168201915b505050505093508881815181106112805761127f612b74565b5b6020026020010151826112939190612ea3565b9150856112ab8260086112a69190612e49565b611363565b85856040516020016112c094939291906134c5565b6040516020818303038152906040529550836112db83611363565b866040516020016112ee9392919061369b565b6040516020818303038152906040529450808061130a90612ef9565b915050611094565b5061131c896119a1565b84866113278a611363565b60405160200161133a9493929190613bd3565b6040516020818303038152906040529450611354856114c4565b95505050505050949350505050565b606060008214156113ab576040518060400160405280600181526020017f300000000000000000000000000000000000000000000000000000000000000081525090506114bf565b600082905060005b600082146113dd5780806113c690612ef9565b915050600a826113d691906126ee565b91506113b3565b60008167ffffffffffffffff8111156113f9576113f8611ccb565b5b6040519080825280601f01601f19166020018201604052801561142b5781602001600182028036833780820191505090505b5090505b600085146114b857600182611444919061268b565b9150600a856114539190613c95565b603061145f9190612ea3565b60f81b81838151811061147557611474612b74565b5b60200101907effffffffffffffffffffffffffffffffffffffffffffffffffffffffffffff1916908160001a905350600a856114b191906126ee565b945061142f565b8093505050505b919050565b60606000825114156114e757604051806020016040528060008152509050611644565b6000604051806060016040528060408152602001613fa860409139905060006003600285516115169190612ea3565b61152091906126ee565b600461152c9190612e49565b9050600060208261153d9190612ea3565b67ffffffffffffffff81111561155657611555611ccb565b5b6040519080825280601f01601f1916602001820160405280156115885781602001600182028036833780820191505090505b509050818152600183018586518101602084015b81831015611603576003830192508251603f8160121c1685015160f81b8252600182019150603f81600c1c1685015160f81b8252600182019150603f8160061c1685015160f81b8252600182019150603f811685015160f81b82526001820191505061159c565b60038951066001811461161d576002811461162d57611638565b613d3d60f01b6002830352611638565b603d60f81b60018303525b50505050508093505050505b919050565b6116516119cc565b73ffffffffffffffffffffffffffffffffffffffff1661166f610a40565b73ffffffffffffffffffffffffffffffffffffffff16146116c5576040517f08c379a00000000000000000000000000000000000000000000000000000000081526004016116bc90613d12565b60405180910390fd5b565b6000609760009054906101000a900473ffffffffffffffffffffffffffffffffffffffff16905081609760006101000a81548173ffffffffffffffffffffffffffffffffffffffff021916908373ffffffffffffffffffffffffffffffffffffffff1602179055508173ffffffffffffffffffffffffffffffffffffffff168173ffffffffffffffffffffffffffffffffffffffff167f8be0079c531659141344cd1fd0a4f28419497f9722a3daafe3b4186f6b6457e060405160405180910390a35050565b6000808273ffffffffffffffffffffffffffffffffffffffff163b119050919050565b6000819050919050565b6000819050919050565b6117cd8161178d565b61180c576040517f08c379a000000000000000000000000000000000000000000000000000000000815260040161180390613da4565b60405180910390fd5b806118397f360894a13ba1a3210667c828492db98dca3e2076cc3735a920a3ca505d382bbc60001b6117b0565b60000160006101000a81548173ffffffffffffffffffffffffffffffffffffffff021916908373ffffffffffffffffffffffffffffffffffffffff16021790555050565b611886836119d4565b6000825111806118935750805b156118a4576118a28383611a23565b505b505050565b6000808273ffffffffffffffffffffffffffffffffffffffff1663feaf968c6040518163ffffffff1660e01b815260040160a06040518083038186803b1580156118f257600080fd5b505afa158015611906573d6000803e3d6000fd5b505050506040513d601f19601f8201168201806040525081019061192a9190613e3c565b5050509150506402540be400816119419190612e49565b915050919050565b6000806103e88461195a9190612e49565b9050838111801561196a57508281115b15611995576000838261197d91906126ee565b9050600a8161198c91906126ee565b9250505061199b565b60009150505b92915050565b60606000670de0b6b3a7640000836119b991906126ee565b90506119c481611363565b915050919050565b600033905090565b6119dd816117c4565b8073ffffffffffffffffffffffffffffffffffffffff167fbc7cd75a20ee27fd9adebab32041f755214dbc6bffa90cc0225b39da2e5c2d3b60405160405180910390a250565b6060611a2e8361178d565b611a6d576040517f08c379a0000000000000000000000000000000000000000000000000000000008152600401611a6490613f29565b60405180910390fd5b6000808473ffffffffffffffffffffffffffffffffffffffff1684604051611a959190613f90565b600060405180830381855af49150503d8060008114611ad0576040519150601f19603f3d011682016040523d82523d6000602084013e611ad5565b606091505b5091509150611afd8282604051806060016040528060278152602001613fe860279139611b07565b9250505092915050565b60608315611b1757829050611b67565b600083511115611b2a5782518084602001fd5b816040517f08c379a0000000000000000000000000000000000000000000000000000000008152600401611b5e9190611f84565b60405180910390fd5b9392505050565b828054611b7a90612fbd565b90600052602060002090601f016020900481019282611b9c5760008555611be3565b82601f10611bb557805160ff1916838001178555611be3565b82800160010185558215611be3579182015b82811115611be2578251825591602001919060010190611bc7565b5b509050611bf09190611bf4565b5090565b5b80821115611c0d576000816000905550600101611bf5565b5090565b6000604051905090565b600080fd5b600080fd5b600073ffffffffffffffffffffffffffffffffffffffff82169050919050565b6000611c5082611c25565b9050919050565b611c6081611c45565b8114611c6b57600080fd5b50565b600081359050611c7d81611c57565b92915050565b600060208284031215611c9957611c98611c1b565b5b6000611ca784828501611c6e565b91505092915050565b600080fd5b600080fd5b6000601f19601f8301169050919050565b7f4e487b7100000000000000000000000000000000000000000000000000000000600052604160045260246000fd5b611d0382611cba565b810181811067ffffffffffffffff82111715611d2257611d21611ccb565b5b80604052505050565b6000611d35611c11565b9050611d418282611cfa565b919050565b600067ffffffffffffffff821115611d6157611d60611ccb565b5b611d6a82611cba565b9050602081019050919050565b82818337600083830152505050565b6000611d99611d9484611d46565b611d2b565b905082815260208101848484011115611db557611db4611cb5565b5b611dc0848285611d77565b509392505050565b600082601f830112611ddd57611ddc611cb0565b5b8135611ded848260208601611d86565b91505092915050565b60008060408385031215611e0d57611e0c611c1b565b5b6000611e1b85828601611c6e565b925050602083013567ffffffffffffffff811115611e3c57611e3b611c20565b5b611e4885828601611dc8565b9150509250929050565b6000819050919050565b611e6581611e52565b82525050565b6000602082019050611e806000830184611e5c565b92915050565b6000819050919050565b611e9981611e86565b8114611ea457600080fd5b50565b600081359050611eb681611e90565b92915050565b60008060408385031215611ed357611ed2611c1b565b5b6000611ee185828601611c6e565b9250506020611ef285828601611ea7565b9150509250929050565b600081519050919050565b600082825260208201905092915050565b60005b83811015611f36578082015181840152602081019050611f1b565b83811115611f45576000848401525b50505050565b6000611f5682611efc565b611f608185611f07565b9350611f70818560208601611f18565b611f7981611cba565b840191505092915050565b60006020820190508181036000830152611f9e8184611f4b565b905092915050565b600067ffffffffffffffff821115611fc157611fc0611ccb565b5b602082029050602081019050919050565b600080fd5b6000611fea611fe584611fa6565b611d2b565b9050808382526020820190506020840283018581111561200d5761200c611fd2565b5b835b8181101561203657806120228882611c6e565b84526020840193505060208101905061200f565b5050509392505050565b600082601f83011261205557612054611cb0565b5b8135612065848260208601611fd7565b91505092915050565b600067ffffffffffffffff82111561208957612088611ccb565b5b602082029050602081019050919050565b600067ffffffffffffffff8211156120b5576120b4611ccb565b5b6120be82611cba565b9050602081019050919050565b60006120de6120d98461209a565b611d2b565b9050828152602081018484840111156120fa576120f9611cb5565b5b612105848285611d77565b509392505050565b600082601f83011261212257612121611cb0565b5b81356121328482602086016120cb565b91505092915050565b600061214e6121498461206e565b611d2b565b9050808382526020820190506020840283018581111561217157612170611fd2565b5b835b818110156121b857803567ffffffffffffffff81111561219657612195611cb0565b5b8086016121a3898261210d565b85526020850194505050602081019050612173565b5050509392505050565b600082601f8301126121d7576121d6611cb0565b5b81356121e784826020860161213b565b91505092915050565b6000806000806080858703121561220a57612209611c1b565b5b600085013567ffffffffffffffff81111561222857612227611c20565b5b61223487828801612040565b945050602085013567ffffffffffffffff81111561225557612254611c20565b5b612261878288016121c2565b935050604085013567ffffffffffffffff81111561228257612281611c20565b5b61228e878288016121c2565b925050606085013567ffffffffffffffff8111156122af576122ae611c20565b5b6122bb87828801612040565b91505092959194509250565b6122d081611c45565b82525050565b60006020820190506122eb60008301846122c7565b92915050565b7f46756e6374696f6e206d7573742062652063616c6c6564207468726f7567682060008201527f64656c656761746563616c6c0000000000000000000000000000000000000000602082015250565b600061234d602c83611f07565b9150612358826122f1565b604082019050919050565b6000602082019050818103600083015261237c81612340565b9050919050565b7f46756e6374696f6e206d7573742062652063616c6c6564207468726f7567682060008201527f6163746976652070726f78790000000000000000000000000000000000000000602082015250565b60006123df602c83611f07565b91506123ea82612383565b604082019050919050565b6000602082019050818103600083015261240e816123d2565b9050919050565b7f555550535570677261646561626c653a206d757374206e6f742062652063616c60008201527f6c6564207468726f7567682064656c656761746563616c6c0000000000000000602082015250565b6000612471603883611f07565b915061247c82612415565b604082019050919050565b600060208201905081810360008301526124a081612464565b9050919050565b6124b081611e86565b82525050565b60006020820190506124cb60008301846124a7565b92915050565b600067ffffffffffffffff8211156124ec576124eb611ccb565b5b602082029050919050565b600080fd5b60008151905061250b81611c57565b92915050565b60008151905061252081611e90565b92915050565b60006040828403121561253c5761253b6124f7565b5b6125466040611d2b565b90506000612556848285016124fc565b600083015250602061256a84828501612511565b60208301525092915050565b6000612589612584846124d1565b611d2b565b905080604084028301858111156125a3576125a2611fd2565b5b835b818110156125cc57806125b88882612526565b8452602084019350506040810190506125a5565b5050509392505050565b600082601f8301126125eb576125ea611cb0565b5b60056125f8848285612576565b91505092915050565b6000610140828403121561261857612617611c1b565b5b6000612626848285016125d6565b91505092915050565b60006020828403121561264557612644611c1b565b5b600061265384828501612511565b91505092915050565b7f4e487b7100000000000000000000000000000000000000000000000000000000600052601160045260246000fd5b600061269682611e86565b91506126a183611e86565b9250828210156126b4576126b361265c565b5b828203905092915050565b7f4e487b7100000000000000000000000000000000000000000000000000000000600052601260045260246000fd5b60006126f982611e86565b915061270483611e86565b925082612714576127136126bf565b5b828204905092915050565b600081905092915050565b7f7b226e616d65223a2022536f756c46756e642023000000000000000000000000600082015250565b600061276060148361271f565b915061276b8261272a565b601482019050919050565b600061278182611efc565b61278b818561271f565b935061279b818560208601611f18565b80840191505092915050565b7f222c000000000000000000000000000000000000000000000000000000000000600082015250565b60006127dd60028361271f565b91506127e8826127a7565b600282019050919050565b7f226465736372697074696f6e223a2022536f756c46756e64206973206120536f60008201527f756c626f756e642054696d652026204d657269742042617365642046756e646960208201527f6e6720546f6b656e2e222c000000000000000000000000000000000000000000604082015250565b6000612875604b8361271f565b9150612880826127f3565b604b82019050919050565b7f22696d616765223a2022646174613a696d6167652f7376672b786d6c3b62617360008201527f6536342c00000000000000000000000000000000000000000000000000000000602082015250565b60006128e760248361271f565b91506128f28261288b565b602482019050919050565b7f222c2261747472696275746573223a205b000000000000000000000000000000600082015250565b600061293360118361271f565b915061293e826128fd565b601182019050919050565b7f5d7d000000000000000000000000000000000000000000000000000000000000600082015250565b600061297f60028361271f565b915061298a82612949565b600282019050919050565b60006129a082612753565b91506129ac8286612776565b91506129b7826127d0565b91506129c282612868565b91506129cd826128da565b91506129d98285612776565b91506129e482612926565b91506129f08284612776565b91506129fb82612972565b9150819050949350505050565b7f646174613a6170706c69636174696f6e2f6a736f6e3b6261736536342c000000600082015250565b6000612a3e601d8361271f565b9150612a4982612a08565b601d82019050919050565b6000612a5f82612a31565b9150612a6b8284612776565b915081905092915050565b7f496e697469616c697a61626c653a20636f6e747261637420697320616c72656160008201527f647920696e697469616c697a6564000000000000000000000000000000000000602082015250565b6000612ad2602e83611f07565b9150612add82612a76565b604082019050919050565b60006020820190508181036000830152612b0181612ac5565b9050919050565b7f496e76616c696420706172616d206c656e677468000000000000000000000000600082015250565b6000612b3e601483611f07565b9150612b4982612b08565b602082019050919050565b60006020820190508181036000830152612b6d81612b31565b9050919050565b7f4e487b7100000000000000000000000000000000000000000000000000000000600052603260045260246000fd5b600060ff82169050919050565b6000612bbb82612ba3565b915060ff821415612bcf57612bce61265c565b5b600182019050919050565b6000819050919050565b6000819050919050565b6000612c09612c04612bff84612bda565b612be4565b612ba3565b9050919050565b612c1981612bee565b82525050565b6000602082019050612c346000830184612c10565b92915050565b7f4f776e61626c653a206e6577206f776e657220697320746865207a65726f206160008201527f6464726573730000000000000000000000000000000000000000000000000000602082015250565b6000612c96602683611f07565b9150612ca182612c3a565b604082019050919050565b60006020820190508181036000830152612cc581612c89565b9050919050565b612cd581611e52565b8114612ce057600080fd5b50565b600081519050612cf281612ccc565b92915050565b600060208284031215612d0e57612d0d611c1b565b5b6000612d1c84828501612ce3565b91505092915050565b7f45524331393637557067726164653a206e657720696d706c656d656e7461746960008201527f6f6e206973206e6f742055555053000000000000000000000000000000000000602082015250565b6000612d81602e83611f07565b9150612d8c82612d25565b604082019050919050565b60006020820190508181036000830152612db081612d74565b9050919050565b7f45524331393637557067726164653a20756e737570706f727465642070726f7860008201527f6961626c65555549440000000000000000000000000000000000000000000000602082015250565b6000612e13602983611f07565b9150612e1e82612db7565b604082019050919050565b60006020820190508181036000830152612e4281612e06565b9050919050565b6000612e5482611e86565b9150612e5f83611e86565b9250817fffffffffffffffffffffffffffffffffffffffffffffffffffffffffffffffff0483118215151615612e9857612e9761265c565b5b828202905092915050565b6000612eae82611e86565b9150612eb983611e86565b9250827fffffffffffffffffffffffffffffffffffffffffffffffffffffffffffffffff03821115612eee57612eed61265c565b5b828201905092915050565b6000612f0482611e86565b91507fffffffffffffffffffffffffffffffffffffffffffffffffffffffffffffffff821415612f3757612f3661265c565b5b600182019050919050565b7f7b2274726169745f74797065223a220000000000000000000000000000000000600082015250565b6000612f78600f8361271f565b9150612f8382612f42565b600f82019050919050565b7f4e487b7100000000000000000000000000000000000000000000000000000000600052602260045260246000fd5b60006002820490506001821680612fd557607f821691505b60208210811415612fe957612fe8612f8e565b5b50919050565b60008190508160005260206000209050919050565b6000815461301181612fbd565b61301b818661271f565b9450600182166000811461303657600181146130475761307a565b60ff1983168652818601935061307a565b61305085612fef565b60005b8381101561307257815481890152600182019150602081019050613053565b838801955050505b50505092915050565b7f222c2276616c7565223a22240000000000000000000000000000000000000000600082015250565b60006130b9600c8361271f565b91506130c482613083565b600c82019050919050565b7f227d2c0000000000000000000000000000000000000000000000000000000000600082015250565b600061310560038361271f565b9150613110826130cf565b600382019050919050565b60006131278286612776565b915061313282612f6b565b915061313e8285613004565b9150613149826130ac565b91506131558284612776565b9150613160826130f8565b9150819050949350505050565b7f7b2274726169745f74797065223a22546f74616c2056616c7565222c2276616c60008201527f7565223a22240000000000000000000000000000000000000000000000000000602082015250565b60006131c960268361271f565b91506131d48261316d565b602682019050919050565b7f227d000000000000000000000000000000000000000000000000000000000000600082015250565b600061321560028361271f565b9150613220826131df565b600282019050919050565b60006132378285612776565b9150613242826131bc565b915061324e8284612776565b915061325982613208565b91508190509392505050565b7f3c7376672077696474683d2238707822206865696768743d223570782220783d60008201527f2200000000000000000000000000000000000000000000000000000000000000602082015250565b60006132c160218361271f565b91506132cc82613265565b602182019050919050565b7f2220793d223330223e0000000000000000000000000000000000000000000000600082015250565b600061330d60098361271f565b9150613318826132d7565b600982019050919050565b7f3c72656374207374796c653d2266696c6c3a0000000000000000000000000000600082015250565b600061335960128361271f565b915061336482613323565b601282019050919050565b7f2220783d223230252220793d223422202f3e0000000000000000000000000000600082015250565b60006133a560128361271f565b91506133b08261336f565b601282019050919050565b7f3c7465787420783d223530252220793d223530252220646f6d696e616e742d6260008201527f6173656c696e653d226d6964646c652220746578742d616e63686f723d226d6960208201527f64646c6522207374796c653d22666f6e742d73697a653a3270783b66696c6c3a60408201527f20233030303b223e000000000000000000000000000000000000000000000000606082015250565b600061346360688361271f565b915061346e826133bb565b606882019050919050565b7f3c2f746578743e3c2f7376673e00000000000000000000000000000000000000600082015250565b60006134af600d8361271f565b91506134ba82613479565b600d82019050919050565b60006134d18287612776565b91506134dc826132b4565b91506134e88286612776565b91506134f382613300565b91506134fe8261334c565b915061350a8285612776565b915061351582613398565b915061352082613456565b915061352c8284612776565b9150613537826134a2565b915081905095945050505050565b7f3c636972636c6520723d2235222063783d223130222063793d2231302220666960008201527f6c6c3d227472616e73706172656e7422207374726f6b653d2200000000000000602082015250565b60006135a160398361271f565b91506135ac82613545565b603982019050919050565b7f22207374726f6b652d77696474683d22313022207374726f6b652d646173686160008201527f727261793d2263616c6328000000000000000000000000000000000000000000602082015250565b6000613613602b8361271f565b915061361e826135b7565b602b82019050919050565b7f202a2033312e34202f20313030292033312e3422207472616e73666f726d3d2260008201527f726f74617465282d393029207472616e736c617465282d32302922202f3e0000602082015250565b6000613685603e8361271f565b915061369082613629565b603e82019050919050565b60006136a682613594565b91506136b28286612776565b91506136bd82613606565b91506136c98285612776565b91506136d482613678565b91506136e08284612776565b9150819050949350505050565b7f3c73766720786d6c6e733d22687474703a2f2f7777772e77332e6f72672f323060008201527f30302f7376672220786d6c6e733a786c696e6b3d22687474703a2f2f7777772e60208201527f77332e6f72672f313939392f786c696e6b222069643d226d61696e222076696560408201527f77426f783d22302030203430203430222070726573657276654173706563745260608201527f6174696f3d22784d696e594d696e206d656574222073686170652d72656e646560808201527f72696e673d2263726973702d6564676573223e0000000000000000000000000060a082015250565b60006137e160b38361271f565b91506137ec826136ed565b60b382019050919050565b7f3c7376672077696474683d223430707822206865696768743d2235707822207860008201527f3d22302220793d2233223e000000000000000000000000000000000000000000602082015250565b6000613853602b8361271f565b915061385e826137f7565b602b82019050919050565b7f3c7465787420783d223530252220793d223530252220646f6d696e616e742d6260008201527f6173656c696e653d226d6964646c652220746578742d616e63686f723d226d6960208201527f64646c6522207374796c653d22666f6e742d73697a653a3370783b66696c6c3a60408201527f20233030303b223e240000000000000000000000000000000000000000000000606082015250565b600061391160698361271f565b915061391c82613869565b606982019050919050565b7f3c7376672069643d227069652220783d2231302220793d22313022206865696760008201527f68743d223230222077696474683d223230222076696577426f783d223020302060208201527f3230203230223e00000000000000000000000000000000000000000000000000604082015250565b60006139a960478361271f565b91506139b482613927565b604782019050919050565b7f3c636972636c6520723d223130222063783d223130222063793d22313022206660008201527f696c6c3d22776869746522202f3e000000000000000000000000000000000000602082015250565b6000613a1b602e8361271f565b9150613a26826139bf565b602e82019050919050565b7f3c2f7376673e0000000000000000000000000000000000000000000000000000600082015250565b6000613a6760068361271f565b9150613a7282613a31565b600682019050919050565b7f3c7376672077696474683d223430707822206865696768743d2235707822207860008201527f3d22302220793d223336223e0000000000000000000000000000000000000000602082015250565b6000613ad9602c8361271f565b9150613ae482613a7d565b602c82019050919050565b7f204d696e7574657320556e74696c204e65787420566573740000000000000000600082015250565b6000613b2560188361271f565b9150613b3082613aef565b601882019050919050565b7f3c7374796c653e746578747b666f6e742d66616d696c793a417269616c3b7d7260008201527f6563747b77696474683a3570783b6865696768743a3170783b7d3c2f7374796c60208201527f653e3c2f7376673e000000000000000000000000000000000000000000000000604082015250565b6000613bbd60488361271f565b9150613bc882613b3b565b604882019050919050565b6000613bde826137d4565b9150613be982613846565b9150613bf482613904565b9150613c008287612776565b9150613c0b826134a2565b9150613c168261399c565b9150613c2182613a0e565b9150613c2d8286612776565b9150613c3882613a5a565b9150613c448285612776565b9150613c4f82613acc565b9150613c5a82613456565b9150613c668284612776565b9150613c7182613b18565b9150613c7c826134a2565b9150613c8782613bb0565b915081905095945050505050565b6000613ca082611e86565b9150613cab83611e86565b925082613cbb57613cba6126bf565b5b828206905092915050565b7f4f776e61626c653a2063616c6c6572206973206e6f7420746865206f776e6572600082015250565b6000613cfc602083611f07565b9150613d0782613cc6565b602082019050919050565b60006020820190508181036000830152613d2b81613cef565b9050919050565b7f455243313936373a206e657720696d706c656d656e746174696f6e206973206e60008201527f6f74206120636f6e747261637400000000000000000000000000000000000000602082015250565b6000613d8e602d83611f07565b9150613d9982613d32565b604082019050919050565b60006020820190508181036000830152613dbd81613d81565b9050919050565b600069ffffffffffffffffffff82169050919050565b613de381613dc4565b8114613dee57600080fd5b50565b600081519050613e0081613dda565b92915050565b6000819050919050565b613e1981613e06565b8114613e2457600080fd5b50565b600081519050613e3681613e10565b92915050565b600080600080600060a08688031215613e5857613e57611c1b565b5b6000613e6688828901613df1565b9550506020613e7788828901613e27565b9450506040613e8888828901612511565b9350506060613e9988828901612511565b9250506080613eaa88828901613df1565b9150509295509295909350565b7f416464726573733a2064656c65676174652063616c6c20746f206e6f6e2d636f60008201527f6e74726163740000000000000000000000000000000000000000000000000000602082015250565b6000613f13602683611f07565b9150613f1e82613eb7565b604082019050919050565b60006020820190508181036000830152613f4281613f06565b9050919050565b600081519050919050565b600081905092915050565b6000613f6a82613f49565b613f748185613f54565b9350613f84818560208601611f18565b80840191505092915050565b6000613f9c8284613f5f565b91508190509291505056fe4142434445464748494a4b4c4d4e4f505152535455565758595a6162636465666768696a6b6c6d6e6f707172737475767778797a303132333435363738392b2f416464726573733a206c6f772d6c6576656c2064656c65676174652063616c6c206661696c6564a264697066735822122085c802ea0edebfcb82a9b5ce32e537303178c687486eed7d905a5b0314d07b7b64736f6c63430008090033",
  "linkReferences": {},
  "deployedLinkReferences": {}
}