{
  "_format": "hh-sol-artifact-1",
  "contractName": "TokenRenderer",
  "sourceName": "contracts/TokenRenderer.sol",
  "abi": [
    {
      "anonymous": false,
      "inputs": [
        {
          "indexed": false,
          "internalType": "address",
          "name": "previousAdmin",
          "type": "address"
        },
        {
          "indexed": false,
          "internalType": "address",
          "name": "newAdmin",
          "type": "address"
        }
      ],
      "name": "AdminChanged",
      "type": "event"
    },
    {
      "anonymous": false,
      "inputs": [
        {
          "indexed": true,
          "internalType": "address",
          "name": "beacon",
          "type": "address"
        }
      ],
      "name": "BeaconUpgraded",
      "type": "event"
    },
    {
      "anonymous": false,
      "inputs": [
        {
          "indexed": false,
          "internalType": "uint8",
          "name": "version",
          "type": "uint8"
        }
      ],
      "name": "Initialized",
      "type": "event"
    },
    {
      "anonymous": false,
      "inputs": [
        {
          "indexed": true,
          "internalType": "address",
          "name": "previousOwner",
          "type": "address"
        },
        {
          "indexed": true,
          "internalType": "address",
          "name": "newOwner",
          "type": "address"
        }
      ],
      "name": "OwnershipTransferred",
      "type": "event"
    },
    {
      "anonymous": false,
      "inputs": [
        {
          "indexed": true,
          "internalType": "address",
          "name": "implementation",
          "type": "address"
        }
      ],
      "name": "Upgraded",
      "type": "event"
    },
    {
      "inputs": [
        {
          "internalType": "address[]",
          "name": "_addresses",
          "type": "address[]"
        },
        {
          "internalType": "string[]",
          "name": "_names",
          "type": "string[]"
        },
        {
          "internalType": "string[]",
          "name": "_colors",
          "type": "string[]"
        },
        {
          "internalType": "address[]",
          "name": "_aggregators",
          "type": "address[]"
        }
      ],
      "name": "initialize",
      "outputs": [],
      "stateMutability": "nonpayable",
      "type": "function"
    },
    {
      "inputs": [],
      "name": "owner",
      "outputs": [
        {
          "internalType": "address",
          "name": "",
          "type": "address"
        }
      ],
      "stateMutability": "view",
      "type": "function"
    },
    {
      "inputs": [],
      "name": "proxiableUUID",
      "outputs": [
        {
          "internalType": "bytes32",
          "name": "",
          "type": "bytes32"
        }
      ],
      "stateMutability": "view",
      "type": "function"
    },
    {
      "inputs": [
        {
          "internalType": "address",
          "name": "_soulfund",
          "type": "address"
        },
        {
          "internalType": "uint256",
          "name": "_tokenId",
          "type": "uint256"
        }
      ],
      "name": "renderToken",
      "outputs": [
        {
          "internalType": "string",
          "name": "",
          "type": "string"
        }
      ],
      "stateMutability": "view",
      "type": "function"
    },
    {
      "inputs": [],
      "name": "renounceOwnership",
      "outputs": [],
      "stateMutability": "nonpayable",
      "type": "function"
    },
    {
      "inputs": [
        {
          "internalType": "address",
          "name": "newOwner",
          "type": "address"
        }
      ],
      "name": "transferOwnership",
      "outputs": [],
      "stateMutability": "nonpayable",
      "type": "function"
    },
    {
      "inputs": [
        {
          "internalType": "address",
          "name": "newImplementation",
          "type": "address"
        }
      ],
      "name": "upgradeTo",
      "outputs": [],
      "stateMutability": "nonpayable",
      "type": "function"
    },
    {
      "inputs": [
        {
          "internalType": "address",
          "name": "newImplementation",
          "type": "address"
        },
        {
          "internalType": "bytes",
          "name": "data",
          "type": "bytes"
        }
      ],
      "name": "upgradeToAndCall",
      "outputs": [],
      "stateMutability": "payable",
      "type": "function"
    }
  ],
  "bytecode": "0x60a06040523073ffffffffffffffffffffffffffffffffffffffff1660809073ffffffffffffffffffffffffffffffffffffffff1681525034801561004357600080fd5b50608051613fdd61007b600039600081816101c3015281816102520152818161034c015281816103db015261048b0152613fdd6000f3fe60806040526004361061007b5760003560e01c8063715018a61161004e578063715018a61461012d57806374debc3a146101445780638da5cb5b1461016d578063f2fde38b146101985761007b565b80633659cfe6146100805780634f1ef286146100a957806352d1902d146100c5578063611fc469146100f0575b600080fd5b34801561008c57600080fd5b506100a760048036038101906100a29190611bc9565b6101c1565b005b6100c360048036038101906100be9190611d3c565b61034a565b005b3480156100d157600080fd5b506100da610487565b6040516100e79190611db1565b60405180910390f35b3480156100fc57600080fd5b5061011760048036038101906101129190611e02565b610540565b6040516101249190611eca565b60405180910390f35b34801561013957600080fd5b5061014261065a565b005b34801561015057600080fd5b5061016b60048036038101906101669190612136565b61066e565b005b34801561017957600080fd5b50610182610991565b60405161018f919061221c565b60405180910390f35b3480156101a457600080fd5b506101bf60048036038101906101ba9190611bc9565b6109bb565b005b7f000000000000000000000000000000000000000000000000000000000000000073ffffffffffffffffffffffffffffffffffffffff163073ffffffffffffffffffffffffffffffffffffffff161415610250576040517f08c379a0000000000000000000000000000000000000000000000000000000008152600401610247906122a9565b60405180910390fd5b7f000000000000000000000000000000000000000000000000000000000000000073ffffffffffffffffffffffffffffffffffffffff1661028f610a3f565b73ffffffffffffffffffffffffffffffffffffffff16146102e5576040517f08c379a00000000000000000000000000000000000000000000000000000000081526004016102dc9061233b565b60405180910390fd5b6102ee81610a96565b61034781600067ffffffffffffffff81111561030d5761030c611c11565b5b6040519080825280601f01601f19166020018201604052801561033f5781602001600182028036833780820191505090505b506000610aa1565b50565b7f000000000000000000000000000000000000000000000000000000000000000073ffffffffffffffffffffffffffffffffffffffff163073ffffffffffffffffffffffffffffffffffffffff1614156103d9576040517f08c379a00000000000000000000000000000000000000000000000000000000081526004016103d0906122a9565b60405180910390fd5b7f000000000000000000000000000000000000000000000000000000000000000073ffffffffffffffffffffffffffffffffffffffff16610418610a3f565b73ffffffffffffffffffffffffffffffffffffffff161461046e576040517f08c379a00000000000000000000000000000000000000000000000000000000081526004016104659061233b565b60405180910390fd5b61047782610a96565b61048382826001610aa1565b5050565b60007f000000000000000000000000000000000000000000000000000000000000000073ffffffffffffffffffffffffffffffffffffffff163073ffffffffffffffffffffffffffffffffffffffff1614610517576040517f08c379a000000000000000000000000000000000000000000000000000000000815260040161050e906123cd565b60405180910390fd5b7f360894a13ba1a3210667c828492db98dca3e2076cc3735a920a3ca505d382bbc60001b905090565b606060008373ffffffffffffffffffffffffffffffffffffffff1663db4796c0846040518263ffffffff1660e01b815260040161057d91906123fc565b6101406040518083038186803b15801561059657600080fd5b505afa1580156105aa573d6000803e3d6000fd5b505050506040513d601f19601f820116820180604052508101906105ce9190612547565b90506060600060606105df84610c1e565b80935081945082955050505060006105f8858484610fd4565b905061062e610606886112a9565b828660405160200161061a939291906127eb565b60405160208183030381529060405261140a565b60405160200161063e91906128aa565b6040516020818303038152906040529550505050505092915050565b61066261158f565b61066c600061160d565b565b60008060019054906101000a900460ff1615905080801561069f5750600160008054906101000a900460ff1660ff16105b806106cc57506106ae306116d3565b1580156106cb5750600160008054906101000a900460ff1660ff16145b5b61070b576040517f08c379a00000000000000000000000000000000000000000000000000000000081526004016107029061293e565b60405180910390fd5b60016000806101000a81548160ff021916908360ff1602179055508015610748576001600060016101000a81548160ff0219169083151502179055505b8351855114801561075a575082518451145b8015610767575081518351145b6107a6576040517f08c379a000000000000000000000000000000000000000000000000000000000815260040161079d906129aa565b60405180910390fd5b60005b85518160ff161015610930576040518060600160405280868360ff16815181106107d6576107d56129ca565b5b60200260200101518152602001858360ff16815181106107f9576107f86129ca565b5b60200260200101518152602001848360ff168151811061081c5761081b6129ca565b5b602002602001015173ffffffffffffffffffffffffffffffffffffffff1681525060c96000888460ff1681518110610857576108566129ca565b5b602002602001015173ffffffffffffffffffffffffffffffffffffffff1673ffffffffffffffffffffffffffffffffffffffff16815260200190815260200160002060008201518160000190805190602001906108b5929190611ab4565b5060208201518160010190805190602001906108d2929190611ab4565b5060408201518160020160006101000a81548173ffffffffffffffffffffffffffffffffffffffff021916908373ffffffffffffffffffffffffffffffffffffffff160217905550905050808061092890612a35565b9150506107a9565b50801561098a5760008060016101000a81548160ff0219169083151502179055507f7f26b83ff96e1f2b6a682f133852f6798a09c465da95921460cefb384740249860016040516109819190612aa4565b60405180910390a15b5050505050565b6000609760009054906101000a900473ffffffffffffffffffffffffffffffffffffffff16905090565b6109c361158f565b600073ffffffffffffffffffffffffffffffffffffffff168173ffffffffffffffffffffffffffffffffffffffff161415610a33576040517f08c379a0000000000000000000000000000000000000000000000000000000008152600401610a2a90612b31565b60405180910390fd5b610a3c8161160d565b50565b6000610a6d7f360894a13ba1a3210667c828492db98dca3e2076cc3735a920a3ca505d382bbc60001b6116f6565b60000160009054906101000a900473ffffffffffffffffffffffffffffffffffffffff16905090565b610a9e61158f565b50565b610acd7f4910fdfa16fed3260ed0e7147f7cc6da11a60208b5b9406d12a635614ffd914360001b611700565b60000160009054906101000a900460ff1615610af157610aec8361170a565b610c19565b8273ffffffffffffffffffffffffffffffffffffffff166352d1902d6040518163ffffffff1660e01b815260040160206040518083038186803b158015610b3757600080fd5b505afa925050508015610b6857506040513d601f19601f82011682018060405250810190610b659190612b7d565b60015b610ba7576040517f08c379a0000000000000000000000000000000000000000000000000000000008152600401610b9e90612c1c565b60405180910390fd5b7f360894a13ba1a3210667c828492db98dca3e2076cc3735a920a3ca505d382bbc60001b8114610c0c576040517f08c379a0000000000000000000000000000000000000000000000000000000008152600401610c0390612cae565b60405180910390fd5b50610c188383836117c3565b5b505050565b606060006060600080600567ffffffffffffffff811115610c4257610c41611c11565b5b604051908082528060200260200182016040528015610c705781602001602082028036833780820191505090505b5090506000600567ffffffffffffffff811115610c9057610c8f611c11565b5b604051908082528060200260200182016040528015610cbe5781602001602082028036833780820191505090505b509050606060005b6005811015610e8c57670de0b6b3a7640000898260058110610ceb57610cea6129ca565b5b602002015160200151610d7a60c960008d8660058110610d0e57610d0d6129ca565b5b60200201516000015173ffffffffffffffffffffffffffffffffffffffff1673ffffffffffffffffffffffffffffffffffffffff16815260200190815260200160002060020160009054906101000a900473ffffffffffffffffffffffffffffffffffffffff166117ef565b610d849190612cce565b610d8e9190612d57565b848281518110610da157610da06129ca565b5b602002602001018181525050670de0b6b3a7640000898260058110610dc957610dc86129ca565b5b602002015160200151610e5860c960008d8660058110610dec57610deb6129ca565b5b60200201516000015173ffffffffffffffffffffffffffffffffffffffff1673ffffffffffffffffffffffffffffffffffffffff16815260200190815260200160002060020160009054906101000a900473ffffffffffffffffffffffffffffffffffffffff166117ef565b610e629190612cce565b610e6c9190612d57565b85610e779190612d88565b94508080610e8490612dde565b915050610cc6565b5060005b8351811015610f9357610ebd848281518110610eaf57610eae6129ca565b5b60200260200101518661188f565b838281518110610ed057610ecf6129ca565b5b6020026020010181815250508160c960008b8460058110610ef457610ef36129ca565b5b60200201516000015173ffffffffffffffffffffffffffffffffffffffff1673ffffffffffffffffffffffffffffffffffffffff168152602001908152602001600020600001610f5d868481518110610f5057610f4f6129ca565b5b60200260200101516118e7565b604051602001610f6f93929190613000565b60405160208183030381529060405291508080610f8b90612dde565b915050610e90565b5080610f9e856118e7565b604051602001610faf929190613110565b6040516020818303038152906040529050808483965096509650505050509193909250565b606080606080606060006001905060005b87518110156112635760c960008b8360058110611005576110046129ca565b5b60200201516000015173ffffffffffffffffffffffffffffffffffffffff1673ffffffffffffffffffffffffffffffffffffffff168152602001908152602001600020600001805461105690612ea2565b80601f016020809104026020016040519081016040528092919081815260200182805461108290612ea2565b80156110cf5780601f106110a4576101008083540402835291602001916110cf565b820191906000526020600020905b8154815290600101906020018083116110b257829003601f168201915b5050505050925060c960008b83600581106110ed576110ec6129ca565b5b60200201516000015173ffffffffffffffffffffffffffffffffffffffff1673ffffffffffffffffffffffffffffffffffffffff168152602001908152602001600020600101805461113e90612ea2565b80601f016020809104026020016040519081016040528092919081815260200182805461116a90612ea2565b80156111b75780601f1061118c576101008083540402835291602001916111b7565b820191906000526020600020905b81548152906001019060200180831161119a57829003601f168201915b505050505093508781815181106111d1576111d06129ca565b5b6020026020010151826111e49190612d88565b9150856111fc82600a6111f79190612cce565b6112a9565b858560405160200161121194939291906133aa565b60405160208183030381529060405295508361122c836112a9565b8660405160200161123f93929190613580565b6040516020818303038152906040529450808061125b90612dde565b915050610fe5565b5061126d886118e7565b848660405160200161128193929190613b50565b604051602081830303815290604052945061129b8561140a565b955050505050509392505050565b606060008214156112f1576040518060400160405280600181526020017f30000000000000000000000000000000000000000000000000000000000000008152509050611405565b600082905060005b6000821461132357808061130c90612dde565b915050600a8261131c9190612d57565b91506112f9565b60008167ffffffffffffffff81111561133f5761133e611c11565b5b6040519080825280601f01601f1916602001820160405280156113715781602001600182028036833780820191505090505b5090505b600085146113fe5760018261138a9190613bfa565b9150600a856113999190613c2e565b60306113a59190612d88565b60f81b8183815181106113bb576113ba6129ca565b5b60200101907effffffffffffffffffffffffffffffffffffffffffffffffffffffffffffff1916908160001a905350600a856113f79190612d57565b9450611375565b8093505050505b919050565b606060008251141561142d5760405180602001604052806000815250905061158a565b6000604051806060016040528060408152602001613f41604091399050600060036002855161145c9190612d88565b6114669190612d57565b60046114729190612cce565b905060006020826114839190612d88565b67ffffffffffffffff81111561149c5761149b611c11565b5b6040519080825280601f01601f1916602001820160405280156114ce5781602001600182028036833780820191505090505b509050818152600183018586518101602084015b81831015611549576003830192508251603f8160121c1685015160f81b8252600182019150603f81600c1c1685015160f81b8252600182019150603f8160061c1685015160f81b8252600182019150603f811685015160f81b8252600182019150506114e2565b60038951066001811461156357600281146115735761157e565b613d3d60f01b600283035261157e565b603d60f81b60018303525b50505050508093505050505b919050565b611597611912565b73ffffffffffffffffffffffffffffffffffffffff166115b5610991565b73ffffffffffffffffffffffffffffffffffffffff161461160b576040517f08c379a000000000000000000000000000000000000000000000000000000000815260040161160290613cab565b60405180910390fd5b565b6000609760009054906101000a900473ffffffffffffffffffffffffffffffffffffffff16905081609760006101000a81548173ffffffffffffffffffffffffffffffffffffffff021916908373ffffffffffffffffffffffffffffffffffffffff1602179055508173ffffffffffffffffffffffffffffffffffffffff168173ffffffffffffffffffffffffffffffffffffffff167f8be0079c531659141344cd1fd0a4f28419497f9722a3daafe3b4186f6b6457e060405160405180910390a35050565b6000808273ffffffffffffffffffffffffffffffffffffffff163b119050919050565b6000819050919050565b6000819050919050565b611713816116d3565b611752576040517f08c379a000000000000000000000000000000000000000000000000000000000815260040161174990613d3d565b60405180910390fd5b8061177f7f360894a13ba1a3210667c828492db98dca3e2076cc3735a920a3ca505d382bbc60001b6116f6565b60000160006101000a81548173ffffffffffffffffffffffffffffffffffffffff021916908373ffffffffffffffffffffffffffffffffffffffff16021790555050565b6117cc8361191a565b6000825111806117d95750805b156117ea576117e88383611969565b505b505050565b6000808273ffffffffffffffffffffffffffffffffffffffff1663feaf968c6040518163ffffffff1660e01b815260040160a06040518083038186803b15801561183857600080fd5b505afa15801561184c573d6000803e3d6000fd5b505050506040513d601f19601f820116820180604052508101906118709190613dd5565b5050509150506402540be400816118879190612cce565b915050919050565b6000806103e8846118a09190612cce565b905083811180156118b057508281115b156118db57600083826118c39190612d57565b9050600a816118d29190612d57565b925050506118e1565b60009150505b92915050565b60606000670de0b6b3a7640000836118ff9190612d57565b905061190a816112a9565b915050919050565b600033905090565b6119238161170a565b8073ffffffffffffffffffffffffffffffffffffffff167fbc7cd75a20ee27fd9adebab32041f755214dbc6bffa90cc0225b39da2e5c2d3b60405160405180910390a250565b6060611974836116d3565b6119b3576040517f08c379a00000000000000000000000000000000000000000000000000000000081526004016119aa90613ec2565b60405180910390fd5b6000808473ffffffffffffffffffffffffffffffffffffffff16846040516119db9190613f29565b600060405180830381855af49150503d8060008114611a16576040519150601f19603f3d011682016040523d82523d6000602084013e611a1b565b606091505b5091509150611a438282604051806060016040528060278152602001613f8160279139611a4d565b9250505092915050565b60608315611a5d57829050611aad565b600083511115611a705782518084602001fd5b816040517f08c379a0000000000000000000000000000000000000000000000000000000008152600401611aa49190611eca565b60405180910390fd5b9392505050565b828054611ac090612ea2565b90600052602060002090601f016020900481019282611ae25760008555611b29565b82601f10611afb57805160ff1916838001178555611b29565b82800160010185558215611b29579182015b82811115611b28578251825591602001919060010190611b0d565b5b509050611b369190611b3a565b5090565b5b80821115611b53576000816000905550600101611b3b565b5090565b6000604051905090565b600080fd5b600080fd5b600073ffffffffffffffffffffffffffffffffffffffff82169050919050565b6000611b9682611b6b565b9050919050565b611ba681611b8b565b8114611bb157600080fd5b50565b600081359050611bc381611b9d565b92915050565b600060208284031215611bdf57611bde611b61565b5b6000611bed84828501611bb4565b91505092915050565b600080fd5b600080fd5b6000601f19601f8301169050919050565b7f4e487b7100000000000000000000000000000000000000000000000000000000600052604160045260246000fd5b611c4982611c00565b810181811067ffffffffffffffff82111715611c6857611c67611c11565b5b80604052505050565b6000611c7b611b57565b9050611c878282611c40565b919050565b600067ffffffffffffffff821115611ca757611ca6611c11565b5b611cb082611c00565b9050602081019050919050565b82818337600083830152505050565b6000611cdf611cda84611c8c565b611c71565b905082815260208101848484011115611cfb57611cfa611bfb565b5b611d06848285611cbd565b509392505050565b600082601f830112611d2357611d22611bf6565b5b8135611d33848260208601611ccc565b91505092915050565b60008060408385031215611d5357611d52611b61565b5b6000611d6185828601611bb4565b925050602083013567ffffffffffffffff811115611d8257611d81611b66565b5b611d8e85828601611d0e565b9150509250929050565b6000819050919050565b611dab81611d98565b82525050565b6000602082019050611dc66000830184611da2565b92915050565b6000819050919050565b611ddf81611dcc565b8114611dea57600080fd5b50565b600081359050611dfc81611dd6565b92915050565b60008060408385031215611e1957611e18611b61565b5b6000611e2785828601611bb4565b9250506020611e3885828601611ded565b9150509250929050565b600081519050919050565b600082825260208201905092915050565b60005b83811015611e7c578082015181840152602081019050611e61565b83811115611e8b576000848401525b50505050565b6000611e9c82611e42565b611ea68185611e4d565b9350611eb6818560208601611e5e565b611ebf81611c00565b840191505092915050565b60006020820190508181036000830152611ee48184611e91565b905092915050565b600067ffffffffffffffff821115611f0757611f06611c11565b5b602082029050602081019050919050565b600080fd5b6000611f30611f2b84611eec565b611c71565b90508083825260208201905060208402830185811115611f5357611f52611f18565b5b835b81811015611f7c5780611f688882611bb4565b845260208401935050602081019050611f55565b5050509392505050565b600082601f830112611f9b57611f9a611bf6565b5b8135611fab848260208601611f1d565b91505092915050565b600067ffffffffffffffff821115611fcf57611fce611c11565b5b602082029050602081019050919050565b600067ffffffffffffffff821115611ffb57611ffa611c11565b5b61200482611c00565b9050602081019050919050565b600061202461201f84611fe0565b611c71565b9050828152602081018484840111156120405761203f611bfb565b5b61204b848285611cbd565b509392505050565b600082601f83011261206857612067611bf6565b5b8135612078848260208601612011565b91505092915050565b600061209461208f84611fb4565b611c71565b905080838252602082019050602084028301858111156120b7576120b6611f18565b5b835b818110156120fe57803567ffffffffffffffff8111156120dc576120db611bf6565b5b8086016120e98982612053565b855260208501945050506020810190506120b9565b5050509392505050565b600082601f83011261211d5761211c611bf6565b5b813561212d848260208601612081565b91505092915050565b600080600080608085870312156121505761214f611b61565b5b600085013567ffffffffffffffff81111561216e5761216d611b66565b5b61217a87828801611f86565b945050602085013567ffffffffffffffff81111561219b5761219a611b66565b5b6121a787828801612108565b935050604085013567ffffffffffffffff8111156121c8576121c7611b66565b5b6121d487828801612108565b925050606085013567ffffffffffffffff8111156121f5576121f4611b66565b5b61220187828801611f86565b91505092959194509250565b61221681611b8b565b82525050565b6000602082019050612231600083018461220d565b92915050565b7f46756e6374696f6e206d7573742062652063616c6c6564207468726f7567682060008201527f64656c656761746563616c6c0000000000000000000000000000000000000000602082015250565b6000612293602c83611e4d565b915061229e82612237565b604082019050919050565b600060208201905081810360008301526122c281612286565b9050919050565b7f46756e6374696f6e206d7573742062652063616c6c6564207468726f7567682060008201527f6163746976652070726f78790000000000000000000000000000000000000000602082015250565b6000612325602c83611e4d565b9150612330826122c9565b604082019050919050565b6000602082019050818103600083015261235481612318565b9050919050565b7f555550535570677261646561626c653a206d757374206e6f742062652063616c60008201527f6c6564207468726f7567682064656c656761746563616c6c0000000000000000602082015250565b60006123b7603883611e4d565b91506123c28261235b565b604082019050919050565b600060208201905081810360008301526123e6816123aa565b9050919050565b6123f681611dcc565b82525050565b600060208201905061241160008301846123ed565b92915050565b600067ffffffffffffffff82111561243257612431611c11565b5b602082029050919050565b600080fd5b60008151905061245181611b9d565b92915050565b60008151905061246681611dd6565b92915050565b6000604082840312156124825761248161243d565b5b61248c6040611c71565b9050600061249c84828501612442565b60008301525060206124b084828501612457565b60208301525092915050565b60006124cf6124ca84612417565b611c71565b905080604084028301858111156124e9576124e8611f18565b5b835b8181101561251257806124fe888261246c565b8452602084019350506040810190506124eb565b5050509392505050565b600082601f83011261253157612530611bf6565b5b600561253e8482856124bc565b91505092915050565b6000610140828403121561255e5761255d611b61565b5b600061256c8482850161251c565b91505092915050565b600081905092915050565b7f7b226e616d65223a2022536f756c46756e642023000000000000000000000000600082015250565b60006125b6601483612575565b91506125c182612580565b601482019050919050565b60006125d782611e42565b6125e18185612575565b93506125f1818560208601611e5e565b80840191505092915050565b7f222c000000000000000000000000000000000000000000000000000000000000600082015250565b6000612633600283612575565b915061263e826125fd565b600282019050919050565b7f226465736372697074696f6e223a2022536f756c46756e64206973206120536f60008201527f756c626f756e642054696d652026204d657269742042617365642046756e646960208201527f6e6720546f6b656e2e222c000000000000000000000000000000000000000000604082015250565b60006126cb604b83612575565b91506126d682612649565b604b82019050919050565b7f22696d616765223a2022646174613a696d6167652f7376672b786d6c3b62617360008201527f6536342c00000000000000000000000000000000000000000000000000000000602082015250565b600061273d602483612575565b9150612748826126e1565b602482019050919050565b7f222c2261747472696275746573223a205b000000000000000000000000000000600082015250565b6000612789601183612575565b915061279482612753565b601182019050919050565b7f5d7d000000000000000000000000000000000000000000000000000000000000600082015250565b60006127d5600283612575565b91506127e08261279f565b600282019050919050565b60006127f6826125a9565b915061280282866125cc565b915061280d82612626565b9150612818826126be565b915061282382612730565b915061282f82856125cc565b915061283a8261277c565b915061284682846125cc565b9150612851826127c8565b9150819050949350505050565b7f646174613a6170706c69636174696f6e2f6a736f6e3b6261736536342c000000600082015250565b6000612894601d83612575565b915061289f8261285e565b601d82019050919050565b60006128b582612887565b91506128c182846125cc565b915081905092915050565b7f496e697469616c697a61626c653a20636f6e747261637420697320616c72656160008201527f647920696e697469616c697a6564000000000000000000000000000000000000602082015250565b6000612928602e83611e4d565b9150612933826128cc565b604082019050919050565b600060208201905081810360008301526129578161291b565b9050919050565b7f496e76616c696420706172616d206c656e677468000000000000000000000000600082015250565b6000612994601483611e4d565b915061299f8261295e565b602082019050919050565b600060208201905081810360008301526129c381612987565b9050919050565b7f4e487b7100000000000000000000000000000000000000000000000000000000600052603260045260246000fd5b7f4e487b7100000000000000000000000000000000000000000000000000000000600052601160045260246000fd5b600060ff82169050919050565b6000612a4082612a28565b915060ff821415612a5457612a536129f9565b5b600182019050919050565b6000819050919050565b6000819050919050565b6000612a8e612a89612a8484612a5f565b612a69565b612a28565b9050919050565b612a9e81612a73565b82525050565b6000602082019050612ab96000830184612a95565b92915050565b7f4f776e61626c653a206e6577206f776e657220697320746865207a65726f206160008201527f6464726573730000000000000000000000000000000000000000000000000000602082015250565b6000612b1b602683611e4d565b9150612b2682612abf565b604082019050919050565b60006020820190508181036000830152612b4a81612b0e565b9050919050565b612b5a81611d98565b8114612b6557600080fd5b50565b600081519050612b7781612b51565b92915050565b600060208284031215612b9357612b92611b61565b5b6000612ba184828501612b68565b91505092915050565b7f45524331393637557067726164653a206e657720696d706c656d656e7461746960008201527f6f6e206973206e6f742055555053000000000000000000000000000000000000602082015250565b6000612c06602e83611e4d565b9150612c1182612baa565b604082019050919050565b60006020820190508181036000830152612c3581612bf9565b9050919050565b7f45524331393637557067726164653a20756e737570706f727465642070726f7860008201527f6961626c65555549440000000000000000000000000000000000000000000000602082015250565b6000612c98602983611e4d565b9150612ca382612c3c565b604082019050919050565b60006020820190508181036000830152612cc781612c8b565b9050919050565b6000612cd982611dcc565b9150612ce483611dcc565b9250817fffffffffffffffffffffffffffffffffffffffffffffffffffffffffffffffff0483118215151615612d1d57612d1c6129f9565b5b828202905092915050565b7f4e487b7100000000000000000000000000000000000000000000000000000000600052601260045260246000fd5b6000612d6282611dcc565b9150612d6d83611dcc565b925082612d7d57612d7c612d28565b5b828204905092915050565b6000612d9382611dcc565b9150612d9e83611dcc565b9250827fffffffffffffffffffffffffffffffffffffffffffffffffffffffffffffffff03821115612dd357612dd26129f9565b5b828201905092915050565b6000612de982611dcc565b91507fffffffffffffffffffffffffffffffffffffffffffffffffffffffffffffffff821415612e1c57612e1b6129f9565b5b600182019050919050565b7f7b2274726169745f74797065223a220000000000000000000000000000000000600082015250565b6000612e5d600f83612575565b9150612e6882612e27565b600f82019050919050565b7f4e487b7100000000000000000000000000000000000000000000000000000000600052602260045260246000fd5b60006002820490506001821680612eba57607f821691505b60208210811415612ece57612ecd612e73565b5b50919050565b60008190508160005260206000209050919050565b60008154612ef681612ea2565b612f008186612575565b94506001821660008114612f1b5760018114612f2c57612f5f565b60ff19831686528186019350612f5f565b612f3585612ed4565b60005b83811015612f5757815481890152600182019150602081019050612f38565b838801955050505b50505092915050565b7f222c2276616c7565223a22240000000000000000000000000000000000000000600082015250565b6000612f9e600c83612575565b9150612fa982612f68565b600c82019050919050565b7f227d2c0000000000000000000000000000000000000000000000000000000000600082015250565b6000612fea600383612575565b9150612ff582612fb4565b600382019050919050565b600061300c82866125cc565b915061301782612e50565b91506130238285612ee9565b915061302e82612f91565b915061303a82846125cc565b915061304582612fdd565b9150819050949350505050565b7f7b2274726169745f74797065223a22546f74616c2056616c7565222c2276616c60008201527f7565223a22240000000000000000000000000000000000000000000000000000602082015250565b60006130ae602683612575565b91506130b982613052565b602682019050919050565b7f227d000000000000000000000000000000000000000000000000000000000000600082015250565b60006130fa600283612575565b9150613105826130c4565b600282019050919050565b600061311c82856125cc565b9150613127826130a1565b915061313382846125cc565b915061313e826130ed565b91508190509392505050565b7f3c7376672077696474683d223130707822206865696768743d2235707822207860008201527f3d22000000000000000000000000000000000000000000000000000000000000602082015250565b60006131a6602283612575565b91506131b18261314a565b602282019050919050565b7f2220793d223330223e0000000000000000000000000000000000000000000000600082015250565b60006131f2600983612575565b91506131fd826131bc565b600982019050919050565b7f3c72656374207374796c653d2266696c6c3a0000000000000000000000000000600082015250565b600061323e601283612575565b915061324982613208565b601282019050919050565b7f2220783d223235252220793d223422202f3e0000000000000000000000000000600082015250565b600061328a601283612575565b915061329582613254565b601282019050919050565b7f3c7465787420783d223530252220793d223530252220646f6d696e616e742d6260008201527f6173656c696e653d226d6964646c652220746578742d616e63686f723d226d6960208201527f64646c6522207374796c653d22666f6e742d73697a653a3270783b66696c6c3a60408201527f20236666663b223e000000000000000000000000000000000000000000000000606082015250565b6000613348606883612575565b9150613353826132a0565b606882019050919050565b7f3c2f746578743e3c2f7376673e00000000000000000000000000000000000000600082015250565b6000613394600d83612575565b915061339f8261335e565b600d82019050919050565b60006133b682876125cc565b91506133c182613199565b91506133cd82866125cc565b91506133d8826131e5565b91506133e382613231565b91506133ef82856125cc565b91506133fa8261327d565b91506134058261333b565b915061341182846125cc565b915061341c82613387565b915081905095945050505050565b7f3c636972636c6520723d2235222063783d223130222063793d2231302220666960008201527f6c6c3d227472616e73706172656e7422207374726f6b653d2200000000000000602082015250565b6000613486603983612575565b91506134918261342a565b603982019050919050565b7f22207374726f6b652d77696474683d22313022207374726f6b652d646173686160008201527f727261793d2263616c6328000000000000000000000000000000000000000000602082015250565b60006134f8602b83612575565b91506135038261349c565b602b82019050919050565b7f202a2033312e34202f20313030292033312e3422207472616e73666f726d3d2260008201527f726f74617465282d393029207472616e736c617465282d32302922202f3e0000602082015250565b600061356a603e83612575565b91506135758261350e565b603e82019050919050565b600061358b82613479565b915061359782866125cc565b91506135a2826134eb565b91506135ae82856125cc565b91506135b98261355d565b91506135c582846125cc565b9150819050949350505050565b7f3c73766720786d6c6e733d22687474703a2f2f7777772e77332e6f72672f323060008201527f30302f7376672220786d6c6e733a786c696e6b3d22687474703a2f2f7777772e60208201527f77332e6f72672f313939392f786c696e6b222069643d226d61696e222076696560408201527f77426f783d22302030203430203430222070726573657276654173706563745260608201527f6174696f3d22784d696e594d696e206d656574222073686170652d72656e646560808201527f72696e673d2263726973702d6564676573223e0000000000000000000000000060a082015250565b60006136c660b383612575565b91506136d1826135d2565b60b382019050919050565b7f3c7376672077696474683d223430707822206865696768743d2235707822207860008201527f3d22302220793d2233223e000000000000000000000000000000000000000000602082015250565b6000613738602b83612575565b9150613743826136dc565b602b82019050919050565b7f3c7465787420783d223530252220793d223530252220646f6d696e616e742d6260008201527f6173656c696e653d226d6964646c652220746578742d616e63686f723d226d6960208201527f64646c6522207374796c653d22666f6e742d73697a653a3370783b66696c6c3a60408201527f20236666663b223e240000000000000000000000000000000000000000000000606082015250565b60006137f6606983612575565b91506138018261374e565b606982019050919050565b7f3c7376672069643d227069652220783d2231302220793d22313022206865696760008201527f68743d223230222077696474683d223230222076696577426f783d223020302060208201527f3230203230223e00000000000000000000000000000000000000000000000000604082015250565b600061388e604783612575565b91506138998261380c565b604782019050919050565b7f3c636972636c6520723d223130222063783d223130222063793d22313022206660008201527f696c6c3d22776869746522202f3e000000000000000000000000000000000000602082015250565b6000613900602e83612575565b915061390b826138a4565b602e82019050919050565b7f3c2f7376673e0000000000000000000000000000000000000000000000000000600082015250565b600061394c600683612575565b915061395782613916565b600682019050919050565b7f3c7376672077696474683d223430707822206865696768743d2235707822207860008201527f3d22302220793d223336223e0000000000000000000000000000000000000000602082015250565b60006139be602c83612575565b91506139c982613962565b602c82019050919050565b7f3c7465787420783d223530252220793d223530252220646f6d696e616e742d6260008201527f6173656c696e653d226d6964646c652220746578742d616e63686f723d226d6960208201527f64646c6522207374796c653d22666f6e742d73697a653a3270783b66696c6c3a60408201527f20236666663b223e313030204d696e7574657320556e74696c204e657874205660608201527f6573740000000000000000000000000000000000000000000000000000000000608082015250565b6000613aa2608383612575565b9150613aad826139d4565b608382019050919050565b7f3c7374796c653e236d61696e7b6261636b67726f756e643a233030307d72656360008201527f747b77696474683a3570783b6865696768743a3170783b7d3c2f7374796c653e60208201527f3c2f7376673e0000000000000000000000000000000000000000000000000000604082015250565b6000613b3a604683612575565b9150613b4582613ab8565b604682019050919050565b6000613b5b826136b9565b9150613b668261372b565b9150613b71826137e9565b9150613b7d82866125cc565b9150613b8882613387565b9150613b9382613881565b9150613b9e826138f3565b9150613baa82856125cc565b9150613bb58261393f565b9150613bc182846125cc565b9150613bcc826139b1565b9150613bd782613a95565b9150613be282613387565b9150613bed82613b2d565b9150819050949350505050565b6000613c0582611dcc565b9150613c1083611dcc565b925082821015613c2357613c226129f9565b5b828203905092915050565b6000613c3982611dcc565b9150613c4483611dcc565b925082613c5457613c53612d28565b5b828206905092915050565b7f4f776e61626c653a2063616c6c6572206973206e6f7420746865206f776e6572600082015250565b6000613c95602083611e4d565b9150613ca082613c5f565b602082019050919050565b60006020820190508181036000830152613cc481613c88565b9050919050565b7f455243313936373a206e657720696d706c656d656e746174696f6e206973206e60008201527f6f74206120636f6e747261637400000000000000000000000000000000000000602082015250565b6000613d27602d83611e4d565b9150613d3282613ccb565b604082019050919050565b60006020820190508181036000830152613d5681613d1a565b9050919050565b600069ffffffffffffffffffff82169050919050565b613d7c81613d5d565b8114613d8757600080fd5b50565b600081519050613d9981613d73565b92915050565b6000819050919050565b613db281613d9f565b8114613dbd57600080fd5b50565b600081519050613dcf81613da9565b92915050565b600080600080600060a08688031215613df157613df0611b61565b5b6000613dff88828901613d8a565b9550506020613e1088828901613dc0565b9450506040613e2188828901612457565b9350506060613e3288828901612457565b9250506080613e4388828901613d8a565b9150509295509295909350565b7f416464726573733a2064656c65676174652063616c6c20746f206e6f6e2d636f60008201527f6e74726163740000000000000000000000000000000000000000000000000000602082015250565b6000613eac602683611e4d565b9150613eb782613e50565b604082019050919050565b60006020820190508181036000830152613edb81613e9f565b9050919050565b600081519050919050565b600081905092915050565b6000613f0382613ee2565b613f0d8185613eed565b9350613f1d818560208601611e5e565b80840191505092915050565b6000613f358284613ef8565b91508190509291505056fe4142434445464748494a4b4c4d4e4f505152535455565758595a6162636465666768696a6b6c6d6e6f707172737475767778797a303132333435363738392b2f416464726573733a206c6f772d6c6576656c2064656c65676174652063616c6c206661696c6564a2646970667358221220b3e37d541d048181f88083cdf74e6b35efd5f413f1135282e4ef389de7db621864736f6c63430008090033",
  "linkReferences": {},
  "deployedLinkReferences": {}
}