{
  "_format": "hh-sol-artifact-1",
  "contractName": "SoulFund",
  "sourceName": "contracts/SoulFund.sol",
  "abi": [
    {
      "inputs": [
        {
          "internalType": "address",
          "name": "_beneficiary",
          "type": "address"
        },
        {
          "internalType": "uint256",
          "name": "_vestingDate",
          "type": "uint256"
        },
        {
          "internalType": "address",
          "name": "_data",
          "type": "address"
        },
        {
          "internalType": "address",
          "name": "gateway_",
          "type": "address"
        },
        {
          "internalType": "address",
          "name": "gasReceiver_",
          "type": "address"
        }
      ],
      "stateMutability": "payable",
      "type": "constructor"
    },
    {
      "inputs": [],
      "name": "NotApprovedByGateway",
      "type": "error"
    },
    {
      "anonymous": false,
      "inputs": [
        {
          "indexed": true,
          "internalType": "address",
          "name": "owner",
          "type": "address"
        },
        {
          "indexed": true,
          "internalType": "address",
          "name": "approved",
          "type": "address"
        },
        {
          "indexed": true,
          "internalType": "uint256",
          "name": "tokenId",
          "type": "uint256"
        }
      ],
      "name": "Approval",
      "type": "event"
    },
    {
      "anonymous": false,
      "inputs": [
        {
          "indexed": true,
          "internalType": "address",
          "name": "owner",
          "type": "address"
        },
        {
          "indexed": true,
          "internalType": "address",
          "name": "operator",
          "type": "address"
        },
        {
          "indexed": false,
          "internalType": "bool",
          "name": "approved",
          "type": "bool"
        }
      ],
      "name": "ApprovalForAll",
      "type": "event"
    },
    {
      "anonymous": false,
      "inputs": [
        {
          "indexed": false,
          "internalType": "uint256",
          "name": "soulFundId",
          "type": "uint256"
        },
        {
          "indexed": false,
          "internalType": "address",
          "name": "currency",
          "type": "address"
        },
        {
          "indexed": false,
          "internalType": "uint256",
          "name": "amount",
          "type": "uint256"
        },
        {
          "indexed": false,
          "internalType": "address",
          "name": "beneficary",
          "type": "address"
        }
      ],
      "name": "FundDeposited",
      "type": "event"
    },
    {
      "anonymous": false,
      "inputs": [
        {
          "indexed": false,
          "internalType": "address",
          "name": "newNftAddress",
          "type": "address"
        }
      ],
      "name": "NewWhitelistedNFT",
      "type": "event"
    },
    {
      "anonymous": false,
      "inputs": [
        {
          "indexed": false,
          "internalType": "address",
          "name": "account",
          "type": "address"
        }
      ],
      "name": "Paused",
      "type": "event"
    },
    {
      "anonymous": false,
      "inputs": [
        {
          "indexed": true,
          "internalType": "bytes32",
          "name": "role",
          "type": "bytes32"
        },
        {
          "indexed": true,
          "internalType": "bytes32",
          "name": "previousAdminRole",
          "type": "bytes32"
        },
        {
          "indexed": true,
          "internalType": "bytes32",
          "name": "newAdminRole",
          "type": "bytes32"
        }
      ],
      "name": "RoleAdminChanged",
      "type": "event"
    },
    {
      "anonymous": false,
      "inputs": [
        {
          "indexed": true,
          "internalType": "bytes32",
          "name": "role",
          "type": "bytes32"
        },
        {
          "indexed": true,
          "internalType": "address",
          "name": "account",
          "type": "address"
        },
        {
          "indexed": true,
          "internalType": "address",
          "name": "sender",
          "type": "address"
        }
      ],
      "name": "RoleGranted",
      "type": "event"
    },
    {
      "anonymous": false,
      "inputs": [
        {
          "indexed": true,
          "internalType": "bytes32",
          "name": "role",
          "type": "bytes32"
        },
        {
          "indexed": true,
          "internalType": "address",
          "name": "account",
          "type": "address"
        },
        {
          "indexed": true,
          "internalType": "address",
          "name": "sender",
          "type": "address"
        }
      ],
      "name": "RoleRevoked",
      "type": "event"
    },
    {
      "anonymous": false,
      "inputs": [
        {
          "indexed": true,
          "internalType": "address",
          "name": "from",
          "type": "address"
        },
        {
          "indexed": true,
          "internalType": "address",
          "name": "to",
          "type": "address"
        },
        {
          "indexed": true,
          "internalType": "uint256",
          "name": "tokenId",
          "type": "uint256"
        }
      ],
      "name": "Transfer",
      "type": "event"
    },
    {
      "anonymous": false,
      "inputs": [
        {
          "indexed": false,
          "internalType": "address",
          "name": "account",
          "type": "address"
        }
      ],
      "name": "Unpaused",
      "type": "event"
    },
    {
      "anonymous": false,
      "inputs": [
        {
          "indexed": false,
          "internalType": "uint256",
          "name": "soulFundId",
          "type": "uint256"
        },
        {
          "indexed": false,
          "internalType": "uint256",
          "name": "vestedAmount",
          "type": "uint256"
        }
      ],
      "name": "VestedFundClaimed",
      "type": "event"
    },
    {
      "anonymous": false,
      "inputs": [
        {
          "indexed": false,
          "internalType": "uint256",
          "name": "tokenId",
          "type": "uint256"
        },
        {
          "indexed": false,
          "internalType": "uint256",
          "name": "rewardAmount",
          "type": "uint256"
        }
      ],
      "name": "VestedFundsClaimedEarly",
      "type": "event"
    },
    {
      "inputs": [],
      "name": "BENEFICIARY_ROLE",
      "outputs": [
        {
          "internalType": "bytes32",
          "name": "",
          "type": "bytes32"
        }
      ],
      "stateMutability": "view",
      "type": "function"
    },
    {
      "inputs": [],
      "name": "DEFAULT_ADMIN_ROLE",
      "outputs": [
        {
          "internalType": "bytes32",
          "name": "",
          "type": "bytes32"
        }
      ],
      "stateMutability": "view",
      "type": "function"
    },
    {
      "inputs": [],
      "name": "FIVE_PERCENT",
      "outputs": [
        {
          "internalType": "uint256",
          "name": "",
          "type": "uint256"
        }
      ],
      "stateMutability": "view",
      "type": "function"
    },
    {
      "inputs": [],
      "name": "GRANTER_ROLE",
      "outputs": [
        {
          "internalType": "bytes32",
          "name": "",
          "type": "bytes32"
        }
      ],
      "stateMutability": "view",
      "type": "function"
    },
    {
      "inputs": [],
      "name": "PAUSER_ROLE",
      "outputs": [
        {
          "internalType": "bytes32",
          "name": "",
          "type": "bytes32"
        }
      ],
      "stateMutability": "view",
      "type": "function"
    },
    {
      "inputs": [
        {
          "internalType": "address",
          "name": "to",
          "type": "address"
        },
        {
          "internalType": "uint256",
          "name": "tokenId",
          "type": "uint256"
        }
      ],
      "name": "approve",
      "outputs": [],
      "stateMutability": "nonpayable",
      "type": "function"
    },
    {
      "inputs": [
        {
          "internalType": "address",
          "name": "owner",
          "type": "address"
        }
      ],
      "name": "balanceOf",
      "outputs": [
        {
          "internalType": "uint256",
          "name": "",
          "type": "uint256"
        }
      ],
      "stateMutability": "view",
      "type": "function"
    },
    {
      "inputs": [
        {
          "internalType": "uint256",
          "name": "",
          "type": "uint256"
        },
        {
          "internalType": "uint256",
          "name": "",
          "type": "uint256"
        }
      ],
      "name": "balances",
      "outputs": [
        {
          "internalType": "address",
          "name": "token",
          "type": "address"
        },
        {
          "internalType": "uint256",
          "name": "balance",
          "type": "uint256"
        }
      ],
      "stateMutability": "view",
      "type": "function"
    },
    {
      "inputs": [
        {
          "internalType": "uint256",
          "name": "_tokenId",
          "type": "uint256"
        }
      ],
      "name": "balancesExt",
      "outputs": [
        {
          "components": [
            {
              "internalType": "address",
              "name": "token",
              "type": "address"
            },
            {
              "internalType": "uint256",
              "name": "balance",
              "type": "uint256"
            }
          ],
          "internalType": "struct ISoulFund.Balances[5]",
          "name": "",
          "type": "tuple[5]"
        }
      ],
      "stateMutability": "view",
      "type": "function"
    },
    {
      "inputs": [
        {
          "internalType": "uint256",
          "name": "_soulFundId",
          "type": "uint256"
        }
      ],
      "name": "claimAllVestedFunds",
      "outputs": [],
      "stateMutability": "payable",
      "type": "function"
    },
    {
      "inputs": [
        {
          "internalType": "uint256",
          "name": "",
          "type": "uint256"
        },
        {
          "internalType": "address",
          "name": "",
          "type": "address"
        }
      ],
      "name": "currencyIndices",
      "outputs": [
        {
          "internalType": "uint256",
          "name": "",
          "type": "uint256"
        }
      ],
      "stateMutability": "view",
      "type": "function"
    },
    {
      "inputs": [
        {
          "internalType": "uint256",
          "name": "soulFundId",
          "type": "uint256"
        },
        {
          "internalType": "address",
          "name": "currency",
          "type": "address"
        },
        {
          "internalType": "uint256",
          "name": "amount",
          "type": "uint256"
        }
      ],
      "name": "depositFund",
      "outputs": [],
      "stateMutability": "payable",
      "type": "function"
    },
    {
      "inputs": [
        {
          "internalType": "bytes32",
          "name": "commandId",
          "type": "bytes32"
        },
        {
          "internalType": "string",
          "name": "sourceChain",
          "type": "string"
        },
        {
          "internalType": "string",
          "name": "sourceAddress",
          "type": "string"
        },
        {
          "internalType": "bytes",
          "name": "payload",
          "type": "bytes"
        }
      ],
      "name": "execute",
      "outputs": [],
      "stateMutability": "nonpayable",
      "type": "function"
    },
    {
      "inputs": [
        {
          "internalType": "bytes32",
          "name": "commandId",
          "type": "bytes32"
        },
        {
          "internalType": "string",
          "name": "sourceChain",
          "type": "string"
        },
        {
          "internalType": "string",
          "name": "sourceAddress",
          "type": "string"
        },
        {
          "internalType": "bytes",
          "name": "payload",
          "type": "bytes"
        },
        {
          "internalType": "string",
          "name": "tokenSymbol",
          "type": "string"
        },
        {
          "internalType": "uint256",
          "name": "amount",
          "type": "uint256"
        }
      ],
      "name": "executeWithToken",
      "outputs": [],
      "stateMutability": "nonpayable",
      "type": "function"
    },
    {
      "inputs": [],
      "name": "gasReceiver",
      "outputs": [
        {
          "internalType": "contract IAxelarGasService",
          "name": "",
          "type": "address"
        }
      ],
      "stateMutability": "view",
      "type": "function"
    },
    {
      "inputs": [],
      "name": "gateway",
      "outputs": [
        {
          "internalType": "contract IAxelarGateway",
          "name": "",
          "type": "address"
        }
      ],
      "stateMutability": "view",
      "type": "function"
    },
    {
      "inputs": [
        {
          "internalType": "uint256",
          "name": "tokenId",
          "type": "uint256"
        }
      ],
      "name": "getApproved",
      "outputs": [
        {
          "internalType": "address",
          "name": "",
          "type": "address"
        }
      ],
      "stateMutability": "view",
      "type": "function"
    },
    {
      "inputs": [
        {
          "internalType": "bytes32",
          "name": "role",
          "type": "bytes32"
        }
      ],
      "name": "getRoleAdmin",
      "outputs": [
        {
          "internalType": "bytes32",
          "name": "",
          "type": "bytes32"
        }
      ],
      "stateMutability": "view",
      "type": "function"
    },
    {
      "inputs": [
        {
          "internalType": "bytes32",
          "name": "role",
          "type": "bytes32"
        },
        {
          "internalType": "address",
          "name": "account",
          "type": "address"
        }
      ],
      "name": "grantRole",
      "outputs": [],
      "stateMutability": "nonpayable",
      "type": "function"
    },
    {
      "inputs": [
        {
          "internalType": "bytes32",
          "name": "role",
          "type": "bytes32"
        },
        {
          "internalType": "address",
          "name": "account",
          "type": "address"
        }
      ],
      "name": "hasRole",
      "outputs": [
        {
          "internalType": "bool",
          "name": "",
          "type": "bool"
        }
      ],
      "stateMutability": "view",
      "type": "function"
    },
    {
      "inputs": [
        {
          "internalType": "address",
          "name": "owner",
          "type": "address"
        },
        {
          "internalType": "address",
          "name": "operator",
          "type": "address"
        }
      ],
      "name": "isApprovedForAll",
      "outputs": [
        {
          "internalType": "bool",
          "name": "",
          "type": "bool"
        }
      ],
      "stateMutability": "view",
      "type": "function"
    },
    {
      "inputs": [],
      "name": "name",
      "outputs": [
        {
          "internalType": "string",
          "name": "",
          "type": "string"
        }
      ],
      "stateMutability": "view",
      "type": "function"
    },
    {
      "inputs": [
        {
          "internalType": "uint256",
          "name": "",
          "type": "uint256"
        },
        {
          "internalType": "address",
          "name": "",
          "type": "address"
        }
      ],
      "name": "nftIsSpent",
      "outputs": [
        {
          "internalType": "bool",
          "name": "",
          "type": "bool"
        }
      ],
      "stateMutability": "view",
      "type": "function"
    },
    {
      "inputs": [
        {
          "internalType": "uint256",
          "name": "",
          "type": "uint256"
        }
      ],
      "name": "numCurrencies",
      "outputs": [
        {
          "internalType": "uint256",
          "name": "",
          "type": "uint256"
        }
      ],
      "stateMutability": "view",
      "type": "function"
    },
    {
      "inputs": [
        {
          "internalType": "uint256",
          "name": "tokenId",
          "type": "uint256"
        }
      ],
      "name": "ownerOf",
      "outputs": [
        {
          "internalType": "address",
          "name": "",
          "type": "address"
        }
      ],
      "stateMutability": "view",
      "type": "function"
    },
    {
      "inputs": [],
      "name": "pause",
      "outputs": [],
      "stateMutability": "nonpayable",
      "type": "function"
    },
    {
      "inputs": [],
      "name": "paused",
      "outputs": [
        {
          "internalType": "bool",
          "name": "",
          "type": "bool"
        }
      ],
      "stateMutability": "view",
      "type": "function"
    },
    {
      "inputs": [
        {
          "internalType": "bytes32",
          "name": "role",
          "type": "bytes32"
        },
        {
          "internalType": "address",
          "name": "account",
          "type": "address"
        }
      ],
      "name": "renounceRole",
      "outputs": [],
      "stateMutability": "nonpayable",
      "type": "function"
    },
    {
      "inputs": [
        {
          "internalType": "bytes32",
          "name": "role",
          "type": "bytes32"
        },
        {
          "internalType": "address",
          "name": "account",
          "type": "address"
        }
      ],
      "name": "revokeRole",
      "outputs": [],
      "stateMutability": "nonpayable",
      "type": "function"
    },
    {
      "inputs": [
        {
          "internalType": "address",
          "name": "_to",
          "type": "address"
        }
      ],
      "name": "safeMint",
      "outputs": [],
      "stateMutability": "nonpayable",
      "type": "function"
    },
    {
      "inputs": [
        {
          "internalType": "address",
          "name": "from",
          "type": "address"
        },
        {
          "internalType": "address",
          "name": "to",
          "type": "address"
        },
        {
          "internalType": "uint256",
          "name": "tokenId",
          "type": "uint256"
        }
      ],
      "name": "safeTransferFrom",
      "outputs": [],
      "stateMutability": "nonpayable",
      "type": "function"
    },
    {
      "inputs": [
        {
          "internalType": "address",
          "name": "from",
          "type": "address"
        },
        {
          "internalType": "address",
          "name": "to",
          "type": "address"
        },
        {
          "internalType": "uint256",
          "name": "tokenId",
          "type": "uint256"
        },
        {
          "internalType": "bytes",
          "name": "data",
          "type": "bytes"
        }
      ],
      "name": "safeTransferFrom",
      "outputs": [],
      "stateMutability": "nonpayable",
      "type": "function"
    },
    {
      "inputs": [
        {
          "internalType": "address",
          "name": "operator",
          "type": "address"
        },
        {
          "internalType": "bool",
          "name": "approved",
          "type": "bool"
        }
      ],
      "name": "setApprovalForAll",
      "outputs": [],
      "stateMutability": "nonpayable",
      "type": "function"
    },
    {
      "inputs": [],
      "name": "sourceAddress",
      "outputs": [
        {
          "internalType": "string",
          "name": "",
          "type": "string"
        }
      ],
      "stateMutability": "view",
      "type": "function"
    },
    {
      "inputs": [],
      "name": "sourceChain",
      "outputs": [
        {
          "internalType": "string",
          "name": "",
          "type": "string"
        }
      ],
      "stateMutability": "view",
      "type": "function"
    },
    {
      "inputs": [
        {
          "internalType": "bytes4",
          "name": "_interfaceId",
          "type": "bytes4"
        }
      ],
      "name": "supportsInterface",
      "outputs": [
        {
          "internalType": "bool",
          "name": "",
          "type": "bool"
        }
      ],
      "stateMutability": "view",
      "type": "function"
    },
    {
      "inputs": [],
      "name": "symbol",
      "outputs": [
        {
          "internalType": "string",
          "name": "",
          "type": "string"
        }
      ],
      "stateMutability": "view",
      "type": "function"
    },
    {
      "inputs": [
        {
          "internalType": "uint256",
          "name": "tokenId",
          "type": "uint256"
        }
      ],
      "name": "tokenURI",
      "outputs": [
        {
          "internalType": "string",
          "name": "",
          "type": "string"
        }
      ],
      "stateMutability": "view",
      "type": "function"
    },
    {
      "inputs": [
        {
          "internalType": "address",
          "name": "from",
          "type": "address"
        },
        {
          "internalType": "address",
          "name": "to",
          "type": "address"
        },
        {
          "internalType": "uint256",
          "name": "tokenId",
          "type": "uint256"
        }
      ],
      "name": "transferFrom",
      "outputs": [],
      "stateMutability": "nonpayable",
      "type": "function"
    },
    {
      "inputs": [],
      "name": "unpause",
      "outputs": [],
      "stateMutability": "nonpayable",
      "type": "function"
    },
    {
      "inputs": [],
      "name": "vestingDate",
      "outputs": [
        {
          "internalType": "uint256",
          "name": "",
          "type": "uint256"
        }
      ],
      "stateMutability": "view",
      "type": "function"
    },
    {
      "inputs": [
        {
          "internalType": "uint256",
          "name": "",
          "type": "uint256"
        },
        {
          "internalType": "address",
          "name": "",
          "type": "address"
        }
      ],
      "name": "whitelistedNfts",
      "outputs": [
        {
          "internalType": "bool",
          "name": "",
          "type": "bool"
        }
      ],
      "stateMutability": "view",
      "type": "function"
    }
  ],
  "bytecode": "0x60c060405260405162005b1538038062005b15833981810160405281019062000029919062000504565b6040518060400160405280600881526020017f536f756c46756e640000000000000000000000000000000000000000000000008152506040518060400160405280600381526020017f534c4600000000000000000000000000000000000000000000000000000000008152508160009080519060200190620000ad929190620003af565b508060019080519060200190620000c6929190620003af565b5050506000600660006101000a81548160ff021916908315150217905550620000f96000801b336200024a60201b60201c565b6200012b7f65d7a28e3265b37a6474929f336521b332c1681b933f6cb9f3376673440d862a336200024a60201b60201c565b6200015d7f2dee5dd865e09c7ce6788d674a03682994f0b44339403ca07ac129a9de4bed6a336200024a60201b60201c565b6200018f7fc8a41221bcd7fcf2c225f5a9265e1d4d39949d89197159d59e5f4b87b62c419e866200024a60201b60201c565b83600b8190555082601160006101000a81548173ffffffffffffffffffffffffffffffffffffffff021916908373ffffffffffffffffffffffffffffffffffffffff1602179055508073ffffffffffffffffffffffffffffffffffffffff1660808173ffffffffffffffffffffffffffffffffffffffff16815250508173ffffffffffffffffffffffffffffffffffffffff1660a08173ffffffffffffffffffffffffffffffffffffffff16815250505050505050620005f1565b6200025c82826200033c60201b60201c565b620003385760016007600084815260200190815260200160002060000160008373ffffffffffffffffffffffffffffffffffffffff1673ffffffffffffffffffffffffffffffffffffffff16815260200190815260200160002060006101000a81548160ff021916908315150217905550620002dd620003a760201b60201c565b73ffffffffffffffffffffffffffffffffffffffff168173ffffffffffffffffffffffffffffffffffffffff16837f2f8788117e7eff1d82e926ec794901d17c78024a50270940304540a733656f0d60405160405180910390a45b5050565b60006007600084815260200190815260200160002060000160008373ffffffffffffffffffffffffffffffffffffffff1673ffffffffffffffffffffffffffffffffffffffff16815260200190815260200160002060009054906101000a900460ff16905092915050565b600033905090565b828054620003bd90620005bb565b90600052602060002090601f016020900481019282620003e157600085556200042d565b82601f10620003fc57805160ff19168380011785556200042d565b828001600101855582156200042d579182015b828111156200042c5782518255916020019190600101906200040f565b5b5090506200043c919062000440565b5090565b5b808211156200045b57600081600090555060010162000441565b5090565b600080fd5b600073ffffffffffffffffffffffffffffffffffffffff82169050919050565b6000620004918262000464565b9050919050565b620004a38162000484565b8114620004af57600080fd5b50565b600081519050620004c38162000498565b92915050565b6000819050919050565b620004de81620004c9565b8114620004ea57600080fd5b50565b600081519050620004fe81620004d3565b92915050565b600080600080600060a086880312156200052357620005226200045f565b5b60006200053388828901620004b2565b95505060206200054688828901620004ed565b94505060406200055988828901620004b2565b93505060606200056c88828901620004b2565b92505060806200057f88828901620004b2565b9150509295509295909350565b7f4e487b7100000000000000000000000000000000000000000000000000000000600052602260045260246000fd5b60006002820490506001821680620005d457607f821691505b60208210811415620005eb57620005ea6200058c565b5b50919050565b60805160a0516154fe620006176000396000610c0b0152600061129301526154fe6000f3fe6080604052600436106102515760003560e01c80638456cb5911610139578063c87b56dd116100b6578063d8f5df661161007a578063d8f5df66146108cd578063db4796c0146108f8578063e63ab1e914610935578063e985e9c514610960578063f94c0a111461099d578063fedce7a8146109c857610251565b8063c87b56dd146107e3578063ced3a40314610820578063cef5234f1461084b578063d547741f14610888578063d6706328146108b157610251565b8063a217fddf116100fd578063a217fddf146106fd578063a22cb46514610728578063b0fa844414610751578063b7134dfa1461077c578063b88d4fde146107ba57610251565b80638456cb591461062557806391d148541461063c5780639590cf751461067957806395d89b41146106955780639e42ce18146106c057610251565b806336568abe116101d2578063491606581161019657806349160658146105015780635c975abb1461052a5780636352211e1461055557806370a08231146105925780637ef65609146105cf57806380d14b4a146105fa57610251565b806336568abe146104325780633f4ba83a1461045b57806340d097c31461047257806342842e0e1461049b578063438a8ece146104c457610251565b80631a98b2e0116102195780631a98b2e01461034f5780631c6ffa461461037857806323b872dd146103a3578063248a9ca3146103cc5780632f2ff15d1461040957610251565b806301ffc9a71461025657806306fdde0314610293578063081812fc146102be578063095ea7b3146102fb578063116191b614610324575b600080fd5b34801561026257600080fd5b5061027d600480360381019061027891906135bd565b610a05565b60405161028a9190613605565b60405180910390f35b34801561029f57600080fd5b506102a8610a17565b6040516102b591906136b9565b60405180910390f35b3480156102ca57600080fd5b506102e560048036038101906102e09190613711565b610aa9565b6040516102f2919061377f565b60405180910390f35b34801561030757600080fd5b50610322600480360381019061031d91906137c6565b610aef565b005b34801561033057600080fd5b50610339610c07565b6040516103469190613865565b60405180910390f35b34801561035b57600080fd5b5061037660048036038101906103719190613971565b610c2f565b005b34801561038457600080fd5b5061038d610d41565b60405161039a91906136b9565b60405180910390f35b3480156103af57600080fd5b506103ca60048036038101906103c59190613a81565b610dcf565b005b3480156103d857600080fd5b506103f360048036038101906103ee9190613ad4565b610e2f565b6040516104009190613b10565b60405180910390f35b34801561041557600080fd5b50610430600480360381019061042b9190613b2b565b610e4f565b005b34801561043e57600080fd5b5061045960048036038101906104549190613b2b565b610e70565b005b34801561046757600080fd5b50610470610ef3565b005b34801561047e57600080fd5b5061049960048036038101906104949190613b6b565b610f28565b005b3480156104a757600080fd5b506104c260048036038101906104bd9190613a81565b610f79565b005b3480156104d057600080fd5b506104eb60048036038101906104e69190613b98565b610f99565b6040516104f89190613be7565b60405180910390f35b34801561050d57600080fd5b5061052860048036038101906105239190613c02565b610fbe565b005b34801561053657600080fd5b5061053f61110a565b60405161054c9190613605565b60405180910390f35b34801561056157600080fd5b5061057c60048036038101906105779190613711565b611121565b604051610589919061377f565b60405180910390f35b34801561059e57600080fd5b506105b960048036038101906105b49190613b6b565b6111d3565b6040516105c69190613be7565b60405180910390f35b3480156105db57600080fd5b506105e461128b565b6040516105f19190613be7565b60405180910390f35b34801561060657600080fd5b5061060f611291565b60405161061c9190613cec565b60405180910390f35b34801561063157600080fd5b5061063a6112b5565b005b34801561064857600080fd5b50610663600480360381019061065e9190613b2b565b6112ea565b6040516106709190613605565b60405180910390f35b610693600480360381019061068e9190613711565b611355565b005b3480156106a157600080fd5b506106aa61141b565b6040516106b791906136b9565b60405180910390f35b3480156106cc57600080fd5b506106e760048036038101906106e29190613711565b6114ad565b6040516106f49190613be7565b60405180910390f35b34801561070957600080fd5b506107126114c5565b60405161071f9190613b10565b60405180910390f35b34801561073457600080fd5b5061074f600480360381019061074a9190613d33565b6114cc565b005b34801561075d57600080fd5b506107666114e2565b60405161077391906136b9565b60405180910390f35b34801561078857600080fd5b506107a3600480360381019061079e9190613d73565b611570565b6040516107b1929190613db3565b60405180910390f35b3480156107c657600080fd5b506107e160048036038101906107dc9190613f0c565b6115c7565b005b3480156107ef57600080fd5b5061080a60048036038101906108059190613711565b611629565b60405161081791906136b9565b60405180910390f35b34801561082c57600080fd5b5061083561172c565b6040516108429190613b10565b60405180910390f35b34801561085757600080fd5b50610872600480360381019061086d9190613b98565b611750565b60405161087f9190613605565b60405180910390f35b34801561089457600080fd5b506108af60048036038101906108aa9190613b2b565b61177f565b005b6108cb60048036038101906108c69190613f8f565b6117a0565b005b3480156108d957600080fd5b506108e2611bc7565b6040516108ef9190613be7565b60405180910390f35b34801561090457600080fd5b5061091f600480360381019061091a9190613711565b611bcd565b60405161092c91906140cb565b60405180910390f35b34801561094157600080fd5b5061094a611c92565b6040516109579190613b10565b60405180910390f35b34801561096c57600080fd5b50610987600480360381019061098291906140e7565b611cb6565b6040516109949190613605565b60405180910390f35b3480156109a957600080fd5b506109b2611d4a565b6040516109bf9190613b10565b60405180910390f35b3480156109d457600080fd5b506109ef60048036038101906109ea9190613b98565b611d6e565b6040516109fc9190613605565b60405180910390f35b6000610a1082611d9d565b9050919050565b606060008054610a2690614156565b80601f0160208091040260200160405190810160405280929190818152602001828054610a5290614156565b8015610a9f5780601f10610a7457610100808354040283529160200191610a9f565b820191906000526020600020905b815481529060010190602001808311610a8257829003601f168201915b5050505050905090565b6000610ab482611e17565b6004600083815260200190815260200160002060009054906101000a900473ffffffffffffffffffffffffffffffffffffffff169050919050565b6000610afa82611121565b90508073ffffffffffffffffffffffffffffffffffffffff168373ffffffffffffffffffffffffffffffffffffffff161415610b6b576040517f08c379a0000000000000000000000000000000000000000000000000000000008152600401610b62906141fa565b60405180910390fd5b8073ffffffffffffffffffffffffffffffffffffffff16610b8a611e62565b73ffffffffffffffffffffffffffffffffffffffff161480610bb95750610bb881610bb3611e62565b611cb6565b5b610bf8576040517f08c379a0000000000000000000000000000000000000000000000000000000008152600401610bef9061428c565b60405180910390fd5b610c028383611e6a565b505050565b60007f0000000000000000000000000000000000000000000000000000000000000000905090565b60008585604051610c419291906142dc565b60405180910390209050610c53610c07565b73ffffffffffffffffffffffffffffffffffffffff16631876eed98c8c8c8c8c878b8b8b6040518a63ffffffff1660e01b8152600401610c9b99989796959493929190614322565b602060405180830381600087803b158015610cb557600080fd5b505af1158015610cc9573d6000803e3d6000fd5b505050506040513d601f19601f82011682018060405250810190610ced91906143b3565b610d23576040517f500c44b400000000000000000000000000000000000000000000000000000000815260040160405180910390fd5b610d348a8a8a8a8a8a8a8a8a611f23565b5050505050505050505050565b60088054610d4e90614156565b80601f0160208091040260200160405190810160405280929190818152602001828054610d7a90614156565b8015610dc75780601f10610d9c57610100808354040283529160200191610dc7565b820191906000526020600020905b815481529060010190602001808311610daa57829003601f168201915b505050505081565b610de0610dda611e62565b82611f2e565b610e1f576040517f08c379a0000000000000000000000000000000000000000000000000000000008152600401610e1690614452565b60405180910390fd5b610e2a838383611fc3565b505050565b600060076000838152602001908152602001600020600101549050919050565b610e5882610e2f565b610e618161222a565b610e6b838361223e565b505050565b610e78611e62565b73ffffffffffffffffffffffffffffffffffffffff168173ffffffffffffffffffffffffffffffffffffffff1614610ee5576040517f08c379a0000000000000000000000000000000000000000000000000000000008152600401610edc906144e4565b60405180910390fd5b610eef828261231f565b5050565b7f65d7a28e3265b37a6474929f336521b332c1681b933f6cb9f3376673440d862a610f1d8161222a565b610f25612401565b50565b7f2dee5dd865e09c7ce6788d674a03682994f0b44339403ca07ac129a9de4bed6a610f528161222a565b6000610f5e600a612464565b9050610f6a600a612472565b610f748382612488565b505050565b610f94838383604051806020016040528060008152506115c7565b505050565b600f602052816000526040600020602052806000526040600020600091509150505481565b602a8484905014611004576040517f08c379a0000000000000000000000000000000000000000000000000000000008152600401610ffb90614550565b60405180910390fd5b600082826040516110169291906142dc565b60405180910390209050611028610c07565b73ffffffffffffffffffffffffffffffffffffffff16635f6970c38989898989876040518763ffffffff1660e01b815260040161106a96959493929190614570565b602060405180830381600087803b15801561108457600080fd5b505af1158015611098573d6000803e3d6000fd5b505050506040513d601f19601f820116820180604052508101906110bc91906143b3565b6110f2576040517f500c44b400000000000000000000000000000000000000000000000000000000815260040160405180910390fd5b6111008787878787876124a6565b5050505050505050565b6000600660009054906101000a900460ff16905090565b6000806002600084815260200190815260200160002060009054906101000a900473ffffffffffffffffffffffffffffffffffffffff169050600073ffffffffffffffffffffffffffffffffffffffff168173ffffffffffffffffffffffffffffffffffffffff1614156111ca576040517f08c379a00000000000000000000000000000000000000000000000000000000081526004016111c190614613565b60405180910390fd5b80915050919050565b60008073ffffffffffffffffffffffffffffffffffffffff168273ffffffffffffffffffffffffffffffffffffffff161415611244576040517f08c379a000000000000000000000000000000000000000000000000000000000815260040161123b906146a5565b60405180910390fd5b600360008373ffffffffffffffffffffffffffffffffffffffff1673ffffffffffffffffffffffffffffffffffffffff168152602001908152602001600020549050919050565b6101f481565b7f000000000000000000000000000000000000000000000000000000000000000081565b7f65d7a28e3265b37a6474929f336521b332c1681b933f6cb9f3376673440d862a6112df8161222a565b6112e76124f4565b50565b60006007600084815260200190815260200160002060000160008373ffffffffffffffffffffffffffffffffffffffff1673ffffffffffffffffffffffffffffffffffffffff16815260200190815260200160002060009054906101000a900460ff16905092915050565b600073ffffffffffffffffffffffffffffffffffffffff1661137682611121565b73ffffffffffffffffffffffffffffffffffffffff1614156113cd576040517f08c379a00000000000000000000000000000000000000000000000000000000081526004016113c490614737565b60405180910390fd5b6113d8816001612557565b6000600190507f34ef4ac64e0eac8a04fe2b95d0d037921287716ff3019d01b6712d2e95075095828260405161140f929190614757565b60405180910390a15050565b60606001805461142a90614156565b80601f016020809104026020016040519081016040528092919081815260200182805461145690614156565b80156114a35780601f10611478576101008083540402835291602001916114a3565b820191906000526020600020905b81548152906001019060200180831161148657829003601f168201915b5050505050905090565b60106020528060005260406000206000915090505481565b6000801b81565b6114de6114d7611e62565b83836127d1565b5050565b600980546114ef90614156565b80601f016020809104026020016040519081016040528092919081815260200182805461151b90614156565b80156115685780601f1061153d57610100808354040283529160200191611568565b820191906000526020600020905b81548152906001019060200180831161154b57829003601f168201915b505050505081565b600e602052816000526040600020816005811061158c57600080fd5b60020201600091509150508060000160009054906101000a900473ffffffffffffffffffffffffffffffffffffffff16908060010154905082565b6115d86115d2611e62565b83611f2e565b611617576040517f08c379a000000000000000000000000000000000000000000000000000000000815260040161160e90614452565b60405180910390fd5b6116238484848461293e565b50505050565b60606116348261299a565b611673576040517f08c379a000000000000000000000000000000000000000000000000000000000815260040161166a906147cc565b60405180910390fd5b601160009054906101000a900473ffffffffffffffffffffffffffffffffffffffff1673ffffffffffffffffffffffffffffffffffffffff1663611fc46930846040518363ffffffff1660e01b81526004016116d0929190613db3565b60006040518083038186803b1580156116e857600080fd5b505afa1580156116fc573d6000803e3d6000fd5b505050506040513d6000823e3d601f19601f82011682018060405250810190611725919061488d565b9050919050565b7fc8a41221bcd7fcf2c225f5a9265e1d4d39949d89197159d59e5f4b87b62c419e81565b600d6020528160005260406000206020528060005260406000206000915091509054906101000a900460ff1681565b61178882610e2f565b6117918161222a565b61179b838361231f565b505050565b7f2dee5dd865e09c7ce6788d674a03682994f0b44339403ca07ac129a9de4bed6a6117ca8161222a565b6000600f600086815260200190815260200160002060008573ffffffffffffffffffffffffffffffffffffffff1673ffffffffffffffffffffffffffffffffffffffff168152602001908152602001600020541015801561183e575060056010600086815260200190815260200160002054105b61187d576040517f08c379a000000000000000000000000000000000000000000000000000000000815260040161187490614948565b60405180910390fd5b6000600f600086815260200190815260200160002060008573ffffffffffffffffffffffffffffffffffffffff1673ffffffffffffffffffffffffffffffffffffffff1681526020019081526020016000205490506000811415611a2b576010600086815260200190815260200160002060008154809291906118ff90614997565b91905055506010600086815260200190815260200160002054600f600087815260200190815260200160002060008673ffffffffffffffffffffffffffffffffffffffff1673ffffffffffffffffffffffffffffffffffffffff16815260200190815260200160002081905550600f600086815260200190815260200160002060008573ffffffffffffffffffffffffffffffffffffffff1673ffffffffffffffffffffffffffffffffffffffff16815260200190815260200160002054905083600e600087815260200190815260200160002082600581106119e5576119e46149e0565b5b6002020160000160006101000a81548173ffffffffffffffffffffffffffffffffffffffff021916908373ffffffffffffffffffffffffffffffffffffffff1602179055505b600073ffffffffffffffffffffffffffffffffffffffff168473ffffffffffffffffffffffffffffffffffffffff161415611aa757823414611aa2576040517f08c379a0000000000000000000000000000000000000000000000000000000008152600401611a9990614a81565b60405180910390fd5b611b38565b8373ffffffffffffffffffffffffffffffffffffffff166323b872dd3330866040518463ffffffff1660e01b8152600401611ae493929190614aa1565b602060405180830381600087803b158015611afe57600080fd5b505af1158015611b12573d6000803e3d6000fd5b505050506040513d601f19601f82011682018060405250810190611b3691906143b3565b505b82600e60008781526020019081526020016000208260058110611b5e57611b5d6149e0565b5b600202016001016000828254611b749190614ad8565b925050819055507f03b9932ccfcbee04cee8cedad7802dbe5c786c57591e9a7cd4c8fea13b13be82858585611ba889611121565b604051611bb89493929190614b2e565b60405180910390a15050505050565b600b5481565b611bd5613451565b600e6000838152602001908152602001600020600580602002604051908101604052809291906000905b82821015611c87578382600202016040518060400160405290816000820160009054906101000a900473ffffffffffffffffffffffffffffffffffffffff1673ffffffffffffffffffffffffffffffffffffffff1673ffffffffffffffffffffffffffffffffffffffff16815260200160018201548152505081526020019060010190611bff565b505050509050919050565b7f65d7a28e3265b37a6474929f336521b332c1681b933f6cb9f3376673440d862a81565b6000600560008473ffffffffffffffffffffffffffffffffffffffff1673ffffffffffffffffffffffffffffffffffffffff16815260200190815260200160002060008373ffffffffffffffffffffffffffffffffffffffff1673ffffffffffffffffffffffffffffffffffffffff16815260200190815260200160002060009054906101000a900460ff16905092915050565b7f2dee5dd865e09c7ce6788d674a03682994f0b44339403ca07ac129a9de4bed6a81565b600c6020528160005260406000206020528060005260406000206000915091509054906101000a900460ff1681565b60007f7965db0b000000000000000000000000000000000000000000000000000000007bffffffffffffffffffffffffffffffffffffffffffffffffffffffff1916827bffffffffffffffffffffffffffffffffffffffffffffffffffffffff19161480611e105750611e0f82612a06565b5b9050919050565b611e208161299a565b611e5f576040517f08c379a0000000000000000000000000000000000000000000000000000000008152600401611e5690614613565b60405180910390fd5b50565b600033905090565b816004600083815260200190815260200160002060006101000a81548173ffffffffffffffffffffffffffffffffffffffff021916908373ffffffffffffffffffffffffffffffffffffffff160217905550808273ffffffffffffffffffffffffffffffffffffffff16611edd83611121565b73ffffffffffffffffffffffffffffffffffffffff167f8c5be1e5ebec7d5bd14f71427d1e84f3dd0314c0f7b2291e5b200ac8c7c3b92560405160405180910390a45050565b505050505050505050565b600080611f3a83611121565b90508073ffffffffffffffffffffffffffffffffffffffff168473ffffffffffffffffffffffffffffffffffffffff161480611f7c5750611f7b8185611cb6565b5b80611fba57508373ffffffffffffffffffffffffffffffffffffffff16611fa284610aa9565b73ffffffffffffffffffffffffffffffffffffffff16145b91505092915050565b8273ffffffffffffffffffffffffffffffffffffffff16611fe382611121565b73ffffffffffffffffffffffffffffffffffffffff1614612039576040517f08c379a000000000000000000000000000000000000000000000000000000000815260040161203090614be5565b60405180910390fd5b600073ffffffffffffffffffffffffffffffffffffffff168273ffffffffffffffffffffffffffffffffffffffff1614156120a9576040517f08c379a00000000000000000000000000000000000000000000000000000000081526004016120a090614c77565b60405180910390fd5b6120b4838383612ae8565b6120bf600082611e6a565b6001600360008573ffffffffffffffffffffffffffffffffffffffff1673ffffffffffffffffffffffffffffffffffffffff168152602001908152602001600020600082825461210f9190614c97565b925050819055506001600360008473ffffffffffffffffffffffffffffffffffffffff1673ffffffffffffffffffffffffffffffffffffffff16815260200190815260200160002060008282546121669190614ad8565b92505081905550816002600083815260200190815260200160002060006101000a81548173ffffffffffffffffffffffffffffffffffffffff021916908373ffffffffffffffffffffffffffffffffffffffff160217905550808273ffffffffffffffffffffffffffffffffffffffff168473ffffffffffffffffffffffffffffffffffffffff167fddf252ad1be2c89b69c2b068fc378daa952ba7f163c4a11628f55a4df523b3ef60405160405180910390a4612225838383612b6f565b505050565b61223b81612236611e62565b612b74565b50565b61224882826112ea565b61231b5760016007600084815260200190815260200160002060000160008373ffffffffffffffffffffffffffffffffffffffff1673ffffffffffffffffffffffffffffffffffffffff16815260200190815260200160002060006101000a81548160ff0219169083151502179055506122c0611e62565b73ffffffffffffffffffffffffffffffffffffffff168173ffffffffffffffffffffffffffffffffffffffff16837f2f8788117e7eff1d82e926ec794901d17c78024a50270940304540a733656f0d60405160405180910390a45b5050565b61232982826112ea565b156123fd5760006007600084815260200190815260200160002060000160008373ffffffffffffffffffffffffffffffffffffffff1673ffffffffffffffffffffffffffffffffffffffff16815260200190815260200160002060006101000a81548160ff0219169083151502179055506123a2611e62565b73ffffffffffffffffffffffffffffffffffffffff168173ffffffffffffffffffffffffffffffffffffffff16837ff6391f5c32d9c69d2a47ea670b442974b53935d1edc7fd64eb21e047a839171b60405160405180910390a45b5050565b612409612c11565b6000600660006101000a81548160ff0219169083151502179055507f5db9ee0a495bf2e6ff9c91a7834c1ba4fdd244a5e8aa4e537bd38aeae4b073aa61244d611e62565b60405161245a919061377f565b60405180910390a1565b600081600001549050919050565b6001816000016000828254019250508190555050565b6124a2828260405180602001604052806000815250612c5a565b5050565b60008083838101906124b89190614d09565b915091508787600891906124cd92919061347e565b508585600991906124df92919061347e565b506124ea8183612cb5565b5050505050505050565b6124fc612dc8565b6001600660006101000a81548160ff0219169083151502179055507f62e78cea01bee320cd4e420270b5ea74000d11b0c9f74754ebdbfc544b05a258612540611e62565b60405161254d919061377f565b60405180910390a1565b61271081111561259c576040517f08c379a000000000000000000000000000000000000000000000000000000000815260040161259390614d95565b60405180910390fd5b60005b60106000848152602001908152602001600020548110156127cc576000600e600085815260200190815260200160002082600581106125e1576125e06149e0565b5b6002020160000160009054906101000a900473ffffffffffffffffffffffffffffffffffffffff169050600061271084600e60008881526020019081526020016000208560058110612636576126356149e0565b5b60020201600101546126489190614db5565b6126529190614e3e565b905080600e6000878152602001908152602001600020846005811061267a576126796149e0565b5b6002020160010160008282546126909190614c97565b92505081905550600073ffffffffffffffffffffffffffffffffffffffff168273ffffffffffffffffffffffffffffffffffffffff161415612720576126d585611121565b73ffffffffffffffffffffffffffffffffffffffff166108fc829081150290604051600060405180830381858888f1935050505015801561271a573d6000803e3d6000fd5b506127b7565b8173ffffffffffffffffffffffffffffffffffffffff1663a9059cbb61274587611121565b836040518363ffffffff1660e01b8152600401612763929190613db3565b602060405180830381600087803b15801561277d57600080fd5b505af1158015612791573d6000803e3d6000fd5b505050506040513d601f19601f820116820180604052508101906127b591906143b3565b505b505080806127c490614997565b91505061259f565b505050565b8173ffffffffffffffffffffffffffffffffffffffff168373ffffffffffffffffffffffffffffffffffffffff161415612840576040517f08c379a000000000000000000000000000000000000000000000000000000000815260040161283790614ebb565b60405180910390fd5b80600560008573ffffffffffffffffffffffffffffffffffffffff1673ffffffffffffffffffffffffffffffffffffffff16815260200190815260200160002060008473ffffffffffffffffffffffffffffffffffffffff1673ffffffffffffffffffffffffffffffffffffffff16815260200190815260200160002060006101000a81548160ff0219169083151502179055508173ffffffffffffffffffffffffffffffffffffffff168373ffffffffffffffffffffffffffffffffffffffff167f17307eab39ab6107e8899845ad3d59bd9653f200f220920489ca2b5937696c31836040516129319190613605565b60405180910390a3505050565b612949848484611fc3565b61295584848484612e12565b612994576040517f08c379a000000000000000000000000000000000000000000000000000000000815260040161298b90614f4d565b60405180910390fd5b50505050565b60008073ffffffffffffffffffffffffffffffffffffffff166002600084815260200190815260200160002060009054906101000a900473ffffffffffffffffffffffffffffffffffffffff1673ffffffffffffffffffffffffffffffffffffffff1614159050919050565b60007f80ac58cd000000000000000000000000000000000000000000000000000000007bffffffffffffffffffffffffffffffffffffffffffffffffffffffff1916827bffffffffffffffffffffffffffffffffffffffffffffffffffffffff19161480612ad157507f5b5e139f000000000000000000000000000000000000000000000000000000007bffffffffffffffffffffffffffffffffffffffffffffffffffffffff1916827bffffffffffffffffffffffffffffffffffffffffffffffffffffffff1916145b80612ae15750612ae082612fa9565b5b9050919050565b612af0612dc8565b600073ffffffffffffffffffffffffffffffffffffffff168373ffffffffffffffffffffffffffffffffffffffff1614612b5f576040517f08c379a0000000000000000000000000000000000000000000000000000000008152600401612b5690614fdf565b60405180910390fd5b612b6a838383613013565b505050565b505050565b612b7e82826112ea565b612c0d57612ba38173ffffffffffffffffffffffffffffffffffffffff166014613018565b612bb18360001c6020613018565b604051602001612bc29291906150d3565b6040516020818303038152906040526040517f08c379a0000000000000000000000000000000000000000000000000000000008152600401612c0491906136b9565b60405180910390fd5b5050565b612c1961110a565b612c58576040517f08c379a0000000000000000000000000000000000000000000000000000000008152600401612c4f90615159565b60405180910390fd5b565b612c648383613254565b612c716000848484612e12565b612cb0576040517f08c379a0000000000000000000000000000000000000000000000000000000008152600401612ca790614f4d565b60405180910390fd5b505050565b6000612cc083611121565b90508073ffffffffffffffffffffffffffffffffffffffff168273ffffffffffffffffffffffffffffffffffffffff1614612d30576040517f08c379a0000000000000000000000000000000000000000000000000000000008152600401612d27906151eb565b60405180910390fd5b612d3c836101f4612557565b6000600190508173ffffffffffffffffffffffffffffffffffffffff166108fc829081150290604051600060405180830381858888f19350505050158015612d88573d6000803e3d6000fd5b507f6304e1c0e6a866eff2e257afddc8be016c0c6f6264e47046379ec6a3a3cb2bde8482604051612dba929190614757565b60405180910390a150505050565b612dd061110a565b15612e10576040517f08c379a0000000000000000000000000000000000000000000000000000000008152600401612e0790615257565b60405180910390fd5b565b6000612e338473ffffffffffffffffffffffffffffffffffffffff1661342e565b15612f9c578373ffffffffffffffffffffffffffffffffffffffff1663150b7a02612e5c611e62565b8786866040518563ffffffff1660e01b8152600401612e7e94939291906152cc565b602060405180830381600087803b158015612e9857600080fd5b505af1925050508015612ec957506040513d601f19601f82011682018060405250810190612ec6919061532d565b60015b612f4c573d8060008114612ef9576040519150601f19603f3d011682016040523d82523d6000602084013e612efe565b606091505b50600081511415612f44576040517f08c379a0000000000000000000000000000000000000000000000000000000008152600401612f3b90614f4d565b60405180910390fd5b805181602001fd5b63150b7a0260e01b7bffffffffffffffffffffffffffffffffffffffffffffffffffffffff1916817bffffffffffffffffffffffffffffffffffffffffffffffffffffffff191614915050612fa1565b600190505b949350505050565b60007f01ffc9a7000000000000000000000000000000000000000000000000000000007bffffffffffffffffffffffffffffffffffffffffffffffffffffffff1916827bffffffffffffffffffffffffffffffffffffffffffffffffffffffff1916149050919050565b505050565b60606000600283600261302b9190614db5565b6130359190614ad8565b67ffffffffffffffff81111561304e5761304d613de1565b5b6040519080825280601f01601f1916602001820160405280156130805781602001600182028036833780820191505090505b5090507f3000000000000000000000000000000000000000000000000000000000000000816000815181106130b8576130b76149e0565b5b60200101907effffffffffffffffffffffffffffffffffffffffffffffffffffffffffffff1916908160001a9053507f78000000000000000000000000000000000000000000000000000000000000008160018151811061311c5761311b6149e0565b5b60200101907effffffffffffffffffffffffffffffffffffffffffffffffffffffffffffff1916908160001a9053506000600184600261315c9190614db5565b6131669190614ad8565b90505b6001811115613206577f3031323334353637383961626364656600000000000000000000000000000000600f8616601081106131a8576131a76149e0565b5b1a60f81b8282815181106131bf576131be6149e0565b5b60200101907effffffffffffffffffffffffffffffffffffffffffffffffffffffffffffff1916908160001a905350600485901c9450806131ff9061535a565b9050613169565b506000841461324a576040517f08c379a0000000000000000000000000000000000000000000000000000000008152600401613241906153d0565b60405180910390fd5b8091505092915050565b600073ffffffffffffffffffffffffffffffffffffffff168273ffffffffffffffffffffffffffffffffffffffff1614156132c4576040517f08c379a00000000000000000000000000000000000000000000000000000000081526004016132bb9061543c565b60405180910390fd5b6132cd8161299a565b1561330d576040517f08c379a0000000000000000000000000000000000000000000000000000000008152600401613304906154a8565b60405180910390fd5b61331960008383612ae8565b6001600360008473ffffffffffffffffffffffffffffffffffffffff1673ffffffffffffffffffffffffffffffffffffffff16815260200190815260200160002060008282546133699190614ad8565b92505081905550816002600083815260200190815260200160002060006101000a81548173ffffffffffffffffffffffffffffffffffffffff021916908373ffffffffffffffffffffffffffffffffffffffff160217905550808273ffffffffffffffffffffffffffffffffffffffff16600073ffffffffffffffffffffffffffffffffffffffff167fddf252ad1be2c89b69c2b068fc378daa952ba7f163c4a11628f55a4df523b3ef60405160405180910390a461342a60008383612b6f565b5050565b6000808273ffffffffffffffffffffffffffffffffffffffff163b119050919050565b6040518060a001604052806005905b613468613504565b8152602001906001900390816134605790505090565b82805461348a90614156565b90600052602060002090601f0160209004810192826134ac57600085556134f3565b82601f106134c557803560ff19168380011785556134f3565b828001600101855582156134f3579182015b828111156134f25782358255916020019190600101906134d7565b5b5090506135009190613534565b5090565b6040518060400160405280600073ffffffffffffffffffffffffffffffffffffffff168152602001600081525090565b5b8082111561354d576000816000905550600101613535565b5090565b6000604051905090565b600080fd5b600080fd5b60007fffffffff0000000000000000000000000000000000000000000000000000000082169050919050565b61359a81613565565b81146135a557600080fd5b50565b6000813590506135b781613591565b92915050565b6000602082840312156135d3576135d261355b565b5b60006135e1848285016135a8565b91505092915050565b60008115159050919050565b6135ff816135ea565b82525050565b600060208201905061361a60008301846135f6565b92915050565b600081519050919050565b600082825260208201905092915050565b60005b8381101561365a57808201518184015260208101905061363f565b83811115613669576000848401525b50505050565b6000601f19601f8301169050919050565b600061368b82613620565b613695818561362b565b93506136a581856020860161363c565b6136ae8161366f565b840191505092915050565b600060208201905081810360008301526136d38184613680565b905092915050565b6000819050919050565b6136ee816136db565b81146136f957600080fd5b50565b60008135905061370b816136e5565b92915050565b6000602082840312156137275761372661355b565b5b6000613735848285016136fc565b91505092915050565b600073ffffffffffffffffffffffffffffffffffffffff82169050919050565b60006137698261373e565b9050919050565b6137798161375e565b82525050565b60006020820190506137946000830184613770565b92915050565b6137a38161375e565b81146137ae57600080fd5b50565b6000813590506137c08161379a565b92915050565b600080604083850312156137dd576137dc61355b565b5b60006137eb858286016137b1565b92505060206137fc858286016136fc565b9150509250929050565b6000819050919050565b600061382b6138266138218461373e565b613806565b61373e565b9050919050565b600061383d82613810565b9050919050565b600061384f82613832565b9050919050565b61385f81613844565b82525050565b600060208201905061387a6000830184613856565b92915050565b6000819050919050565b61389381613880565b811461389e57600080fd5b50565b6000813590506138b08161388a565b92915050565b600080fd5b600080fd5b600080fd5b60008083601f8401126138db576138da6138b6565b5b8235905067ffffffffffffffff8111156138f8576138f76138bb565b5b602083019150836001820283011115613914576139136138c0565b5b9250929050565b60008083601f840112613931576139306138b6565b5b8235905067ffffffffffffffff81111561394e5761394d6138bb565b5b60208301915083600182028301111561396a576139696138c0565b5b9250929050565b60008060008060008060008060008060c08b8d0312156139945761399361355b565b5b60006139a28d828e016138a1565b9a505060208b013567ffffffffffffffff8111156139c3576139c2613560565b5b6139cf8d828e016138c5565b995099505060408b013567ffffffffffffffff8111156139f2576139f1613560565b5b6139fe8d828e016138c5565b975097505060608b013567ffffffffffffffff811115613a2157613a20613560565b5b613a2d8d828e0161391b565b955095505060808b013567ffffffffffffffff811115613a5057613a4f613560565b5b613a5c8d828e016138c5565b935093505060a0613a6f8d828e016136fc565b9150509295989b9194979a5092959850565b600080600060608486031215613a9a57613a9961355b565b5b6000613aa8868287016137b1565b9350506020613ab9868287016137b1565b9250506040613aca868287016136fc565b9150509250925092565b600060208284031215613aea57613ae961355b565b5b6000613af8848285016138a1565b91505092915050565b613b0a81613880565b82525050565b6000602082019050613b256000830184613b01565b92915050565b60008060408385031215613b4257613b4161355b565b5b6000613b50858286016138a1565b9250506020613b61858286016137b1565b9150509250929050565b600060208284031215613b8157613b8061355b565b5b6000613b8f848285016137b1565b91505092915050565b60008060408385031215613baf57613bae61355b565b5b6000613bbd858286016136fc565b9250506020613bce858286016137b1565b9150509250929050565b613be1816136db565b82525050565b6000602082019050613bfc6000830184613bd8565b92915050565b60008060008060008060006080888a031215613c2157613c2061355b565b5b6000613c2f8a828b016138a1565b975050602088013567ffffffffffffffff811115613c5057613c4f613560565b5b613c5c8a828b016138c5565b9650965050604088013567ffffffffffffffff811115613c7f57613c7e613560565b5b613c8b8a828b016138c5565b9450945050606088013567ffffffffffffffff811115613cae57613cad613560565b5b613cba8a828b0161391b565b925092505092959891949750929550565b6000613cd682613832565b9050919050565b613ce681613ccb565b82525050565b6000602082019050613d016000830184613cdd565b92915050565b613d10816135ea565b8114613d1b57600080fd5b50565b600081359050613d2d81613d07565b92915050565b60008060408385031215613d4a57613d4961355b565b5b6000613d58858286016137b1565b9250506020613d6985828601613d1e565b9150509250929050565b60008060408385031215613d8a57613d8961355b565b5b6000613d98858286016136fc565b9250506020613da9858286016136fc565b9150509250929050565b6000604082019050613dc86000830185613770565b613dd56020830184613bd8565b9392505050565b600080fd5b7f4e487b7100000000000000000000000000000000000000000000000000000000600052604160045260246000fd5b613e198261366f565b810181811067ffffffffffffffff82111715613e3857613e37613de1565b5b80604052505050565b6000613e4b613551565b9050613e578282613e10565b919050565b600067ffffffffffffffff821115613e7757613e76613de1565b5b613e808261366f565b9050602081019050919050565b82818337600083830152505050565b6000613eaf613eaa84613e5c565b613e41565b905082815260208101848484011115613ecb57613eca613ddc565b5b613ed6848285613e8d565b509392505050565b600082601f830112613ef357613ef26138b6565b5b8135613f03848260208601613e9c565b91505092915050565b60008060008060808587031215613f2657613f2561355b565b5b6000613f34878288016137b1565b9450506020613f45878288016137b1565b9350506040613f56878288016136fc565b925050606085013567ffffffffffffffff811115613f7757613f76613560565b5b613f8387828801613ede565b91505092959194509250565b600080600060608486031215613fa857613fa761355b565b5b6000613fb6868287016136fc565b9350506020613fc7868287016137b1565b9250506040613fd8868287016136fc565b9150509250925092565b600060059050919050565b600081905092915050565b6000819050919050565b61400b8161375e565b82525050565b61401a816136db565b82525050565b6040820160008201516140366000850182614002565b5060208201516140496020850182614011565b50505050565b600061405b8383614020565b60408301905092915050565b6000602082019050919050565b61407d81613fe2565b6140878184613fed565b925061409282613ff8565b8060005b838110156140c35781516140aa878261404f565b96506140b583614067565b925050600181019050614096565b505050505050565b6000610140820190506140e16000830184614074565b92915050565b600080604083850312156140fe576140fd61355b565b5b600061410c858286016137b1565b925050602061411d858286016137b1565b9150509250929050565b7f4e487b7100000000000000000000000000000000000000000000000000000000600052602260045260246000fd5b6000600282049050600182168061416e57607f821691505b6020821081141561418257614181614127565b5b50919050565b7f4552433732313a20617070726f76616c20746f2063757272656e74206f776e6560008201527f7200000000000000000000000000000000000000000000000000000000000000602082015250565b60006141e460218361362b565b91506141ef82614188565b604082019050919050565b60006020820190508181036000830152614213816141d7565b9050919050565b7f4552433732313a20617070726f76652063616c6c6572206973206e6f7420746f60008201527f6b656e206f776e6572206e6f7220617070726f76656420666f7220616c6c0000602082015250565b6000614276603e8361362b565b91506142818261421a565b604082019050919050565b600060208201905081810360008301526142a581614269565b9050919050565b600081905092915050565b60006142c383856142ac565b93506142d0838584613e8d565b82840190509392505050565b60006142e98284866142b7565b91508190509392505050565b6000614301838561362b565b935061430e838584613e8d565b6143178361366f565b840190509392505050565b600060c082019050614337600083018c613b01565b818103602083015261434a818a8c6142f5565b9050818103604083015261435f81888a6142f5565b905061436e6060830187613b01565b81810360808301526143818185876142f5565b905061439060a0830184613bd8565b9a9950505050505050505050565b6000815190506143ad81613d07565b92915050565b6000602082840312156143c9576143c861355b565b5b60006143d78482850161439e565b91505092915050565b7f4552433732313a2063616c6c6572206973206e6f7420746f6b656e206f776e6560008201527f72206e6f7220617070726f766564000000000000000000000000000000000000602082015250565b600061443c602e8361362b565b9150614447826143e0565b604082019050919050565b6000602082019050818103600083015261446b8161442f565b9050919050565b7f416363657373436f6e74726f6c3a2063616e206f6e6c792072656e6f756e636560008201527f20726f6c657320666f722073656c660000000000000000000000000000000000602082015250565b60006144ce602f8361362b565b91506144d982614472565b604082019050919050565b600060208201905081810360008301526144fd816144c1565b9050919050565b7f7374617274000000000000000000000000000000000000000000000000000000600082015250565b600061453a60058361362b565b915061454582614504565b602082019050919050565b600060208201905081810360008301526145698161452d565b9050919050565b60006080820190506145856000830189613b01565b81810360208301526145988187896142f5565b905081810360408301526145ad8185876142f5565b90506145bc6060830184613b01565b979650505050505050565b7f4552433732313a20696e76616c696420746f6b656e2049440000000000000000600082015250565b60006145fd60188361362b565b9150614608826145c7565b602082019050919050565b6000602082019050818103600083015261462c816145f0565b9050919050565b7f4552433732313a2061646472657373207a65726f206973206e6f74206120766160008201527f6c6964206f776e65720000000000000000000000000000000000000000000000602082015250565b600061468f60298361362b565b915061469a82614633565b604082019050919050565b600060208201905081810360008301526146be81614682565b9050919050565b7f536f756c46756e642e636c61696d46756e64734561726c793a2066756e64206460008201527f6f6573206e6f7420657869737400000000000000000000000000000000000000602082015250565b6000614721602d8361362b565b915061472c826146c5565b604082019050919050565b6000602082019050818103600083015261475081614714565b9050919050565b600060408201905061476c6000830185613bd8565b6147796020830184613bd8565b9392505050565b7f546f6b656e20646f6573206e6f74206578697374000000000000000000000000600082015250565b60006147b660148361362b565b91506147c182614780565b602082019050919050565b600060208201905081810360008301526147e5816147a9565b9050919050565b600067ffffffffffffffff82111561480757614806613de1565b5b6148108261366f565b9050602081019050919050565b600061483061482b846147ec565b613e41565b90508281526020810184848401111561484c5761484b613ddc565b5b61485784828561363c565b509392505050565b600082601f830112614874576148736138b6565b5b815161488484826020860161481d565b91505092915050565b6000602082840312156148a3576148a261355b565b5b600082015167ffffffffffffffff8111156148c1576148c0613560565b5b6148cd8482850161485f565b91505092915050565b7f536f756c46756e642e6465706f73697446756e643a206d61782063757272656e60008201527f6379207479706520726561636865642e00000000000000000000000000000000602082015250565b600061493260308361362b565b915061493d826148d6565b604082019050919050565b6000602082019050818103600083015261496181614925565b9050919050565b7f4e487b7100000000000000000000000000000000000000000000000000000000600052601160045260246000fd5b60006149a2826136db565b91507fffffffffffffffffffffffffffffffffffffffffffffffffffffffffffffffff8214156149d5576149d4614968565b5b600182019050919050565b7f4e487b7100000000000000000000000000000000000000000000000000000000600052603260045260246000fd5b7f536f756c46756e642e6465706f73697446756e643a20616d6f756e74206d697360008201527f6d617463682e0000000000000000000000000000000000000000000000000000602082015250565b6000614a6b60268361362b565b9150614a7682614a0f565b604082019050919050565b60006020820190508181036000830152614a9a81614a5e565b9050919050565b6000606082019050614ab66000830186613770565b614ac36020830185613770565b614ad06040830184613bd8565b949350505050565b6000614ae3826136db565b9150614aee836136db565b9250827fffffffffffffffffffffffffffffffffffffffffffffffffffffffffffffffff03821115614b2357614b22614968565b5b828201905092915050565b6000608082019050614b436000830187613bd8565b614b506020830186613770565b614b5d6040830185613bd8565b614b6a6060830184613770565b95945050505050565b7f4552433732313a207472616e736665722066726f6d20696e636f72726563742060008201527f6f776e6572000000000000000000000000000000000000000000000000000000602082015250565b6000614bcf60258361362b565b9150614bda82614b73565b604082019050919050565b60006020820190508181036000830152614bfe81614bc2565b9050919050565b7f4552433732313a207472616e7366657220746f20746865207a65726f2061646460008201527f7265737300000000000000000000000000000000000000000000000000000000602082015250565b6000614c6160248361362b565b9150614c6c82614c05565b604082019050919050565b60006020820190508181036000830152614c9081614c54565b9050919050565b6000614ca2826136db565b9150614cad836136db565b925082821015614cc057614cbf614968565b5b828203905092915050565b6000614cd68261373e565b9050919050565b614ce681614ccb565b8114614cf157600080fd5b50565b600081359050614d0381614cdd565b92915050565b60008060408385031215614d2057614d1f61355b565b5b6000614d2e85828601614cf4565b9250506020614d3f858286016136fc565b9150509250929050565b7f50657263656e7420746f6f206869676800000000000000000000000000000000600082015250565b6000614d7f60108361362b565b9150614d8a82614d49565b602082019050919050565b60006020820190508181036000830152614dae81614d72565b9050919050565b6000614dc0826136db565b9150614dcb836136db565b9250817fffffffffffffffffffffffffffffffffffffffffffffffffffffffffffffffff0483118215151615614e0457614e03614968565b5b828202905092915050565b7f4e487b7100000000000000000000000000000000000000000000000000000000600052601260045260246000fd5b6000614e49826136db565b9150614e54836136db565b925082614e6457614e63614e0f565b5b828204905092915050565b7f4552433732313a20617070726f766520746f2063616c6c657200000000000000600082015250565b6000614ea560198361362b565b9150614eb082614e6f565b602082019050919050565b60006020820190508181036000830152614ed481614e98565b9050919050565b7f4552433732313a207472616e7366657220746f206e6f6e20455243373231526560008201527f63656976657220696d706c656d656e7465720000000000000000000000000000602082015250565b6000614f3760328361362b565b9150614f4282614edb565b604082019050919050565b60006020820190508181036000830152614f6681614f2a565b9050919050565b7f536f756c46756e643a20736f756c20626f756e6420746f6b656e2063616e6e6f60008201527f74206265207472616e7366657272656400000000000000000000000000000000602082015250565b6000614fc960308361362b565b9150614fd482614f6d565b604082019050919050565b60006020820190508181036000830152614ff881614fbc565b9050919050565b600081905092915050565b7f416363657373436f6e74726f6c3a206163636f756e7420000000000000000000600082015250565b6000615040601783614fff565b915061504b8261500a565b601782019050919050565b600061506182613620565b61506b8185614fff565b935061507b81856020860161363c565b80840191505092915050565b7f206973206d697373696e6720726f6c6520000000000000000000000000000000600082015250565b60006150bd601183614fff565b91506150c882615087565b601182019050919050565b60006150de82615033565b91506150ea8285615056565b91506150f5826150b0565b91506151018284615056565b91508190509392505050565b7f5061757361626c653a206e6f7420706175736564000000000000000000000000600082015250565b600061514360148361362b565b915061514e8261510d565b602082019050919050565b6000602082019050818103600083015261517281615136565b9050919050565b7f536f756c46756e642e636c61696d46756e64734561726c793a20696e76616c6960008201527f6420616464726573730000000000000000000000000000000000000000000000602082015250565b60006151d560298361362b565b91506151e082615179565b604082019050919050565b60006020820190508181036000830152615204816151c8565b9050919050565b7f5061757361626c653a2070617573656400000000000000000000000000000000600082015250565b600061524160108361362b565b915061524c8261520b565b602082019050919050565b6000602082019050818103600083015261527081615234565b9050919050565b600081519050919050565b600082825260208201905092915050565b600061529e82615277565b6152a88185615282565b93506152b881856020860161363c565b6152c18161366f565b840191505092915050565b60006080820190506152e16000830187613770565b6152ee6020830186613770565b6152fb6040830185613bd8565b818103606083015261530d8184615293565b905095945050505050565b60008151905061532781613591565b92915050565b6000602082840312156153435761534261355b565b5b600061535184828501615318565b91505092915050565b6000615365826136db565b9150600082141561537957615378614968565b5b600182039050919050565b7f537472696e67733a20686578206c656e67746820696e73756666696369656e74600082015250565b60006153ba60208361362b565b91506153c582615384565b602082019050919050565b600060208201905081810360008301526153e9816153ad565b9050919050565b7f4552433732313a206d696e7420746f20746865207a65726f2061646472657373600082015250565b600061542660208361362b565b9150615431826153f0565b602082019050919050565b6000602082019050818103600083015261545581615419565b9050919050565b7f4552433732313a20746f6b656e20616c7265616479206d696e74656400000000600082015250565b6000615492601c8361362b565b915061549d8261545c565b602082019050919050565b600060208201905081810360008301526154c181615485565b905091905056fea264697066735822122046c7a455d27b5d9ee6e3b6f7ab04dfb4f3d810f3a59c27cc7bfb2a252d6f3a3664736f6c63430008090033",
  "linkReferences": {},
  "deployedLinkReferences": {}
}