{
  "_format": "hh-sol-artifact-1",
  "contractName": "SoulFund",
  "sourceName": "contracts/SoulFund.sol",
  "abi": [
    {
      "inputs": [],
      "stateMutability": "payable",
      "type": "constructor"
    },
    {
      "anonymous": false,
      "inputs": [
        {
          "indexed": true,
          "internalType": "address",
          "name": "owner",
          "type": "address"
        },
        {
          "indexed": true,
          "internalType": "address",
          "name": "approved",
          "type": "address"
        },
        {
          "indexed": true,
          "internalType": "uint256",
          "name": "tokenId",
          "type": "uint256"
        }
      ],
      "name": "Approval",
      "type": "event"
    },
    {
      "anonymous": false,
      "inputs": [
        {
          "indexed": true,
          "internalType": "address",
          "name": "owner",
          "type": "address"
        },
        {
          "indexed": true,
          "internalType": "address",
          "name": "operator",
          "type": "address"
        },
        {
          "indexed": false,
          "internalType": "bool",
          "name": "approved",
          "type": "bool"
        }
      ],
      "name": "ApprovalForAll",
      "type": "event"
    },
    {
      "anonymous": false,
      "inputs": [
        {
          "indexed": false,
          "internalType": "uint256",
          "name": "soulFundId",
          "type": "uint256"
        },
        {
          "indexed": false,
          "internalType": "address",
          "name": "currency",
          "type": "address"
        },
        {
          "indexed": false,
          "internalType": "uint256",
          "name": "amount",
          "type": "uint256"
        },
        {
          "indexed": false,
          "internalType": "address",
          "name": "beneficary",
          "type": "address"
        }
      ],
      "name": "FundDeposited",
      "type": "event"
    },
    {
      "anonymous": false,
      "inputs": [
        {
          "indexed": false,
          "internalType": "uint8",
          "name": "version",
          "type": "uint8"
        }
      ],
      "name": "Initialized",
      "type": "event"
    },
    {
      "anonymous": false,
      "inputs": [
        {
          "indexed": false,
          "internalType": "address",
          "name": "newNftAddress",
          "type": "address"
        }
      ],
      "name": "NewWhitelistedNFT",
      "type": "event"
    },
    {
      "anonymous": false,
      "inputs": [
        {
          "indexed": false,
          "internalType": "address",
          "name": "account",
          "type": "address"
        }
      ],
      "name": "Paused",
      "type": "event"
    },
    {
      "anonymous": false,
      "inputs": [
        {
          "indexed": true,
          "internalType": "bytes32",
          "name": "role",
          "type": "bytes32"
        },
        {
          "indexed": true,
          "internalType": "bytes32",
          "name": "previousAdminRole",
          "type": "bytes32"
        },
        {
          "indexed": true,
          "internalType": "bytes32",
          "name": "newAdminRole",
          "type": "bytes32"
        }
      ],
      "name": "RoleAdminChanged",
      "type": "event"
    },
    {
      "anonymous": false,
      "inputs": [
        {
          "indexed": true,
          "internalType": "bytes32",
          "name": "role",
          "type": "bytes32"
        },
        {
          "indexed": true,
          "internalType": "address",
          "name": "account",
          "type": "address"
        },
        {
          "indexed": true,
          "internalType": "address",
          "name": "sender",
          "type": "address"
        }
      ],
      "name": "RoleGranted",
      "type": "event"
    },
    {
      "anonymous": false,
      "inputs": [
        {
          "indexed": true,
          "internalType": "bytes32",
          "name": "role",
          "type": "bytes32"
        },
        {
          "indexed": true,
          "internalType": "address",
          "name": "account",
          "type": "address"
        },
        {
          "indexed": true,
          "internalType": "address",
          "name": "sender",
          "type": "address"
        }
      ],
      "name": "RoleRevoked",
      "type": "event"
    },
    {
      "anonymous": false,
      "inputs": [
        {
          "indexed": true,
          "internalType": "address",
          "name": "from",
          "type": "address"
        },
        {
          "indexed": true,
          "internalType": "address",
          "name": "to",
          "type": "address"
        },
        {
          "indexed": true,
          "internalType": "uint256",
          "name": "tokenId",
          "type": "uint256"
        }
      ],
      "name": "Transfer",
      "type": "event"
    },
    {
      "anonymous": false,
      "inputs": [
        {
          "indexed": false,
          "internalType": "address",
          "name": "account",
          "type": "address"
        }
      ],
      "name": "Unpaused",
      "type": "event"
    },
    {
      "anonymous": false,
      "inputs": [
        {
          "indexed": false,
          "internalType": "uint256",
          "name": "soulFundId",
          "type": "uint256"
        },
        {
          "indexed": false,
          "internalType": "uint256",
          "name": "vestedAmount",
          "type": "uint256"
        }
      ],
      "name": "VestedFundClaimed",
      "type": "event"
    },
    {
      "anonymous": false,
      "inputs": [
        {
          "indexed": false,
          "internalType": "uint256",
          "name": "tokenId",
          "type": "uint256"
        },
        {
          "indexed": false,
          "internalType": "uint256",
          "name": "rewardAmount",
          "type": "uint256"
        },
        {
          "indexed": false,
          "internalType": "address",
          "name": "nftAddress",
          "type": "address"
        },
        {
          "indexed": false,
          "internalType": "uint256",
          "name": "nftTokenId",
          "type": "uint256"
        }
      ],
      "name": "VestedFundsClaimedEarly",
      "type": "event"
    },
    {
      "inputs": [],
      "name": "BENEFICIARY_ROLE",
      "outputs": [
        {
          "internalType": "bytes32",
          "name": "",
          "type": "bytes32"
        }
      ],
      "stateMutability": "view",
      "type": "function"
    },
    {
      "inputs": [],
      "name": "DEFAULT_ADMIN_ROLE",
      "outputs": [
        {
          "internalType": "bytes32",
          "name": "",
          "type": "bytes32"
        }
      ],
      "stateMutability": "view",
      "type": "function"
    },
    {
      "inputs": [],
      "name": "FIVE_PERCENT",
      "outputs": [
        {
          "internalType": "uint256",
          "name": "",
          "type": "uint256"
        }
      ],
      "stateMutability": "view",
      "type": "function"
    },
    {
      "inputs": [],
      "name": "GRANTER_ROLE",
      "outputs": [
        {
          "internalType": "bytes32",
          "name": "",
          "type": "bytes32"
        }
      ],
      "stateMutability": "view",
      "type": "function"
    },
    {
      "inputs": [],
      "name": "PAUSER_ROLE",
      "outputs": [
        {
          "internalType": "bytes32",
          "name": "",
          "type": "bytes32"
        }
      ],
      "stateMutability": "view",
      "type": "function"
    },
    {
      "inputs": [
        {
          "internalType": "address",
          "name": "to",
          "type": "address"
        },
        {
          "internalType": "uint256",
          "name": "tokenId",
          "type": "uint256"
        }
      ],
      "name": "approve",
      "outputs": [],
      "stateMutability": "nonpayable",
      "type": "function"
    },
    {
      "inputs": [
        {
          "internalType": "address",
          "name": "owner",
          "type": "address"
        }
      ],
      "name": "balanceOf",
      "outputs": [
        {
          "internalType": "uint256",
          "name": "",
          "type": "uint256"
        }
      ],
      "stateMutability": "view",
      "type": "function"
    },
    {
      "inputs": [
        {
          "internalType": "uint256",
          "name": "",
          "type": "uint256"
        },
        {
          "internalType": "uint256",
          "name": "",
          "type": "uint256"
        }
      ],
      "name": "balances",
      "outputs": [
        {
          "internalType": "address",
          "name": "token",
          "type": "address"
        },
        {
          "internalType": "uint256",
          "name": "balance",
          "type": "uint256"
        }
      ],
      "stateMutability": "view",
      "type": "function"
    },
    {
      "inputs": [
        {
          "internalType": "uint256",
          "name": "_tokenId",
          "type": "uint256"
        }
      ],
      "name": "balancesExt",
      "outputs": [
        {
          "components": [
            {
              "internalType": "address",
              "name": "token",
              "type": "address"
            },
            {
              "internalType": "uint256",
              "name": "balance",
              "type": "uint256"
            }
          ],
          "internalType": "struct ISoulFund.Balances[5]",
          "name": "",
          "type": "tuple[5]"
        }
      ],
      "stateMutability": "view",
      "type": "function"
    },
    {
      "inputs": [
        {
          "internalType": "uint256",
          "name": "_soulFundId",
          "type": "uint256"
        }
      ],
      "name": "claimAllVestedFunds",
      "outputs": [],
      "stateMutability": "payable",
      "type": "function"
    },
    {
      "inputs": [
        {
          "internalType": "address",
          "name": "_nftAddress",
          "type": "address"
        },
        {
          "internalType": "uint256",
          "name": "_soulFundId",
          "type": "uint256"
        },
        {
          "internalType": "uint256",
          "name": "_nftId",
          "type": "uint256"
        }
      ],
      "name": "claimFundsEarly",
      "outputs": [],
      "stateMutability": "payable",
      "type": "function"
    },
    {
      "inputs": [
        {
          "internalType": "uint256",
          "name": "",
          "type": "uint256"
        },
        {
          "internalType": "address",
          "name": "",
          "type": "address"
        }
      ],
      "name": "currencyIndices",
      "outputs": [
        {
          "internalType": "uint256",
          "name": "",
          "type": "uint256"
        }
      ],
      "stateMutability": "view",
      "type": "function"
    },
    {
      "inputs": [
        {
          "internalType": "uint256",
          "name": "soulFundId",
          "type": "uint256"
        },
        {
          "internalType": "address",
          "name": "currency",
          "type": "address"
        },
        {
          "internalType": "uint256",
          "name": "amount",
          "type": "uint256"
        }
      ],
      "name": "depositFund",
      "outputs": [],
      "stateMutability": "payable",
      "type": "function"
    },
    {
      "inputs": [
        {
          "internalType": "uint256",
          "name": "tokenId",
          "type": "uint256"
        }
      ],
      "name": "getApproved",
      "outputs": [
        {
          "internalType": "address",
          "name": "",
          "type": "address"
        }
      ],
      "stateMutability": "view",
      "type": "function"
    },
    {
      "inputs": [
        {
          "internalType": "bytes32",
          "name": "role",
          "type": "bytes32"
        }
      ],
      "name": "getRoleAdmin",
      "outputs": [
        {
          "internalType": "bytes32",
          "name": "",
          "type": "bytes32"
        }
      ],
      "stateMutability": "view",
      "type": "function"
    },
    {
      "inputs": [
        {
          "internalType": "bytes32",
          "name": "role",
          "type": "bytes32"
        },
        {
          "internalType": "address",
          "name": "account",
          "type": "address"
        }
      ],
      "name": "grantRole",
      "outputs": [],
      "stateMutability": "nonpayable",
      "type": "function"
    },
    {
      "inputs": [
        {
          "internalType": "bytes32",
          "name": "role",
          "type": "bytes32"
        },
        {
          "internalType": "address",
          "name": "account",
          "type": "address"
        }
      ],
      "name": "hasRole",
      "outputs": [
        {
          "internalType": "bool",
          "name": "",
          "type": "bool"
        }
      ],
      "stateMutability": "view",
      "type": "function"
    },
    {
      "inputs": [
        {
          "internalType": "address",
          "name": "_beneficiary",
          "type": "address"
        },
        {
          "internalType": "uint256",
          "name": "_vestingDate",
          "type": "uint256"
        },
        {
          "internalType": "address",
          "name": "_data",
          "type": "address"
        }
      ],
      "name": "initialize",
      "outputs": [],
      "stateMutability": "payable",
      "type": "function"
    },
    {
      "inputs": [
        {
          "internalType": "address",
          "name": "owner",
          "type": "address"
        },
        {
          "internalType": "address",
          "name": "operator",
          "type": "address"
        }
      ],
      "name": "isApprovedForAll",
      "outputs": [
        {
          "internalType": "bool",
          "name": "",
          "type": "bool"
        }
      ],
      "stateMutability": "view",
      "type": "function"
    },
    {
      "inputs": [],
      "name": "name",
      "outputs": [
        {
          "internalType": "string",
          "name": "",
          "type": "string"
        }
      ],
      "stateMutability": "view",
      "type": "function"
    },
    {
      "inputs": [
        {
          "internalType": "uint256",
          "name": "",
          "type": "uint256"
        },
        {
          "internalType": "address",
          "name": "",
          "type": "address"
        }
      ],
      "name": "nftIsSpent",
      "outputs": [
        {
          "internalType": "bool",
          "name": "",
          "type": "bool"
        }
      ],
      "stateMutability": "view",
      "type": "function"
    },
    {
      "inputs": [
        {
          "internalType": "uint256",
          "name": "",
          "type": "uint256"
        }
      ],
      "name": "numCurrencies",
      "outputs": [
        {
          "internalType": "uint256",
          "name": "",
          "type": "uint256"
        }
      ],
      "stateMutability": "view",
      "type": "function"
    },
    {
      "inputs": [
        {
          "internalType": "uint256",
          "name": "tokenId",
          "type": "uint256"
        }
      ],
      "name": "ownerOf",
      "outputs": [
        {
          "internalType": "address",
          "name": "",
          "type": "address"
        }
      ],
      "stateMutability": "view",
      "type": "function"
    },
    {
      "inputs": [],
      "name": "pause",
      "outputs": [],
      "stateMutability": "nonpayable",
      "type": "function"
    },
    {
      "inputs": [],
      "name": "paused",
      "outputs": [
        {
          "internalType": "bool",
          "name": "",
          "type": "bool"
        }
      ],
      "stateMutability": "view",
      "type": "function"
    },
    {
      "inputs": [
        {
          "internalType": "bytes32",
          "name": "role",
          "type": "bytes32"
        },
        {
          "internalType": "address",
          "name": "account",
          "type": "address"
        }
      ],
      "name": "renounceRole",
      "outputs": [],
      "stateMutability": "nonpayable",
      "type": "function"
    },
    {
      "inputs": [
        {
          "internalType": "bytes32",
          "name": "role",
          "type": "bytes32"
        },
        {
          "internalType": "address",
          "name": "account",
          "type": "address"
        }
      ],
      "name": "revokeRole",
      "outputs": [],
      "stateMutability": "nonpayable",
      "type": "function"
    },
    {
      "inputs": [
        {
          "internalType": "address",
          "name": "_to",
          "type": "address"
        }
      ],
      "name": "safeMint",
      "outputs": [],
      "stateMutability": "nonpayable",
      "type": "function"
    },
    {
      "inputs": [
        {
          "internalType": "address",
          "name": "from",
          "type": "address"
        },
        {
          "internalType": "address",
          "name": "to",
          "type": "address"
        },
        {
          "internalType": "uint256",
          "name": "tokenId",
          "type": "uint256"
        }
      ],
      "name": "safeTransferFrom",
      "outputs": [],
      "stateMutability": "nonpayable",
      "type": "function"
    },
    {
      "inputs": [
        {
          "internalType": "address",
          "name": "from",
          "type": "address"
        },
        {
          "internalType": "address",
          "name": "to",
          "type": "address"
        },
        {
          "internalType": "uint256",
          "name": "tokenId",
          "type": "uint256"
        },
        {
          "internalType": "bytes",
          "name": "data",
          "type": "bytes"
        }
      ],
      "name": "safeTransferFrom",
      "outputs": [],
      "stateMutability": "nonpayable",
      "type": "function"
    },
    {
      "inputs": [
        {
          "internalType": "address",
          "name": "operator",
          "type": "address"
        },
        {
          "internalType": "bool",
          "name": "approved",
          "type": "bool"
        }
      ],
      "name": "setApprovalForAll",
      "outputs": [],
      "stateMutability": "nonpayable",
      "type": "function"
    },
    {
      "inputs": [
        {
          "internalType": "bytes4",
          "name": "_interfaceId",
          "type": "bytes4"
        }
      ],
      "name": "supportsInterface",
      "outputs": [
        {
          "internalType": "bool",
          "name": "",
          "type": "bool"
        }
      ],
      "stateMutability": "view",
      "type": "function"
    },
    {
      "inputs": [],
      "name": "symbol",
      "outputs": [
        {
          "internalType": "string",
          "name": "",
          "type": "string"
        }
      ],
      "stateMutability": "view",
      "type": "function"
    },
    {
      "inputs": [
        {
          "internalType": "uint256",
          "name": "tokenId",
          "type": "uint256"
        }
      ],
      "name": "tokenURI",
      "outputs": [
        {
          "internalType": "string",
          "name": "",
          "type": "string"
        }
      ],
      "stateMutability": "view",
      "type": "function"
    },
    {
      "inputs": [
        {
          "internalType": "address",
          "name": "from",
          "type": "address"
        },
        {
          "internalType": "address",
          "name": "to",
          "type": "address"
        },
        {
          "internalType": "uint256",
          "name": "tokenId",
          "type": "uint256"
        }
      ],
      "name": "transferFrom",
      "outputs": [],
      "stateMutability": "nonpayable",
      "type": "function"
    },
    {
      "inputs": [],
      "name": "unpause",
      "outputs": [],
      "stateMutability": "nonpayable",
      "type": "function"
    },
    {
      "inputs": [],
      "name": "vestingDate",
      "outputs": [
        {
          "internalType": "uint256",
          "name": "",
          "type": "uint256"
        }
      ],
      "stateMutability": "view",
      "type": "function"
    },
    {
      "inputs": [
        {
          "internalType": "address",
          "name": "_newNftAddress",
          "type": "address"
        },
        {
          "internalType": "uint256",
          "name": "_tokenId",
          "type": "uint256"
        }
      ],
      "name": "whitelistNft",
      "outputs": [],
      "stateMutability": "nonpayable",
      "type": "function"
    },
    {
      "inputs": [
        {
          "internalType": "uint256",
          "name": "",
          "type": "uint256"
        },
        {
          "internalType": "address",
          "name": "",
          "type": "address"
        }
      ],
      "name": "whitelistedNfts",
      "outputs": [
        {
          "internalType": "bool",
          "name": "",
          "type": "bool"
        }
      ],
      "stateMutability": "view",
      "type": "function"
    }
  ],
  "bytecode": "0x6080604052620000146200001a60201b60201c565b620001c5565b600060019054906101000a900460ff16156200006d576040517f08c379a0000000000000000000000000000000000000000000000000000000008152600401620000649062000168565b60405180910390fd5b60ff801660008054906101000a900460ff1660ff161015620000df5760ff6000806101000a81548160ff021916908360ff1602179055507f7f26b83ff96e1f2b6a682f133852f6798a09c465da95921460cefb384740249860ff604051620000d69190620001a8565b60405180910390a15b565b600082825260208201905092915050565b7f496e697469616c697a61626c653a20636f6e747261637420697320696e69746960008201527f616c697a696e6700000000000000000000000000000000000000000000000000602082015250565b600062000150602783620000e1565b91506200015d82620000f2565b604082019050919050565b60006020820190508181036000830152620001838162000141565b9050919050565b600060ff82169050919050565b620001a2816200018a565b82525050565b6000602082019050620001bf600083018462000197565b92915050565b61579a80620001d56000396000f3fe6080604052600436106102305760003560e01c80639590cf751161012e578063cef5234f116100ab578063e63ab1e91161006f578063e63ab1e91461085b578063e985e9c514610886578063f94c0a11146108c3578063fdb0467a146108ee578063fedce7a81461090a57610230565b8063cef5234f14610771578063d547741f146107ae578063d6706328146107d7578063d8f5df66146107f3578063db4796c01461081e57610230565b8063b7134dfa116100f2578063b7134dfa14610686578063b88d4fde146106c4578063c350a1b5146106ed578063c87b56dd14610709578063ced3a4031461074657610230565b80639590cf75146105ae57806395d89b41146105ca5780639e42ce18146105f5578063a217fddf14610632578063a22cb4651461065d57610230565b806340d097c3116101bc5780636352211e116101805780636352211e146104b557806370a08231146104f25780637ef656091461052f5780638456cb591461055a57806391d148541461057157610230565b806340d097c3146103d257806342842e0e146103fb578063438a8ece14610424578063551d4f2a146104615780635c975abb1461048a57610230565b806323b872dd1161020357806323b872dd14610303578063248a9ca31461032c5780632f2ff15d1461036957806336568abe146103925780633f4ba83a146103bb57610230565b806301ffc9a71461023557806306fdde0314610272578063081812fc1461029d578063095ea7b3146102da575b600080fd5b34801561024157600080fd5b5061025c60048036038101906102579190613948565b610947565b6040516102699190613990565b60405180910390f35b34801561027e57600080fd5b50610287610959565b6040516102949190613a44565b60405180910390f35b3480156102a957600080fd5b506102c460048036038101906102bf9190613a9c565b6109eb565b6040516102d19190613b0a565b60405180910390f35b3480156102e657600080fd5b5061030160048036038101906102fc9190613b51565b610a31565b005b34801561030f57600080fd5b5061032a60048036038101906103259190613b91565b610b49565b005b34801561033857600080fd5b50610353600480360381019061034e9190613c1a565b610ba9565b6040516103609190613c56565b60405180910390f35b34801561037557600080fd5b50610390600480360381019061038b9190613c71565b610bc9565b005b34801561039e57600080fd5b506103b960048036038101906103b49190613c71565b610bea565b005b3480156103c757600080fd5b506103d0610c6d565b005b3480156103de57600080fd5b506103f960048036038101906103f49190613cb1565b610ca2565b005b34801561040757600080fd5b50610422600480360381019061041d9190613b91565b610cf3565b005b34801561043057600080fd5b5061044b60048036038101906104469190613cde565b610d13565b6040516104589190613d2d565b60405180910390f35b34801561046d57600080fd5b5061048860048036038101906104839190613b51565b610d39565b005b34801561049657600080fd5b5061049f610eff565b6040516104ac9190613990565b60405180910390f35b3480156104c157600080fd5b506104dc60048036038101906104d79190613a9c565b610f16565b6040516104e99190613b0a565b60405180910390f35b3480156104fe57600080fd5b5061051960048036038101906105149190613cb1565b610fc8565b6040516105269190613d2d565b60405180910390f35b34801561053b57600080fd5b50610544611080565b6040516105519190613d2d565b60405180910390f35b34801561056657600080fd5b5061056f611086565b005b34801561057d57600080fd5b5061059860048036038101906105939190613c71565b6110bb565b6040516105a59190613990565b60405180910390f35b6105c860048036038101906105c39190613a9c565b611126565b005b3480156105d657600080fd5b506105df6111ec565b6040516105ec9190613a44565b60405180910390f35b34801561060157600080fd5b5061061c60048036038101906106179190613a9c565b61127e565b6040516106299190613d2d565b60405180910390f35b34801561063e57600080fd5b50610647611297565b6040516106549190613c56565b60405180910390f35b34801561066957600080fd5b50610684600480360381019061067f9190613d74565b61129e565b005b34801561069257600080fd5b506106ad60048036038101906106a89190613db4565b6112b4565b6040516106bb929190613df4565b60405180910390f35b3480156106d057600080fd5b506106eb60048036038101906106e69190613f52565b61130b565b005b61070760048036038101906107029190613fd5565b61136d565b005b34801561071557600080fd5b50610730600480360381019061072b9190613a9c565b6115fe565b60405161073d9190613a44565b60405180910390f35b34801561075257600080fd5b5061075b611702565b6040516107689190613c56565b60405180910390f35b34801561077d57600080fd5b5061079860048036038101906107939190613cde565b611726565b6040516107a59190613990565b60405180910390f35b3480156107ba57600080fd5b506107d560048036038101906107d09190613c71565b611755565b005b6107f160048036038101906107ec9190614028565b611776565b005b3480156107ff57600080fd5b50610808611ba2565b6040516108159190613d2d565b60405180910390f35b34801561082a57600080fd5b5061084560048036038101906108409190613a9c565b611ba8565b6040516108529190614164565b60405180910390f35b34801561086757600080fd5b50610870611c6d565b60405161087d9190613c56565b60405180910390f35b34801561089257600080fd5b506108ad60048036038101906108a89190614180565b611c91565b6040516108ba9190613990565b60405180910390f35b3480156108cf57600080fd5b506108d8611d25565b6040516108e59190613c56565b60405180910390f35b610908600480360381019061090391906141c0565b611d49565b005b34801561091657600080fd5b50610931600480360381019061092c9190613cde565b612105565b60405161093e9190613990565b60405180910390f35b600061095282612134565b9050919050565b60606065805461096890614242565b80601f016020809104026020016040519081016040528092919081815260200182805461099490614242565b80156109e15780601f106109b6576101008083540402835291602001916109e1565b820191906000526020600020905b8154815290600101906020018083116109c457829003601f168201915b5050505050905090565b60006109f6826121ae565b6069600083815260200190815260200160002060009054906101000a900473ffffffffffffffffffffffffffffffffffffffff169050919050565b6000610a3c82610f16565b90508073ffffffffffffffffffffffffffffffffffffffff168373ffffffffffffffffffffffffffffffffffffffff161415610aad576040517f08c379a0000000000000000000000000000000000000000000000000000000008152600401610aa4906142e6565b60405180910390fd5b8073ffffffffffffffffffffffffffffffffffffffff16610acc6121f9565b73ffffffffffffffffffffffffffffffffffffffff161480610afb5750610afa81610af56121f9565b611c91565b5b610b3a576040517f08c379a0000000000000000000000000000000000000000000000000000000008152600401610b3190614378565b60405180910390fd5b610b448383612201565b505050565b610b5a610b546121f9565b826122ba565b610b99576040517f08c379a0000000000000000000000000000000000000000000000000000000008152600401610b909061440a565b60405180910390fd5b610ba483838361234f565b505050565b600060c96000838152602001908152602001600020600101549050919050565b610bd282610ba9565b610bdb816125b6565b610be583836125ca565b505050565b610bf26121f9565b73ffffffffffffffffffffffffffffffffffffffff168173ffffffffffffffffffffffffffffffffffffffff1614610c5f576040517f08c379a0000000000000000000000000000000000000000000000000000000008152600401610c569061449c565b60405180910390fd5b610c6982826126ab565b5050565b7f65d7a28e3265b37a6474929f336521b332c1681b933f6cb9f3376673440d862a610c97816125b6565b610c9f61278d565b50565b7f2dee5dd865e09c7ce6788d674a03682994f0b44339403ca07ac129a9de4bed6a610ccc816125b6565b6000610cd860fb6127f0565b9050610ce460fb6127fe565b610cee8382612814565b505050565b610d0e8383836040518060200160405280600081525061130b565b505050565b610100602052816000526040600020602052806000526040600020600091509150505481565b6000801b610d46816125b6565b6000151560fd600084815260200190815260200160002060008573ffffffffffffffffffffffffffffffffffffffff1673ffffffffffffffffffffffffffffffffffffffff16815260200190815260200160002060009054906101000a900460ff16151514610dea576040517f08c379a0000000000000000000000000000000000000000000000000000000008152600401610de19061452e565b60405180910390fd5b600073ffffffffffffffffffffffffffffffffffffffff168373ffffffffffffffffffffffffffffffffffffffff161415610e5a576040517f08c379a0000000000000000000000000000000000000000000000000000000008152600401610e51906145c0565b60405180910390fd5b600160fd600084815260200190815260200160002060008573ffffffffffffffffffffffffffffffffffffffff1673ffffffffffffffffffffffffffffffffffffffff16815260200190815260200160002060006101000a81548160ff0219169083151502179055507f4864b3cb8ddce996e7c5f8ec0a006b69d432e6a5df2acff97f2a5ae75ff78f9783604051610ef29190613b0a565b60405180910390a1505050565b6000609760009054906101000a900460ff16905090565b6000806067600084815260200190815260200160002060009054906101000a900473ffffffffffffffffffffffffffffffffffffffff169050600073ffffffffffffffffffffffffffffffffffffffff168173ffffffffffffffffffffffffffffffffffffffff161415610fbf576040517f08c379a0000000000000000000000000000000000000000000000000000000008152600401610fb69061462c565b60405180910390fd5b80915050919050565b60008073ffffffffffffffffffffffffffffffffffffffff168273ffffffffffffffffffffffffffffffffffffffff161415611039576040517f08c379a0000000000000000000000000000000000000000000000000000000008152600401611030906146be565b60405180910390fd5b606860008373ffffffffffffffffffffffffffffffffffffffff1673ffffffffffffffffffffffffffffffffffffffff168152602001908152602001600020549050919050565b6101f481565b7f65d7a28e3265b37a6474929f336521b332c1681b933f6cb9f3376673440d862a6110b0816125b6565b6110b8612832565b50565b600060c9600084815260200190815260200160002060000160008373ffffffffffffffffffffffffffffffffffffffff1673ffffffffffffffffffffffffffffffffffffffff16815260200190815260200160002060009054906101000a900460ff16905092915050565b600073ffffffffffffffffffffffffffffffffffffffff1661114782610f16565b73ffffffffffffffffffffffffffffffffffffffff16141561119e576040517f08c379a000000000000000000000000000000000000000000000000000000000815260040161119590614750565b60405180910390fd5b6111a9816001612895565b6000600190507f34ef4ac64e0eac8a04fe2b95d0d037921287716ff3019d01b6712d2e9507509582826040516111e0929190614770565b60405180910390a15050565b6060606680546111fb90614242565b80601f016020809104026020016040519081016040528092919081815260200182805461122790614242565b80156112745780601f1061124957610100808354040283529160200191611274565b820191906000526020600020905b81548152906001019060200180831161125757829003601f168201915b5050505050905090565b6101016020528060005260406000206000915090505481565b6000801b81565b6112b06112a96121f9565b8383612a7b565b5050565b60ff60205281600052604060002081600581106112d057600080fd5b60020201600091509150508060000160009054906101000a900473ffffffffffffffffffffffffffffffffffffffff16908060010154905082565b61131c6113166121f9565b836122ba565b61135b576040517f08c379a00000000000000000000000000000000000000000000000000000000081526004016113529061440a565b60405180910390fd5b61136784848484612be8565b50505050565b60008060019054906101000a900460ff1615905080801561139e5750600160008054906101000a900460ff1660ff16105b806113cb57506113ad30612c44565b1580156113ca5750600160008054906101000a900460ff1660ff16145b5b61140a576040517f08c379a00000000000000000000000000000000000000000000000000000000081526004016114019061480b565b60405180910390fd5b60016000806101000a81548160ff021916908360ff1602179055508015611447576001600060016101000a81548160ff0219169083151502179055505b6114bb6040518060400160405280600881526020017f536f756c46756e640000000000000000000000000000000000000000000000008152506040518060400160405280600381526020017f534c460000000000000000000000000000000000000000000000000000000000815250612c67565b6114c3612cc4565b6114cb612d1d565b6114d86000801b336125ca565b6115027f65d7a28e3265b37a6474929f336521b332c1681b933f6cb9f3376673440d862a336125ca565b61152c7f2dee5dd865e09c7ce6788d674a03682994f0b44339403ca07ac129a9de4bed6a336125ca565b6115567fc8a41221bcd7fcf2c225f5a9265e1d4d39949d89197159d59e5f4b87b62c419e856125ca565b8260fc819055508161010260006101000a81548173ffffffffffffffffffffffffffffffffffffffff021916908373ffffffffffffffffffffffffffffffffffffffff16021790555080156115f85760008060016101000a81548160ff0219169083151502179055507f7f26b83ff96e1f2b6a682f133852f6798a09c465da95921460cefb384740249860016040516115ef919061487d565b60405180910390a15b50505050565b606061160982612d6e565b611648576040517f08c379a000000000000000000000000000000000000000000000000000000000815260040161163f906148e4565b60405180910390fd5b61010260009054906101000a900473ffffffffffffffffffffffffffffffffffffffff1673ffffffffffffffffffffffffffffffffffffffff1663611fc46930846040518363ffffffff1660e01b81526004016116a6929190613df4565b60006040518083038186803b1580156116be57600080fd5b505afa1580156116d2573d6000803e3d6000fd5b505050506040513d6000823e3d601f19601f820116820180604052508101906116fb91906149a5565b9050919050565b7fc8a41221bcd7fcf2c225f5a9265e1d4d39949d89197159d59e5f4b87b62c419e81565b60fe6020528160005260406000206020528060005260406000206000915091509054906101000a900460ff1681565b61175e82610ba9565b611767816125b6565b61177183836126ab565b505050565b7f2dee5dd865e09c7ce6788d674a03682994f0b44339403ca07ac129a9de4bed6a6117a0816125b6565b6000610100600086815260200190815260200160002060008573ffffffffffffffffffffffffffffffffffffffff1673ffffffffffffffffffffffffffffffffffffffff168152602001908152602001600020541015801561181657506005610101600086815260200190815260200160002054105b611855576040517f08c379a000000000000000000000000000000000000000000000000000000000815260040161184c90614a60565b60405180910390fd5b6000610100600086815260200190815260200160002060008573ffffffffffffffffffffffffffffffffffffffff1673ffffffffffffffffffffffffffffffffffffffff1681526020019081526020016000205490506000811415611a0857610101600086815260200190815260200160002060008154809291906118d990614aaf565b9190505550610101600086815260200190815260200160002054610100600087815260200190815260200160002060008673ffffffffffffffffffffffffffffffffffffffff1673ffffffffffffffffffffffffffffffffffffffff16815260200190815260200160002081905550610100600086815260200190815260200160002060008573ffffffffffffffffffffffffffffffffffffffff1673ffffffffffffffffffffffffffffffffffffffff1681526020019081526020016000205490508360ff600087815260200190815260200160002082600581106119c2576119c1614af8565b5b6002020160000160006101000a81548173ffffffffffffffffffffffffffffffffffffffff021916908373ffffffffffffffffffffffffffffffffffffffff1602179055505b600073ffffffffffffffffffffffffffffffffffffffff168473ffffffffffffffffffffffffffffffffffffffff161415611a8457823414611a7f576040517f08c379a0000000000000000000000000000000000000000000000000000000008152600401611a7690614b99565b60405180910390fd5b611b13565b8373ffffffffffffffffffffffffffffffffffffffff1663a9059cbb30856040518363ffffffff1660e01b8152600401611abf929190613df4565b602060405180830381600087803b158015611ad957600080fd5b505af1158015611aed573d6000803e3d6000fd5b505050506040513d601f19601f82011682018060405250810190611b119190614bce565b505b8260ff60008781526020019081526020016000208260058110611b3957611b38614af8565b5b600202016001016000828254611b4f9190614bfb565b925050819055507f03b9932ccfcbee04cee8cedad7802dbe5c786c57591e9a7cd4c8fea13b13be82858585611b8389610f16565b604051611b939493929190614c51565b60405180910390a15050505050565b60fc5481565b611bb06137dc565b60ff6000838152602001908152602001600020600580602002604051908101604052809291906000905b82821015611c62578382600202016040518060400160405290816000820160009054906101000a900473ffffffffffffffffffffffffffffffffffffffff1673ffffffffffffffffffffffffffffffffffffffff1673ffffffffffffffffffffffffffffffffffffffff16815260200160018201548152505081526020019060010190611bda565b505050509050919050565b7f65d7a28e3265b37a6474929f336521b332c1681b933f6cb9f3376673440d862a81565b6000606a60008473ffffffffffffffffffffffffffffffffffffffff1673ffffffffffffffffffffffffffffffffffffffff16815260200190815260200160002060008373ffffffffffffffffffffffffffffffffffffffff1673ffffffffffffffffffffffffffffffffffffffff16815260200190815260200160002060009054906101000a900460ff16905092915050565b7f2dee5dd865e09c7ce6788d674a03682994f0b44339403ca07ac129a9de4bed6a81565b60fd600083815260200190815260200160002060008473ffffffffffffffffffffffffffffffffffffffff1673ffffffffffffffffffffffffffffffffffffffff16815260200190815260200160002060009054906101000a900460ff16611de6576040517f08c379a0000000000000000000000000000000000000000000000000000000008152600401611ddd90614d08565b60405180910390fd5b6000611df183610f16565b90508073ffffffffffffffffffffffffffffffffffffffff168473ffffffffffffffffffffffffffffffffffffffff16636352211e846040518263ffffffff1660e01b8152600401611e439190613d2d565b60206040518083038186803b158015611e5b57600080fd5b505afa158015611e6f573d6000803e3d6000fd5b505050506040513d601f19601f82011682018060405250810190611e939190614d3d565b73ffffffffffffffffffffffffffffffffffffffff1614611ee9576040517f08c379a0000000000000000000000000000000000000000000000000000000008152600401611ee090614e02565b60405180910390fd5b600073ffffffffffffffffffffffffffffffffffffffff16611f0a84610f16565b73ffffffffffffffffffffffffffffffffffffffff161415611f61576040517f08c379a0000000000000000000000000000000000000000000000000000000008152600401611f5890614750565b60405180910390fd5b60fe600083815260200190815260200160002060008573ffffffffffffffffffffffffffffffffffffffff1673ffffffffffffffffffffffffffffffffffffffff16815260200190815260200160002060009054906101000a900460ff1615611fff576040517f08c379a0000000000000000000000000000000000000000000000000000000008152600401611ff690614e94565b60405180910390fd5b61200b836101f4612895565b600060019050600160fe600085815260200190815260200160002060008773ffffffffffffffffffffffffffffffffffffffff1673ffffffffffffffffffffffffffffffffffffffff16815260200190815260200160002060006101000a81548160ff0219169083151502179055508173ffffffffffffffffffffffffffffffffffffffff166108fc829081150290604051600060405180830381858888f193505050501580156120c0573d6000803e3d6000fd5b507f1063fb17e9a9b2ee9e38c97a5ded9fa5840d8f7023bebf0b0e0489f2e1344bbb848287866040516120f69493929190614eb4565b60405180910390a15050505050565b60fd6020528160005260406000206020528060005260406000206000915091509054906101000a900460ff1681565b60007f7965db0b000000000000000000000000000000000000000000000000000000007bffffffffffffffffffffffffffffffffffffffffffffffffffffffff1916827bffffffffffffffffffffffffffffffffffffffffffffffffffffffff191614806121a757506121a682612dda565b5b9050919050565b6121b781612d6e565b6121f6576040517f08c379a00000000000000000000000000000000000000000000000000000000081526004016121ed9061462c565b60405180910390fd5b50565b600033905090565b816069600083815260200190815260200160002060006101000a81548173ffffffffffffffffffffffffffffffffffffffff021916908373ffffffffffffffffffffffffffffffffffffffff160217905550808273ffffffffffffffffffffffffffffffffffffffff1661227483610f16565b73ffffffffffffffffffffffffffffffffffffffff167f8c5be1e5ebec7d5bd14f71427d1e84f3dd0314c0f7b2291e5b200ac8c7c3b92560405160405180910390a45050565b6000806122c683610f16565b90508073ffffffffffffffffffffffffffffffffffffffff168473ffffffffffffffffffffffffffffffffffffffff16148061230857506123078185611c91565b5b8061234657508373ffffffffffffffffffffffffffffffffffffffff1661232e846109eb565b73ffffffffffffffffffffffffffffffffffffffff16145b91505092915050565b8273ffffffffffffffffffffffffffffffffffffffff1661236f82610f16565b73ffffffffffffffffffffffffffffffffffffffff16146123c5576040517f08c379a00000000000000000000000000000000000000000000000000000000081526004016123bc90614f6b565b60405180910390fd5b600073ffffffffffffffffffffffffffffffffffffffff168273ffffffffffffffffffffffffffffffffffffffff161415612435576040517f08c379a000000000000000000000000000000000000000000000000000000000815260040161242c90614ffd565b60405180910390fd5b612440838383612ebc565b61244b600082612201565b6001606860008573ffffffffffffffffffffffffffffffffffffffff1673ffffffffffffffffffffffffffffffffffffffff168152602001908152602001600020600082825461249b919061501d565b925050819055506001606860008473ffffffffffffffffffffffffffffffffffffffff1673ffffffffffffffffffffffffffffffffffffffff16815260200190815260200160002060008282546124f29190614bfb565b92505081905550816067600083815260200190815260200160002060006101000a81548173ffffffffffffffffffffffffffffffffffffffff021916908373ffffffffffffffffffffffffffffffffffffffff160217905550808273ffffffffffffffffffffffffffffffffffffffff168473ffffffffffffffffffffffffffffffffffffffff167fddf252ad1be2c89b69c2b068fc378daa952ba7f163c4a11628f55a4df523b3ef60405160405180910390a46125b1838383612f43565b505050565b6125c7816125c26121f9565b612f48565b50565b6125d482826110bb565b6126a757600160c9600084815260200190815260200160002060000160008373ffffffffffffffffffffffffffffffffffffffff1673ffffffffffffffffffffffffffffffffffffffff16815260200190815260200160002060006101000a81548160ff02191690831515021790555061264c6121f9565b73ffffffffffffffffffffffffffffffffffffffff168173ffffffffffffffffffffffffffffffffffffffff16837f2f8788117e7eff1d82e926ec794901d17c78024a50270940304540a733656f0d60405160405180910390a45b5050565b6126b582826110bb565b1561278957600060c9600084815260200190815260200160002060000160008373ffffffffffffffffffffffffffffffffffffffff1673ffffffffffffffffffffffffffffffffffffffff16815260200190815260200160002060006101000a81548160ff02191690831515021790555061272e6121f9565b73ffffffffffffffffffffffffffffffffffffffff168173ffffffffffffffffffffffffffffffffffffffff16837ff6391f5c32d9c69d2a47ea670b442974b53935d1edc7fd64eb21e047a839171b60405160405180910390a45b5050565b612795612fe5565b6000609760006101000a81548160ff0219169083151502179055507f5db9ee0a495bf2e6ff9c91a7834c1ba4fdd244a5e8aa4e537bd38aeae4b073aa6127d96121f9565b6040516127e69190613b0a565b60405180910390a1565b600081600001549050919050565b6001816000016000828254019250508190555050565b61282e82826040518060200160405280600081525061302e565b5050565b61283a613089565b6001609760006101000a81548160ff0219169083151502179055507f62e78cea01bee320cd4e420270b5ea74000d11b0c9f74754ebdbfc544b05a25861287e6121f9565b60405161288b9190613b0a565b60405180910390a1565b60005b610101600084815260200190815260200160002054811015612a7657600060ff600085815260200190815260200160002082600581106128db576128da614af8565b5b6002020160000160009054906101000a900473ffffffffffffffffffffffffffffffffffffffff16905060008360ff6000878152602001908152602001600020846005811061292d5761292c614af8565b5b600202016001015461293f9190615080565b9050600073ffffffffffffffffffffffffffffffffffffffff168273ffffffffffffffffffffffffffffffffffffffff1614156129ca5761297f85610f16565b73ffffffffffffffffffffffffffffffffffffffff166108fc829081150290604051600060405180830381858888f193505050501580156129c4573d6000803e3d6000fd5b50612a61565b8173ffffffffffffffffffffffffffffffffffffffff1663a9059cbb6129ef87610f16565b836040518363ffffffff1660e01b8152600401612a0d929190613df4565b602060405180830381600087803b158015612a2757600080fd5b505af1158015612a3b573d6000803e3d6000fd5b505050506040513d601f19601f82011682018060405250810190612a5f9190614bce565b505b50508080612a6e90614aaf565b915050612898565b505050565b8173ffffffffffffffffffffffffffffffffffffffff168373ffffffffffffffffffffffffffffffffffffffff161415612aea576040517f08c379a0000000000000000000000000000000000000000000000000000000008152600401612ae1906150fd565b60405180910390fd5b80606a60008573ffffffffffffffffffffffffffffffffffffffff1673ffffffffffffffffffffffffffffffffffffffff16815260200190815260200160002060008473ffffffffffffffffffffffffffffffffffffffff1673ffffffffffffffffffffffffffffffffffffffff16815260200190815260200160002060006101000a81548160ff0219169083151502179055508173ffffffffffffffffffffffffffffffffffffffff168373ffffffffffffffffffffffffffffffffffffffff167f17307eab39ab6107e8899845ad3d59bd9653f200f220920489ca2b5937696c3183604051612bdb9190613990565b60405180910390a3505050565b612bf384848461234f565b612bff848484846130d3565b612c3e576040517f08c379a0000000000000000000000000000000000000000000000000000000008152600401612c359061518f565b60405180910390fd5b50505050565b6000808273ffffffffffffffffffffffffffffffffffffffff163b119050919050565b600060019054906101000a900460ff16612cb6576040517f08c379a0000000000000000000000000000000000000000000000000000000008152600401612cad90615221565b60405180910390fd5b612cc0828261326a565b5050565b600060019054906101000a900460ff16612d13576040517f08c379a0000000000000000000000000000000000000000000000000000000008152600401612d0a90615221565b60405180910390fd5b612d1b6132eb565b565b600060019054906101000a900460ff16612d6c576040517f08c379a0000000000000000000000000000000000000000000000000000000008152600401612d6390615221565b60405180910390fd5b565b60008073ffffffffffffffffffffffffffffffffffffffff166067600084815260200190815260200160002060009054906101000a900473ffffffffffffffffffffffffffffffffffffffff1673ffffffffffffffffffffffffffffffffffffffff1614159050919050565b60007f80ac58cd000000000000000000000000000000000000000000000000000000007bffffffffffffffffffffffffffffffffffffffffffffffffffffffff1916827bffffffffffffffffffffffffffffffffffffffffffffffffffffffff19161480612ea557507f5b5e139f000000000000000000000000000000000000000000000000000000007bffffffffffffffffffffffffffffffffffffffffffffffffffffffff1916827bffffffffffffffffffffffffffffffffffffffffffffffffffffffff1916145b80612eb55750612eb482613357565b5b9050919050565b612ec4613089565b600073ffffffffffffffffffffffffffffffffffffffff168373ffffffffffffffffffffffffffffffffffffffff1614612f33576040517f08c379a0000000000000000000000000000000000000000000000000000000008152600401612f2a906152b3565b60405180910390fd5b612f3e8383836133c1565b505050565b505050565b612f5282826110bb565b612fe157612f778173ffffffffffffffffffffffffffffffffffffffff1660146133c6565b612f858360001c60206133c6565b604051602001612f969291906153a7565b6040516020818303038152906040526040517f08c379a0000000000000000000000000000000000000000000000000000000008152600401612fd89190613a44565b60405180910390fd5b5050565b612fed610eff565b61302c576040517f08c379a00000000000000000000000000000000000000000000000000000000081526004016130239061542d565b60405180910390fd5b565b6130388383613602565b61304560008484846130d3565b613084576040517f08c379a000000000000000000000000000000000000000000000000000000000815260040161307b9061518f565b60405180910390fd5b505050565b613091610eff565b156130d1576040517f08c379a00000000000000000000000000000000000000000000000000000000081526004016130c890615499565b60405180910390fd5b565b60006130f48473ffffffffffffffffffffffffffffffffffffffff16612c44565b1561325d578373ffffffffffffffffffffffffffffffffffffffff1663150b7a0261311d6121f9565b8786866040518563ffffffff1660e01b815260040161313f949392919061550e565b602060405180830381600087803b15801561315957600080fd5b505af192505050801561318a57506040513d601f19601f82011682018060405250810190613187919061556f565b60015b61320d573d80600081146131ba576040519150601f19603f3d011682016040523d82523d6000602084013e6131bf565b606091505b50600081511415613205576040517f08c379a00000000000000000000000000000000000000000000000000000000081526004016131fc9061518f565b60405180910390fd5b805181602001fd5b63150b7a0260e01b7bffffffffffffffffffffffffffffffffffffffffffffffffffffffff1916817bffffffffffffffffffffffffffffffffffffffffffffffffffffffff191614915050613262565b600190505b949350505050565b600060019054906101000a900460ff166132b9576040517f08c379a00000000000000000000000000000000000000000000000000000000081526004016132b090615221565b60405180910390fd5b81606590805190602001906132cf929190613809565b5080606690805190602001906132e6929190613809565b505050565b600060019054906101000a900460ff1661333a576040517f08c379a000000000000000000000000000000000000000000000000000000000815260040161333190615221565b60405180910390fd5b6000609760006101000a81548160ff021916908315150217905550565b60007f01ffc9a7000000000000000000000000000000000000000000000000000000007bffffffffffffffffffffffffffffffffffffffffffffffffffffffff1916827bffffffffffffffffffffffffffffffffffffffffffffffffffffffff1916149050919050565b505050565b6060600060028360026133d9919061559c565b6133e39190614bfb565b67ffffffffffffffff8111156133fc576133fb613e27565b5b6040519080825280601f01601f19166020018201604052801561342e5781602001600182028036833780820191505090505b5090507f30000000000000000000000000000000000000000000000000000000000000008160008151811061346657613465614af8565b5b60200101907effffffffffffffffffffffffffffffffffffffffffffffffffffffffffffff1916908160001a9053507f7800000000000000000000000000000000000000000000000000000000000000816001815181106134ca576134c9614af8565b5b60200101907effffffffffffffffffffffffffffffffffffffffffffffffffffffffffffff1916908160001a9053506000600184600261350a919061559c565b6135149190614bfb565b90505b60018111156135b4577f3031323334353637383961626364656600000000000000000000000000000000600f86166010811061355657613555614af8565b5b1a60f81b82828151811061356d5761356c614af8565b5b60200101907effffffffffffffffffffffffffffffffffffffffffffffffffffffffffffff1916908160001a905350600485901c9450806135ad906155f6565b9050613517565b50600084146135f8576040517f08c379a00000000000000000000000000000000000000000000000000000000081526004016135ef9061566c565b60405180910390fd5b8091505092915050565b600073ffffffffffffffffffffffffffffffffffffffff168273ffffffffffffffffffffffffffffffffffffffff161415613672576040517f08c379a0000000000000000000000000000000000000000000000000000000008152600401613669906156d8565b60405180910390fd5b61367b81612d6e565b156136bb576040517f08c379a00000000000000000000000000000000000000000000000000000000081526004016136b290615744565b60405180910390fd5b6136c760008383612ebc565b6001606860008473ffffffffffffffffffffffffffffffffffffffff1673ffffffffffffffffffffffffffffffffffffffff16815260200190815260200160002060008282546137179190614bfb565b92505081905550816067600083815260200190815260200160002060006101000a81548173ffffffffffffffffffffffffffffffffffffffff021916908373ffffffffffffffffffffffffffffffffffffffff160217905550808273ffffffffffffffffffffffffffffffffffffffff16600073ffffffffffffffffffffffffffffffffffffffff167fddf252ad1be2c89b69c2b068fc378daa952ba7f163c4a11628f55a4df523b3ef60405160405180910390a46137d860008383612f43565b5050565b6040518060a001604052806005905b6137f361388f565b8152602001906001900390816137eb5790505090565b82805461381590614242565b90600052602060002090601f016020900481019282613837576000855561387e565b82601f1061385057805160ff191683800117855561387e565b8280016001018555821561387e579182015b8281111561387d578251825591602001919060010190613862565b5b50905061388b91906138bf565b5090565b6040518060400160405280600073ffffffffffffffffffffffffffffffffffffffff168152602001600081525090565b5b808211156138d85760008160009055506001016138c0565b5090565b6000604051905090565b600080fd5b600080fd5b60007fffffffff0000000000000000000000000000000000000000000000000000000082169050919050565b613925816138f0565b811461393057600080fd5b50565b6000813590506139428161391c565b92915050565b60006020828403121561395e5761395d6138e6565b5b600061396c84828501613933565b91505092915050565b60008115159050919050565b61398a81613975565b82525050565b60006020820190506139a56000830184613981565b92915050565b600081519050919050565b600082825260208201905092915050565b60005b838110156139e55780820151818401526020810190506139ca565b838111156139f4576000848401525b50505050565b6000601f19601f8301169050919050565b6000613a16826139ab565b613a2081856139b6565b9350613a308185602086016139c7565b613a39816139fa565b840191505092915050565b60006020820190508181036000830152613a5e8184613a0b565b905092915050565b6000819050919050565b613a7981613a66565b8114613a8457600080fd5b50565b600081359050613a9681613a70565b92915050565b600060208284031215613ab257613ab16138e6565b5b6000613ac084828501613a87565b91505092915050565b600073ffffffffffffffffffffffffffffffffffffffff82169050919050565b6000613af482613ac9565b9050919050565b613b0481613ae9565b82525050565b6000602082019050613b1f6000830184613afb565b92915050565b613b2e81613ae9565b8114613b3957600080fd5b50565b600081359050613b4b81613b25565b92915050565b60008060408385031215613b6857613b676138e6565b5b6000613b7685828601613b3c565b9250506020613b8785828601613a87565b9150509250929050565b600080600060608486031215613baa57613ba96138e6565b5b6000613bb886828701613b3c565b9350506020613bc986828701613b3c565b9250506040613bda86828701613a87565b9150509250925092565b6000819050919050565b613bf781613be4565b8114613c0257600080fd5b50565b600081359050613c1481613bee565b92915050565b600060208284031215613c3057613c2f6138e6565b5b6000613c3e84828501613c05565b91505092915050565b613c5081613be4565b82525050565b6000602082019050613c6b6000830184613c47565b92915050565b60008060408385031215613c8857613c876138e6565b5b6000613c9685828601613c05565b9250506020613ca785828601613b3c565b9150509250929050565b600060208284031215613cc757613cc66138e6565b5b6000613cd584828501613b3c565b91505092915050565b60008060408385031215613cf557613cf46138e6565b5b6000613d0385828601613a87565b9250506020613d1485828601613b3c565b9150509250929050565b613d2781613a66565b82525050565b6000602082019050613d426000830184613d1e565b92915050565b613d5181613975565b8114613d5c57600080fd5b50565b600081359050613d6e81613d48565b92915050565b60008060408385031215613d8b57613d8a6138e6565b5b6000613d9985828601613b3c565b9250506020613daa85828601613d5f565b9150509250929050565b60008060408385031215613dcb57613dca6138e6565b5b6000613dd985828601613a87565b9250506020613dea85828601613a87565b9150509250929050565b6000604082019050613e096000830185613afb565b613e166020830184613d1e565b9392505050565b600080fd5b600080fd5b7f4e487b7100000000000000000000000000000000000000000000000000000000600052604160045260246000fd5b613e5f826139fa565b810181811067ffffffffffffffff82111715613e7e57613e7d613e27565b5b80604052505050565b6000613e916138dc565b9050613e9d8282613e56565b919050565b600067ffffffffffffffff821115613ebd57613ebc613e27565b5b613ec6826139fa565b9050602081019050919050565b82818337600083830152505050565b6000613ef5613ef084613ea2565b613e87565b905082815260208101848484011115613f1157613f10613e22565b5b613f1c848285613ed3565b509392505050565b600082601f830112613f3957613f38613e1d565b5b8135613f49848260208601613ee2565b91505092915050565b60008060008060808587031215613f6c57613f6b6138e6565b5b6000613f7a87828801613b3c565b9450506020613f8b87828801613b3c565b9350506040613f9c87828801613a87565b925050606085013567ffffffffffffffff811115613fbd57613fbc6138eb565b5b613fc987828801613f24565b91505092959194509250565b600080600060608486031215613fee57613fed6138e6565b5b6000613ffc86828701613b3c565b935050602061400d86828701613a87565b925050604061401e86828701613b3c565b9150509250925092565b600080600060608486031215614041576140406138e6565b5b600061404f86828701613a87565b935050602061406086828701613b3c565b925050604061407186828701613a87565b9150509250925092565b600060059050919050565b600081905092915050565b6000819050919050565b6140a481613ae9565b82525050565b6140b381613a66565b82525050565b6040820160008201516140cf600085018261409b565b5060208201516140e260208501826140aa565b50505050565b60006140f483836140b9565b60408301905092915050565b6000602082019050919050565b6141168161407b565b6141208184614086565b925061412b82614091565b8060005b8381101561415c57815161414387826140e8565b965061414e83614100565b92505060018101905061412f565b505050505050565b60006101408201905061417a600083018461410d565b92915050565b60008060408385031215614197576141966138e6565b5b60006141a585828601613b3c565b92505060206141b685828601613b3c565b9150509250929050565b6000806000606084860312156141d9576141d86138e6565b5b60006141e786828701613b3c565b93505060206141f886828701613a87565b925050604061420986828701613a87565b9150509250925092565b7f4e487b7100000000000000000000000000000000000000000000000000000000600052602260045260246000fd5b6000600282049050600182168061425a57607f821691505b6020821081141561426e5761426d614213565b5b50919050565b7f4552433732313a20617070726f76616c20746f2063757272656e74206f776e6560008201527f7200000000000000000000000000000000000000000000000000000000000000602082015250565b60006142d06021836139b6565b91506142db82614274565b604082019050919050565b600060208201905081810360008301526142ff816142c3565b9050919050565b7f4552433732313a20617070726f76652063616c6c6572206973206e6f7420746f60008201527f6b656e206f776e6572206e6f7220617070726f76656420666f7220616c6c0000602082015250565b6000614362603e836139b6565b915061436d82614306565b604082019050919050565b6000602082019050818103600083015261439181614355565b9050919050565b7f4552433732313a2063616c6c6572206973206e6f7420746f6b656e206f776e6560008201527f72206e6f7220617070726f766564000000000000000000000000000000000000602082015250565b60006143f4602e836139b6565b91506143ff82614398565b604082019050919050565b60006020820190508181036000830152614423816143e7565b9050919050565b7f416363657373436f6e74726f6c3a2063616e206f6e6c792072656e6f756e636560008201527f20726f6c657320666f722073656c660000000000000000000000000000000000602082015250565b6000614486602f836139b6565b91506144918261442a565b604082019050919050565b600060208201905081810360008301526144b581614479565b9050919050565b7f536f756c46756e642e77686974656c6973744e66743a2061646472657373206160008201527f6c72656164792061646465640000000000000000000000000000000000000000602082015250565b6000614518602c836139b6565b9150614523826144bc565b604082019050919050565b600060208201905081810360008301526145478161450b565b9050919050565b7f536f756c46756e642e77686974656c6973744e66743a2063616e6e6f7420616460008201527f6420302061646472657373000000000000000000000000000000000000000000602082015250565b60006145aa602b836139b6565b91506145b58261454e565b604082019050919050565b600060208201905081810360008301526145d98161459d565b9050919050565b7f4552433732313a20696e76616c696420746f6b656e2049440000000000000000600082015250565b60006146166018836139b6565b9150614621826145e0565b602082019050919050565b6000602082019050818103600083015261464581614609565b9050919050565b7f4552433732313a2061646472657373207a65726f206973206e6f74206120766160008201527f6c6964206f776e65720000000000000000000000000000000000000000000000602082015250565b60006146a86029836139b6565b91506146b38261464c565b604082019050919050565b600060208201905081810360008301526146d78161469b565b9050919050565b7f536f756c46756e642e636c61696d46756e64734561726c793a2066756e64206460008201527f6f6573206e6f7420657869737400000000000000000000000000000000000000602082015250565b600061473a602d836139b6565b9150614745826146de565b604082019050919050565b600060208201905081810360008301526147698161472d565b9050919050565b60006040820190506147856000830185613d1e565b6147926020830184613d1e565b9392505050565b7f496e697469616c697a61626c653a20636f6e747261637420697320616c72656160008201527f647920696e697469616c697a6564000000000000000000000000000000000000602082015250565b60006147f5602e836139b6565b915061480082614799565b604082019050919050565b60006020820190508181036000830152614824816147e8565b9050919050565b6000819050919050565b600060ff82169050919050565b6000819050919050565b600061486761486261485d8461482b565b614842565b614835565b9050919050565b6148778161484c565b82525050565b6000602082019050614892600083018461486e565b92915050565b7f546f6b656e20646f6573206e6f74206578697374000000000000000000000000600082015250565b60006148ce6014836139b6565b91506148d982614898565b602082019050919050565b600060208201905081810360008301526148fd816148c1565b9050919050565b600067ffffffffffffffff82111561491f5761491e613e27565b5b614928826139fa565b9050602081019050919050565b600061494861494384614904565b613e87565b90508281526020810184848401111561496457614963613e22565b5b61496f8482856139c7565b509392505050565b600082601f83011261498c5761498b613e1d565b5b815161499c848260208601614935565b91505092915050565b6000602082840312156149bb576149ba6138e6565b5b600082015167ffffffffffffffff8111156149d9576149d86138eb565b5b6149e584828501614977565b91505092915050565b7f536f756c46756e642e6465706f73697446756e643a206d61782063757272656e60008201527f6379207479706520726561636865642e00000000000000000000000000000000602082015250565b6000614a4a6030836139b6565b9150614a55826149ee565b604082019050919050565b60006020820190508181036000830152614a7981614a3d565b9050919050565b7f4e487b7100000000000000000000000000000000000000000000000000000000600052601160045260246000fd5b6000614aba82613a66565b91507fffffffffffffffffffffffffffffffffffffffffffffffffffffffffffffffff821415614aed57614aec614a80565b5b600182019050919050565b7f4e487b7100000000000000000000000000000000000000000000000000000000600052603260045260246000fd5b7f536f756c46756e642e6465706f73697446756e643a20616d6f756e74206d697360008201527f6d617463682e0000000000000000000000000000000000000000000000000000602082015250565b6000614b836026836139b6565b9150614b8e82614b27565b604082019050919050565b60006020820190508181036000830152614bb281614b76565b9050919050565b600081519050614bc881613d48565b92915050565b600060208284031215614be457614be36138e6565b5b6000614bf284828501614bb9565b91505092915050565b6000614c0682613a66565b9150614c1183613a66565b9250827fffffffffffffffffffffffffffffffffffffffffffffffffffffffffffffffff03821115614c4657614c45614a80565b5b828201905092915050565b6000608082019050614c666000830187613d1e565b614c736020830186613afb565b614c806040830185613d1e565b614c8d6060830184613afb565b95945050505050565b7f536f756c46756e642e636c61696d46756e64734561726c793a204e4654206e6f60008201527f742077686974656c697374656400000000000000000000000000000000000000602082015250565b6000614cf2602d836139b6565b9150614cfd82614c96565b604082019050919050565b60006020820190508181036000830152614d2181614ce5565b9050919050565b600081519050614d3781613b25565b92915050565b600060208284031215614d5357614d526138e6565b5b6000614d6184828501614d28565b91505092915050565b7f536f756c46756e642e636c61696d46756e64734561726c793a2062656e65666960008201527f636961727920646f6573206e6f74206f776e206e66742072657175697265642060208201527f746f20636c61696d2066756e6473000000000000000000000000000000000000604082015250565b6000614dec604e836139b6565b9150614df782614d6a565b606082019050919050565b60006020820190508181036000830152614e1b81614ddf565b9050919050565b7f536f756c46756e642e636c61696d46756e64734561726c793a20436c61696d2060008201527f746f6b656e204e46542068617320616c7265616479206265656e207370656e74602082015250565b6000614e7e6040836139b6565b9150614e8982614e22565b604082019050919050565b60006020820190508181036000830152614ead81614e71565b9050919050565b6000608082019050614ec96000830187613d1e565b614ed66020830186613d1e565b614ee36040830185613afb565b614ef06060830184613d1e565b95945050505050565b7f4552433732313a207472616e736665722066726f6d20696e636f72726563742060008201527f6f776e6572000000000000000000000000000000000000000000000000000000602082015250565b6000614f556025836139b6565b9150614f6082614ef9565b604082019050919050565b60006020820190508181036000830152614f8481614f48565b9050919050565b7f4552433732313a207472616e7366657220746f20746865207a65726f2061646460008201527f7265737300000000000000000000000000000000000000000000000000000000602082015250565b6000614fe76024836139b6565b9150614ff282614f8b565b604082019050919050565b6000602082019050818103600083015261501681614fda565b9050919050565b600061502882613a66565b915061503383613a66565b92508282101561504657615045614a80565b5b828203905092915050565b7f4e487b7100000000000000000000000000000000000000000000000000000000600052601260045260246000fd5b600061508b82613a66565b915061509683613a66565b9250826150a6576150a5615051565b5b828204905092915050565b7f4552433732313a20617070726f766520746f2063616c6c657200000000000000600082015250565b60006150e76019836139b6565b91506150f2826150b1565b602082019050919050565b60006020820190508181036000830152615116816150da565b9050919050565b7f4552433732313a207472616e7366657220746f206e6f6e20455243373231526560008201527f63656976657220696d706c656d656e7465720000000000000000000000000000602082015250565b60006151796032836139b6565b91506151848261511d565b604082019050919050565b600060208201905081810360008301526151a88161516c565b9050919050565b7f496e697469616c697a61626c653a20636f6e7472616374206973206e6f74206960008201527f6e697469616c697a696e67000000000000000000000000000000000000000000602082015250565b600061520b602b836139b6565b9150615216826151af565b604082019050919050565b6000602082019050818103600083015261523a816151fe565b9050919050565b7f536f756c46756e643a20736f756c20626f756e6420746f6b656e2063616e6e6f60008201527f74206265207472616e7366657272656400000000000000000000000000000000602082015250565b600061529d6030836139b6565b91506152a882615241565b604082019050919050565b600060208201905081810360008301526152cc81615290565b9050919050565b600081905092915050565b7f416363657373436f6e74726f6c3a206163636f756e7420000000000000000000600082015250565b60006153146017836152d3565b915061531f826152de565b601782019050919050565b6000615335826139ab565b61533f81856152d3565b935061534f8185602086016139c7565b80840191505092915050565b7f206973206d697373696e6720726f6c6520000000000000000000000000000000600082015250565b60006153916011836152d3565b915061539c8261535b565b601182019050919050565b60006153b282615307565b91506153be828561532a565b91506153c982615384565b91506153d5828461532a565b91508190509392505050565b7f5061757361626c653a206e6f7420706175736564000000000000000000000000600082015250565b60006154176014836139b6565b9150615422826153e1565b602082019050919050565b600060208201905081810360008301526154468161540a565b9050919050565b7f5061757361626c653a2070617573656400000000000000000000000000000000600082015250565b60006154836010836139b6565b915061548e8261544d565b602082019050919050565b600060208201905081810360008301526154b281615476565b9050919050565b600081519050919050565b600082825260208201905092915050565b60006154e0826154b9565b6154ea81856154c4565b93506154fa8185602086016139c7565b615503816139fa565b840191505092915050565b60006080820190506155236000830187613afb565b6155306020830186613afb565b61553d6040830185613d1e565b818103606083015261554f81846154d5565b905095945050505050565b6000815190506155698161391c565b92915050565b600060208284031215615585576155846138e6565b5b60006155938482850161555a565b91505092915050565b60006155a782613a66565b91506155b283613a66565b9250817fffffffffffffffffffffffffffffffffffffffffffffffffffffffffffffffff04831182151516156155eb576155ea614a80565b5b828202905092915050565b600061560182613a66565b9150600082141561561557615614614a80565b5b600182039050919050565b7f537472696e67733a20686578206c656e67746820696e73756666696369656e74600082015250565b60006156566020836139b6565b915061566182615620565b602082019050919050565b6000602082019050818103600083015261568581615649565b9050919050565b7f4552433732313a206d696e7420746f20746865207a65726f2061646472657373600082015250565b60006156c26020836139b6565b91506156cd8261568c565b602082019050919050565b600060208201905081810360008301526156f1816156b5565b9050919050565b7f4552433732313a20746f6b656e20616c7265616479206d696e74656400000000600082015250565b600061572e601c836139b6565b9150615739826156f8565b602082019050919050565b6000602082019050818103600083015261575d81615721565b905091905056fea26469706673582212201dfeba31f3c0e9601e31c1ab82a24c5401c7ec9b754c1f37d533514cc4c022dc64736f6c63430008090033",
  "linkReferences": {},
  "deployedLinkReferences": {}
}