{
  "_format": "hh-sol-artifact-1",
  "contractName": "SoulFund",
  "sourceName": "contracts/SoulFund.sol",
  "abi": [
    {
      "inputs": [],
      "stateMutability": "payable",
      "type": "constructor"
    },
    {
      "anonymous": false,
      "inputs": [
        {
          "indexed": true,
          "internalType": "address",
          "name": "owner",
          "type": "address"
        },
        {
          "indexed": true,
          "internalType": "address",
          "name": "approved",
          "type": "address"
        },
        {
          "indexed": true,
          "internalType": "uint256",
          "name": "tokenId",
          "type": "uint256"
        }
      ],
      "name": "Approval",
      "type": "event"
    },
    {
      "anonymous": false,
      "inputs": [
        {
          "indexed": true,
          "internalType": "address",
          "name": "owner",
          "type": "address"
        },
        {
          "indexed": true,
          "internalType": "address",
          "name": "operator",
          "type": "address"
        },
        {
          "indexed": false,
          "internalType": "bool",
          "name": "approved",
          "type": "bool"
        }
      ],
      "name": "ApprovalForAll",
      "type": "event"
    },
    {
      "anonymous": false,
      "inputs": [
        {
          "indexed": false,
          "internalType": "uint8",
          "name": "version",
          "type": "uint8"
        }
      ],
      "name": "Initialized",
      "type": "event"
    },
    {
      "anonymous": false,
      "inputs": [
        {
          "indexed": false,
          "internalType": "address",
          "name": "newNftAddress",
          "type": "address"
        }
      ],
      "name": "NewWhitelistedNFT",
      "type": "event"
    },
    {
      "anonymous": false,
      "inputs": [
        {
          "indexed": false,
          "internalType": "address",
          "name": "account",
          "type": "address"
        }
      ],
      "name": "Paused",
      "type": "event"
    },
    {
      "anonymous": false,
      "inputs": [
        {
          "indexed": true,
          "internalType": "bytes32",
          "name": "role",
          "type": "bytes32"
        },
        {
          "indexed": true,
          "internalType": "bytes32",
          "name": "previousAdminRole",
          "type": "bytes32"
        },
        {
          "indexed": true,
          "internalType": "bytes32",
          "name": "newAdminRole",
          "type": "bytes32"
        }
      ],
      "name": "RoleAdminChanged",
      "type": "event"
    },
    {
      "anonymous": false,
      "inputs": [
        {
          "indexed": true,
          "internalType": "bytes32",
          "name": "role",
          "type": "bytes32"
        },
        {
          "indexed": true,
          "internalType": "address",
          "name": "account",
          "type": "address"
        },
        {
          "indexed": true,
          "internalType": "address",
          "name": "sender",
          "type": "address"
        }
      ],
      "name": "RoleGranted",
      "type": "event"
    },
    {
      "anonymous": false,
      "inputs": [
        {
          "indexed": true,
          "internalType": "bytes32",
          "name": "role",
          "type": "bytes32"
        },
        {
          "indexed": true,
          "internalType": "address",
          "name": "account",
          "type": "address"
        },
        {
          "indexed": true,
          "internalType": "address",
          "name": "sender",
          "type": "address"
        }
      ],
      "name": "RoleRevoked",
      "type": "event"
    },
    {
      "anonymous": false,
      "inputs": [
        {
          "indexed": true,
          "internalType": "address",
          "name": "from",
          "type": "address"
        },
        {
          "indexed": true,
          "internalType": "address",
          "name": "to",
          "type": "address"
        },
        {
          "indexed": true,
          "internalType": "uint256",
          "name": "tokenId",
          "type": "uint256"
        }
      ],
      "name": "Transfer",
      "type": "event"
    },
    {
      "anonymous": false,
      "inputs": [
        {
          "indexed": false,
          "internalType": "address",
          "name": "account",
          "type": "address"
        }
      ],
      "name": "Unpaused",
      "type": "event"
    },
    {
      "anonymous": false,
      "inputs": [
        {
          "indexed": false,
          "internalType": "uint256",
          "name": "tokenId",
          "type": "uint256"
        },
        {
          "indexed": false,
          "internalType": "uint256",
          "name": "vestedAmount",
          "type": "uint256"
        }
      ],
      "name": "VestedFundClaimedEarly",
      "type": "event"
    },
    {
      "inputs": [],
      "name": "BENEFICIARY_ROLE",
      "outputs": [
        {
          "internalType": "bytes32",
          "name": "",
          "type": "bytes32"
        }
      ],
      "stateMutability": "view",
      "type": "function"
    },
    {
      "inputs": [],
      "name": "DEFAULT_ADMIN_ROLE",
      "outputs": [
        {
          "internalType": "bytes32",
          "name": "",
          "type": "bytes32"
        }
      ],
      "stateMutability": "view",
      "type": "function"
    },
    {
      "inputs": [],
      "name": "FIVE_PERCENT",
      "outputs": [
        {
          "internalType": "uint256",
          "name": "",
          "type": "uint256"
        }
      ],
      "stateMutability": "view",
      "type": "function"
    },
    {
      "inputs": [],
      "name": "GRANTER_ROLE",
      "outputs": [
        {
          "internalType": "bytes32",
          "name": "",
          "type": "bytes32"
        }
      ],
      "stateMutability": "view",
      "type": "function"
    },
    {
      "inputs": [],
      "name": "PAUSER_ROLE",
      "outputs": [
        {
          "internalType": "bytes32",
          "name": "",
          "type": "bytes32"
        }
      ],
      "stateMutability": "view",
      "type": "function"
    },
    {
      "inputs": [],
      "name": "addBeneficiary",
      "outputs": [],
      "stateMutability": "nonpayable",
      "type": "function"
    },
    {
      "inputs": [
        {
          "internalType": "address",
          "name": "to",
          "type": "address"
        },
        {
          "internalType": "uint256",
          "name": "tokenId",
          "type": "uint256"
        }
      ],
      "name": "approve",
      "outputs": [],
      "stateMutability": "nonpayable",
      "type": "function"
    },
    {
      "inputs": [
        {
          "internalType": "address",
          "name": "owner",
          "type": "address"
        }
      ],
      "name": "balanceOf",
      "outputs": [
        {
          "internalType": "uint256",
          "name": "",
          "type": "uint256"
        }
      ],
      "stateMutability": "view",
      "type": "function"
    },
    {
      "inputs": [
        {
          "internalType": "address",
          "name": "",
          "type": "address"
        }
      ],
      "name": "balances",
      "outputs": [
        {
          "internalType": "uint256",
          "name": "",
          "type": "uint256"
        }
      ],
      "stateMutability": "view",
      "type": "function"
    },
    {
      "inputs": [
        {
          "internalType": "address",
          "name": "_nftAddress",
          "type": "address"
        },
        {
          "internalType": "uint256",
          "name": "_soulFundId",
          "type": "uint256"
        },
        {
          "internalType": "uint256",
          "name": "_nftId",
          "type": "uint256"
        }
      ],
      "name": "claimFundsEarly",
      "outputs": [],
      "stateMutability": "payable",
      "type": "function"
    },
    {
      "inputs": [
        {
          "internalType": "uint256",
          "name": "tokenId",
          "type": "uint256"
        }
      ],
      "name": "getApproved",
      "outputs": [
        {
          "internalType": "address",
          "name": "",
          "type": "address"
        }
      ],
      "stateMutability": "view",
      "type": "function"
    },
    {
      "inputs": [
        {
          "internalType": "bytes32",
          "name": "role",
          "type": "bytes32"
        }
      ],
      "name": "getRoleAdmin",
      "outputs": [
        {
          "internalType": "bytes32",
          "name": "",
          "type": "bytes32"
        }
      ],
      "stateMutability": "view",
      "type": "function"
    },
    {
      "inputs": [
        {
          "internalType": "bytes32",
          "name": "role",
          "type": "bytes32"
        },
        {
          "internalType": "address",
          "name": "account",
          "type": "address"
        }
      ],
      "name": "grantRole",
      "outputs": [],
      "stateMutability": "nonpayable",
      "type": "function"
    },
    {
      "inputs": [
        {
          "internalType": "bytes32",
          "name": "role",
          "type": "bytes32"
        },
        {
          "internalType": "address",
          "name": "account",
          "type": "address"
        }
      ],
      "name": "hasRole",
      "outputs": [
        {
          "internalType": "bool",
          "name": "",
          "type": "bool"
        }
      ],
      "stateMutability": "view",
      "type": "function"
    },
    {
      "inputs": [
        {
          "internalType": "address",
          "name": "_beneficiary",
          "type": "address"
        },
        {
          "internalType": "uint256",
          "name": "_vestingDate",
          "type": "uint256"
        }
      ],
      "name": "initialize",
      "outputs": [],
      "stateMutability": "payable",
      "type": "function"
    },
    {
      "inputs": [
        {
          "internalType": "address",
          "name": "owner",
          "type": "address"
        },
        {
          "internalType": "address",
          "name": "operator",
          "type": "address"
        }
      ],
      "name": "isApprovedForAll",
      "outputs": [
        {
          "internalType": "bool",
          "name": "",
          "type": "bool"
        }
      ],
      "stateMutability": "view",
      "type": "function"
    },
    {
      "inputs": [],
      "name": "name",
      "outputs": [
        {
          "internalType": "string",
          "name": "",
          "type": "string"
        }
      ],
      "stateMutability": "view",
      "type": "function"
    },
    {
      "inputs": [
        {
          "internalType": "uint256",
          "name": "tokenId",
          "type": "uint256"
        }
      ],
      "name": "ownerOf",
      "outputs": [
        {
          "internalType": "address",
          "name": "",
          "type": "address"
        }
      ],
      "stateMutability": "view",
      "type": "function"
    },
    {
      "inputs": [],
      "name": "pause",
      "outputs": [],
      "stateMutability": "nonpayable",
      "type": "function"
    },
    {
      "inputs": [],
      "name": "paused",
      "outputs": [
        {
          "internalType": "bool",
          "name": "",
          "type": "bool"
        }
      ],
      "stateMutability": "view",
      "type": "function"
    },
    {
      "inputs": [
        {
          "internalType": "bytes32",
          "name": "role",
          "type": "bytes32"
        },
        {
          "internalType": "address",
          "name": "account",
          "type": "address"
        }
      ],
      "name": "renounceRole",
      "outputs": [],
      "stateMutability": "nonpayable",
      "type": "function"
    },
    {
      "inputs": [
        {
          "internalType": "bytes32",
          "name": "role",
          "type": "bytes32"
        },
        {
          "internalType": "address",
          "name": "account",
          "type": "address"
        }
      ],
      "name": "revokeRole",
      "outputs": [],
      "stateMutability": "nonpayable",
      "type": "function"
    },
    {
      "inputs": [
        {
          "internalType": "address",
          "name": "_to",
          "type": "address"
        }
      ],
      "name": "safeMint",
      "outputs": [],
      "stateMutability": "nonpayable",
      "type": "function"
    },
    {
      "inputs": [
        {
          "internalType": "address",
          "name": "from",
          "type": "address"
        },
        {
          "internalType": "address",
          "name": "to",
          "type": "address"
        },
        {
          "internalType": "uint256",
          "name": "tokenId",
          "type": "uint256"
        }
      ],
      "name": "safeTransferFrom",
      "outputs": [],
      "stateMutability": "nonpayable",
      "type": "function"
    },
    {
      "inputs": [
        {
          "internalType": "address",
          "name": "from",
          "type": "address"
        },
        {
          "internalType": "address",
          "name": "to",
          "type": "address"
        },
        {
          "internalType": "uint256",
          "name": "tokenId",
          "type": "uint256"
        },
        {
          "internalType": "bytes",
          "name": "data",
          "type": "bytes"
        }
      ],
      "name": "safeTransferFrom",
      "outputs": [],
      "stateMutability": "nonpayable",
      "type": "function"
    },
    {
      "inputs": [
        {
          "internalType": "address",
          "name": "operator",
          "type": "address"
        },
        {
          "internalType": "bool",
          "name": "approved",
          "type": "bool"
        }
      ],
      "name": "setApprovalForAll",
      "outputs": [],
      "stateMutability": "nonpayable",
      "type": "function"
    },
    {
      "inputs": [
        {
          "internalType": "bytes4",
          "name": "_interfaceId",
          "type": "bytes4"
        }
      ],
      "name": "supportsInterface",
      "outputs": [
        {
          "internalType": "bool",
          "name": "",
          "type": "bool"
        }
      ],
      "stateMutability": "view",
      "type": "function"
    },
    {
      "inputs": [],
      "name": "symbol",
      "outputs": [
        {
          "internalType": "string",
          "name": "",
          "type": "string"
        }
      ],
      "stateMutability": "view",
      "type": "function"
    },
    {
      "inputs": [
        {
          "internalType": "uint256",
          "name": "tokenId",
          "type": "uint256"
        }
      ],
      "name": "tokenURI",
      "outputs": [
        {
          "internalType": "string",
          "name": "",
          "type": "string"
        }
      ],
      "stateMutability": "view",
      "type": "function"
    },
    {
      "inputs": [
        {
          "internalType": "address",
          "name": "from",
          "type": "address"
        },
        {
          "internalType": "address",
          "name": "to",
          "type": "address"
        },
        {
          "internalType": "uint256",
          "name": "tokenId",
          "type": "uint256"
        }
      ],
      "name": "transferFrom",
      "outputs": [],
      "stateMutability": "nonpayable",
      "type": "function"
    },
    {
      "inputs": [],
      "name": "unpause",
      "outputs": [],
      "stateMutability": "nonpayable",
      "type": "function"
    },
    {
      "inputs": [
        {
          "internalType": "address",
          "name": "_newNftAddress",
          "type": "address"
        },
        {
          "internalType": "uint256",
          "name": "_tokenId",
          "type": "uint256"
        }
      ],
      "name": "whitelistNft",
      "outputs": [],
      "stateMutability": "nonpayable",
      "type": "function"
    },
    {
      "inputs": [
        {
          "internalType": "uint256",
          "name": "",
          "type": "uint256"
        },
        {
          "internalType": "address",
          "name": "",
          "type": "address"
        }
      ],
      "name": "whitelistedNfts",
      "outputs": [
        {
          "internalType": "bool",
          "name": "",
          "type": "bool"
        }
      ],
      "stateMutability": "view",
      "type": "function"
    }
  ],
  "bytecode": "0x6080604052620000146200001a60201b60201c565b620001c5565b600060019054906101000a900460ff16156200006d576040517f08c379a0000000000000000000000000000000000000000000000000000000008152600401620000649062000168565b60405180910390fd5b60ff801660008054906101000a900460ff1660ff161015620000df5760ff6000806101000a81548160ff021916908360ff1602179055507f7f26b83ff96e1f2b6a682f133852f6798a09c465da95921460cefb384740249860ff604051620000d69190620001a8565b60405180910390a15b565b600082825260208201905092915050565b7f496e697469616c697a61626c653a20636f6e747261637420697320696e69746960008201527f616c697a696e6700000000000000000000000000000000000000000000000000602082015250565b600062000150602783620000e1565b91506200015d82620000f2565b604082019050919050565b60006020820190508181036000830152620001838162000141565b9050919050565b600060ff82169050919050565b620001a2816200018a565b82525050565b6000602082019050620001bf600083018462000197565b92915050565b6148bd80620001d56000396000f3fe6080604052600436106101ee5760003560e01c80637ef656091161010d578063c87b56dd116100a0578063e63ab1e91161006f578063e63ab1e9146106d8578063e985e9c514610703578063f94c0a1114610740578063fdb0467a1461076b578063fedce7a814610787576101ee565b8063c87b56dd1461062b578063cd6dc68714610668578063ced3a40314610684578063d547741f146106af576101ee565b8063a217fddf116100dc578063a217fddf14610597578063a22cb465146105c2578063b88d4fde146105eb578063c3af7e0c14610614576101ee565b80637ef65609146104ed5780638456cb591461051857806391d148541461052f57806395d89b411461056c576101ee565b806336568abe11610185578063551d4f2a11610154578063551d4f2a1461041f5780635c975abb146104485780636352211e1461047357806370a08231146104b0576101ee565b806336568abe1461038d5780633f4ba83a146103b657806340d097c3146103cd57806342842e0e146103f6576101ee565b806323b872dd116101c157806323b872dd146102c1578063248a9ca3146102ea57806327e235e3146103275780632f2ff15d14610364576101ee565b806301ffc9a7146101f357806306fdde0314610230578063081812fc1461025b578063095ea7b314610298575b600080fd5b3480156101ff57600080fd5b5061021a60048036038101906102159190612f70565b6107c4565b6040516102279190612fb8565b60405180910390f35b34801561023c57600080fd5b506102456107d6565b604051610252919061306c565b60405180910390f35b34801561026757600080fd5b50610282600480360381019061027d91906130c4565b610868565b60405161028f9190613132565b60405180910390f35b3480156102a457600080fd5b506102bf60048036038101906102ba9190613179565b6108ae565b005b3480156102cd57600080fd5b506102e860048036038101906102e391906131b9565b6109c6565b005b3480156102f657600080fd5b50610311600480360381019061030c9190613242565b610a26565b60405161031e919061327e565b60405180910390f35b34801561033357600080fd5b5061034e60048036038101906103499190613299565b610a46565b60405161035b91906132d5565b60405180910390f35b34801561037057600080fd5b5061038b600480360381019061038691906132f0565b610a5e565b005b34801561039957600080fd5b506103b460048036038101906103af91906132f0565b610a7f565b005b3480156103c257600080fd5b506103cb610b02565b005b3480156103d957600080fd5b506103f460048036038101906103ef9190613299565b610b37565b005b34801561040257600080fd5b5061041d600480360381019061041891906131b9565b610b88565b005b34801561042b57600080fd5b5061044660048036038101906104419190613179565b610ba8565b005b34801561045457600080fd5b5061045d610d6e565b60405161046a9190612fb8565b60405180910390f35b34801561047f57600080fd5b5061049a600480360381019061049591906130c4565b610d85565b6040516104a79190613132565b60405180910390f35b3480156104bc57600080fd5b506104d760048036038101906104d29190613299565b610e37565b6040516104e491906132d5565b60405180910390f35b3480156104f957600080fd5b50610502610eef565b60405161050f91906132d5565b60405180910390f35b34801561052457600080fd5b5061052d610ef5565b005b34801561053b57600080fd5b50610556600480360381019061055191906132f0565b610f2a565b6040516105639190612fb8565b60405180910390f35b34801561057857600080fd5b50610581610f95565b60405161058e919061306c565b60405180910390f35b3480156105a357600080fd5b506105ac611027565b6040516105b9919061327e565b60405180910390f35b3480156105ce57600080fd5b506105e960048036038101906105e4919061335c565b61102e565b005b3480156105f757600080fd5b50610612600480360381019061060d91906134d1565b611044565b005b34801561062057600080fd5b506106296110a6565b005b34801561063757600080fd5b50610652600480360381019061064d91906130c4565b6110a8565b60405161065f919061306c565b60405180910390f35b610682600480360381019061067d9190613179565b611110565b005b34801561069057600080fd5b50610699611365565b6040516106a6919061327e565b60405180910390f35b3480156106bb57600080fd5b506106d660048036038101906106d191906132f0565b611389565b005b3480156106e457600080fd5b506106ed6113aa565b6040516106fa919061327e565b60405180910390f35b34801561070f57600080fd5b5061072a60048036038101906107259190613554565b6113ce565b6040516107379190612fb8565b60405180910390f35b34801561074c57600080fd5b50610755611462565b604051610762919061327e565b60405180910390f35b61078560048036038101906107809190613594565b611486565b005b34801561079357600080fd5b506107ae60048036038101906107a991906135e7565b6117f8565b6040516107bb9190612fb8565b60405180910390f35b60006107cf82611827565b9050919050565b6060606580546107e590613656565b80601f016020809104026020016040519081016040528092919081815260200182805461081190613656565b801561085e5780601f106108335761010080835404028352916020019161085e565b820191906000526020600020905b81548152906001019060200180831161084157829003601f168201915b5050505050905090565b6000610873826118a1565b6069600083815260200190815260200160002060009054906101000a900473ffffffffffffffffffffffffffffffffffffffff169050919050565b60006108b982610d85565b90508073ffffffffffffffffffffffffffffffffffffffff168373ffffffffffffffffffffffffffffffffffffffff16141561092a576040517f08c379a0000000000000000000000000000000000000000000000000000000008152600401610921906136fa565b60405180910390fd5b8073ffffffffffffffffffffffffffffffffffffffff166109496118ec565b73ffffffffffffffffffffffffffffffffffffffff1614806109785750610977816109726118ec565b6113ce565b5b6109b7576040517f08c379a00000000000000000000000000000000000000000000000000000000081526004016109ae9061378c565b60405180910390fd5b6109c183836118f4565b505050565b6109d76109d16118ec565b826119ad565b610a16576040517f08c379a0000000000000000000000000000000000000000000000000000000008152600401610a0d9061381e565b60405180910390fd5b610a21838383611a42565b505050565b600060c96000838152602001908152602001600020600101549050919050565b60fe6020528060005260406000206000915090505481565b610a6782610a26565b610a7081611ca9565b610a7a8383611cbd565b505050565b610a876118ec565b73ffffffffffffffffffffffffffffffffffffffff168173ffffffffffffffffffffffffffffffffffffffff1614610af4576040517f08c379a0000000000000000000000000000000000000000000000000000000008152600401610aeb906138b0565b60405180910390fd5b610afe8282611d9e565b5050565b7f65d7a28e3265b37a6474929f336521b332c1681b933f6cb9f3376673440d862a610b2c81611ca9565b610b34611e80565b50565b7f2dee5dd865e09c7ce6788d674a03682994f0b44339403ca07ac129a9de4bed6a610b6181611ca9565b6000610b6d60fb611ee3565b9050610b7960fb611ef1565b610b838382611f07565b505050565b610ba383838360405180602001604052806000815250611044565b505050565b6000801b610bb581611ca9565b6000151560fd600084815260200190815260200160002060008573ffffffffffffffffffffffffffffffffffffffff1673ffffffffffffffffffffffffffffffffffffffff16815260200190815260200160002060009054906101000a900460ff16151514610c59576040517f08c379a0000000000000000000000000000000000000000000000000000000008152600401610c5090613942565b60405180910390fd5b600073ffffffffffffffffffffffffffffffffffffffff168373ffffffffffffffffffffffffffffffffffffffff161415610cc9576040517f08c379a0000000000000000000000000000000000000000000000000000000008152600401610cc0906139d4565b60405180910390fd5b600160fd600084815260200190815260200160002060008573ffffffffffffffffffffffffffffffffffffffff1673ffffffffffffffffffffffffffffffffffffffff16815260200190815260200160002060006101000a81548160ff0219169083151502179055507f4864b3cb8ddce996e7c5f8ec0a006b69d432e6a5df2acff97f2a5ae75ff78f9783604051610d619190613132565b60405180910390a1505050565b6000609760009054906101000a900460ff16905090565b6000806067600084815260200190815260200160002060009054906101000a900473ffffffffffffffffffffffffffffffffffffffff169050600073ffffffffffffffffffffffffffffffffffffffff168173ffffffffffffffffffffffffffffffffffffffff161415610e2e576040517f08c379a0000000000000000000000000000000000000000000000000000000008152600401610e2590613a40565b60405180910390fd5b80915050919050565b60008073ffffffffffffffffffffffffffffffffffffffff168273ffffffffffffffffffffffffffffffffffffffff161415610ea8576040517f08c379a0000000000000000000000000000000000000000000000000000000008152600401610e9f90613ad2565b60405180910390fd5b606860008373ffffffffffffffffffffffffffffffffffffffff1673ffffffffffffffffffffffffffffffffffffffff168152602001908152602001600020549050919050565b6101f481565b7f65d7a28e3265b37a6474929f336521b332c1681b933f6cb9f3376673440d862a610f1f81611ca9565b610f27611f25565b50565b600060c9600084815260200190815260200160002060000160008373ffffffffffffffffffffffffffffffffffffffff1673ffffffffffffffffffffffffffffffffffffffff16815260200190815260200160002060009054906101000a900460ff16905092915050565b606060668054610fa490613656565b80601f0160208091040260200160405190810160405280929190818152602001828054610fd090613656565b801561101d5780601f10610ff25761010080835404028352916020019161101d565b820191906000526020600020905b81548152906001019060200180831161100057829003601f168201915b5050505050905090565b6000801b81565b6110406110396118ec565b8383611f88565b5050565b61105561104f6118ec565b836119ad565b611094576040517f08c379a000000000000000000000000000000000000000000000000000000000815260040161108b9061381e565b60405180910390fd5b6110a0848484846120f5565b50505050565b565b60606110b3826118a1565b60006110bd612151565b905060008151116110dd5760405180602001604052806000815250611108565b806110e784612168565b6040516020016110f8929190613b2e565b6040516020818303038152906040525b915050919050565b60008060019054906101000a900460ff161590508080156111415750600160008054906101000a900460ff1660ff16105b8061116e5750611150306122c9565b15801561116d5750600160008054906101000a900460ff1660ff16145b5b6111ad576040517f08c379a00000000000000000000000000000000000000000000000000000000081526004016111a490613bc4565b60405180910390fd5b60016000806101000a81548160ff021916908360ff16021790555080156111ea576001600060016101000a81548160ff0219169083151502179055505b61125e6040518060400160405280600881526020017f536f756c46756e640000000000000000000000000000000000000000000000008152506040518060400160405280600381526020017f534c4600000000000000000000000000000000000000000000000000000000008152506122ec565b611266612349565b61126e6123a2565b61127b6000801b33611cbd565b6112a57f65d7a28e3265b37a6474929f336521b332c1681b933f6cb9f3376673440d862a33611cbd565b6112d67f2dee5dd865e09c7ce6788d674a03682994f0b44339403ca07ac129a9de4bed6a6112d16118ec565b611cbd565b6113007fc8a41221bcd7fcf2c225f5a9265e1d4d39949d89197159d59e5f4b87b62c419e84611cbd565b8160fc8190555080156113605760008060016101000a81548160ff0219169083151502179055507f7f26b83ff96e1f2b6a682f133852f6798a09c465da95921460cefb384740249860016040516113579190613c36565b60405180910390a15b505050565b7fc8a41221bcd7fcf2c225f5a9265e1d4d39949d89197159d59e5f4b87b62c419e81565b61139282610a26565b61139b81611ca9565b6113a58383611d9e565b505050565b7f65d7a28e3265b37a6474929f336521b332c1681b933f6cb9f3376673440d862a81565b6000606a60008473ffffffffffffffffffffffffffffffffffffffff1673ffffffffffffffffffffffffffffffffffffffff16815260200190815260200160002060008373ffffffffffffffffffffffffffffffffffffffff1673ffffffffffffffffffffffffffffffffffffffff16815260200190815260200160002060009054906101000a900460ff16905092915050565b7f2dee5dd865e09c7ce6788d674a03682994f0b44339403ca07ac129a9de4bed6a81565b60fd600083815260200190815260200160002060008473ffffffffffffffffffffffffffffffffffffffff1673ffffffffffffffffffffffffffffffffffffffff16815260200190815260200160002060009054906101000a900460ff16611523576040517f08c379a000000000000000000000000000000000000000000000000000000000815260040161151a90613cc3565b60405180910390fd5b600061152e83610d85565b90508073ffffffffffffffffffffffffffffffffffffffff168473ffffffffffffffffffffffffffffffffffffffff16636352211e846040518263ffffffff1660e01b815260040161158091906132d5565b60206040518083038186803b15801561159857600080fd5b505afa1580156115ac573d6000803e3d6000fd5b505050506040513d601f19601f820116820180604052508101906115d09190613cf8565b73ffffffffffffffffffffffffffffffffffffffff1614611626576040517f08c379a000000000000000000000000000000000000000000000000000000000815260040161161d90613d97565b60405180910390fd5b600073ffffffffffffffffffffffffffffffffffffffff1661164784610d85565b73ffffffffffffffffffffffffffffffffffffffff16141561169e576040517f08c379a000000000000000000000000000000000000000000000000000000000815260040161169590613e29565b60405180910390fd5b60006101f460fe60008473ffffffffffffffffffffffffffffffffffffffff1673ffffffffffffffffffffffffffffffffffffffff168152602001908152602001600020546116ed9190613ea7565b90508060fe60008473ffffffffffffffffffffffffffffffffffffffff1673ffffffffffffffffffffffffffffffffffffffff168152602001908152602001600020541015611771576040517f08c379a000000000000000000000000000000000000000000000000000000000815260040161176890613f70565b60405180910390fd5b8173ffffffffffffffffffffffffffffffffffffffff166108fc829081150290604051600060405180830381858888f193505050501580156117b7573d6000803e3d6000fd5b507f0138c258822a2ef014cc274b55a89c3f68ee8575730c5a65eff284781f11e88484826040516117e9929190613f90565b60405180910390a15050505050565b60fd6020528160005260406000206020528060005260406000206000915091509054906101000a900460ff1681565b60007f7965db0b000000000000000000000000000000000000000000000000000000007bffffffffffffffffffffffffffffffffffffffffffffffffffffffff1916827bffffffffffffffffffffffffffffffffffffffffffffffffffffffff1916148061189a5750611899826123f3565b5b9050919050565b6118aa816124d5565b6118e9576040517f08c379a00000000000000000000000000000000000000000000000000000000081526004016118e090613a40565b60405180910390fd5b50565b600033905090565b816069600083815260200190815260200160002060006101000a81548173ffffffffffffffffffffffffffffffffffffffff021916908373ffffffffffffffffffffffffffffffffffffffff160217905550808273ffffffffffffffffffffffffffffffffffffffff1661196783610d85565b73ffffffffffffffffffffffffffffffffffffffff167f8c5be1e5ebec7d5bd14f71427d1e84f3dd0314c0f7b2291e5b200ac8c7c3b92560405160405180910390a45050565b6000806119b983610d85565b90508073ffffffffffffffffffffffffffffffffffffffff168473ffffffffffffffffffffffffffffffffffffffff1614806119fb57506119fa81856113ce565b5b80611a3957508373ffffffffffffffffffffffffffffffffffffffff16611a2184610868565b73ffffffffffffffffffffffffffffffffffffffff16145b91505092915050565b8273ffffffffffffffffffffffffffffffffffffffff16611a6282610d85565b73ffffffffffffffffffffffffffffffffffffffff1614611ab8576040517f08c379a0000000000000000000000000000000000000000000000000000000008152600401611aaf9061402b565b60405180910390fd5b600073ffffffffffffffffffffffffffffffffffffffff168273ffffffffffffffffffffffffffffffffffffffff161415611b28576040517f08c379a0000000000000000000000000000000000000000000000000000000008152600401611b1f906140bd565b60405180910390fd5b611b33838383612541565b611b3e6000826118f4565b6001606860008573ffffffffffffffffffffffffffffffffffffffff1673ffffffffffffffffffffffffffffffffffffffff1681526020019081526020016000206000828254611b8e91906140dd565b925050819055506001606860008473ffffffffffffffffffffffffffffffffffffffff1673ffffffffffffffffffffffffffffffffffffffff1681526020019081526020016000206000828254611be59190614111565b92505081905550816067600083815260200190815260200160002060006101000a81548173ffffffffffffffffffffffffffffffffffffffff021916908373ffffffffffffffffffffffffffffffffffffffff160217905550808273ffffffffffffffffffffffffffffffffffffffff168473ffffffffffffffffffffffffffffffffffffffff167fddf252ad1be2c89b69c2b068fc378daa952ba7f163c4a11628f55a4df523b3ef60405160405180910390a4611ca48383836125c8565b505050565b611cba81611cb56118ec565b6125cd565b50565b611cc78282610f2a565b611d9a57600160c9600084815260200190815260200160002060000160008373ffffffffffffffffffffffffffffffffffffffff1673ffffffffffffffffffffffffffffffffffffffff16815260200190815260200160002060006101000a81548160ff021916908315150217905550611d3f6118ec565b73ffffffffffffffffffffffffffffffffffffffff168173ffffffffffffffffffffffffffffffffffffffff16837f2f8788117e7eff1d82e926ec794901d17c78024a50270940304540a733656f0d60405160405180910390a45b5050565b611da88282610f2a565b15611e7c57600060c9600084815260200190815260200160002060000160008373ffffffffffffffffffffffffffffffffffffffff1673ffffffffffffffffffffffffffffffffffffffff16815260200190815260200160002060006101000a81548160ff021916908315150217905550611e216118ec565b73ffffffffffffffffffffffffffffffffffffffff168173ffffffffffffffffffffffffffffffffffffffff16837ff6391f5c32d9c69d2a47ea670b442974b53935d1edc7fd64eb21e047a839171b60405160405180910390a45b5050565b611e8861266a565b6000609760006101000a81548160ff0219169083151502179055507f5db9ee0a495bf2e6ff9c91a7834c1ba4fdd244a5e8aa4e537bd38aeae4b073aa611ecc6118ec565b604051611ed99190613132565b60405180910390a1565b600081600001549050919050565b6001816000016000828254019250508190555050565b611f218282604051806020016040528060008152506126b3565b5050565b611f2d61270e565b6001609760006101000a81548160ff0219169083151502179055507f62e78cea01bee320cd4e420270b5ea74000d11b0c9f74754ebdbfc544b05a258611f716118ec565b604051611f7e9190613132565b60405180910390a1565b8173ffffffffffffffffffffffffffffffffffffffff168373ffffffffffffffffffffffffffffffffffffffff161415611ff7576040517f08c379a0000000000000000000000000000000000000000000000000000000008152600401611fee906141b3565b60405180910390fd5b80606a60008573ffffffffffffffffffffffffffffffffffffffff1673ffffffffffffffffffffffffffffffffffffffff16815260200190815260200160002060008473ffffffffffffffffffffffffffffffffffffffff1673ffffffffffffffffffffffffffffffffffffffff16815260200190815260200160002060006101000a81548160ff0219169083151502179055508173ffffffffffffffffffffffffffffffffffffffff168373ffffffffffffffffffffffffffffffffffffffff167f17307eab39ab6107e8899845ad3d59bd9653f200f220920489ca2b5937696c31836040516120e89190612fb8565b60405180910390a3505050565b612100848484611a42565b61210c84848484612758565b61214b576040517f08c379a000000000000000000000000000000000000000000000000000000000815260040161214290614245565b60405180910390fd5b50505050565b606060405180602001604052806000815250905090565b606060008214156121b0576040518060400160405280600181526020017f300000000000000000000000000000000000000000000000000000000000000081525090506122c4565b600082905060005b600082146121e25780806121cb90614265565b915050600a826121db9190613ea7565b91506121b8565b60008167ffffffffffffffff8111156121fe576121fd6133a6565b5b6040519080825280601f01601f1916602001820160405280156122305781602001600182028036833780820191505090505b5090505b600085146122bd5760018261224991906140dd565b9150600a8561225891906142ae565b60306122649190614111565b60f81b81838151811061227a576122796142df565b5b60200101907effffffffffffffffffffffffffffffffffffffffffffffffffffffffffffff1916908160001a905350600a856122b69190613ea7565b9450612234565b8093505050505b919050565b6000808273ffffffffffffffffffffffffffffffffffffffff163b119050919050565b600060019054906101000a900460ff1661233b576040517f08c379a000000000000000000000000000000000000000000000000000000000815260040161233290614380565b60405180910390fd5b61234582826128ef565b5050565b600060019054906101000a900460ff16612398576040517f08c379a000000000000000000000000000000000000000000000000000000000815260040161238f90614380565b60405180910390fd5b6123a0612970565b565b600060019054906101000a900460ff166123f1576040517f08c379a00000000000000000000000000000000000000000000000000000000081526004016123e890614380565b60405180910390fd5b565b60007f80ac58cd000000000000000000000000000000000000000000000000000000007bffffffffffffffffffffffffffffffffffffffffffffffffffffffff1916827bffffffffffffffffffffffffffffffffffffffffffffffffffffffff191614806124be57507f5b5e139f000000000000000000000000000000000000000000000000000000007bffffffffffffffffffffffffffffffffffffffffffffffffffffffff1916827bffffffffffffffffffffffffffffffffffffffffffffffffffffffff1916145b806124ce57506124cd826129dc565b5b9050919050565b60008073ffffffffffffffffffffffffffffffffffffffff166067600084815260200190815260200160002060009054906101000a900473ffffffffffffffffffffffffffffffffffffffff1673ffffffffffffffffffffffffffffffffffffffff1614159050919050565b61254961270e565b600073ffffffffffffffffffffffffffffffffffffffff168373ffffffffffffffffffffffffffffffffffffffff16146125b8576040517f08c379a00000000000000000000000000000000000000000000000000000000081526004016125af90614412565b60405180910390fd5b6125c3838383612a46565b505050565b505050565b6125d78282610f2a565b612666576125fc8173ffffffffffffffffffffffffffffffffffffffff166014612a4b565b61260a8360001c6020612a4b565b60405160200161261b9291906144ca565b6040516020818303038152906040526040517f08c379a000000000000000000000000000000000000000000000000000000000815260040161265d919061306c565b60405180910390fd5b5050565b612672610d6e565b6126b1576040517f08c379a00000000000000000000000000000000000000000000000000000000081526004016126a890614550565b60405180910390fd5b565b6126bd8383612c87565b6126ca6000848484612758565b612709576040517f08c379a000000000000000000000000000000000000000000000000000000000815260040161270090614245565b60405180910390fd5b505050565b612716610d6e565b15612756576040517f08c379a000000000000000000000000000000000000000000000000000000000815260040161274d906145bc565b60405180910390fd5b565b60006127798473ffffffffffffffffffffffffffffffffffffffff166122c9565b156128e2578373ffffffffffffffffffffffffffffffffffffffff1663150b7a026127a26118ec565b8786866040518563ffffffff1660e01b81526004016127c49493929190614631565b602060405180830381600087803b1580156127de57600080fd5b505af192505050801561280f57506040513d601f19601f8201168201806040525081019061280c9190614692565b60015b612892573d806000811461283f576040519150601f19603f3d011682016040523d82523d6000602084013e612844565b606091505b5060008151141561288a576040517f08c379a000000000000000000000000000000000000000000000000000000000815260040161288190614245565b60405180910390fd5b805181602001fd5b63150b7a0260e01b7bffffffffffffffffffffffffffffffffffffffffffffffffffffffff1916817bffffffffffffffffffffffffffffffffffffffffffffffffffffffff1916149150506128e7565b600190505b949350505050565b600060019054906101000a900460ff1661293e576040517f08c379a000000000000000000000000000000000000000000000000000000000815260040161293590614380565b60405180910390fd5b8160659080519060200190612954929190612e61565b50806066908051906020019061296b929190612e61565b505050565b600060019054906101000a900460ff166129bf576040517f08c379a00000000000000000000000000000000000000000000000000000000081526004016129b690614380565b60405180910390fd5b6000609760006101000a81548160ff021916908315150217905550565b60007f01ffc9a7000000000000000000000000000000000000000000000000000000007bffffffffffffffffffffffffffffffffffffffffffffffffffffffff1916827bffffffffffffffffffffffffffffffffffffffffffffffffffffffff1916149050919050565b505050565b606060006002836002612a5e91906146bf565b612a689190614111565b67ffffffffffffffff811115612a8157612a806133a6565b5b6040519080825280601f01601f191660200182016040528015612ab35781602001600182028036833780820191505090505b5090507f300000000000000000000000000000000000000000000000000000000000000081600081518110612aeb57612aea6142df565b5b60200101907effffffffffffffffffffffffffffffffffffffffffffffffffffffffffffff1916908160001a9053507f780000000000000000000000000000000000000000000000000000000000000081600181518110612b4f57612b4e6142df565b5b60200101907effffffffffffffffffffffffffffffffffffffffffffffffffffffffffffff1916908160001a90535060006001846002612b8f91906146bf565b612b999190614111565b90505b6001811115612c39577f3031323334353637383961626364656600000000000000000000000000000000600f861660108110612bdb57612bda6142df565b5b1a60f81b828281518110612bf257612bf16142df565b5b60200101907effffffffffffffffffffffffffffffffffffffffffffffffffffffffffffff1916908160001a905350600485901c945080612c3290614719565b9050612b9c565b5060008414612c7d576040517f08c379a0000000000000000000000000000000000000000000000000000000008152600401612c749061478f565b60405180910390fd5b8091505092915050565b600073ffffffffffffffffffffffffffffffffffffffff168273ffffffffffffffffffffffffffffffffffffffff161415612cf7576040517f08c379a0000000000000000000000000000000000000000000000000000000008152600401612cee906147fb565b60405180910390fd5b612d00816124d5565b15612d40576040517f08c379a0000000000000000000000000000000000000000000000000000000008152600401612d3790614867565b60405180910390fd5b612d4c60008383612541565b6001606860008473ffffffffffffffffffffffffffffffffffffffff1673ffffffffffffffffffffffffffffffffffffffff1681526020019081526020016000206000828254612d9c9190614111565b92505081905550816067600083815260200190815260200160002060006101000a81548173ffffffffffffffffffffffffffffffffffffffff021916908373ffffffffffffffffffffffffffffffffffffffff160217905550808273ffffffffffffffffffffffffffffffffffffffff16600073ffffffffffffffffffffffffffffffffffffffff167fddf252ad1be2c89b69c2b068fc378daa952ba7f163c4a11628f55a4df523b3ef60405160405180910390a4612e5d600083836125c8565b5050565b828054612e6d90613656565b90600052602060002090601f016020900481019282612e8f5760008555612ed6565b82601f10612ea857805160ff1916838001178555612ed6565b82800160010185558215612ed6579182015b82811115612ed5578251825591602001919060010190612eba565b5b509050612ee39190612ee7565b5090565b5b80821115612f00576000816000905550600101612ee8565b5090565b6000604051905090565b600080fd5b600080fd5b60007fffffffff0000000000000000000000000000000000000000000000000000000082169050919050565b612f4d81612f18565b8114612f5857600080fd5b50565b600081359050612f6a81612f44565b92915050565b600060208284031215612f8657612f85612f0e565b5b6000612f9484828501612f5b565b91505092915050565b60008115159050919050565b612fb281612f9d565b82525050565b6000602082019050612fcd6000830184612fa9565b92915050565b600081519050919050565b600082825260208201905092915050565b60005b8381101561300d578082015181840152602081019050612ff2565b8381111561301c576000848401525b50505050565b6000601f19601f8301169050919050565b600061303e82612fd3565b6130488185612fde565b9350613058818560208601612fef565b61306181613022565b840191505092915050565b600060208201905081810360008301526130868184613033565b905092915050565b6000819050919050565b6130a18161308e565b81146130ac57600080fd5b50565b6000813590506130be81613098565b92915050565b6000602082840312156130da576130d9612f0e565b5b60006130e8848285016130af565b91505092915050565b600073ffffffffffffffffffffffffffffffffffffffff82169050919050565b600061311c826130f1565b9050919050565b61312c81613111565b82525050565b60006020820190506131476000830184613123565b92915050565b61315681613111565b811461316157600080fd5b50565b6000813590506131738161314d565b92915050565b600080604083850312156131905761318f612f0e565b5b600061319e85828601613164565b92505060206131af858286016130af565b9150509250929050565b6000806000606084860312156131d2576131d1612f0e565b5b60006131e086828701613164565b93505060206131f186828701613164565b9250506040613202868287016130af565b9150509250925092565b6000819050919050565b61321f8161320c565b811461322a57600080fd5b50565b60008135905061323c81613216565b92915050565b60006020828403121561325857613257612f0e565b5b60006132668482850161322d565b91505092915050565b6132788161320c565b82525050565b6000602082019050613293600083018461326f565b92915050565b6000602082840312156132af576132ae612f0e565b5b60006132bd84828501613164565b91505092915050565b6132cf8161308e565b82525050565b60006020820190506132ea60008301846132c6565b92915050565b6000806040838503121561330757613306612f0e565b5b60006133158582860161322d565b925050602061332685828601613164565b9150509250929050565b61333981612f9d565b811461334457600080fd5b50565b60008135905061335681613330565b92915050565b6000806040838503121561337357613372612f0e565b5b600061338185828601613164565b925050602061339285828601613347565b9150509250929050565b600080fd5b600080fd5b7f4e487b7100000000000000000000000000000000000000000000000000000000600052604160045260246000fd5b6133de82613022565b810181811067ffffffffffffffff821117156133fd576133fc6133a6565b5b80604052505050565b6000613410612f04565b905061341c82826133d5565b919050565b600067ffffffffffffffff82111561343c5761343b6133a6565b5b61344582613022565b9050602081019050919050565b82818337600083830152505050565b600061347461346f84613421565b613406565b9050828152602081018484840111156134905761348f6133a1565b5b61349b848285613452565b509392505050565b600082601f8301126134b8576134b761339c565b5b81356134c8848260208601613461565b91505092915050565b600080600080608085870312156134eb576134ea612f0e565b5b60006134f987828801613164565b945050602061350a87828801613164565b935050604061351b878288016130af565b925050606085013567ffffffffffffffff81111561353c5761353b612f13565b5b613548878288016134a3565b91505092959194509250565b6000806040838503121561356b5761356a612f0e565b5b600061357985828601613164565b925050602061358a85828601613164565b9150509250929050565b6000806000606084860312156135ad576135ac612f0e565b5b60006135bb86828701613164565b93505060206135cc868287016130af565b92505060406135dd868287016130af565b9150509250925092565b600080604083850312156135fe576135fd612f0e565b5b600061360c858286016130af565b925050602061361d85828601613164565b9150509250929050565b7f4e487b7100000000000000000000000000000000000000000000000000000000600052602260045260246000fd5b6000600282049050600182168061366e57607f821691505b6020821081141561368257613681613627565b5b50919050565b7f4552433732313a20617070726f76616c20746f2063757272656e74206f776e6560008201527f7200000000000000000000000000000000000000000000000000000000000000602082015250565b60006136e4602183612fde565b91506136ef82613688565b604082019050919050565b60006020820190508181036000830152613713816136d7565b9050919050565b7f4552433732313a20617070726f76652063616c6c6572206973206e6f7420746f60008201527f6b656e206f776e6572206e6f7220617070726f76656420666f7220616c6c0000602082015250565b6000613776603e83612fde565b91506137818261371a565b604082019050919050565b600060208201905081810360008301526137a581613769565b9050919050565b7f4552433732313a2063616c6c6572206973206e6f7420746f6b656e206f776e6560008201527f72206e6f7220617070726f766564000000000000000000000000000000000000602082015250565b6000613808602e83612fde565b9150613813826137ac565b604082019050919050565b60006020820190508181036000830152613837816137fb565b9050919050565b7f416363657373436f6e74726f6c3a2063616e206f6e6c792072656e6f756e636560008201527f20726f6c657320666f722073656c660000000000000000000000000000000000602082015250565b600061389a602f83612fde565b91506138a58261383e565b604082019050919050565b600060208201905081810360008301526138c98161388d565b9050919050565b7f536f756c46756e642e77686974656c6973744e66743a2061646472657373206160008201527f6c72656164792061646465640000000000000000000000000000000000000000602082015250565b600061392c602c83612fde565b9150613937826138d0565b604082019050919050565b6000602082019050818103600083015261395b8161391f565b9050919050565b7f536f756c46756e642e77686974656c6973744e66743a2063616e6e6f7420616460008201527f6420302061646472657373000000000000000000000000000000000000000000602082015250565b60006139be602b83612fde565b91506139c982613962565b604082019050919050565b600060208201905081810360008301526139ed816139b1565b9050919050565b7f4552433732313a20696e76616c696420746f6b656e2049440000000000000000600082015250565b6000613a2a601883612fde565b9150613a35826139f4565b602082019050919050565b60006020820190508181036000830152613a5981613a1d565b9050919050565b7f4552433732313a2061646472657373207a65726f206973206e6f74206120766160008201527f6c6964206f776e65720000000000000000000000000000000000000000000000602082015250565b6000613abc602983612fde565b9150613ac782613a60565b604082019050919050565b60006020820190508181036000830152613aeb81613aaf565b9050919050565b600081905092915050565b6000613b0882612fd3565b613b128185613af2565b9350613b22818560208601612fef565b80840191505092915050565b6000613b3a8285613afd565b9150613b468284613afd565b91508190509392505050565b7f496e697469616c697a61626c653a20636f6e747261637420697320616c72656160008201527f647920696e697469616c697a6564000000000000000000000000000000000000602082015250565b6000613bae602e83612fde565b9150613bb982613b52565b604082019050919050565b60006020820190508181036000830152613bdd81613ba1565b9050919050565b6000819050919050565b600060ff82169050919050565b6000819050919050565b6000613c20613c1b613c1684613be4565b613bfb565b613bee565b9050919050565b613c3081613c05565b82525050565b6000602082019050613c4b6000830184613c27565b92915050565b7f536f756c46756e642e636c61696d46756e64734561726c793a204e4654206e6f60008201527f742077686974656c697374656400000000000000000000000000000000000000602082015250565b6000613cad602d83612fde565b9150613cb882613c51565b604082019050919050565b60006020820190508181036000830152613cdc81613ca0565b9050919050565b600081519050613cf28161314d565b92915050565b600060208284031215613d0e57613d0d612f0e565b5b6000613d1c84828501613ce3565b91505092915050565b7f536f756c46756e642e636c61696d46756e64734561726c793a2062656e65666960008201527f636961727920646f206e6f74206f776e20636c61696d20746f6b656e00000000602082015250565b6000613d81603c83612fde565b9150613d8c82613d25565b604082019050919050565b60006020820190508181036000830152613db081613d74565b9050919050565b7f536f756c46756e642e636c61696d46756e64734561726c793a2062656e65666960008201527f636961727920646f206e6f74206f776e20746869732066756e64000000000000602082015250565b6000613e13603a83612fde565b9150613e1e82613db7565b604082019050919050565b60006020820190508181036000830152613e4281613e06565b9050919050565b7f4e487b7100000000000000000000000000000000000000000000000000000000600052601260045260246000fd5b7f4e487b7100000000000000000000000000000000000000000000000000000000600052601160045260246000fd5b6000613eb28261308e565b9150613ebd8361308e565b925082613ecd57613ecc613e49565b5b828204905092915050565b7f536f756c46756e642e636c61696d46756e64734561726c793a2062656e65666960008201527f636961727920646f6573206e6f74206861766520617661696c61626c6520667560208201527f6e64730000000000000000000000000000000000000000000000000000000000604082015250565b6000613f5a604383612fde565b9150613f6582613ed8565b606082019050919050565b60006020820190508181036000830152613f8981613f4d565b9050919050565b6000604082019050613fa560008301856132c6565b613fb260208301846132c6565b9392505050565b7f4552433732313a207472616e736665722066726f6d20696e636f72726563742060008201527f6f776e6572000000000000000000000000000000000000000000000000000000602082015250565b6000614015602583612fde565b915061402082613fb9565b604082019050919050565b6000602082019050818103600083015261404481614008565b9050919050565b7f4552433732313a207472616e7366657220746f20746865207a65726f2061646460008201527f7265737300000000000000000000000000000000000000000000000000000000602082015250565b60006140a7602483612fde565b91506140b28261404b565b604082019050919050565b600060208201905081810360008301526140d68161409a565b9050919050565b60006140e88261308e565b91506140f38361308e565b92508282101561410657614105613e78565b5b828203905092915050565b600061411c8261308e565b91506141278361308e565b9250827fffffffffffffffffffffffffffffffffffffffffffffffffffffffffffffffff0382111561415c5761415b613e78565b5b828201905092915050565b7f4552433732313a20617070726f766520746f2063616c6c657200000000000000600082015250565b600061419d601983612fde565b91506141a882614167565b602082019050919050565b600060208201905081810360008301526141cc81614190565b9050919050565b7f4552433732313a207472616e7366657220746f206e6f6e20455243373231526560008201527f63656976657220696d706c656d656e7465720000000000000000000000000000602082015250565b600061422f603283612fde565b915061423a826141d3565b604082019050919050565b6000602082019050818103600083015261425e81614222565b9050919050565b60006142708261308e565b91507fffffffffffffffffffffffffffffffffffffffffffffffffffffffffffffffff8214156142a3576142a2613e78565b5b600182019050919050565b60006142b98261308e565b91506142c48361308e565b9250826142d4576142d3613e49565b5b828206905092915050565b7f4e487b7100000000000000000000000000000000000000000000000000000000600052603260045260246000fd5b7f496e697469616c697a61626c653a20636f6e7472616374206973206e6f74206960008201527f6e697469616c697a696e67000000000000000000000000000000000000000000602082015250565b600061436a602b83612fde565b91506143758261430e565b604082019050919050565b600060208201905081810360008301526143998161435d565b9050919050565b7f536f756c46756e643a20736f756c20626f756e6420746f6b656e2063616e6e6f60008201527f74206265207472616e7366657272656400000000000000000000000000000000602082015250565b60006143fc603083612fde565b9150614407826143a0565b604082019050919050565b6000602082019050818103600083015261442b816143ef565b9050919050565b7f416363657373436f6e74726f6c3a206163636f756e7420000000000000000000600082015250565b6000614468601783613af2565b915061447382614432565b601782019050919050565b7f206973206d697373696e6720726f6c6520000000000000000000000000000000600082015250565b60006144b4601183613af2565b91506144bf8261447e565b601182019050919050565b60006144d58261445b565b91506144e18285613afd565b91506144ec826144a7565b91506144f88284613afd565b91508190509392505050565b7f5061757361626c653a206e6f7420706175736564000000000000000000000000600082015250565b600061453a601483612fde565b915061454582614504565b602082019050919050565b600060208201905081810360008301526145698161452d565b9050919050565b7f5061757361626c653a2070617573656400000000000000000000000000000000600082015250565b60006145a6601083612fde565b91506145b182614570565b602082019050919050565b600060208201905081810360008301526145d581614599565b9050919050565b600081519050919050565b600082825260208201905092915050565b6000614603826145dc565b61460d81856145e7565b935061461d818560208601612fef565b61462681613022565b840191505092915050565b60006080820190506146466000830187613123565b6146536020830186613123565b61466060408301856132c6565b818103606083015261467281846145f8565b905095945050505050565b60008151905061468c81612f44565b92915050565b6000602082840312156146a8576146a7612f0e565b5b60006146b68482850161467d565b91505092915050565b60006146ca8261308e565b91506146d58361308e565b9250817fffffffffffffffffffffffffffffffffffffffffffffffffffffffffffffffff048311821515161561470e5761470d613e78565b5b828202905092915050565b60006147248261308e565b9150600082141561473857614737613e78565b5b600182039050919050565b7f537472696e67733a20686578206c656e67746820696e73756666696369656e74600082015250565b6000614779602083612fde565b915061478482614743565b602082019050919050565b600060208201905081810360008301526147a88161476c565b9050919050565b7f4552433732313a206d696e7420746f20746865207a65726f2061646472657373600082015250565b60006147e5602083612fde565b91506147f0826147af565b602082019050919050565b60006020820190508181036000830152614814816147d8565b9050919050565b7f4552433732313a20746f6b656e20616c7265616479206d696e74656400000000600082015250565b6000614851601c83612fde565b915061485c8261481b565b602082019050919050565b6000602082019050818103600083015261488081614844565b905091905056fea264697066735822122044ebc67caf95a7d40ee9f56dd10c9ad086585590c0878262ca57a7496a9c81ad64736f6c63430008090033",
  "linkReferences": {},
  "deployedLinkReferences": {}
}