{
  "_format": "hh-sol-artifact-1",
  "contractName": "SoulFund",
  "sourceName": "contracts/SoulFund.sol",
  "abi": [
    {
      "inputs": [
        {
          "internalType": "address",
          "name": "_beneficiary",
          "type": "address"
        },
        {
          "internalType": "uint256",
          "name": "_vestingDate",
          "type": "uint256"
        },
        {
          "internalType": "address",
          "name": "_data",
          "type": "address"
        },
        {
          "internalType": "address",
          "name": "gateway_",
          "type": "address"
        },
        {
          "internalType": "address",
          "name": "gasReceiver_",
          "type": "address"
        }
      ],
      "stateMutability": "payable",
      "type": "constructor"
    },
    {
      "inputs": [],
      "name": "NotApprovedByGateway",
      "type": "error"
    },
    {
      "anonymous": false,
      "inputs": [
        {
          "indexed": true,
          "internalType": "address",
          "name": "owner",
          "type": "address"
        },
        {
          "indexed": true,
          "internalType": "address",
          "name": "approved",
          "type": "address"
        },
        {
          "indexed": true,
          "internalType": "uint256",
          "name": "tokenId",
          "type": "uint256"
        }
      ],
      "name": "Approval",
      "type": "event"
    },
    {
      "anonymous": false,
      "inputs": [
        {
          "indexed": true,
          "internalType": "address",
          "name": "owner",
          "type": "address"
        },
        {
          "indexed": true,
          "internalType": "address",
          "name": "operator",
          "type": "address"
        },
        {
          "indexed": false,
          "internalType": "bool",
          "name": "approved",
          "type": "bool"
        }
      ],
      "name": "ApprovalForAll",
      "type": "event"
    },
    {
      "anonymous": false,
      "inputs": [
        {
          "indexed": false,
          "internalType": "uint256",
          "name": "soulFundId",
          "type": "uint256"
        },
        {
          "indexed": false,
          "internalType": "address",
          "name": "currency",
          "type": "address"
        },
        {
          "indexed": false,
          "internalType": "uint256",
          "name": "amount",
          "type": "uint256"
        },
        {
          "indexed": false,
          "internalType": "address",
          "name": "beneficary",
          "type": "address"
        }
      ],
      "name": "FundDeposited",
      "type": "event"
    },
    {
      "anonymous": false,
      "inputs": [
        {
          "indexed": false,
          "internalType": "address",
          "name": "newNftAddress",
          "type": "address"
        }
      ],
      "name": "NewWhitelistedNFT",
      "type": "event"
    },
    {
      "anonymous": false,
      "inputs": [
        {
          "indexed": false,
          "internalType": "address",
          "name": "account",
          "type": "address"
        }
      ],
      "name": "Paused",
      "type": "event"
    },
    {
      "anonymous": false,
      "inputs": [
        {
          "indexed": true,
          "internalType": "bytes32",
          "name": "role",
          "type": "bytes32"
        },
        {
          "indexed": true,
          "internalType": "bytes32",
          "name": "previousAdminRole",
          "type": "bytes32"
        },
        {
          "indexed": true,
          "internalType": "bytes32",
          "name": "newAdminRole",
          "type": "bytes32"
        }
      ],
      "name": "RoleAdminChanged",
      "type": "event"
    },
    {
      "anonymous": false,
      "inputs": [
        {
          "indexed": true,
          "internalType": "bytes32",
          "name": "role",
          "type": "bytes32"
        },
        {
          "indexed": true,
          "internalType": "address",
          "name": "account",
          "type": "address"
        },
        {
          "indexed": true,
          "internalType": "address",
          "name": "sender",
          "type": "address"
        }
      ],
      "name": "RoleGranted",
      "type": "event"
    },
    {
      "anonymous": false,
      "inputs": [
        {
          "indexed": true,
          "internalType": "bytes32",
          "name": "role",
          "type": "bytes32"
        },
        {
          "indexed": true,
          "internalType": "address",
          "name": "account",
          "type": "address"
        },
        {
          "indexed": true,
          "internalType": "address",
          "name": "sender",
          "type": "address"
        }
      ],
      "name": "RoleRevoked",
      "type": "event"
    },
    {
      "anonymous": false,
      "inputs": [
        {
          "indexed": true,
          "internalType": "address",
          "name": "from",
          "type": "address"
        },
        {
          "indexed": true,
          "internalType": "address",
          "name": "to",
          "type": "address"
        },
        {
          "indexed": true,
          "internalType": "uint256",
          "name": "tokenId",
          "type": "uint256"
        }
      ],
      "name": "Transfer",
      "type": "event"
    },
    {
      "anonymous": false,
      "inputs": [
        {
          "indexed": false,
          "internalType": "address",
          "name": "account",
          "type": "address"
        }
      ],
      "name": "Unpaused",
      "type": "event"
    },
    {
      "anonymous": false,
      "inputs": [
        {
          "indexed": false,
          "internalType": "uint256",
          "name": "soulFundId",
          "type": "uint256"
        },
        {
          "indexed": false,
          "internalType": "uint256",
          "name": "vestedAmount",
          "type": "uint256"
        }
      ],
      "name": "VestedFundClaimed",
      "type": "event"
    },
    {
      "anonymous": false,
      "inputs": [
        {
          "indexed": false,
          "internalType": "uint256",
          "name": "tokenId",
          "type": "uint256"
        },
        {
          "indexed": false,
          "internalType": "uint256",
          "name": "rewardAmount",
          "type": "uint256"
        }
      ],
      "name": "VestedFundsClaimedEarly",
      "type": "event"
    },
    {
      "inputs": [],
      "name": "BENEFICIARY_ROLE",
      "outputs": [
        {
          "internalType": "bytes32",
          "name": "",
          "type": "bytes32"
        }
      ],
      "stateMutability": "view",
      "type": "function"
    },
    {
      "inputs": [],
      "name": "DEFAULT_ADMIN_ROLE",
      "outputs": [
        {
          "internalType": "bytes32",
          "name": "",
          "type": "bytes32"
        }
      ],
      "stateMutability": "view",
      "type": "function"
    },
    {
      "inputs": [],
      "name": "FIVE_PERCENT",
      "outputs": [
        {
          "internalType": "uint256",
          "name": "",
          "type": "uint256"
        }
      ],
      "stateMutability": "view",
      "type": "function"
    },
    {
      "inputs": [],
      "name": "GRANTER_ROLE",
      "outputs": [
        {
          "internalType": "bytes32",
          "name": "",
          "type": "bytes32"
        }
      ],
      "stateMutability": "view",
      "type": "function"
    },
    {
      "inputs": [],
      "name": "PAUSER_ROLE",
      "outputs": [
        {
          "internalType": "bytes32",
          "name": "",
          "type": "bytes32"
        }
      ],
      "stateMutability": "view",
      "type": "function"
    },
    {
      "inputs": [
        {
          "internalType": "address",
          "name": "to",
          "type": "address"
        },
        {
          "internalType": "uint256",
          "name": "tokenId",
          "type": "uint256"
        }
      ],
      "name": "approve",
      "outputs": [],
      "stateMutability": "nonpayable",
      "type": "function"
    },
    {
      "inputs": [
        {
          "internalType": "address",
          "name": "owner",
          "type": "address"
        }
      ],
      "name": "balanceOf",
      "outputs": [
        {
          "internalType": "uint256",
          "name": "",
          "type": "uint256"
        }
      ],
      "stateMutability": "view",
      "type": "function"
    },
    {
      "inputs": [
        {
          "internalType": "uint256",
          "name": "",
          "type": "uint256"
        },
        {
          "internalType": "uint256",
          "name": "",
          "type": "uint256"
        }
      ],
      "name": "balances",
      "outputs": [
        {
          "internalType": "address",
          "name": "token",
          "type": "address"
        },
        {
          "internalType": "uint256",
          "name": "balance",
          "type": "uint256"
        }
      ],
      "stateMutability": "view",
      "type": "function"
    },
    {
      "inputs": [
        {
          "internalType": "uint256",
          "name": "_tokenId",
          "type": "uint256"
        }
      ],
      "name": "balancesExt",
      "outputs": [
        {
          "components": [
            {
              "internalType": "address",
              "name": "token",
              "type": "address"
            },
            {
              "internalType": "uint256",
              "name": "balance",
              "type": "uint256"
            }
          ],
          "internalType": "struct ISoulFund.Balances[5]",
          "name": "",
          "type": "tuple[5]"
        }
      ],
      "stateMutability": "view",
      "type": "function"
    },
    {
      "inputs": [
        {
          "internalType": "uint256",
          "name": "_soulFundId",
          "type": "uint256"
        }
      ],
      "name": "claimAllVestedFunds",
      "outputs": [],
      "stateMutability": "payable",
      "type": "function"
    },
    {
      "inputs": [
        {
          "internalType": "uint256",
          "name": "",
          "type": "uint256"
        },
        {
          "internalType": "address",
          "name": "",
          "type": "address"
        }
      ],
      "name": "currencyIndices",
      "outputs": [
        {
          "internalType": "uint256",
          "name": "",
          "type": "uint256"
        }
      ],
      "stateMutability": "view",
      "type": "function"
    },
    {
      "inputs": [
        {
          "internalType": "uint256",
          "name": "soulFundId",
          "type": "uint256"
        },
        {
          "internalType": "address",
          "name": "currency",
          "type": "address"
        },
        {
          "internalType": "uint256",
          "name": "amount",
          "type": "uint256"
        }
      ],
      "name": "depositFund",
      "outputs": [],
      "stateMutability": "payable",
      "type": "function"
    },
    {
      "inputs": [
        {
          "internalType": "bytes32",
          "name": "commandId",
          "type": "bytes32"
        },
        {
          "internalType": "string",
          "name": "sourceChain",
          "type": "string"
        },
        {
          "internalType": "string",
          "name": "sourceAddress",
          "type": "string"
        },
        {
          "internalType": "bytes",
          "name": "payload",
          "type": "bytes"
        }
      ],
      "name": "execute",
      "outputs": [],
      "stateMutability": "nonpayable",
      "type": "function"
    },
    {
      "inputs": [
        {
          "internalType": "bytes32",
          "name": "commandId",
          "type": "bytes32"
        },
        {
          "internalType": "string",
          "name": "sourceChain",
          "type": "string"
        },
        {
          "internalType": "string",
          "name": "sourceAddress",
          "type": "string"
        },
        {
          "internalType": "bytes",
          "name": "payload",
          "type": "bytes"
        },
        {
          "internalType": "string",
          "name": "tokenSymbol",
          "type": "string"
        },
        {
          "internalType": "uint256",
          "name": "amount",
          "type": "uint256"
        }
      ],
      "name": "executeWithToken",
      "outputs": [],
      "stateMutability": "nonpayable",
      "type": "function"
    },
    {
      "inputs": [],
      "name": "gasReceiver",
      "outputs": [
        {
          "internalType": "contract IAxelarGasService",
          "name": "",
          "type": "address"
        }
      ],
      "stateMutability": "view",
      "type": "function"
    },
    {
      "inputs": [],
      "name": "gateway",
      "outputs": [
        {
          "internalType": "contract IAxelarGateway",
          "name": "",
          "type": "address"
        }
      ],
      "stateMutability": "view",
      "type": "function"
    },
    {
      "inputs": [
        {
          "internalType": "uint256",
          "name": "tokenId",
          "type": "uint256"
        }
      ],
      "name": "getApproved",
      "outputs": [
        {
          "internalType": "address",
          "name": "",
          "type": "address"
        }
      ],
      "stateMutability": "view",
      "type": "function"
    },
    {
      "inputs": [
        {
          "internalType": "bytes32",
          "name": "role",
          "type": "bytes32"
        }
      ],
      "name": "getRoleAdmin",
      "outputs": [
        {
          "internalType": "bytes32",
          "name": "",
          "type": "bytes32"
        }
      ],
      "stateMutability": "view",
      "type": "function"
    },
    {
      "inputs": [
        {
          "internalType": "bytes32",
          "name": "role",
          "type": "bytes32"
        },
        {
          "internalType": "address",
          "name": "account",
          "type": "address"
        }
      ],
      "name": "grantRole",
      "outputs": [],
      "stateMutability": "nonpayable",
      "type": "function"
    },
    {
      "inputs": [
        {
          "internalType": "bytes32",
          "name": "role",
          "type": "bytes32"
        },
        {
          "internalType": "address",
          "name": "account",
          "type": "address"
        }
      ],
      "name": "hasRole",
      "outputs": [
        {
          "internalType": "bool",
          "name": "",
          "type": "bool"
        }
      ],
      "stateMutability": "view",
      "type": "function"
    },
    {
      "inputs": [
        {
          "internalType": "address",
          "name": "owner",
          "type": "address"
        },
        {
          "internalType": "address",
          "name": "operator",
          "type": "address"
        }
      ],
      "name": "isApprovedForAll",
      "outputs": [
        {
          "internalType": "bool",
          "name": "",
          "type": "bool"
        }
      ],
      "stateMutability": "view",
      "type": "function"
    },
    {
      "inputs": [],
      "name": "name",
      "outputs": [
        {
          "internalType": "string",
          "name": "",
          "type": "string"
        }
      ],
      "stateMutability": "view",
      "type": "function"
    },
    {
      "inputs": [
        {
          "internalType": "uint256",
          "name": "",
          "type": "uint256"
        },
        {
          "internalType": "address",
          "name": "",
          "type": "address"
        }
      ],
      "name": "nftIsSpent",
      "outputs": [
        {
          "internalType": "bool",
          "name": "",
          "type": "bool"
        }
      ],
      "stateMutability": "view",
      "type": "function"
    },
    {
      "inputs": [
        {
          "internalType": "uint256",
          "name": "",
          "type": "uint256"
        }
      ],
      "name": "numCurrencies",
      "outputs": [
        {
          "internalType": "uint256",
          "name": "",
          "type": "uint256"
        }
      ],
      "stateMutability": "view",
      "type": "function"
    },
    {
      "inputs": [
        {
          "internalType": "uint256",
          "name": "tokenId",
          "type": "uint256"
        }
      ],
      "name": "ownerOf",
      "outputs": [
        {
          "internalType": "address",
          "name": "",
          "type": "address"
        }
      ],
      "stateMutability": "view",
      "type": "function"
    },
    {
      "inputs": [],
      "name": "pause",
      "outputs": [],
      "stateMutability": "nonpayable",
      "type": "function"
    },
    {
      "inputs": [],
      "name": "paused",
      "outputs": [
        {
          "internalType": "bool",
          "name": "",
          "type": "bool"
        }
      ],
      "stateMutability": "view",
      "type": "function"
    },
    {
      "inputs": [
        {
          "internalType": "bytes32",
          "name": "role",
          "type": "bytes32"
        },
        {
          "internalType": "address",
          "name": "account",
          "type": "address"
        }
      ],
      "name": "renounceRole",
      "outputs": [],
      "stateMutability": "nonpayable",
      "type": "function"
    },
    {
      "inputs": [
        {
          "internalType": "bytes32",
          "name": "role",
          "type": "bytes32"
        },
        {
          "internalType": "address",
          "name": "account",
          "type": "address"
        }
      ],
      "name": "revokeRole",
      "outputs": [],
      "stateMutability": "nonpayable",
      "type": "function"
    },
    {
      "inputs": [
        {
          "internalType": "address",
          "name": "_to",
          "type": "address"
        }
      ],
      "name": "safeMint",
      "outputs": [],
      "stateMutability": "nonpayable",
      "type": "function"
    },
    {
      "inputs": [
        {
          "internalType": "address",
          "name": "from",
          "type": "address"
        },
        {
          "internalType": "address",
          "name": "to",
          "type": "address"
        },
        {
          "internalType": "uint256",
          "name": "tokenId",
          "type": "uint256"
        }
      ],
      "name": "safeTransferFrom",
      "outputs": [],
      "stateMutability": "nonpayable",
      "type": "function"
    },
    {
      "inputs": [
        {
          "internalType": "address",
          "name": "from",
          "type": "address"
        },
        {
          "internalType": "address",
          "name": "to",
          "type": "address"
        },
        {
          "internalType": "uint256",
          "name": "tokenId",
          "type": "uint256"
        },
        {
          "internalType": "bytes",
          "name": "data",
          "type": "bytes"
        }
      ],
      "name": "safeTransferFrom",
      "outputs": [],
      "stateMutability": "nonpayable",
      "type": "function"
    },
    {
      "inputs": [
        {
          "internalType": "address",
          "name": "operator",
          "type": "address"
        },
        {
          "internalType": "bool",
          "name": "approved",
          "type": "bool"
        }
      ],
      "name": "setApprovalForAll",
      "outputs": [],
      "stateMutability": "nonpayable",
      "type": "function"
    },
    {
      "inputs": [],
      "name": "sourceAddress",
      "outputs": [
        {
          "internalType": "string",
          "name": "",
          "type": "string"
        }
      ],
      "stateMutability": "view",
      "type": "function"
    },
    {
      "inputs": [],
      "name": "sourceChain",
      "outputs": [
        {
          "internalType": "string",
          "name": "",
          "type": "string"
        }
      ],
      "stateMutability": "view",
      "type": "function"
    },
    {
      "inputs": [
        {
          "internalType": "bytes4",
          "name": "_interfaceId",
          "type": "bytes4"
        }
      ],
      "name": "supportsInterface",
      "outputs": [
        {
          "internalType": "bool",
          "name": "",
          "type": "bool"
        }
      ],
      "stateMutability": "view",
      "type": "function"
    },
    {
      "inputs": [],
      "name": "symbol",
      "outputs": [
        {
          "internalType": "string",
          "name": "",
          "type": "string"
        }
      ],
      "stateMutability": "view",
      "type": "function"
    },
    {
      "inputs": [
        {
          "internalType": "uint256",
          "name": "tokenId",
          "type": "uint256"
        }
      ],
      "name": "tokenURI",
      "outputs": [
        {
          "internalType": "string",
          "name": "",
          "type": "string"
        }
      ],
      "stateMutability": "view",
      "type": "function"
    },
    {
      "inputs": [
        {
          "internalType": "address",
          "name": "from",
          "type": "address"
        },
        {
          "internalType": "address",
          "name": "to",
          "type": "address"
        },
        {
          "internalType": "uint256",
          "name": "tokenId",
          "type": "uint256"
        }
      ],
      "name": "transferFrom",
      "outputs": [],
      "stateMutability": "nonpayable",
      "type": "function"
    },
    {
      "inputs": [],
      "name": "unpause",
      "outputs": [],
      "stateMutability": "nonpayable",
      "type": "function"
    },
    {
      "inputs": [],
      "name": "vestingDate",
      "outputs": [
        {
          "internalType": "uint256",
          "name": "",
          "type": "uint256"
        }
      ],
      "stateMutability": "view",
      "type": "function"
    },
    {
      "inputs": [
        {
          "internalType": "uint256",
          "name": "",
          "type": "uint256"
        },
        {
          "internalType": "address",
          "name": "",
          "type": "address"
        }
      ],
      "name": "whitelistedNfts",
      "outputs": [
        {
          "internalType": "bool",
          "name": "",
          "type": "bool"
        }
      ],
      "stateMutability": "view",
      "type": "function"
    }
  ],
  "bytecode": "0x60c060405260405162005a1438038062005a14833981810160405281019062000029919062000504565b6040518060400160405280600881526020017f536f756c46756e640000000000000000000000000000000000000000000000008152506040518060400160405280600381526020017f534c4600000000000000000000000000000000000000000000000000000000008152508160009080519060200190620000ad929190620003af565b508060019080519060200190620000c6929190620003af565b5050506000600660006101000a81548160ff021916908315150217905550620000f96000801b336200024a60201b60201c565b6200012b7f65d7a28e3265b37a6474929f336521b332c1681b933f6cb9f3376673440d862a336200024a60201b60201c565b6200015d7f2dee5dd865e09c7ce6788d674a03682994f0b44339403ca07ac129a9de4bed6a336200024a60201b60201c565b6200018f7fc8a41221bcd7fcf2c225f5a9265e1d4d39949d89197159d59e5f4b87b62c419e866200024a60201b60201c565b83600b8190555082601160006101000a81548173ffffffffffffffffffffffffffffffffffffffff021916908373ffffffffffffffffffffffffffffffffffffffff1602179055508073ffffffffffffffffffffffffffffffffffffffff1660808173ffffffffffffffffffffffffffffffffffffffff16815250508173ffffffffffffffffffffffffffffffffffffffff1660a08173ffffffffffffffffffffffffffffffffffffffff16815250505050505050620005f1565b6200025c82826200033c60201b60201c565b620003385760016007600084815260200190815260200160002060000160008373ffffffffffffffffffffffffffffffffffffffff1673ffffffffffffffffffffffffffffffffffffffff16815260200190815260200160002060006101000a81548160ff021916908315150217905550620002dd620003a760201b60201c565b73ffffffffffffffffffffffffffffffffffffffff168173ffffffffffffffffffffffffffffffffffffffff16837f2f8788117e7eff1d82e926ec794901d17c78024a50270940304540a733656f0d60405160405180910390a45b5050565b60006007600084815260200190815260200160002060000160008373ffffffffffffffffffffffffffffffffffffffff1673ffffffffffffffffffffffffffffffffffffffff16815260200190815260200160002060009054906101000a900460ff16905092915050565b600033905090565b828054620003bd90620005bb565b90600052602060002090601f016020900481019282620003e157600085556200042d565b82601f10620003fc57805160ff19168380011785556200042d565b828001600101855582156200042d579182015b828111156200042c5782518255916020019190600101906200040f565b5b5090506200043c919062000440565b5090565b5b808211156200045b57600081600090555060010162000441565b5090565b600080fd5b600073ffffffffffffffffffffffffffffffffffffffff82169050919050565b6000620004918262000464565b9050919050565b620004a38162000484565b8114620004af57600080fd5b50565b600081519050620004c38162000498565b92915050565b6000819050919050565b620004de81620004c9565b8114620004ea57600080fd5b50565b600081519050620004fe81620004d3565b92915050565b600080600080600060a086880312156200052357620005226200045f565b5b60006200053388828901620004b2565b95505060206200054688828901620004ed565b94505060406200055988828901620004b2565b93505060606200056c88828901620004b2565b92505060806200057f88828901620004b2565b9150509295509295909350565b7f4e487b7100000000000000000000000000000000000000000000000000000000600052602260045260246000fd5b60006002820490506001821680620005d457607f821691505b60208210811415620005eb57620005ea6200058c565b5b50919050565b60805160a0516153fd620006176000396000610c0b0152600061129301526153fd6000f3fe6080604052600436106102515760003560e01c80638456cb5911610139578063c87b56dd116100b6578063d8f5df661161007a578063d8f5df66146108cd578063db4796c0146108f8578063e63ab1e914610935578063e985e9c514610960578063f94c0a111461099d578063fedce7a8146109c857610251565b8063c87b56dd146107e3578063ced3a40314610820578063cef5234f1461084b578063d547741f14610888578063d6706328146108b157610251565b8063a217fddf116100fd578063a217fddf146106fd578063a22cb46514610728578063b0fa844414610751578063b7134dfa1461077c578063b88d4fde146107ba57610251565b80638456cb591461062557806391d148541461063c5780639590cf751461067957806395d89b41146106955780639e42ce18146106c057610251565b806336568abe116101d2578063491606581161019657806349160658146105015780635c975abb1461052a5780636352211e1461055557806370a08231146105925780637ef65609146105cf57806380d14b4a146105fa57610251565b806336568abe146104325780633f4ba83a1461045b57806340d097c31461047257806342842e0e1461049b578063438a8ece146104c457610251565b80631a98b2e0116102195780631a98b2e01461034f5780631c6ffa461461037857806323b872dd146103a3578063248a9ca3146103cc5780632f2ff15d1461040957610251565b806301ffc9a71461025657806306fdde0314610293578063081812fc146102be578063095ea7b3146102fb578063116191b614610324575b600080fd5b34801561026257600080fd5b5061027d60048036038101906102789190613528565b610a05565b60405161028a9190613570565b60405180910390f35b34801561029f57600080fd5b506102a8610a17565b6040516102b59190613624565b60405180910390f35b3480156102ca57600080fd5b506102e560048036038101906102e0919061367c565b610aa9565b6040516102f291906136ea565b60405180910390f35b34801561030757600080fd5b50610322600480360381019061031d9190613731565b610aef565b005b34801561033057600080fd5b50610339610c07565b60405161034691906137d0565b60405180910390f35b34801561035b57600080fd5b50610376600480360381019061037191906138dc565b610c2f565b005b34801561038457600080fd5b5061038d610d41565b60405161039a9190613624565b60405180910390f35b3480156103af57600080fd5b506103ca60048036038101906103c591906139ec565b610dcf565b005b3480156103d857600080fd5b506103f360048036038101906103ee9190613a3f565b610e2f565b6040516104009190613a7b565b60405180910390f35b34801561041557600080fd5b50610430600480360381019061042b9190613a96565b610e4f565b005b34801561043e57600080fd5b5061045960048036038101906104549190613a96565b610e70565b005b34801561046757600080fd5b50610470610ef3565b005b34801561047e57600080fd5b5061049960048036038101906104949190613ad6565b610f28565b005b3480156104a757600080fd5b506104c260048036038101906104bd91906139ec565b610f79565b005b3480156104d057600080fd5b506104eb60048036038101906104e69190613b03565b610f99565b6040516104f89190613b52565b60405180910390f35b34801561050d57600080fd5b5061052860048036038101906105239190613b6d565b610fbe565b005b34801561053657600080fd5b5061053f61110a565b60405161054c9190613570565b60405180910390f35b34801561056157600080fd5b5061057c6004803603810190610577919061367c565b611121565b60405161058991906136ea565b60405180910390f35b34801561059e57600080fd5b506105b960048036038101906105b49190613ad6565b6111d3565b6040516105c69190613b52565b60405180910390f35b3480156105db57600080fd5b506105e461128b565b6040516105f19190613b52565b60405180910390f35b34801561060657600080fd5b5061060f611291565b60405161061c9190613c57565b60405180910390f35b34801561063157600080fd5b5061063a6112b5565b005b34801561064857600080fd5b50610663600480360381019061065e9190613a96565b6112ea565b6040516106709190613570565b60405180910390f35b610693600480360381019061068e919061367c565b611355565b005b3480156106a157600080fd5b506106aa61141b565b6040516106b79190613624565b60405180910390f35b3480156106cc57600080fd5b506106e760048036038101906106e2919061367c565b6114ad565b6040516106f49190613b52565b60405180910390f35b34801561070957600080fd5b506107126114c5565b60405161071f9190613a7b565b60405180910390f35b34801561073457600080fd5b5061074f600480360381019061074a9190613c9e565b6114cc565b005b34801561075d57600080fd5b506107666114e2565b6040516107739190613624565b60405180910390f35b34801561078857600080fd5b506107a3600480360381019061079e9190613cde565b611570565b6040516107b1929190613d1e565b60405180910390f35b3480156107c657600080fd5b506107e160048036038101906107dc9190613e77565b6115c7565b005b3480156107ef57600080fd5b5061080a6004803603810190610805919061367c565b611629565b6040516108179190613624565b60405180910390f35b34801561082c57600080fd5b5061083561172c565b6040516108429190613a7b565b60405180910390f35b34801561085757600080fd5b50610872600480360381019061086d9190613b03565b611750565b60405161087f9190613570565b60405180910390f35b34801561089457600080fd5b506108af60048036038101906108aa9190613a96565b61177f565b005b6108cb60048036038101906108c69190613efa565b6117a0565b005b3480156108d957600080fd5b506108e2611bc7565b6040516108ef9190613b52565b60405180910390f35b34801561090457600080fd5b5061091f600480360381019061091a919061367c565b611bcd565b60405161092c9190614036565b60405180910390f35b34801561094157600080fd5b5061094a611c92565b6040516109579190613a7b565b60405180910390f35b34801561096c57600080fd5b5061098760048036038101906109829190614052565b611cb6565b6040516109949190613570565b60405180910390f35b3480156109a957600080fd5b506109b2611d4a565b6040516109bf9190613a7b565b60405180910390f35b3480156109d457600080fd5b506109ef60048036038101906109ea9190613b03565b611d6e565b6040516109fc9190613570565b60405180910390f35b6000610a1082611d9d565b9050919050565b606060008054610a26906140c1565b80601f0160208091040260200160405190810160405280929190818152602001828054610a52906140c1565b8015610a9f5780601f10610a7457610100808354040283529160200191610a9f565b820191906000526020600020905b815481529060010190602001808311610a8257829003601f168201915b5050505050905090565b6000610ab482611e17565b6004600083815260200190815260200160002060009054906101000a900473ffffffffffffffffffffffffffffffffffffffff169050919050565b6000610afa82611121565b90508073ffffffffffffffffffffffffffffffffffffffff168373ffffffffffffffffffffffffffffffffffffffff161415610b6b576040517f08c379a0000000000000000000000000000000000000000000000000000000008152600401610b6290614165565b60405180910390fd5b8073ffffffffffffffffffffffffffffffffffffffff16610b8a611e62565b73ffffffffffffffffffffffffffffffffffffffff161480610bb95750610bb881610bb3611e62565b611cb6565b5b610bf8576040517f08c379a0000000000000000000000000000000000000000000000000000000008152600401610bef906141f7565b60405180910390fd5b610c028383611e6a565b505050565b60007f0000000000000000000000000000000000000000000000000000000000000000905090565b60008585604051610c41929190614247565b60405180910390209050610c53610c07565b73ffffffffffffffffffffffffffffffffffffffff16631876eed98c8c8c8c8c878b8b8b6040518a63ffffffff1660e01b8152600401610c9b9998979695949392919061428d565b602060405180830381600087803b158015610cb557600080fd5b505af1158015610cc9573d6000803e3d6000fd5b505050506040513d601f19601f82011682018060405250810190610ced919061431e565b610d23576040517f500c44b400000000000000000000000000000000000000000000000000000000815260040160405180910390fd5b610d348a8a8a8a8a8a8a8a8a611f23565b5050505050505050505050565b60088054610d4e906140c1565b80601f0160208091040260200160405190810160405280929190818152602001828054610d7a906140c1565b8015610dc75780601f10610d9c57610100808354040283529160200191610dc7565b820191906000526020600020905b815481529060010190602001808311610daa57829003601f168201915b505050505081565b610de0610dda611e62565b82611f2e565b610e1f576040517f08c379a0000000000000000000000000000000000000000000000000000000008152600401610e16906143bd565b60405180910390fd5b610e2a838383611fc3565b505050565b600060076000838152602001908152602001600020600101549050919050565b610e5882610e2f565b610e618161222a565b610e6b838361223e565b505050565b610e78611e62565b73ffffffffffffffffffffffffffffffffffffffff168173ffffffffffffffffffffffffffffffffffffffff1614610ee5576040517f08c379a0000000000000000000000000000000000000000000000000000000008152600401610edc9061444f565b60405180910390fd5b610eef828261231f565b5050565b7f65d7a28e3265b37a6474929f336521b332c1681b933f6cb9f3376673440d862a610f1d8161222a565b610f25612401565b50565b7f2dee5dd865e09c7ce6788d674a03682994f0b44339403ca07ac129a9de4bed6a610f528161222a565b6000610f5e600a612464565b9050610f6a600a612472565b610f748382612488565b505050565b610f94838383604051806020016040528060008152506115c7565b505050565b600f602052816000526040600020602052806000526040600020600091509150505481565b602a8484905014611004576040517f08c379a0000000000000000000000000000000000000000000000000000000008152600401610ffb906144bb565b60405180910390fd5b60008282604051611016929190614247565b60405180910390209050611028610c07565b73ffffffffffffffffffffffffffffffffffffffff16635f6970c38989898989876040518763ffffffff1660e01b815260040161106a969594939291906144db565b602060405180830381600087803b15801561108457600080fd5b505af1158015611098573d6000803e3d6000fd5b505050506040513d601f19601f820116820180604052508101906110bc919061431e565b6110f2576040517f500c44b400000000000000000000000000000000000000000000000000000000815260040160405180910390fd5b6111008787878787876124a6565b5050505050505050565b6000600660009054906101000a900460ff16905090565b6000806002600084815260200190815260200160002060009054906101000a900473ffffffffffffffffffffffffffffffffffffffff169050600073ffffffffffffffffffffffffffffffffffffffff168173ffffffffffffffffffffffffffffffffffffffff1614156111ca576040517f08c379a00000000000000000000000000000000000000000000000000000000081526004016111c19061457e565b60405180910390fd5b80915050919050565b60008073ffffffffffffffffffffffffffffffffffffffff168273ffffffffffffffffffffffffffffffffffffffff161415611244576040517f08c379a000000000000000000000000000000000000000000000000000000000815260040161123b90614610565b60405180910390fd5b600360008373ffffffffffffffffffffffffffffffffffffffff1673ffffffffffffffffffffffffffffffffffffffff168152602001908152602001600020549050919050565b6101f481565b7f000000000000000000000000000000000000000000000000000000000000000081565b7f65d7a28e3265b37a6474929f336521b332c1681b933f6cb9f3376673440d862a6112df8161222a565b6112e76124f4565b50565b60006007600084815260200190815260200160002060000160008373ffffffffffffffffffffffffffffffffffffffff1673ffffffffffffffffffffffffffffffffffffffff16815260200190815260200160002060009054906101000a900460ff16905092915050565b600073ffffffffffffffffffffffffffffffffffffffff1661137682611121565b73ffffffffffffffffffffffffffffffffffffffff1614156113cd576040517f08c379a00000000000000000000000000000000000000000000000000000000081526004016113c4906146a2565b60405180910390fd5b6113d8816001612557565b6000600190507f34ef4ac64e0eac8a04fe2b95d0d037921287716ff3019d01b6712d2e95075095828260405161140f9291906146c2565b60405180910390a15050565b60606001805461142a906140c1565b80601f0160208091040260200160405190810160405280929190818152602001828054611456906140c1565b80156114a35780601f10611478576101008083540402835291602001916114a3565b820191906000526020600020905b81548152906001019060200180831161148657829003601f168201915b5050505050905090565b60106020528060005260406000206000915090505481565b6000801b81565b6114de6114d7611e62565b838361273c565b5050565b600980546114ef906140c1565b80601f016020809104026020016040519081016040528092919081815260200182805461151b906140c1565b80156115685780601f1061153d57610100808354040283529160200191611568565b820191906000526020600020905b81548152906001019060200180831161154b57829003601f168201915b505050505081565b600e602052816000526040600020816005811061158c57600080fd5b60020201600091509150508060000160009054906101000a900473ffffffffffffffffffffffffffffffffffffffff16908060010154905082565b6115d86115d2611e62565b83611f2e565b611617576040517f08c379a000000000000000000000000000000000000000000000000000000000815260040161160e906143bd565b60405180910390fd5b611623848484846128a9565b50505050565b606061163482612905565b611673576040517f08c379a000000000000000000000000000000000000000000000000000000000815260040161166a90614737565b60405180910390fd5b601160009054906101000a900473ffffffffffffffffffffffffffffffffffffffff1673ffffffffffffffffffffffffffffffffffffffff1663611fc46930846040518363ffffffff1660e01b81526004016116d0929190613d1e565b60006040518083038186803b1580156116e857600080fd5b505afa1580156116fc573d6000803e3d6000fd5b505050506040513d6000823e3d601f19601f8201168201806040525081019061172591906147f8565b9050919050565b7fc8a41221bcd7fcf2c225f5a9265e1d4d39949d89197159d59e5f4b87b62c419e81565b600d6020528160005260406000206020528060005260406000206000915091509054906101000a900460ff1681565b61178882610e2f565b6117918161222a565b61179b838361231f565b505050565b7f2dee5dd865e09c7ce6788d674a03682994f0b44339403ca07ac129a9de4bed6a6117ca8161222a565b6000600f600086815260200190815260200160002060008573ffffffffffffffffffffffffffffffffffffffff1673ffffffffffffffffffffffffffffffffffffffff168152602001908152602001600020541015801561183e575060056010600086815260200190815260200160002054105b61187d576040517f08c379a0000000000000000000000000000000000000000000000000000000008152600401611874906148b3565b60405180910390fd5b6000600f600086815260200190815260200160002060008573ffffffffffffffffffffffffffffffffffffffff1673ffffffffffffffffffffffffffffffffffffffff1681526020019081526020016000205490506000811415611a2b576010600086815260200190815260200160002060008154809291906118ff90614902565b91905055506010600086815260200190815260200160002054600f600087815260200190815260200160002060008673ffffffffffffffffffffffffffffffffffffffff1673ffffffffffffffffffffffffffffffffffffffff16815260200190815260200160002081905550600f600086815260200190815260200160002060008573ffffffffffffffffffffffffffffffffffffffff1673ffffffffffffffffffffffffffffffffffffffff16815260200190815260200160002054905083600e600087815260200190815260200160002082600581106119e5576119e461494b565b5b6002020160000160006101000a81548173ffffffffffffffffffffffffffffffffffffffff021916908373ffffffffffffffffffffffffffffffffffffffff1602179055505b600073ffffffffffffffffffffffffffffffffffffffff168473ffffffffffffffffffffffffffffffffffffffff161415611aa757823414611aa2576040517f08c379a0000000000000000000000000000000000000000000000000000000008152600401611a99906149ec565b60405180910390fd5b611b38565b8373ffffffffffffffffffffffffffffffffffffffff166323b872dd3330866040518463ffffffff1660e01b8152600401611ae493929190614a0c565b602060405180830381600087803b158015611afe57600080fd5b505af1158015611b12573d6000803e3d6000fd5b505050506040513d601f19601f82011682018060405250810190611b36919061431e565b505b82600e60008781526020019081526020016000208260058110611b5e57611b5d61494b565b5b600202016001016000828254611b749190614a43565b925050819055507f03b9932ccfcbee04cee8cedad7802dbe5c786c57591e9a7cd4c8fea13b13be82858585611ba889611121565b604051611bb89493929190614a99565b60405180910390a15050505050565b600b5481565b611bd56133bc565b600e6000838152602001908152602001600020600580602002604051908101604052809291906000905b82821015611c87578382600202016040518060400160405290816000820160009054906101000a900473ffffffffffffffffffffffffffffffffffffffff1673ffffffffffffffffffffffffffffffffffffffff1673ffffffffffffffffffffffffffffffffffffffff16815260200160018201548152505081526020019060010190611bff565b505050509050919050565b7f65d7a28e3265b37a6474929f336521b332c1681b933f6cb9f3376673440d862a81565b6000600560008473ffffffffffffffffffffffffffffffffffffffff1673ffffffffffffffffffffffffffffffffffffffff16815260200190815260200160002060008373ffffffffffffffffffffffffffffffffffffffff1673ffffffffffffffffffffffffffffffffffffffff16815260200190815260200160002060009054906101000a900460ff16905092915050565b7f2dee5dd865e09c7ce6788d674a03682994f0b44339403ca07ac129a9de4bed6a81565b600c6020528160005260406000206020528060005260406000206000915091509054906101000a900460ff1681565b60007f7965db0b000000000000000000000000000000000000000000000000000000007bffffffffffffffffffffffffffffffffffffffffffffffffffffffff1916827bffffffffffffffffffffffffffffffffffffffffffffffffffffffff19161480611e105750611e0f82612971565b5b9050919050565b611e2081612905565b611e5f576040517f08c379a0000000000000000000000000000000000000000000000000000000008152600401611e569061457e565b60405180910390fd5b50565b600033905090565b816004600083815260200190815260200160002060006101000a81548173ffffffffffffffffffffffffffffffffffffffff021916908373ffffffffffffffffffffffffffffffffffffffff160217905550808273ffffffffffffffffffffffffffffffffffffffff16611edd83611121565b73ffffffffffffffffffffffffffffffffffffffff167f8c5be1e5ebec7d5bd14f71427d1e84f3dd0314c0f7b2291e5b200ac8c7c3b92560405160405180910390a45050565b505050505050505050565b600080611f3a83611121565b90508073ffffffffffffffffffffffffffffffffffffffff168473ffffffffffffffffffffffffffffffffffffffff161480611f7c5750611f7b8185611cb6565b5b80611fba57508373ffffffffffffffffffffffffffffffffffffffff16611fa284610aa9565b73ffffffffffffffffffffffffffffffffffffffff16145b91505092915050565b8273ffffffffffffffffffffffffffffffffffffffff16611fe382611121565b73ffffffffffffffffffffffffffffffffffffffff1614612039576040517f08c379a000000000000000000000000000000000000000000000000000000000815260040161203090614b50565b60405180910390fd5b600073ffffffffffffffffffffffffffffffffffffffff168273ffffffffffffffffffffffffffffffffffffffff1614156120a9576040517f08c379a00000000000000000000000000000000000000000000000000000000081526004016120a090614be2565b60405180910390fd5b6120b4838383612a53565b6120bf600082611e6a565b6001600360008573ffffffffffffffffffffffffffffffffffffffff1673ffffffffffffffffffffffffffffffffffffffff168152602001908152602001600020600082825461210f9190614c02565b925050819055506001600360008473ffffffffffffffffffffffffffffffffffffffff1673ffffffffffffffffffffffffffffffffffffffff16815260200190815260200160002060008282546121669190614a43565b92505081905550816002600083815260200190815260200160002060006101000a81548173ffffffffffffffffffffffffffffffffffffffff021916908373ffffffffffffffffffffffffffffffffffffffff160217905550808273ffffffffffffffffffffffffffffffffffffffff168473ffffffffffffffffffffffffffffffffffffffff167fddf252ad1be2c89b69c2b068fc378daa952ba7f163c4a11628f55a4df523b3ef60405160405180910390a4612225838383612ada565b505050565b61223b81612236611e62565b612adf565b50565b61224882826112ea565b61231b5760016007600084815260200190815260200160002060000160008373ffffffffffffffffffffffffffffffffffffffff1673ffffffffffffffffffffffffffffffffffffffff16815260200190815260200160002060006101000a81548160ff0219169083151502179055506122c0611e62565b73ffffffffffffffffffffffffffffffffffffffff168173ffffffffffffffffffffffffffffffffffffffff16837f2f8788117e7eff1d82e926ec794901d17c78024a50270940304540a733656f0d60405160405180910390a45b5050565b61232982826112ea565b156123fd5760006007600084815260200190815260200160002060000160008373ffffffffffffffffffffffffffffffffffffffff1673ffffffffffffffffffffffffffffffffffffffff16815260200190815260200160002060006101000a81548160ff0219169083151502179055506123a2611e62565b73ffffffffffffffffffffffffffffffffffffffff168173ffffffffffffffffffffffffffffffffffffffff16837ff6391f5c32d9c69d2a47ea670b442974b53935d1edc7fd64eb21e047a839171b60405160405180910390a45b5050565b612409612b7c565b6000600660006101000a81548160ff0219169083151502179055507f5db9ee0a495bf2e6ff9c91a7834c1ba4fdd244a5e8aa4e537bd38aeae4b073aa61244d611e62565b60405161245a91906136ea565b60405180910390a1565b600081600001549050919050565b6001816000016000828254019250508190555050565b6124a2828260405180602001604052806000815250612bc5565b5050565b60008083838101906124b89190614c74565b915091508787600891906124cd9291906133e9565b508585600991906124df9291906133e9565b506124ea8183612c20565b5050505050505050565b6124fc612d33565b6001600660006101000a81548160ff0219169083151502179055507f62e78cea01bee320cd4e420270b5ea74000d11b0c9f74754ebdbfc544b05a258612540611e62565b60405161254d91906136ea565b60405180910390a1565b60005b6010600084815260200190815260200160002054811015612737576000600e6000858152602001908152602001600020826005811061259c5761259b61494b565b5b6002020160000160009054906101000a900473ffffffffffffffffffffffffffffffffffffffff169050600083600e600087815260200190815260200160002084600581106125ee576125ed61494b565b5b60020201600101546126009190614ce3565b9050600073ffffffffffffffffffffffffffffffffffffffff168273ffffffffffffffffffffffffffffffffffffffff16141561268b5761264085611121565b73ffffffffffffffffffffffffffffffffffffffff166108fc829081150290604051600060405180830381858888f19350505050158015612685573d6000803e3d6000fd5b50612722565b8173ffffffffffffffffffffffffffffffffffffffff1663a9059cbb6126b087611121565b836040518363ffffffff1660e01b81526004016126ce929190613d1e565b602060405180830381600087803b1580156126e857600080fd5b505af11580156126fc573d6000803e3d6000fd5b505050506040513d601f19601f82011682018060405250810190612720919061431e565b505b5050808061272f90614902565b91505061255a565b505050565b8173ffffffffffffffffffffffffffffffffffffffff168373ffffffffffffffffffffffffffffffffffffffff1614156127ab576040517f08c379a00000000000000000000000000000000000000000000000000000000081526004016127a290614d60565b60405180910390fd5b80600560008573ffffffffffffffffffffffffffffffffffffffff1673ffffffffffffffffffffffffffffffffffffffff16815260200190815260200160002060008473ffffffffffffffffffffffffffffffffffffffff1673ffffffffffffffffffffffffffffffffffffffff16815260200190815260200160002060006101000a81548160ff0219169083151502179055508173ffffffffffffffffffffffffffffffffffffffff168373ffffffffffffffffffffffffffffffffffffffff167f17307eab39ab6107e8899845ad3d59bd9653f200f220920489ca2b5937696c318360405161289c9190613570565b60405180910390a3505050565b6128b4848484611fc3565b6128c084848484612d7d565b6128ff576040517f08c379a00000000000000000000000000000000000000000000000000000000081526004016128f690614df2565b60405180910390fd5b50505050565b60008073ffffffffffffffffffffffffffffffffffffffff166002600084815260200190815260200160002060009054906101000a900473ffffffffffffffffffffffffffffffffffffffff1673ffffffffffffffffffffffffffffffffffffffff1614159050919050565b60007f80ac58cd000000000000000000000000000000000000000000000000000000007bffffffffffffffffffffffffffffffffffffffffffffffffffffffff1916827bffffffffffffffffffffffffffffffffffffffffffffffffffffffff19161480612a3c57507f5b5e139f000000000000000000000000000000000000000000000000000000007bffffffffffffffffffffffffffffffffffffffffffffffffffffffff1916827bffffffffffffffffffffffffffffffffffffffffffffffffffffffff1916145b80612a4c5750612a4b82612f14565b5b9050919050565b612a5b612d33565b600073ffffffffffffffffffffffffffffffffffffffff168373ffffffffffffffffffffffffffffffffffffffff1614612aca576040517f08c379a0000000000000000000000000000000000000000000000000000000008152600401612ac190614e84565b60405180910390fd5b612ad5838383612f7e565b505050565b505050565b612ae982826112ea565b612b7857612b0e8173ffffffffffffffffffffffffffffffffffffffff166014612f83565b612b1c8360001c6020612f83565b604051602001612b2d929190614f78565b6040516020818303038152906040526040517f08c379a0000000000000000000000000000000000000000000000000000000008152600401612b6f9190613624565b60405180910390fd5b5050565b612b8461110a565b612bc3576040517f08c379a0000000000000000000000000000000000000000000000000000000008152600401612bba90614ffe565b60405180910390fd5b565b612bcf83836131bf565b612bdc6000848484612d7d565b612c1b576040517f08c379a0000000000000000000000000000000000000000000000000000000008152600401612c1290614df2565b60405180910390fd5b505050565b6000612c2b83611121565b90508073ffffffffffffffffffffffffffffffffffffffff168273ffffffffffffffffffffffffffffffffffffffff1614612c9b576040517f08c379a0000000000000000000000000000000000000000000000000000000008152600401612c9290615090565b60405180910390fd5b612ca7836101f4612557565b6000600190508173ffffffffffffffffffffffffffffffffffffffff166108fc829081150290604051600060405180830381858888f19350505050158015612cf3573d6000803e3d6000fd5b507f6304e1c0e6a866eff2e257afddc8be016c0c6f6264e47046379ec6a3a3cb2bde8482604051612d259291906146c2565b60405180910390a150505050565b612d3b61110a565b15612d7b576040517f08c379a0000000000000000000000000000000000000000000000000000000008152600401612d72906150fc565b60405180910390fd5b565b6000612d9e8473ffffffffffffffffffffffffffffffffffffffff16613399565b15612f07578373ffffffffffffffffffffffffffffffffffffffff1663150b7a02612dc7611e62565b8786866040518563ffffffff1660e01b8152600401612de99493929190615171565b602060405180830381600087803b158015612e0357600080fd5b505af1925050508015612e3457506040513d601f19601f82011682018060405250810190612e3191906151d2565b60015b612eb7573d8060008114612e64576040519150601f19603f3d011682016040523d82523d6000602084013e612e69565b606091505b50600081511415612eaf576040517f08c379a0000000000000000000000000000000000000000000000000000000008152600401612ea690614df2565b60405180910390fd5b805181602001fd5b63150b7a0260e01b7bffffffffffffffffffffffffffffffffffffffffffffffffffffffff1916817bffffffffffffffffffffffffffffffffffffffffffffffffffffffff191614915050612f0c565b600190505b949350505050565b60007f01ffc9a7000000000000000000000000000000000000000000000000000000007bffffffffffffffffffffffffffffffffffffffffffffffffffffffff1916827bffffffffffffffffffffffffffffffffffffffffffffffffffffffff1916149050919050565b505050565b606060006002836002612f9691906151ff565b612fa09190614a43565b67ffffffffffffffff811115612fb957612fb8613d4c565b5b6040519080825280601f01601f191660200182016040528015612feb5781602001600182028036833780820191505090505b5090507f3000000000000000000000000000000000000000000000000000000000000000816000815181106130235761302261494b565b5b60200101907effffffffffffffffffffffffffffffffffffffffffffffffffffffffffffff1916908160001a9053507f7800000000000000000000000000000000000000000000000000000000000000816001815181106130875761308661494b565b5b60200101907effffffffffffffffffffffffffffffffffffffffffffffffffffffffffffff1916908160001a905350600060018460026130c791906151ff565b6130d19190614a43565b90505b6001811115613171577f3031323334353637383961626364656600000000000000000000000000000000600f8616601081106131135761311261494b565b5b1a60f81b82828151811061312a5761312961494b565b5b60200101907effffffffffffffffffffffffffffffffffffffffffffffffffffffffffffff1916908160001a905350600485901c94508061316a90615259565b90506130d4565b50600084146131b5576040517f08c379a00000000000000000000000000000000000000000000000000000000081526004016131ac906152cf565b60405180910390fd5b8091505092915050565b600073ffffffffffffffffffffffffffffffffffffffff168273ffffffffffffffffffffffffffffffffffffffff16141561322f576040517f08c379a00000000000000000000000000000000000000000000000000000000081526004016132269061533b565b60405180910390fd5b61323881612905565b15613278576040517f08c379a000000000000000000000000000000000000000000000000000000000815260040161326f906153a7565b60405180910390fd5b61328460008383612a53565b6001600360008473ffffffffffffffffffffffffffffffffffffffff1673ffffffffffffffffffffffffffffffffffffffff16815260200190815260200160002060008282546132d49190614a43565b92505081905550816002600083815260200190815260200160002060006101000a81548173ffffffffffffffffffffffffffffffffffffffff021916908373ffffffffffffffffffffffffffffffffffffffff160217905550808273ffffffffffffffffffffffffffffffffffffffff16600073ffffffffffffffffffffffffffffffffffffffff167fddf252ad1be2c89b69c2b068fc378daa952ba7f163c4a11628f55a4df523b3ef60405160405180910390a461339560008383612ada565b5050565b6000808273ffffffffffffffffffffffffffffffffffffffff163b119050919050565b6040518060a001604052806005905b6133d361346f565b8152602001906001900390816133cb5790505090565b8280546133f5906140c1565b90600052602060002090601f016020900481019282613417576000855561345e565b82601f1061343057803560ff191683800117855561345e565b8280016001018555821561345e579182015b8281111561345d578235825591602001919060010190613442565b5b50905061346b919061349f565b5090565b6040518060400160405280600073ffffffffffffffffffffffffffffffffffffffff168152602001600081525090565b5b808211156134b85760008160009055506001016134a0565b5090565b6000604051905090565b600080fd5b600080fd5b60007fffffffff0000000000000000000000000000000000000000000000000000000082169050919050565b613505816134d0565b811461351057600080fd5b50565b600081359050613522816134fc565b92915050565b60006020828403121561353e5761353d6134c6565b5b600061354c84828501613513565b91505092915050565b60008115159050919050565b61356a81613555565b82525050565b60006020820190506135856000830184613561565b92915050565b600081519050919050565b600082825260208201905092915050565b60005b838110156135c55780820151818401526020810190506135aa565b838111156135d4576000848401525b50505050565b6000601f19601f8301169050919050565b60006135f68261358b565b6136008185613596565b93506136108185602086016135a7565b613619816135da565b840191505092915050565b6000602082019050818103600083015261363e81846135eb565b905092915050565b6000819050919050565b61365981613646565b811461366457600080fd5b50565b60008135905061367681613650565b92915050565b600060208284031215613692576136916134c6565b5b60006136a084828501613667565b91505092915050565b600073ffffffffffffffffffffffffffffffffffffffff82169050919050565b60006136d4826136a9565b9050919050565b6136e4816136c9565b82525050565b60006020820190506136ff60008301846136db565b92915050565b61370e816136c9565b811461371957600080fd5b50565b60008135905061372b81613705565b92915050565b60008060408385031215613748576137476134c6565b5b60006137568582860161371c565b925050602061376785828601613667565b9150509250929050565b6000819050919050565b600061379661379161378c846136a9565b613771565b6136a9565b9050919050565b60006137a88261377b565b9050919050565b60006137ba8261379d565b9050919050565b6137ca816137af565b82525050565b60006020820190506137e560008301846137c1565b92915050565b6000819050919050565b6137fe816137eb565b811461380957600080fd5b50565b60008135905061381b816137f5565b92915050565b600080fd5b600080fd5b600080fd5b60008083601f84011261384657613845613821565b5b8235905067ffffffffffffffff81111561386357613862613826565b5b60208301915083600182028301111561387f5761387e61382b565b5b9250929050565b60008083601f84011261389c5761389b613821565b5b8235905067ffffffffffffffff8111156138b9576138b8613826565b5b6020830191508360018202830111156138d5576138d461382b565b5b9250929050565b60008060008060008060008060008060c08b8d0312156138ff576138fe6134c6565b5b600061390d8d828e0161380c565b9a505060208b013567ffffffffffffffff81111561392e5761392d6134cb565b5b61393a8d828e01613830565b995099505060408b013567ffffffffffffffff81111561395d5761395c6134cb565b5b6139698d828e01613830565b975097505060608b013567ffffffffffffffff81111561398c5761398b6134cb565b5b6139988d828e01613886565b955095505060808b013567ffffffffffffffff8111156139bb576139ba6134cb565b5b6139c78d828e01613830565b935093505060a06139da8d828e01613667565b9150509295989b9194979a5092959850565b600080600060608486031215613a0557613a046134c6565b5b6000613a138682870161371c565b9350506020613a248682870161371c565b9250506040613a3586828701613667565b9150509250925092565b600060208284031215613a5557613a546134c6565b5b6000613a638482850161380c565b91505092915050565b613a75816137eb565b82525050565b6000602082019050613a906000830184613a6c565b92915050565b60008060408385031215613aad57613aac6134c6565b5b6000613abb8582860161380c565b9250506020613acc8582860161371c565b9150509250929050565b600060208284031215613aec57613aeb6134c6565b5b6000613afa8482850161371c565b91505092915050565b60008060408385031215613b1a57613b196134c6565b5b6000613b2885828601613667565b9250506020613b398582860161371c565b9150509250929050565b613b4c81613646565b82525050565b6000602082019050613b676000830184613b43565b92915050565b60008060008060008060006080888a031215613b8c57613b8b6134c6565b5b6000613b9a8a828b0161380c565b975050602088013567ffffffffffffffff811115613bbb57613bba6134cb565b5b613bc78a828b01613830565b9650965050604088013567ffffffffffffffff811115613bea57613be96134cb565b5b613bf68a828b01613830565b9450945050606088013567ffffffffffffffff811115613c1957613c186134cb565b5b613c258a828b01613886565b925092505092959891949750929550565b6000613c418261379d565b9050919050565b613c5181613c36565b82525050565b6000602082019050613c6c6000830184613c48565b92915050565b613c7b81613555565b8114613c8657600080fd5b50565b600081359050613c9881613c72565b92915050565b60008060408385031215613cb557613cb46134c6565b5b6000613cc38582860161371c565b9250506020613cd485828601613c89565b9150509250929050565b60008060408385031215613cf557613cf46134c6565b5b6000613d0385828601613667565b9250506020613d1485828601613667565b9150509250929050565b6000604082019050613d3360008301856136db565b613d406020830184613b43565b9392505050565b600080fd5b7f4e487b7100000000000000000000000000000000000000000000000000000000600052604160045260246000fd5b613d84826135da565b810181811067ffffffffffffffff82111715613da357613da2613d4c565b5b80604052505050565b6000613db66134bc565b9050613dc28282613d7b565b919050565b600067ffffffffffffffff821115613de257613de1613d4c565b5b613deb826135da565b9050602081019050919050565b82818337600083830152505050565b6000613e1a613e1584613dc7565b613dac565b905082815260208101848484011115613e3657613e35613d47565b5b613e41848285613df8565b509392505050565b600082601f830112613e5e57613e5d613821565b5b8135613e6e848260208601613e07565b91505092915050565b60008060008060808587031215613e9157613e906134c6565b5b6000613e9f8782880161371c565b9450506020613eb08782880161371c565b9350506040613ec187828801613667565b925050606085013567ffffffffffffffff811115613ee257613ee16134cb565b5b613eee87828801613e49565b91505092959194509250565b600080600060608486031215613f1357613f126134c6565b5b6000613f2186828701613667565b9350506020613f328682870161371c565b9250506040613f4386828701613667565b9150509250925092565b600060059050919050565b600081905092915050565b6000819050919050565b613f76816136c9565b82525050565b613f8581613646565b82525050565b604082016000820151613fa16000850182613f6d565b506020820151613fb46020850182613f7c565b50505050565b6000613fc68383613f8b565b60408301905092915050565b6000602082019050919050565b613fe881613f4d565b613ff28184613f58565b9250613ffd82613f63565b8060005b8381101561402e5781516140158782613fba565b965061402083613fd2565b925050600181019050614001565b505050505050565b60006101408201905061404c6000830184613fdf565b92915050565b60008060408385031215614069576140686134c6565b5b60006140778582860161371c565b92505060206140888582860161371c565b9150509250929050565b7f4e487b7100000000000000000000000000000000000000000000000000000000600052602260045260246000fd5b600060028204905060018216806140d957607f821691505b602082108114156140ed576140ec614092565b5b50919050565b7f4552433732313a20617070726f76616c20746f2063757272656e74206f776e6560008201527f7200000000000000000000000000000000000000000000000000000000000000602082015250565b600061414f602183613596565b915061415a826140f3565b604082019050919050565b6000602082019050818103600083015261417e81614142565b9050919050565b7f4552433732313a20617070726f76652063616c6c6572206973206e6f7420746f60008201527f6b656e206f776e6572206e6f7220617070726f76656420666f7220616c6c0000602082015250565b60006141e1603e83613596565b91506141ec82614185565b604082019050919050565b60006020820190508181036000830152614210816141d4565b9050919050565b600081905092915050565b600061422e8385614217565b935061423b838584613df8565b82840190509392505050565b6000614254828486614222565b91508190509392505050565b600061426c8385613596565b9350614279838584613df8565b614282836135da565b840190509392505050565b600060c0820190506142a2600083018c613a6c565b81810360208301526142b5818a8c614260565b905081810360408301526142ca81888a614260565b90506142d96060830187613a6c565b81810360808301526142ec818587614260565b90506142fb60a0830184613b43565b9a9950505050505050505050565b60008151905061431881613c72565b92915050565b600060208284031215614334576143336134c6565b5b600061434284828501614309565b91505092915050565b7f4552433732313a2063616c6c6572206973206e6f7420746f6b656e206f776e6560008201527f72206e6f7220617070726f766564000000000000000000000000000000000000602082015250565b60006143a7602e83613596565b91506143b28261434b565b604082019050919050565b600060208201905081810360008301526143d68161439a565b9050919050565b7f416363657373436f6e74726f6c3a2063616e206f6e6c792072656e6f756e636560008201527f20726f6c657320666f722073656c660000000000000000000000000000000000602082015250565b6000614439602f83613596565b9150614444826143dd565b604082019050919050565b600060208201905081810360008301526144688161442c565b9050919050565b7f7374617274000000000000000000000000000000000000000000000000000000600082015250565b60006144a5600583613596565b91506144b08261446f565b602082019050919050565b600060208201905081810360008301526144d481614498565b9050919050565b60006080820190506144f06000830189613a6c565b8181036020830152614503818789614260565b90508181036040830152614518818587614260565b90506145276060830184613a6c565b979650505050505050565b7f4552433732313a20696e76616c696420746f6b656e2049440000000000000000600082015250565b6000614568601883613596565b915061457382614532565b602082019050919050565b600060208201905081810360008301526145978161455b565b9050919050565b7f4552433732313a2061646472657373207a65726f206973206e6f74206120766160008201527f6c6964206f776e65720000000000000000000000000000000000000000000000602082015250565b60006145fa602983613596565b91506146058261459e565b604082019050919050565b60006020820190508181036000830152614629816145ed565b9050919050565b7f536f756c46756e642e636c61696d46756e64734561726c793a2066756e64206460008201527f6f6573206e6f7420657869737400000000000000000000000000000000000000602082015250565b600061468c602d83613596565b915061469782614630565b604082019050919050565b600060208201905081810360008301526146bb8161467f565b9050919050565b60006040820190506146d76000830185613b43565b6146e46020830184613b43565b9392505050565b7f546f6b656e20646f6573206e6f74206578697374000000000000000000000000600082015250565b6000614721601483613596565b915061472c826146eb565b602082019050919050565b6000602082019050818103600083015261475081614714565b9050919050565b600067ffffffffffffffff82111561477257614771613d4c565b5b61477b826135da565b9050602081019050919050565b600061479b61479684614757565b613dac565b9050828152602081018484840111156147b7576147b6613d47565b5b6147c28482856135a7565b509392505050565b600082601f8301126147df576147de613821565b5b81516147ef848260208601614788565b91505092915050565b60006020828403121561480e5761480d6134c6565b5b600082015167ffffffffffffffff81111561482c5761482b6134cb565b5b614838848285016147ca565b91505092915050565b7f536f756c46756e642e6465706f73697446756e643a206d61782063757272656e60008201527f6379207479706520726561636865642e00000000000000000000000000000000602082015250565b600061489d603083613596565b91506148a882614841565b604082019050919050565b600060208201905081810360008301526148cc81614890565b9050919050565b7f4e487b7100000000000000000000000000000000000000000000000000000000600052601160045260246000fd5b600061490d82613646565b91507fffffffffffffffffffffffffffffffffffffffffffffffffffffffffffffffff8214156149405761493f6148d3565b5b600182019050919050565b7f4e487b7100000000000000000000000000000000000000000000000000000000600052603260045260246000fd5b7f536f756c46756e642e6465706f73697446756e643a20616d6f756e74206d697360008201527f6d617463682e0000000000000000000000000000000000000000000000000000602082015250565b60006149d6602683613596565b91506149e18261497a565b604082019050919050565b60006020820190508181036000830152614a05816149c9565b9050919050565b6000606082019050614a2160008301866136db565b614a2e60208301856136db565b614a3b6040830184613b43565b949350505050565b6000614a4e82613646565b9150614a5983613646565b9250827fffffffffffffffffffffffffffffffffffffffffffffffffffffffffffffffff03821115614a8e57614a8d6148d3565b5b828201905092915050565b6000608082019050614aae6000830187613b43565b614abb60208301866136db565b614ac86040830185613b43565b614ad560608301846136db565b95945050505050565b7f4552433732313a207472616e736665722066726f6d20696e636f72726563742060008201527f6f776e6572000000000000000000000000000000000000000000000000000000602082015250565b6000614b3a602583613596565b9150614b4582614ade565b604082019050919050565b60006020820190508181036000830152614b6981614b2d565b9050919050565b7f4552433732313a207472616e7366657220746f20746865207a65726f2061646460008201527f7265737300000000000000000000000000000000000000000000000000000000602082015250565b6000614bcc602483613596565b9150614bd782614b70565b604082019050919050565b60006020820190508181036000830152614bfb81614bbf565b9050919050565b6000614c0d82613646565b9150614c1883613646565b925082821015614c2b57614c2a6148d3565b5b828203905092915050565b6000614c41826136a9565b9050919050565b614c5181614c36565b8114614c5c57600080fd5b50565b600081359050614c6e81614c48565b92915050565b60008060408385031215614c8b57614c8a6134c6565b5b6000614c9985828601614c5f565b9250506020614caa85828601613667565b9150509250929050565b7f4e487b7100000000000000000000000000000000000000000000000000000000600052601260045260246000fd5b6000614cee82613646565b9150614cf983613646565b925082614d0957614d08614cb4565b5b828204905092915050565b7f4552433732313a20617070726f766520746f2063616c6c657200000000000000600082015250565b6000614d4a601983613596565b9150614d5582614d14565b602082019050919050565b60006020820190508181036000830152614d7981614d3d565b9050919050565b7f4552433732313a207472616e7366657220746f206e6f6e20455243373231526560008201527f63656976657220696d706c656d656e7465720000000000000000000000000000602082015250565b6000614ddc603283613596565b9150614de782614d80565b604082019050919050565b60006020820190508181036000830152614e0b81614dcf565b9050919050565b7f536f756c46756e643a20736f756c20626f756e6420746f6b656e2063616e6e6f60008201527f74206265207472616e7366657272656400000000000000000000000000000000602082015250565b6000614e6e603083613596565b9150614e7982614e12565b604082019050919050565b60006020820190508181036000830152614e9d81614e61565b9050919050565b600081905092915050565b7f416363657373436f6e74726f6c3a206163636f756e7420000000000000000000600082015250565b6000614ee5601783614ea4565b9150614ef082614eaf565b601782019050919050565b6000614f068261358b565b614f108185614ea4565b9350614f208185602086016135a7565b80840191505092915050565b7f206973206d697373696e6720726f6c6520000000000000000000000000000000600082015250565b6000614f62601183614ea4565b9150614f6d82614f2c565b601182019050919050565b6000614f8382614ed8565b9150614f8f8285614efb565b9150614f9a82614f55565b9150614fa68284614efb565b91508190509392505050565b7f5061757361626c653a206e6f7420706175736564000000000000000000000000600082015250565b6000614fe8601483613596565b9150614ff382614fb2565b602082019050919050565b6000602082019050818103600083015261501781614fdb565b9050919050565b7f536f756c46756e642e636c61696d46756e64734561726c793a20696e76616c6960008201527f6420616464726573730000000000000000000000000000000000000000000000602082015250565b600061507a602983613596565b91506150858261501e565b604082019050919050565b600060208201905081810360008301526150a98161506d565b9050919050565b7f5061757361626c653a2070617573656400000000000000000000000000000000600082015250565b60006150e6601083613596565b91506150f1826150b0565b602082019050919050565b60006020820190508181036000830152615115816150d9565b9050919050565b600081519050919050565b600082825260208201905092915050565b60006151438261511c565b61514d8185615127565b935061515d8185602086016135a7565b615166816135da565b840191505092915050565b600060808201905061518660008301876136db565b61519360208301866136db565b6151a06040830185613b43565b81810360608301526151b28184615138565b905095945050505050565b6000815190506151cc816134fc565b92915050565b6000602082840312156151e8576151e76134c6565b5b60006151f6848285016151bd565b91505092915050565b600061520a82613646565b915061521583613646565b9250817fffffffffffffffffffffffffffffffffffffffffffffffffffffffffffffffff048311821515161561524e5761524d6148d3565b5b828202905092915050565b600061526482613646565b91506000821415615278576152776148d3565b5b600182039050919050565b7f537472696e67733a20686578206c656e67746820696e73756666696369656e74600082015250565b60006152b9602083613596565b91506152c482615283565b602082019050919050565b600060208201905081810360008301526152e8816152ac565b9050919050565b7f4552433732313a206d696e7420746f20746865207a65726f2061646472657373600082015250565b6000615325602083613596565b9150615330826152ef565b602082019050919050565b6000602082019050818103600083015261535481615318565b9050919050565b7f4552433732313a20746f6b656e20616c7265616479206d696e74656400000000600082015250565b6000615391601c83613596565b915061539c8261535b565b602082019050919050565b600060208201905081810360008301526153c081615384565b905091905056fea26469706673582212200a18d10bb6d7d4b89736863db40ab8f78e7b5b74d6d354739b2ce2ac3503d57c64736f6c63430008090033",
  "linkReferences": {},
  "deployedLinkReferences": {}
}