{
  "_format": "hh-sol-artifact-1",
  "contractName": "SoulFund",
  "sourceName": "contracts/SoulFund.sol",
  "abi": [
    {
      "inputs": [],
      "stateMutability": "payable",
      "type": "constructor"
    },
    {
      "anonymous": false,
      "inputs": [
        {
          "indexed": true,
          "internalType": "address",
          "name": "owner",
          "type": "address"
        },
        {
          "indexed": true,
          "internalType": "address",
          "name": "approved",
          "type": "address"
        },
        {
          "indexed": true,
          "internalType": "uint256",
          "name": "tokenId",
          "type": "uint256"
        }
      ],
      "name": "Approval",
      "type": "event"
    },
    {
      "anonymous": false,
      "inputs": [
        {
          "indexed": true,
          "internalType": "address",
          "name": "owner",
          "type": "address"
        },
        {
          "indexed": true,
          "internalType": "address",
          "name": "operator",
          "type": "address"
        },
        {
          "indexed": false,
          "internalType": "bool",
          "name": "approved",
          "type": "bool"
        }
      ],
      "name": "ApprovalForAll",
      "type": "event"
    },
    {
      "anonymous": false,
      "inputs": [
        {
          "indexed": false,
          "internalType": "uint256",
          "name": "soulFundId",
          "type": "uint256"
        },
        {
          "indexed": false,
          "internalType": "address",
          "name": "currency",
          "type": "address"
        },
        {
          "indexed": false,
          "internalType": "uint256",
          "name": "amount",
          "type": "uint256"
        },
        {
          "indexed": false,
          "internalType": "address",
          "name": "beneficary",
          "type": "address"
        }
      ],
      "name": "FundDeposited",
      "type": "event"
    },
    {
      "anonymous": false,
      "inputs": [
        {
          "indexed": false,
          "internalType": "uint8",
          "name": "version",
          "type": "uint8"
        }
      ],
      "name": "Initialized",
      "type": "event"
    },
    {
      "anonymous": false,
      "inputs": [
        {
          "indexed": false,
          "internalType": "address",
          "name": "newNftAddress",
          "type": "address"
        }
      ],
      "name": "NewWhitelistedNFT",
      "type": "event"
    },
    {
      "anonymous": false,
      "inputs": [
        {
          "indexed": false,
          "internalType": "address",
          "name": "account",
          "type": "address"
        }
      ],
      "name": "Paused",
      "type": "event"
    },
    {
      "anonymous": false,
      "inputs": [
        {
          "indexed": true,
          "internalType": "bytes32",
          "name": "role",
          "type": "bytes32"
        },
        {
          "indexed": true,
          "internalType": "bytes32",
          "name": "previousAdminRole",
          "type": "bytes32"
        },
        {
          "indexed": true,
          "internalType": "bytes32",
          "name": "newAdminRole",
          "type": "bytes32"
        }
      ],
      "name": "RoleAdminChanged",
      "type": "event"
    },
    {
      "anonymous": false,
      "inputs": [
        {
          "indexed": true,
          "internalType": "bytes32",
          "name": "role",
          "type": "bytes32"
        },
        {
          "indexed": true,
          "internalType": "address",
          "name": "account",
          "type": "address"
        },
        {
          "indexed": true,
          "internalType": "address",
          "name": "sender",
          "type": "address"
        }
      ],
      "name": "RoleGranted",
      "type": "event"
    },
    {
      "anonymous": false,
      "inputs": [
        {
          "indexed": true,
          "internalType": "bytes32",
          "name": "role",
          "type": "bytes32"
        },
        {
          "indexed": true,
          "internalType": "address",
          "name": "account",
          "type": "address"
        },
        {
          "indexed": true,
          "internalType": "address",
          "name": "sender",
          "type": "address"
        }
      ],
      "name": "RoleRevoked",
      "type": "event"
    },
    {
      "anonymous": false,
      "inputs": [
        {
          "indexed": true,
          "internalType": "address",
          "name": "from",
          "type": "address"
        },
        {
          "indexed": true,
          "internalType": "address",
          "name": "to",
          "type": "address"
        },
        {
          "indexed": true,
          "internalType": "uint256",
          "name": "tokenId",
          "type": "uint256"
        }
      ],
      "name": "Transfer",
      "type": "event"
    },
    {
      "anonymous": false,
      "inputs": [
        {
          "indexed": false,
          "internalType": "address",
          "name": "account",
          "type": "address"
        }
      ],
      "name": "Unpaused",
      "type": "event"
    },
    {
      "anonymous": false,
      "inputs": [
        {
          "indexed": false,
          "internalType": "uint256",
          "name": "soulFundId",
          "type": "uint256"
        },
        {
          "indexed": false,
          "internalType": "uint256",
          "name": "vestedAmount",
          "type": "uint256"
        }
      ],
      "name": "VestedFundClaimed",
      "type": "event"
    },
    {
      "anonymous": false,
      "inputs": [
        {
          "indexed": false,
          "internalType": "uint256",
          "name": "tokenId",
          "type": "uint256"
        },
        {
          "indexed": false,
          "internalType": "uint256",
          "name": "rewardAmount",
          "type": "uint256"
        },
        {
          "indexed": false,
          "internalType": "address",
          "name": "nftAddress",
          "type": "address"
        },
        {
          "indexed": false,
          "internalType": "uint256",
          "name": "nftTokenId",
          "type": "uint256"
        }
      ],
      "name": "VestedFundsClaimedEarly",
      "type": "event"
    },
    {
      "inputs": [],
      "name": "BENEFICIARY_ROLE",
      "outputs": [
        {
          "internalType": "bytes32",
          "name": "",
          "type": "bytes32"
        }
      ],
      "stateMutability": "view",
      "type": "function"
    },
    {
      "inputs": [],
      "name": "DEFAULT_ADMIN_ROLE",
      "outputs": [
        {
          "internalType": "bytes32",
          "name": "",
          "type": "bytes32"
        }
      ],
      "stateMutability": "view",
      "type": "function"
    },
    {
      "inputs": [],
      "name": "FIVE_PERCENT",
      "outputs": [
        {
          "internalType": "uint256",
          "name": "",
          "type": "uint256"
        }
      ],
      "stateMutability": "view",
      "type": "function"
    },
    {
      "inputs": [],
      "name": "GRANTER_ROLE",
      "outputs": [
        {
          "internalType": "bytes32",
          "name": "",
          "type": "bytes32"
        }
      ],
      "stateMutability": "view",
      "type": "function"
    },
    {
      "inputs": [],
      "name": "PAUSER_ROLE",
      "outputs": [
        {
          "internalType": "bytes32",
          "name": "",
          "type": "bytes32"
        }
      ],
      "stateMutability": "view",
      "type": "function"
    },
    {
      "inputs": [
        {
          "internalType": "address",
          "name": "to",
          "type": "address"
        },
        {
          "internalType": "uint256",
          "name": "tokenId",
          "type": "uint256"
        }
      ],
      "name": "approve",
      "outputs": [],
      "stateMutability": "nonpayable",
      "type": "function"
    },
    {
      "inputs": [
        {
          "internalType": "address",
          "name": "owner",
          "type": "address"
        }
      ],
      "name": "balanceOf",
      "outputs": [
        {
          "internalType": "uint256",
          "name": "",
          "type": "uint256"
        }
      ],
      "stateMutability": "view",
      "type": "function"
    },
    {
      "inputs": [
        {
          "internalType": "uint256",
          "name": "",
          "type": "uint256"
        },
        {
          "internalType": "uint256",
          "name": "",
          "type": "uint256"
        }
      ],
      "name": "balances",
      "outputs": [
        {
          "internalType": "address",
          "name": "token",
          "type": "address"
        },
        {
          "internalType": "uint256",
          "name": "balance",
          "type": "uint256"
        }
      ],
      "stateMutability": "view",
      "type": "function"
    },
    {
      "inputs": [
        {
          "internalType": "uint256",
          "name": "_tokenId",
          "type": "uint256"
        }
      ],
      "name": "balancesExt",
      "outputs": [
        {
          "components": [
            {
              "internalType": "address",
              "name": "token",
              "type": "address"
            },
            {
              "internalType": "uint256",
              "name": "balance",
              "type": "uint256"
            }
          ],
          "internalType": "struct ISoulFund.Balances[5]",
          "name": "",
          "type": "tuple[5]"
        }
      ],
      "stateMutability": "view",
      "type": "function"
    },
    {
      "inputs": [
        {
          "internalType": "uint256",
          "name": "_soulFundId",
          "type": "uint256"
        }
      ],
      "name": "claimAllVestedFunds",
      "outputs": [],
      "stateMutability": "payable",
      "type": "function"
    },
    {
      "inputs": [
        {
          "internalType": "address",
          "name": "_nftAddress",
          "type": "address"
        },
        {
          "internalType": "uint256",
          "name": "_soulFundId",
          "type": "uint256"
        },
        {
          "internalType": "uint256",
          "name": "_nftId",
          "type": "uint256"
        }
      ],
      "name": "claimFundsEarly",
      "outputs": [],
      "stateMutability": "payable",
      "type": "function"
    },
    {
      "inputs": [
        {
          "internalType": "uint256",
          "name": "",
          "type": "uint256"
        },
        {
          "internalType": "address",
          "name": "",
          "type": "address"
        }
      ],
      "name": "currencyIndices",
      "outputs": [
        {
          "internalType": "uint256",
          "name": "",
          "type": "uint256"
        }
      ],
      "stateMutability": "view",
      "type": "function"
    },
    {
      "inputs": [
        {
          "internalType": "uint256",
          "name": "soulFundId",
          "type": "uint256"
        },
        {
          "internalType": "address",
          "name": "currency",
          "type": "address"
        },
        {
          "internalType": "uint256",
          "name": "amount",
          "type": "uint256"
        }
      ],
      "name": "depositFund",
      "outputs": [],
      "stateMutability": "payable",
      "type": "function"
    },
    {
      "inputs": [
        {
          "internalType": "uint256",
          "name": "tokenId",
          "type": "uint256"
        }
      ],
      "name": "getApproved",
      "outputs": [
        {
          "internalType": "address",
          "name": "",
          "type": "address"
        }
      ],
      "stateMutability": "view",
      "type": "function"
    },
    {
      "inputs": [
        {
          "internalType": "bytes32",
          "name": "role",
          "type": "bytes32"
        }
      ],
      "name": "getRoleAdmin",
      "outputs": [
        {
          "internalType": "bytes32",
          "name": "",
          "type": "bytes32"
        }
      ],
      "stateMutability": "view",
      "type": "function"
    },
    {
      "inputs": [
        {
          "internalType": "bytes32",
          "name": "role",
          "type": "bytes32"
        },
        {
          "internalType": "address",
          "name": "account",
          "type": "address"
        }
      ],
      "name": "grantRole",
      "outputs": [],
      "stateMutability": "nonpayable",
      "type": "function"
    },
    {
      "inputs": [
        {
          "internalType": "bytes32",
          "name": "role",
          "type": "bytes32"
        },
        {
          "internalType": "address",
          "name": "account",
          "type": "address"
        }
      ],
      "name": "hasRole",
      "outputs": [
        {
          "internalType": "bool",
          "name": "",
          "type": "bool"
        }
      ],
      "stateMutability": "view",
      "type": "function"
    },
    {
      "inputs": [
        {
          "internalType": "address",
          "name": "_beneficiary",
          "type": "address"
        },
        {
          "internalType": "uint256",
          "name": "_vestingDate",
          "type": "uint256"
        }
      ],
      "name": "initialize",
      "outputs": [],
      "stateMutability": "payable",
      "type": "function"
    },
    {
      "inputs": [
        {
          "internalType": "address",
          "name": "owner",
          "type": "address"
        },
        {
          "internalType": "address",
          "name": "operator",
          "type": "address"
        }
      ],
      "name": "isApprovedForAll",
      "outputs": [
        {
          "internalType": "bool",
          "name": "",
          "type": "bool"
        }
      ],
      "stateMutability": "view",
      "type": "function"
    },
    {
      "inputs": [],
      "name": "name",
      "outputs": [
        {
          "internalType": "string",
          "name": "",
          "type": "string"
        }
      ],
      "stateMutability": "view",
      "type": "function"
    },
    {
      "inputs": [
        {
          "internalType": "uint256",
          "name": "",
          "type": "uint256"
        },
        {
          "internalType": "address",
          "name": "",
          "type": "address"
        }
      ],
      "name": "nftIsSpent",
      "outputs": [
        {
          "internalType": "bool",
          "name": "",
          "type": "bool"
        }
      ],
      "stateMutability": "view",
      "type": "function"
    },
    {
      "inputs": [
        {
          "internalType": "uint256",
          "name": "",
          "type": "uint256"
        }
      ],
      "name": "numCurrencies",
      "outputs": [
        {
          "internalType": "uint256",
          "name": "",
          "type": "uint256"
        }
      ],
      "stateMutability": "view",
      "type": "function"
    },
    {
      "inputs": [
        {
          "internalType": "uint256",
          "name": "tokenId",
          "type": "uint256"
        }
      ],
      "name": "ownerOf",
      "outputs": [
        {
          "internalType": "address",
          "name": "",
          "type": "address"
        }
      ],
      "stateMutability": "view",
      "type": "function"
    },
    {
      "inputs": [],
      "name": "pause",
      "outputs": [],
      "stateMutability": "nonpayable",
      "type": "function"
    },
    {
      "inputs": [],
      "name": "paused",
      "outputs": [
        {
          "internalType": "bool",
          "name": "",
          "type": "bool"
        }
      ],
      "stateMutability": "view",
      "type": "function"
    },
    {
      "inputs": [
        {
          "internalType": "bytes32",
          "name": "role",
          "type": "bytes32"
        },
        {
          "internalType": "address",
          "name": "account",
          "type": "address"
        }
      ],
      "name": "renounceRole",
      "outputs": [],
      "stateMutability": "nonpayable",
      "type": "function"
    },
    {
      "inputs": [
        {
          "internalType": "bytes32",
          "name": "role",
          "type": "bytes32"
        },
        {
          "internalType": "address",
          "name": "account",
          "type": "address"
        }
      ],
      "name": "revokeRole",
      "outputs": [],
      "stateMutability": "nonpayable",
      "type": "function"
    },
    {
      "inputs": [
        {
          "internalType": "address",
          "name": "_to",
          "type": "address"
        }
      ],
      "name": "safeMint",
      "outputs": [],
      "stateMutability": "nonpayable",
      "type": "function"
    },
    {
      "inputs": [
        {
          "internalType": "address",
          "name": "from",
          "type": "address"
        },
        {
          "internalType": "address",
          "name": "to",
          "type": "address"
        },
        {
          "internalType": "uint256",
          "name": "tokenId",
          "type": "uint256"
        }
      ],
      "name": "safeTransferFrom",
      "outputs": [],
      "stateMutability": "nonpayable",
      "type": "function"
    },
    {
      "inputs": [
        {
          "internalType": "address",
          "name": "from",
          "type": "address"
        },
        {
          "internalType": "address",
          "name": "to",
          "type": "address"
        },
        {
          "internalType": "uint256",
          "name": "tokenId",
          "type": "uint256"
        },
        {
          "internalType": "bytes",
          "name": "data",
          "type": "bytes"
        }
      ],
      "name": "safeTransferFrom",
      "outputs": [],
      "stateMutability": "nonpayable",
      "type": "function"
    },
    {
      "inputs": [
        {
          "internalType": "address",
          "name": "operator",
          "type": "address"
        },
        {
          "internalType": "bool",
          "name": "approved",
          "type": "bool"
        }
      ],
      "name": "setApprovalForAll",
      "outputs": [],
      "stateMutability": "nonpayable",
      "type": "function"
    },
    {
      "inputs": [
        {
          "internalType": "bytes4",
          "name": "_interfaceId",
          "type": "bytes4"
        }
      ],
      "name": "supportsInterface",
      "outputs": [
        {
          "internalType": "bool",
          "name": "",
          "type": "bool"
        }
      ],
      "stateMutability": "view",
      "type": "function"
    },
    {
      "inputs": [],
      "name": "symbol",
      "outputs": [
        {
          "internalType": "string",
          "name": "",
          "type": "string"
        }
      ],
      "stateMutability": "view",
      "type": "function"
    },
    {
      "inputs": [
        {
          "internalType": "uint256",
          "name": "tokenId",
          "type": "uint256"
        }
      ],
      "name": "tokenURI",
      "outputs": [
        {
          "internalType": "string",
          "name": "",
          "type": "string"
        }
      ],
      "stateMutability": "view",
      "type": "function"
    },
    {
      "inputs": [
        {
          "internalType": "address",
          "name": "from",
          "type": "address"
        },
        {
          "internalType": "address",
          "name": "to",
          "type": "address"
        },
        {
          "internalType": "uint256",
          "name": "tokenId",
          "type": "uint256"
        }
      ],
      "name": "transferFrom",
      "outputs": [],
      "stateMutability": "nonpayable",
      "type": "function"
    },
    {
      "inputs": [],
      "name": "unpause",
      "outputs": [],
      "stateMutability": "nonpayable",
      "type": "function"
    },
    {
      "inputs": [],
      "name": "vestingDate",
      "outputs": [
        {
          "internalType": "uint256",
          "name": "",
          "type": "uint256"
        }
      ],
      "stateMutability": "view",
      "type": "function"
    },
    {
      "inputs": [
        {
          "internalType": "address",
          "name": "_newNftAddress",
          "type": "address"
        },
        {
          "internalType": "uint256",
          "name": "_tokenId",
          "type": "uint256"
        }
      ],
      "name": "whitelistNft",
      "outputs": [],
      "stateMutability": "nonpayable",
      "type": "function"
    },
    {
      "inputs": [
        {
          "internalType": "uint256",
          "name": "",
          "type": "uint256"
        },
        {
          "internalType": "address",
          "name": "",
          "type": "address"
        }
      ],
      "name": "whitelistedNfts",
      "outputs": [
        {
          "internalType": "bool",
          "name": "",
          "type": "bool"
        }
      ],
      "stateMutability": "view",
      "type": "function"
    }
  ],
  "bytecode": "0x6080604052620000146200001a60201b60201c565b620001c5565b600060019054906101000a900460ff16156200006d576040517f08c379a0000000000000000000000000000000000000000000000000000000008152600401620000649062000168565b60405180910390fd5b60ff801660008054906101000a900460ff1660ff161015620000df5760ff6000806101000a81548160ff021916908360ff1602179055507f7f26b83ff96e1f2b6a682f133852f6798a09c465da95921460cefb384740249860ff604051620000d69190620001a8565b60405180910390a15b565b600082825260208201905092915050565b7f496e697469616c697a61626c653a20636f6e747261637420697320696e69746960008201527f616c697a696e6700000000000000000000000000000000000000000000000000602082015250565b600062000150602783620000e1565b91506200015d82620000f2565b604082019050919050565b60006020820190508181036000830152620001838162000141565b9050919050565b600060ff82169050919050565b620001a2816200018a565b82525050565b6000602082019050620001bf600083018462000197565b92915050565b6156ec80620001d56000396000f3fe6080604052600436106102305760003560e01c80639590cf751161012e578063cef5234f116100ab578063e63ab1e91161006f578063e63ab1e91461085b578063e985e9c514610886578063f94c0a11146108c3578063fdb0467a146108ee578063fedce7a81461090a57610230565b8063cef5234f14610771578063d547741f146107ae578063d6706328146107d7578063d8f5df66146107f3578063db4796c01461081e57610230565b8063b7134dfa116100f2578063b7134dfa14610686578063b88d4fde146106c4578063c87b56dd146106ed578063cd6dc6871461072a578063ced3a4031461074657610230565b80639590cf75146105ae57806395d89b41146105ca5780639e42ce18146105f5578063a217fddf14610632578063a22cb4651461065d57610230565b806340d097c3116101bc5780636352211e116101805780636352211e146104b557806370a08231146104f25780637ef656091461052f5780638456cb591461055a57806391d148541461057157610230565b806340d097c3146103d257806342842e0e146103fb578063438a8ece14610424578063551d4f2a146104615780635c975abb1461048a57610230565b806323b872dd1161020357806323b872dd14610303578063248a9ca31461032c5780632f2ff15d1461036957806336568abe146103925780633f4ba83a146103bb57610230565b806301ffc9a71461023557806306fdde0314610272578063081812fc1461029d578063095ea7b3146102da575b600080fd5b34801561024157600080fd5b5061025c600480360381019061025791906139ee565b610947565b6040516102699190613a36565b60405180910390f35b34801561027e57600080fd5b50610287610959565b6040516102949190613aea565b60405180910390f35b3480156102a957600080fd5b506102c460048036038101906102bf9190613b42565b6109eb565b6040516102d19190613bb0565b60405180910390f35b3480156102e657600080fd5b5061030160048036038101906102fc9190613bf7565b610a31565b005b34801561030f57600080fd5b5061032a60048036038101906103259190613c37565b610b49565b005b34801561033857600080fd5b50610353600480360381019061034e9190613cc0565b610ba9565b6040516103609190613cfc565b60405180910390f35b34801561037557600080fd5b50610390600480360381019061038b9190613d17565b610bc9565b005b34801561039e57600080fd5b506103b960048036038101906103b49190613d17565b610bea565b005b3480156103c757600080fd5b506103d0610c6d565b005b3480156103de57600080fd5b506103f960048036038101906103f49190613d57565b610ca2565b005b34801561040757600080fd5b50610422600480360381019061041d9190613c37565b610cf3565b005b34801561043057600080fd5b5061044b60048036038101906104469190613d84565b610d13565b6040516104589190613dd3565b60405180910390f35b34801561046d57600080fd5b5061048860048036038101906104839190613bf7565b610d39565b005b34801561049657600080fd5b5061049f610eff565b6040516104ac9190613a36565b60405180910390f35b3480156104c157600080fd5b506104dc60048036038101906104d79190613b42565b610f16565b6040516104e99190613bb0565b60405180910390f35b3480156104fe57600080fd5b5061051960048036038101906105149190613d57565b610fc8565b6040516105269190613dd3565b60405180910390f35b34801561053b57600080fd5b50610544611080565b6040516105519190613dd3565b60405180910390f35b34801561056657600080fd5b5061056f611086565b005b34801561057d57600080fd5b5061059860048036038101906105939190613d17565b6110bb565b6040516105a59190613a36565b60405180910390f35b6105c860048036038101906105c39190613b42565b611126565b005b3480156105d657600080fd5b506105df6111fa565b6040516105ec9190613aea565b60405180910390f35b34801561060157600080fd5b5061061c60048036038101906106179190613b42565b61128c565b6040516106299190613dd3565b60405180910390f35b34801561063e57600080fd5b506106476112a5565b6040516106549190613cfc565b60405180910390f35b34801561066957600080fd5b50610684600480360381019061067f9190613e1a565b6112ac565b005b34801561069257600080fd5b506106ad60048036038101906106a89190613e5a565b6112c2565b6040516106bb929190613e9a565b60405180910390f35b3480156106d057600080fd5b506106eb60048036038101906106e69190613ff8565b611319565b005b3480156106f957600080fd5b50610714600480360381019061070f9190613b42565b61137b565b6040516107219190613aea565b60405180910390f35b610744600480360381019061073f9190613bf7565b6113e3565b005b34801561075257600080fd5b5061075b611631565b6040516107689190613cfc565b60405180910390f35b34801561077d57600080fd5b5061079860048036038101906107939190613d84565b611655565b6040516107a59190613a36565b60405180910390f35b3480156107ba57600080fd5b506107d560048036038101906107d09190613d17565b611684565b005b6107f160048036038101906107ec919061407b565b6116a5565b005b3480156107ff57600080fd5b50610808611ad0565b6040516108159190613dd3565b60405180910390f35b34801561082a57600080fd5b5061084560048036038101906108409190613b42565b611ad6565b60405161085291906141b7565b60405180910390f35b34801561086757600080fd5b50610870611b9b565b60405161087d9190613cfc565b60405180910390f35b34801561089257600080fd5b506108ad60048036038101906108a891906141d3565b611bbf565b6040516108ba9190613a36565b60405180910390f35b3480156108cf57600080fd5b506108d8611c53565b6040516108e59190613cfc565b60405180910390f35b61090860048036038101906109039190614213565b611c77565b005b34801561091657600080fd5b50610931600480360381019061092c9190613d84565b612033565b60405161093e9190613a36565b60405180910390f35b600061095282612062565b9050919050565b60606065805461096890614295565b80601f016020809104026020016040519081016040528092919081815260200182805461099490614295565b80156109e15780601f106109b6576101008083540402835291602001916109e1565b820191906000526020600020905b8154815290600101906020018083116109c457829003601f168201915b5050505050905090565b60006109f6826120dc565b6069600083815260200190815260200160002060009054906101000a900473ffffffffffffffffffffffffffffffffffffffff169050919050565b6000610a3c82610f16565b90508073ffffffffffffffffffffffffffffffffffffffff168373ffffffffffffffffffffffffffffffffffffffff161415610aad576040517f08c379a0000000000000000000000000000000000000000000000000000000008152600401610aa490614339565b60405180910390fd5b8073ffffffffffffffffffffffffffffffffffffffff16610acc612127565b73ffffffffffffffffffffffffffffffffffffffff161480610afb5750610afa81610af5612127565b611bbf565b5b610b3a576040517f08c379a0000000000000000000000000000000000000000000000000000000008152600401610b31906143cb565b60405180910390fd5b610b44838361212f565b505050565b610b5a610b54612127565b826121e8565b610b99576040517f08c379a0000000000000000000000000000000000000000000000000000000008152600401610b909061445d565b60405180910390fd5b610ba483838361227d565b505050565b600060c96000838152602001908152602001600020600101549050919050565b610bd282610ba9565b610bdb816124e4565b610be583836124f8565b505050565b610bf2612127565b73ffffffffffffffffffffffffffffffffffffffff168173ffffffffffffffffffffffffffffffffffffffff1614610c5f576040517f08c379a0000000000000000000000000000000000000000000000000000000008152600401610c56906144ef565b60405180910390fd5b610c6982826125d9565b5050565b7f65d7a28e3265b37a6474929f336521b332c1681b933f6cb9f3376673440d862a610c97816124e4565b610c9f6126bb565b50565b7f2dee5dd865e09c7ce6788d674a03682994f0b44339403ca07ac129a9de4bed6a610ccc816124e4565b6000610cd860fb61271e565b9050610ce460fb61272c565b610cee8382612742565b505050565b610d0e83838360405180602001604052806000815250611319565b505050565b610100602052816000526040600020602052806000526040600020600091509150505481565b6000801b610d46816124e4565b6000151560fd600084815260200190815260200160002060008573ffffffffffffffffffffffffffffffffffffffff1673ffffffffffffffffffffffffffffffffffffffff16815260200190815260200160002060009054906101000a900460ff16151514610dea576040517f08c379a0000000000000000000000000000000000000000000000000000000008152600401610de190614581565b60405180910390fd5b600073ffffffffffffffffffffffffffffffffffffffff168373ffffffffffffffffffffffffffffffffffffffff161415610e5a576040517f08c379a0000000000000000000000000000000000000000000000000000000008152600401610e5190614613565b60405180910390fd5b600160fd600084815260200190815260200160002060008573ffffffffffffffffffffffffffffffffffffffff1673ffffffffffffffffffffffffffffffffffffffff16815260200190815260200160002060006101000a81548160ff0219169083151502179055507f4864b3cb8ddce996e7c5f8ec0a006b69d432e6a5df2acff97f2a5ae75ff78f9783604051610ef29190613bb0565b60405180910390a1505050565b6000609760009054906101000a900460ff16905090565b6000806067600084815260200190815260200160002060009054906101000a900473ffffffffffffffffffffffffffffffffffffffff169050600073ffffffffffffffffffffffffffffffffffffffff168173ffffffffffffffffffffffffffffffffffffffff161415610fbf576040517f08c379a0000000000000000000000000000000000000000000000000000000008152600401610fb69061467f565b60405180910390fd5b80915050919050565b60008073ffffffffffffffffffffffffffffffffffffffff168273ffffffffffffffffffffffffffffffffffffffff161415611039576040517f08c379a000000000000000000000000000000000000000000000000000000000815260040161103090614711565b60405180910390fd5b606860008373ffffffffffffffffffffffffffffffffffffffff1673ffffffffffffffffffffffffffffffffffffffff168152602001908152602001600020549050919050565b6101f481565b7f65d7a28e3265b37a6474929f336521b332c1681b933f6cb9f3376673440d862a6110b0816124e4565b6110b8612760565b50565b600060c9600084815260200190815260200160002060000160008373ffffffffffffffffffffffffffffffffffffffff1673ffffffffffffffffffffffffffffffffffffffff16815260200190815260200160002060009054906101000a900460ff16905092915050565b600061113182610f16565b9050600073ffffffffffffffffffffffffffffffffffffffff1661115483610f16565b73ffffffffffffffffffffffffffffffffffffffff1614156111ab576040517f08c379a00000000000000000000000000000000000000000000000000000000081526004016111a2906147a3565b60405180910390fd5b6111b68260016127c3565b6000600190507f34ef4ac64e0eac8a04fe2b95d0d037921287716ff3019d01b6712d2e9507509583826040516111ed9291906147c3565b60405180910390a1505050565b60606066805461120990614295565b80601f016020809104026020016040519081016040528092919081815260200182805461123590614295565b80156112825780601f1061125757610100808354040283529160200191611282565b820191906000526020600020905b81548152906001019060200180831161126557829003601f168201915b5050505050905090565b6101016020528060005260406000206000915090505481565b6000801b81565b6112be6112b7612127565b83836129a9565b5050565b60ff60205281600052604060002081600581106112de57600080fd5b60020201600091509150508060000160009054906101000a900473ffffffffffffffffffffffffffffffffffffffff16908060010154905082565b61132a611324612127565b836121e8565b611369576040517f08c379a00000000000000000000000000000000000000000000000000000000081526004016113609061445d565b60405180910390fd5b61137584848484612b16565b50505050565b6060611386826120dc565b6000611390612b72565b905060008151116113b057604051806020016040528060008152506113db565b806113ba84612b89565b6040516020016113cb929190614828565b6040516020818303038152906040525b915050919050565b60008060019054906101000a900460ff161590508080156114145750600160008054906101000a900460ff1660ff16105b80611441575061142330612cea565b1580156114405750600160008054906101000a900460ff1660ff16145b5b611480576040517f08c379a0000000000000000000000000000000000000000000000000000000008152600401611477906148be565b60405180910390fd5b60016000806101000a81548160ff021916908360ff16021790555080156114bd576001600060016101000a81548160ff0219169083151502179055505b6115316040518060400160405280600881526020017f536f756c46756e640000000000000000000000000000000000000000000000008152506040518060400160405280600381526020017f534c460000000000000000000000000000000000000000000000000000000000815250612d0d565b611539612d6a565b611541612dc3565b61154e6000801b336124f8565b6115787f65d7a28e3265b37a6474929f336521b332c1681b933f6cb9f3376673440d862a336124f8565b6115a27f2dee5dd865e09c7ce6788d674a03682994f0b44339403ca07ac129a9de4bed6a336124f8565b6115cc7fc8a41221bcd7fcf2c225f5a9265e1d4d39949d89197159d59e5f4b87b62c419e846124f8565b8160fc81905550801561162c5760008060016101000a81548160ff0219169083151502179055507f7f26b83ff96e1f2b6a682f133852f6798a09c465da95921460cefb384740249860016040516116239190614930565b60405180910390a15b505050565b7fc8a41221bcd7fcf2c225f5a9265e1d4d39949d89197159d59e5f4b87b62c419e81565b60fe6020528160005260406000206020528060005260406000206000915091509054906101000a900460ff1681565b61168d82610ba9565b611696816124e4565b6116a083836125d9565b505050565b7f2dee5dd865e09c7ce6788d674a03682994f0b44339403ca07ac129a9de4bed6a6116cf816124e4565b6000610100600086815260200190815260200160002060008573ffffffffffffffffffffffffffffffffffffffff1673ffffffffffffffffffffffffffffffffffffffff1681526020019081526020016000205411801561174457506005610101600086815260200190815260200160002054105b611783576040517f08c379a000000000000000000000000000000000000000000000000000000000815260040161177a906149bd565b60405180910390fd5b6000610100600086815260200190815260200160002060008573ffffffffffffffffffffffffffffffffffffffff1673ffffffffffffffffffffffffffffffffffffffff1681526020019081526020016000205490506000811415611936576101016000868152602001908152602001600020600081548092919061180790614a0c565b9190505550610101600086815260200190815260200160002054610100600087815260200190815260200160002060008673ffffffffffffffffffffffffffffffffffffffff1673ffffffffffffffffffffffffffffffffffffffff16815260200190815260200160002081905550610100600086815260200190815260200160002060008573ffffffffffffffffffffffffffffffffffffffff1673ffffffffffffffffffffffffffffffffffffffff1681526020019081526020016000205490508360ff600087815260200190815260200160002082600581106118f0576118ef614a55565b5b6002020160000160006101000a81548173ffffffffffffffffffffffffffffffffffffffff021916908373ffffffffffffffffffffffffffffffffffffffff1602179055505b600073ffffffffffffffffffffffffffffffffffffffff168473ffffffffffffffffffffffffffffffffffffffff1614156119b2578234146119ad576040517f08c379a00000000000000000000000000000000000000000000000000000000081526004016119a490614af6565b60405180910390fd5b611a41565b8373ffffffffffffffffffffffffffffffffffffffff1663a9059cbb33856040518363ffffffff1660e01b81526004016119ed929190613e9a565b602060405180830381600087803b158015611a0757600080fd5b505af1158015611a1b573d6000803e3d6000fd5b505050506040513d601f19601f82011682018060405250810190611a3f9190614b2b565b505b8260ff60008781526020019081526020016000208260058110611a6757611a66614a55565b5b600202016001016000828254611a7d9190614b58565b925050819055507f03b9932ccfcbee04cee8cedad7802dbe5c786c57591e9a7cd4c8fea13b13be82858585611ab189610f16565b604051611ac19493929190614bae565b60405180910390a15050505050565b60fc5481565b611ade613882565b60ff6000838152602001908152602001600020600580602002604051908101604052809291906000905b82821015611b90578382600202016040518060400160405290816000820160009054906101000a900473ffffffffffffffffffffffffffffffffffffffff1673ffffffffffffffffffffffffffffffffffffffff1673ffffffffffffffffffffffffffffffffffffffff16815260200160018201548152505081526020019060010190611b08565b505050509050919050565b7f65d7a28e3265b37a6474929f336521b332c1681b933f6cb9f3376673440d862a81565b6000606a60008473ffffffffffffffffffffffffffffffffffffffff1673ffffffffffffffffffffffffffffffffffffffff16815260200190815260200160002060008373ffffffffffffffffffffffffffffffffffffffff1673ffffffffffffffffffffffffffffffffffffffff16815260200190815260200160002060009054906101000a900460ff16905092915050565b7f2dee5dd865e09c7ce6788d674a03682994f0b44339403ca07ac129a9de4bed6a81565b60fd600083815260200190815260200160002060008473ffffffffffffffffffffffffffffffffffffffff1673ffffffffffffffffffffffffffffffffffffffff16815260200190815260200160002060009054906101000a900460ff16611d14576040517f08c379a0000000000000000000000000000000000000000000000000000000008152600401611d0b90614c65565b60405180910390fd5b6000611d1f83610f16565b90508073ffffffffffffffffffffffffffffffffffffffff168473ffffffffffffffffffffffffffffffffffffffff16636352211e846040518263ffffffff1660e01b8152600401611d719190613dd3565b60206040518083038186803b158015611d8957600080fd5b505afa158015611d9d573d6000803e3d6000fd5b505050506040513d601f19601f82011682018060405250810190611dc19190614c9a565b73ffffffffffffffffffffffffffffffffffffffff1614611e17576040517f08c379a0000000000000000000000000000000000000000000000000000000008152600401611e0e90614d5f565b60405180910390fd5b600073ffffffffffffffffffffffffffffffffffffffff16611e3884610f16565b73ffffffffffffffffffffffffffffffffffffffff161415611e8f576040517f08c379a0000000000000000000000000000000000000000000000000000000008152600401611e86906147a3565b60405180910390fd5b60fe600083815260200190815260200160002060008573ffffffffffffffffffffffffffffffffffffffff1673ffffffffffffffffffffffffffffffffffffffff16815260200190815260200160002060009054906101000a900460ff1615611f2d576040517f08c379a0000000000000000000000000000000000000000000000000000000008152600401611f2490614df1565b60405180910390fd5b611f39836101f46127c3565b600060019050600160fe600085815260200190815260200160002060008773ffffffffffffffffffffffffffffffffffffffff1673ffffffffffffffffffffffffffffffffffffffff16815260200190815260200160002060006101000a81548160ff0219169083151502179055508173ffffffffffffffffffffffffffffffffffffffff166108fc829081150290604051600060405180830381858888f19350505050158015611fee573d6000803e3d6000fd5b507f1063fb17e9a9b2ee9e38c97a5ded9fa5840d8f7023bebf0b0e0489f2e1344bbb848287866040516120249493929190614e11565b60405180910390a15050505050565b60fd6020528160005260406000206020528060005260406000206000915091509054906101000a900460ff1681565b60007f7965db0b000000000000000000000000000000000000000000000000000000007bffffffffffffffffffffffffffffffffffffffffffffffffffffffff1916827bffffffffffffffffffffffffffffffffffffffffffffffffffffffff191614806120d557506120d482612e14565b5b9050919050565b6120e581612ef6565b612124576040517f08c379a000000000000000000000000000000000000000000000000000000000815260040161211b9061467f565b60405180910390fd5b50565b600033905090565b816069600083815260200190815260200160002060006101000a81548173ffffffffffffffffffffffffffffffffffffffff021916908373ffffffffffffffffffffffffffffffffffffffff160217905550808273ffffffffffffffffffffffffffffffffffffffff166121a283610f16565b73ffffffffffffffffffffffffffffffffffffffff167f8c5be1e5ebec7d5bd14f71427d1e84f3dd0314c0f7b2291e5b200ac8c7c3b92560405160405180910390a45050565b6000806121f483610f16565b90508073ffffffffffffffffffffffffffffffffffffffff168473ffffffffffffffffffffffffffffffffffffffff16148061223657506122358185611bbf565b5b8061227457508373ffffffffffffffffffffffffffffffffffffffff1661225c846109eb565b73ffffffffffffffffffffffffffffffffffffffff16145b91505092915050565b8273ffffffffffffffffffffffffffffffffffffffff1661229d82610f16565b73ffffffffffffffffffffffffffffffffffffffff16146122f3576040517f08c379a00000000000000000000000000000000000000000000000000000000081526004016122ea90614ec8565b60405180910390fd5b600073ffffffffffffffffffffffffffffffffffffffff168273ffffffffffffffffffffffffffffffffffffffff161415612363576040517f08c379a000000000000000000000000000000000000000000000000000000000815260040161235a90614f5a565b60405180910390fd5b61236e838383612f62565b61237960008261212f565b6001606860008573ffffffffffffffffffffffffffffffffffffffff1673ffffffffffffffffffffffffffffffffffffffff16815260200190815260200160002060008282546123c99190614f7a565b925050819055506001606860008473ffffffffffffffffffffffffffffffffffffffff1673ffffffffffffffffffffffffffffffffffffffff16815260200190815260200160002060008282546124209190614b58565b92505081905550816067600083815260200190815260200160002060006101000a81548173ffffffffffffffffffffffffffffffffffffffff021916908373ffffffffffffffffffffffffffffffffffffffff160217905550808273ffffffffffffffffffffffffffffffffffffffff168473ffffffffffffffffffffffffffffffffffffffff167fddf252ad1be2c89b69c2b068fc378daa952ba7f163c4a11628f55a4df523b3ef60405160405180910390a46124df838383612fe9565b505050565b6124f5816124f0612127565b612fee565b50565b61250282826110bb565b6125d557600160c9600084815260200190815260200160002060000160008373ffffffffffffffffffffffffffffffffffffffff1673ffffffffffffffffffffffffffffffffffffffff16815260200190815260200160002060006101000a81548160ff02191690831515021790555061257a612127565b73ffffffffffffffffffffffffffffffffffffffff168173ffffffffffffffffffffffffffffffffffffffff16837f2f8788117e7eff1d82e926ec794901d17c78024a50270940304540a733656f0d60405160405180910390a45b5050565b6125e382826110bb565b156126b757600060c9600084815260200190815260200160002060000160008373ffffffffffffffffffffffffffffffffffffffff1673ffffffffffffffffffffffffffffffffffffffff16815260200190815260200160002060006101000a81548160ff02191690831515021790555061265c612127565b73ffffffffffffffffffffffffffffffffffffffff168173ffffffffffffffffffffffffffffffffffffffff16837ff6391f5c32d9c69d2a47ea670b442974b53935d1edc7fd64eb21e047a839171b60405160405180910390a45b5050565b6126c361308b565b6000609760006101000a81548160ff0219169083151502179055507f5db9ee0a495bf2e6ff9c91a7834c1ba4fdd244a5e8aa4e537bd38aeae4b073aa612707612127565b6040516127149190613bb0565b60405180910390a1565b600081600001549050919050565b6001816000016000828254019250508190555050565b61275c8282604051806020016040528060008152506130d4565b5050565b61276861312f565b6001609760006101000a81548160ff0219169083151502179055507f62e78cea01bee320cd4e420270b5ea74000d11b0c9f74754ebdbfc544b05a2586127ac612127565b6040516127b99190613bb0565b60405180910390a1565b60005b6101016000848152602001908152602001600020548110156129a457600060ff6000858152602001908152602001600020826005811061280957612808614a55565b5b6002020160000160009054906101000a900473ffffffffffffffffffffffffffffffffffffffff16905060008360ff6000878152602001908152602001600020846005811061285b5761285a614a55565b5b600202016001015461286d9190614fdd565b9050600073ffffffffffffffffffffffffffffffffffffffff168273ffffffffffffffffffffffffffffffffffffffff1614156128f8576128ad85610f16565b73ffffffffffffffffffffffffffffffffffffffff166108fc829081150290604051600060405180830381858888f193505050501580156128f2573d6000803e3d6000fd5b5061298f565b8173ffffffffffffffffffffffffffffffffffffffff1663a9059cbb61291d87610f16565b836040518363ffffffff1660e01b815260040161293b929190613e9a565b602060405180830381600087803b15801561295557600080fd5b505af1158015612969573d6000803e3d6000fd5b505050506040513d601f19601f8201168201806040525081019061298d9190614b2b565b505b5050808061299c90614a0c565b9150506127c6565b505050565b8173ffffffffffffffffffffffffffffffffffffffff168373ffffffffffffffffffffffffffffffffffffffff161415612a18576040517f08c379a0000000000000000000000000000000000000000000000000000000008152600401612a0f9061505a565b60405180910390fd5b80606a60008573ffffffffffffffffffffffffffffffffffffffff1673ffffffffffffffffffffffffffffffffffffffff16815260200190815260200160002060008473ffffffffffffffffffffffffffffffffffffffff1673ffffffffffffffffffffffffffffffffffffffff16815260200190815260200160002060006101000a81548160ff0219169083151502179055508173ffffffffffffffffffffffffffffffffffffffff168373ffffffffffffffffffffffffffffffffffffffff167f17307eab39ab6107e8899845ad3d59bd9653f200f220920489ca2b5937696c3183604051612b099190613a36565b60405180910390a3505050565b612b2184848461227d565b612b2d84848484613179565b612b6c576040517f08c379a0000000000000000000000000000000000000000000000000000000008152600401612b63906150ec565b60405180910390fd5b50505050565b606060405180602001604052806000815250905090565b60606000821415612bd1576040518060400160405280600181526020017f30000000000000000000000000000000000000000000000000000000000000008152509050612ce5565b600082905060005b60008214612c03578080612bec90614a0c565b915050600a82612bfc9190614fdd565b9150612bd9565b60008167ffffffffffffffff811115612c1f57612c1e613ecd565b5b6040519080825280601f01601f191660200182016040528015612c515781602001600182028036833780820191505090505b5090505b60008514612cde57600182612c6a9190614f7a565b9150600a85612c79919061510c565b6030612c859190614b58565b60f81b818381518110612c9b57612c9a614a55565b5b60200101907effffffffffffffffffffffffffffffffffffffffffffffffffffffffffffff1916908160001a905350600a85612cd79190614fdd565b9450612c55565b8093505050505b919050565b6000808273ffffffffffffffffffffffffffffffffffffffff163b119050919050565b600060019054906101000a900460ff16612d5c576040517f08c379a0000000000000000000000000000000000000000000000000000000008152600401612d53906151af565b60405180910390fd5b612d668282613310565b5050565b600060019054906101000a900460ff16612db9576040517f08c379a0000000000000000000000000000000000000000000000000000000008152600401612db0906151af565b60405180910390fd5b612dc1613391565b565b600060019054906101000a900460ff16612e12576040517f08c379a0000000000000000000000000000000000000000000000000000000008152600401612e09906151af565b60405180910390fd5b565b60007f80ac58cd000000000000000000000000000000000000000000000000000000007bffffffffffffffffffffffffffffffffffffffffffffffffffffffff1916827bffffffffffffffffffffffffffffffffffffffffffffffffffffffff19161480612edf57507f5b5e139f000000000000000000000000000000000000000000000000000000007bffffffffffffffffffffffffffffffffffffffffffffffffffffffff1916827bffffffffffffffffffffffffffffffffffffffffffffffffffffffff1916145b80612eef5750612eee826133fd565b5b9050919050565b60008073ffffffffffffffffffffffffffffffffffffffff166067600084815260200190815260200160002060009054906101000a900473ffffffffffffffffffffffffffffffffffffffff1673ffffffffffffffffffffffffffffffffffffffff1614159050919050565b612f6a61312f565b600073ffffffffffffffffffffffffffffffffffffffff168373ffffffffffffffffffffffffffffffffffffffff1614612fd9576040517f08c379a0000000000000000000000000000000000000000000000000000000008152600401612fd090615241565b60405180910390fd5b612fe4838383613467565b505050565b505050565b612ff882826110bb565b6130875761301d8173ffffffffffffffffffffffffffffffffffffffff16601461346c565b61302b8360001c602061346c565b60405160200161303c9291906152f9565b6040516020818303038152906040526040517f08c379a000000000000000000000000000000000000000000000000000000000815260040161307e9190613aea565b60405180910390fd5b5050565b613093610eff565b6130d2576040517f08c379a00000000000000000000000000000000000000000000000000000000081526004016130c99061537f565b60405180910390fd5b565b6130de83836136a8565b6130eb6000848484613179565b61312a576040517f08c379a0000000000000000000000000000000000000000000000000000000008152600401613121906150ec565b60405180910390fd5b505050565b613137610eff565b15613177576040517f08c379a000000000000000000000000000000000000000000000000000000000815260040161316e906153eb565b60405180910390fd5b565b600061319a8473ffffffffffffffffffffffffffffffffffffffff16612cea565b15613303578373ffffffffffffffffffffffffffffffffffffffff1663150b7a026131c3612127565b8786866040518563ffffffff1660e01b81526004016131e59493929190615460565b602060405180830381600087803b1580156131ff57600080fd5b505af192505050801561323057506040513d601f19601f8201168201806040525081019061322d91906154c1565b60015b6132b3573d8060008114613260576040519150601f19603f3d011682016040523d82523d6000602084013e613265565b606091505b506000815114156132ab576040517f08c379a00000000000000000000000000000000000000000000000000000000081526004016132a2906150ec565b60405180910390fd5b805181602001fd5b63150b7a0260e01b7bffffffffffffffffffffffffffffffffffffffffffffffffffffffff1916817bffffffffffffffffffffffffffffffffffffffffffffffffffffffff191614915050613308565b600190505b949350505050565b600060019054906101000a900460ff1661335f576040517f08c379a0000000000000000000000000000000000000000000000000000000008152600401613356906151af565b60405180910390fd5b81606590805190602001906133759291906138af565b50806066908051906020019061338c9291906138af565b505050565b600060019054906101000a900460ff166133e0576040517f08c379a00000000000000000000000000000000000000000000000000000000081526004016133d7906151af565b60405180910390fd5b6000609760006101000a81548160ff021916908315150217905550565b60007f01ffc9a7000000000000000000000000000000000000000000000000000000007bffffffffffffffffffffffffffffffffffffffffffffffffffffffff1916827bffffffffffffffffffffffffffffffffffffffffffffffffffffffff1916149050919050565b505050565b60606000600283600261347f91906154ee565b6134899190614b58565b67ffffffffffffffff8111156134a2576134a1613ecd565b5b6040519080825280601f01601f1916602001820160405280156134d45781602001600182028036833780820191505090505b5090507f30000000000000000000000000000000000000000000000000000000000000008160008151811061350c5761350b614a55565b5b60200101907effffffffffffffffffffffffffffffffffffffffffffffffffffffffffffff1916908160001a9053507f7800000000000000000000000000000000000000000000000000000000000000816001815181106135705761356f614a55565b5b60200101907effffffffffffffffffffffffffffffffffffffffffffffffffffffffffffff1916908160001a905350600060018460026135b091906154ee565b6135ba9190614b58565b90505b600181111561365a577f3031323334353637383961626364656600000000000000000000000000000000600f8616601081106135fc576135fb614a55565b5b1a60f81b82828151811061361357613612614a55565b5b60200101907effffffffffffffffffffffffffffffffffffffffffffffffffffffffffffff1916908160001a905350600485901c94508061365390615548565b90506135bd565b506000841461369e576040517f08c379a0000000000000000000000000000000000000000000000000000000008152600401613695906155be565b60405180910390fd5b8091505092915050565b600073ffffffffffffffffffffffffffffffffffffffff168273ffffffffffffffffffffffffffffffffffffffff161415613718576040517f08c379a000000000000000000000000000000000000000000000000000000000815260040161370f9061562a565b60405180910390fd5b61372181612ef6565b15613761576040517f08c379a000000000000000000000000000000000000000000000000000000000815260040161375890615696565b60405180910390fd5b61376d60008383612f62565b6001606860008473ffffffffffffffffffffffffffffffffffffffff1673ffffffffffffffffffffffffffffffffffffffff16815260200190815260200160002060008282546137bd9190614b58565b92505081905550816067600083815260200190815260200160002060006101000a81548173ffffffffffffffffffffffffffffffffffffffff021916908373ffffffffffffffffffffffffffffffffffffffff160217905550808273ffffffffffffffffffffffffffffffffffffffff16600073ffffffffffffffffffffffffffffffffffffffff167fddf252ad1be2c89b69c2b068fc378daa952ba7f163c4a11628f55a4df523b3ef60405160405180910390a461387e60008383612fe9565b5050565b6040518060a001604052806005905b613899613935565b8152602001906001900390816138915790505090565b8280546138bb90614295565b90600052602060002090601f0160209004810192826138dd5760008555613924565b82601f106138f657805160ff1916838001178555613924565b82800160010185558215613924579182015b82811115613923578251825591602001919060010190613908565b5b5090506139319190613965565b5090565b6040518060400160405280600073ffffffffffffffffffffffffffffffffffffffff168152602001600081525090565b5b8082111561397e576000816000905550600101613966565b5090565b6000604051905090565b600080fd5b600080fd5b60007fffffffff0000000000000000000000000000000000000000000000000000000082169050919050565b6139cb81613996565b81146139d657600080fd5b50565b6000813590506139e8816139c2565b92915050565b600060208284031215613a0457613a0361398c565b5b6000613a12848285016139d9565b91505092915050565b60008115159050919050565b613a3081613a1b565b82525050565b6000602082019050613a4b6000830184613a27565b92915050565b600081519050919050565b600082825260208201905092915050565b60005b83811015613a8b578082015181840152602081019050613a70565b83811115613a9a576000848401525b50505050565b6000601f19601f8301169050919050565b6000613abc82613a51565b613ac68185613a5c565b9350613ad6818560208601613a6d565b613adf81613aa0565b840191505092915050565b60006020820190508181036000830152613b048184613ab1565b905092915050565b6000819050919050565b613b1f81613b0c565b8114613b2a57600080fd5b50565b600081359050613b3c81613b16565b92915050565b600060208284031215613b5857613b5761398c565b5b6000613b6684828501613b2d565b91505092915050565b600073ffffffffffffffffffffffffffffffffffffffff82169050919050565b6000613b9a82613b6f565b9050919050565b613baa81613b8f565b82525050565b6000602082019050613bc56000830184613ba1565b92915050565b613bd481613b8f565b8114613bdf57600080fd5b50565b600081359050613bf181613bcb565b92915050565b60008060408385031215613c0e57613c0d61398c565b5b6000613c1c85828601613be2565b9250506020613c2d85828601613b2d565b9150509250929050565b600080600060608486031215613c5057613c4f61398c565b5b6000613c5e86828701613be2565b9350506020613c6f86828701613be2565b9250506040613c8086828701613b2d565b9150509250925092565b6000819050919050565b613c9d81613c8a565b8114613ca857600080fd5b50565b600081359050613cba81613c94565b92915050565b600060208284031215613cd657613cd561398c565b5b6000613ce484828501613cab565b91505092915050565b613cf681613c8a565b82525050565b6000602082019050613d116000830184613ced565b92915050565b60008060408385031215613d2e57613d2d61398c565b5b6000613d3c85828601613cab565b9250506020613d4d85828601613be2565b9150509250929050565b600060208284031215613d6d57613d6c61398c565b5b6000613d7b84828501613be2565b91505092915050565b60008060408385031215613d9b57613d9a61398c565b5b6000613da985828601613b2d565b9250506020613dba85828601613be2565b9150509250929050565b613dcd81613b0c565b82525050565b6000602082019050613de86000830184613dc4565b92915050565b613df781613a1b565b8114613e0257600080fd5b50565b600081359050613e1481613dee565b92915050565b60008060408385031215613e3157613e3061398c565b5b6000613e3f85828601613be2565b9250506020613e5085828601613e05565b9150509250929050565b60008060408385031215613e7157613e7061398c565b5b6000613e7f85828601613b2d565b9250506020613e9085828601613b2d565b9150509250929050565b6000604082019050613eaf6000830185613ba1565b613ebc6020830184613dc4565b9392505050565b600080fd5b600080fd5b7f4e487b7100000000000000000000000000000000000000000000000000000000600052604160045260246000fd5b613f0582613aa0565b810181811067ffffffffffffffff82111715613f2457613f23613ecd565b5b80604052505050565b6000613f37613982565b9050613f438282613efc565b919050565b600067ffffffffffffffff821115613f6357613f62613ecd565b5b613f6c82613aa0565b9050602081019050919050565b82818337600083830152505050565b6000613f9b613f9684613f48565b613f2d565b905082815260208101848484011115613fb757613fb6613ec8565b5b613fc2848285613f79565b509392505050565b600082601f830112613fdf57613fde613ec3565b5b8135613fef848260208601613f88565b91505092915050565b600080600080608085870312156140125761401161398c565b5b600061402087828801613be2565b945050602061403187828801613be2565b935050604061404287828801613b2d565b925050606085013567ffffffffffffffff81111561406357614062613991565b5b61406f87828801613fca565b91505092959194509250565b6000806000606084860312156140945761409361398c565b5b60006140a286828701613b2d565b93505060206140b386828701613be2565b92505060406140c486828701613b2d565b9150509250925092565b600060059050919050565b600081905092915050565b6000819050919050565b6140f781613b8f565b82525050565b61410681613b0c565b82525050565b60408201600082015161412260008501826140ee565b50602082015161413560208501826140fd565b50505050565b6000614147838361410c565b60408301905092915050565b6000602082019050919050565b614169816140ce565b61417381846140d9565b925061417e826140e4565b8060005b838110156141af578151614196878261413b565b96506141a183614153565b925050600181019050614182565b505050505050565b6000610140820190506141cd6000830184614160565b92915050565b600080604083850312156141ea576141e961398c565b5b60006141f885828601613be2565b925050602061420985828601613be2565b9150509250929050565b60008060006060848603121561422c5761422b61398c565b5b600061423a86828701613be2565b935050602061424b86828701613b2d565b925050604061425c86828701613b2d565b9150509250925092565b7f4e487b7100000000000000000000000000000000000000000000000000000000600052602260045260246000fd5b600060028204905060018216806142ad57607f821691505b602082108114156142c1576142c0614266565b5b50919050565b7f4552433732313a20617070726f76616c20746f2063757272656e74206f776e6560008201527f7200000000000000000000000000000000000000000000000000000000000000602082015250565b6000614323602183613a5c565b915061432e826142c7565b604082019050919050565b6000602082019050818103600083015261435281614316565b9050919050565b7f4552433732313a20617070726f76652063616c6c6572206973206e6f7420746f60008201527f6b656e206f776e6572206e6f7220617070726f76656420666f7220616c6c0000602082015250565b60006143b5603e83613a5c565b91506143c082614359565b604082019050919050565b600060208201905081810360008301526143e4816143a8565b9050919050565b7f4552433732313a2063616c6c6572206973206e6f7420746f6b656e206f776e6560008201527f72206e6f7220617070726f766564000000000000000000000000000000000000602082015250565b6000614447602e83613a5c565b9150614452826143eb565b604082019050919050565b600060208201905081810360008301526144768161443a565b9050919050565b7f416363657373436f6e74726f6c3a2063616e206f6e6c792072656e6f756e636560008201527f20726f6c657320666f722073656c660000000000000000000000000000000000602082015250565b60006144d9602f83613a5c565b91506144e48261447d565b604082019050919050565b60006020820190508181036000830152614508816144cc565b9050919050565b7f536f756c46756e642e77686974656c6973744e66743a2061646472657373206160008201527f6c72656164792061646465640000000000000000000000000000000000000000602082015250565b600061456b602c83613a5c565b91506145768261450f565b604082019050919050565b6000602082019050818103600083015261459a8161455e565b9050919050565b7f536f756c46756e642e77686974656c6973744e66743a2063616e6e6f7420616460008201527f6420302061646472657373000000000000000000000000000000000000000000602082015250565b60006145fd602b83613a5c565b9150614608826145a1565b604082019050919050565b6000602082019050818103600083015261462c816145f0565b9050919050565b7f4552433732313a20696e76616c696420746f6b656e2049440000000000000000600082015250565b6000614669601883613a5c565b915061467482614633565b602082019050919050565b600060208201905081810360008301526146988161465c565b9050919050565b7f4552433732313a2061646472657373207a65726f206973206e6f74206120766160008201527f6c6964206f776e65720000000000000000000000000000000000000000000000602082015250565b60006146fb602983613a5c565b91506147068261469f565b604082019050919050565b6000602082019050818103600083015261472a816146ee565b9050919050565b7f536f756c46756e642e636c61696d46756e64734561726c793a2066756e64206460008201527f6f6573206e6f7420657869737400000000000000000000000000000000000000602082015250565b600061478d602d83613a5c565b915061479882614731565b604082019050919050565b600060208201905081810360008301526147bc81614780565b9050919050565b60006040820190506147d86000830185613dc4565b6147e56020830184613dc4565b9392505050565b600081905092915050565b600061480282613a51565b61480c81856147ec565b935061481c818560208601613a6d565b80840191505092915050565b600061483482856147f7565b915061484082846147f7565b91508190509392505050565b7f496e697469616c697a61626c653a20636f6e747261637420697320616c72656160008201527f647920696e697469616c697a6564000000000000000000000000000000000000602082015250565b60006148a8602e83613a5c565b91506148b38261484c565b604082019050919050565b600060208201905081810360008301526148d78161489b565b9050919050565b6000819050919050565b600060ff82169050919050565b6000819050919050565b600061491a614915614910846148de565b6148f5565b6148e8565b9050919050565b61492a816148ff565b82525050565b60006020820190506149456000830184614921565b92915050565b7f536f756c46756e642e6465706f73697446756e643a206d61782063757272656e60008201527f6379207479706520726561636865642e00000000000000000000000000000000602082015250565b60006149a7603083613a5c565b91506149b28261494b565b604082019050919050565b600060208201905081810360008301526149d68161499a565b9050919050565b7f4e487b7100000000000000000000000000000000000000000000000000000000600052601160045260246000fd5b6000614a1782613b0c565b91507fffffffffffffffffffffffffffffffffffffffffffffffffffffffffffffffff821415614a4a57614a496149dd565b5b600182019050919050565b7f4e487b7100000000000000000000000000000000000000000000000000000000600052603260045260246000fd5b7f536f756c46756e642e6465706f73697446756e643a20616d6f756e74206d697360008201527f6d617463682e0000000000000000000000000000000000000000000000000000602082015250565b6000614ae0602683613a5c565b9150614aeb82614a84565b604082019050919050565b60006020820190508181036000830152614b0f81614ad3565b9050919050565b600081519050614b2581613dee565b92915050565b600060208284031215614b4157614b4061398c565b5b6000614b4f84828501614b16565b91505092915050565b6000614b6382613b0c565b9150614b6e83613b0c565b9250827fffffffffffffffffffffffffffffffffffffffffffffffffffffffffffffffff03821115614ba357614ba26149dd565b5b828201905092915050565b6000608082019050614bc36000830187613dc4565b614bd06020830186613ba1565b614bdd6040830185613dc4565b614bea6060830184613ba1565b95945050505050565b7f536f756c46756e642e636c61696d46756e64734561726c793a204e4654206e6f60008201527f742077686974656c697374656400000000000000000000000000000000000000602082015250565b6000614c4f602d83613a5c565b9150614c5a82614bf3565b604082019050919050565b60006020820190508181036000830152614c7e81614c42565b9050919050565b600081519050614c9481613bcb565b92915050565b600060208284031215614cb057614caf61398c565b5b6000614cbe84828501614c85565b91505092915050565b7f536f756c46756e642e636c61696d46756e64734561726c793a2062656e65666960008201527f636961727920646f6573206e6f74206f776e206e66742072657175697265642060208201527f746f20636c61696d2066756e6473000000000000000000000000000000000000604082015250565b6000614d49604e83613a5c565b9150614d5482614cc7565b606082019050919050565b60006020820190508181036000830152614d7881614d3c565b9050919050565b7f536f756c46756e642e636c61696d46756e64734561726c793a20436c61696d2060008201527f746f6b656e204e46542068617320616c7265616479206265656e207370656e74602082015250565b6000614ddb604083613a5c565b9150614de682614d7f565b604082019050919050565b60006020820190508181036000830152614e0a81614dce565b9050919050565b6000608082019050614e266000830187613dc4565b614e336020830186613dc4565b614e406040830185613ba1565b614e4d6060830184613dc4565b95945050505050565b7f4552433732313a207472616e736665722066726f6d20696e636f72726563742060008201527f6f776e6572000000000000000000000000000000000000000000000000000000602082015250565b6000614eb2602583613a5c565b9150614ebd82614e56565b604082019050919050565b60006020820190508181036000830152614ee181614ea5565b9050919050565b7f4552433732313a207472616e7366657220746f20746865207a65726f2061646460008201527f7265737300000000000000000000000000000000000000000000000000000000602082015250565b6000614f44602483613a5c565b9150614f4f82614ee8565b604082019050919050565b60006020820190508181036000830152614f7381614f37565b9050919050565b6000614f8582613b0c565b9150614f9083613b0c565b925082821015614fa357614fa26149dd565b5b828203905092915050565b7f4e487b7100000000000000000000000000000000000000000000000000000000600052601260045260246000fd5b6000614fe882613b0c565b9150614ff383613b0c565b92508261500357615002614fae565b5b828204905092915050565b7f4552433732313a20617070726f766520746f2063616c6c657200000000000000600082015250565b6000615044601983613a5c565b915061504f8261500e565b602082019050919050565b6000602082019050818103600083015261507381615037565b9050919050565b7f4552433732313a207472616e7366657220746f206e6f6e20455243373231526560008201527f63656976657220696d706c656d656e7465720000000000000000000000000000602082015250565b60006150d6603283613a5c565b91506150e18261507a565b604082019050919050565b60006020820190508181036000830152615105816150c9565b9050919050565b600061511782613b0c565b915061512283613b0c565b92508261513257615131614fae565b5b828206905092915050565b7f496e697469616c697a61626c653a20636f6e7472616374206973206e6f74206960008201527f6e697469616c697a696e67000000000000000000000000000000000000000000602082015250565b6000615199602b83613a5c565b91506151a48261513d565b604082019050919050565b600060208201905081810360008301526151c88161518c565b9050919050565b7f536f756c46756e643a20736f756c20626f756e6420746f6b656e2063616e6e6f60008201527f74206265207472616e7366657272656400000000000000000000000000000000602082015250565b600061522b603083613a5c565b9150615236826151cf565b604082019050919050565b6000602082019050818103600083015261525a8161521e565b9050919050565b7f416363657373436f6e74726f6c3a206163636f756e7420000000000000000000600082015250565b60006152976017836147ec565b91506152a282615261565b601782019050919050565b7f206973206d697373696e6720726f6c6520000000000000000000000000000000600082015250565b60006152e36011836147ec565b91506152ee826152ad565b601182019050919050565b60006153048261528a565b915061531082856147f7565b915061531b826152d6565b915061532782846147f7565b91508190509392505050565b7f5061757361626c653a206e6f7420706175736564000000000000000000000000600082015250565b6000615369601483613a5c565b915061537482615333565b602082019050919050565b600060208201905081810360008301526153988161535c565b9050919050565b7f5061757361626c653a2070617573656400000000000000000000000000000000600082015250565b60006153d5601083613a5c565b91506153e08261539f565b602082019050919050565b60006020820190508181036000830152615404816153c8565b9050919050565b600081519050919050565b600082825260208201905092915050565b60006154328261540b565b61543c8185615416565b935061544c818560208601613a6d565b61545581613aa0565b840191505092915050565b60006080820190506154756000830187613ba1565b6154826020830186613ba1565b61548f6040830185613dc4565b81810360608301526154a18184615427565b905095945050505050565b6000815190506154bb816139c2565b92915050565b6000602082840312156154d7576154d661398c565b5b60006154e5848285016154ac565b91505092915050565b60006154f982613b0c565b915061550483613b0c565b9250817fffffffffffffffffffffffffffffffffffffffffffffffffffffffffffffffff048311821515161561553d5761553c6149dd565b5b828202905092915050565b600061555382613b0c565b91506000821415615567576155666149dd565b5b600182039050919050565b7f537472696e67733a20686578206c656e67746820696e73756666696369656e74600082015250565b60006155a8602083613a5c565b91506155b382615572565b602082019050919050565b600060208201905081810360008301526155d78161559b565b9050919050565b7f4552433732313a206d696e7420746f20746865207a65726f2061646472657373600082015250565b6000615614602083613a5c565b915061561f826155de565b602082019050919050565b6000602082019050818103600083015261564381615607565b9050919050565b7f4552433732313a20746f6b656e20616c7265616479206d696e74656400000000600082015250565b6000615680601c83613a5c565b915061568b8261564a565b602082019050919050565b600060208201905081810360008301526156af81615673565b905091905056fea26469706673582212202675ef3774e3bc1afa7f426c865adc0e964da69573baf807cf9e797ee169461464736f6c63430008090033",
  "linkReferences": {},
  "deployedLinkReferences": {}
}