{
  "_format": "hh-sol-artifact-1",
  "contractName": "SoulFund",
  "sourceName": "contracts/SoulFund.sol",
  "abi": [
    {
      "inputs": [
        {
          "internalType": "address",
          "name": "_beneficiary",
          "type": "address"
        },
        {
          "internalType": "uint256",
          "name": "_vestingDate",
          "type": "uint256"
        },
        {
          "internalType": "address",
          "name": "_data",
          "type": "address"
        },
        {
          "internalType": "address",
          "name": "_meritToken",
          "type": "address"
        }
      ],
      "stateMutability": "payable",
      "type": "constructor"
    },
    {
      "anonymous": false,
      "inputs": [
        {
          "indexed": true,
          "internalType": "address",
          "name": "owner",
          "type": "address"
        },
        {
          "indexed": true,
          "internalType": "address",
          "name": "approved",
          "type": "address"
        },
        {
          "indexed": true,
          "internalType": "uint256",
          "name": "tokenId",
          "type": "uint256"
        }
      ],
      "name": "Approval",
      "type": "event"
    },
    {
      "anonymous": false,
      "inputs": [
        {
          "indexed": true,
          "internalType": "address",
          "name": "owner",
          "type": "address"
        },
        {
          "indexed": true,
          "internalType": "address",
          "name": "operator",
          "type": "address"
        },
        {
          "indexed": false,
          "internalType": "bool",
          "name": "approved",
          "type": "bool"
        }
      ],
      "name": "ApprovalForAll",
      "type": "event"
    },
    {
      "anonymous": false,
      "inputs": [
        {
          "indexed": false,
          "internalType": "uint256",
          "name": "soulFundId",
          "type": "uint256"
        },
        {
          "indexed": false,
          "internalType": "address",
          "name": "currency",
          "type": "address"
        },
        {
          "indexed": false,
          "internalType": "uint256",
          "name": "amount",
          "type": "uint256"
        },
        {
          "indexed": false,
          "internalType": "address",
          "name": "beneficary",
          "type": "address"
        }
      ],
      "name": "FundDeposited",
      "type": "event"
    },
    {
      "anonymous": false,
      "inputs": [
        {
          "indexed": false,
          "internalType": "address",
          "name": "newNftAddress",
          "type": "address"
        },
        {
          "indexed": false,
          "internalType": "uint256",
          "name": "tokenId",
          "type": "uint256"
        }
      ],
      "name": "NewWhitelistedNFT",
      "type": "event"
    },
    {
      "anonymous": false,
      "inputs": [
        {
          "indexed": true,
          "internalType": "bytes32",
          "name": "role",
          "type": "bytes32"
        },
        {
          "indexed": true,
          "internalType": "bytes32",
          "name": "previousAdminRole",
          "type": "bytes32"
        },
        {
          "indexed": true,
          "internalType": "bytes32",
          "name": "newAdminRole",
          "type": "bytes32"
        }
      ],
      "name": "RoleAdminChanged",
      "type": "event"
    },
    {
      "anonymous": false,
      "inputs": [
        {
          "indexed": true,
          "internalType": "bytes32",
          "name": "role",
          "type": "bytes32"
        },
        {
          "indexed": true,
          "internalType": "address",
          "name": "account",
          "type": "address"
        },
        {
          "indexed": true,
          "internalType": "address",
          "name": "sender",
          "type": "address"
        }
      ],
      "name": "RoleGranted",
      "type": "event"
    },
    {
      "anonymous": false,
      "inputs": [
        {
          "indexed": true,
          "internalType": "bytes32",
          "name": "role",
          "type": "bytes32"
        },
        {
          "indexed": true,
          "internalType": "address",
          "name": "account",
          "type": "address"
        },
        {
          "indexed": true,
          "internalType": "address",
          "name": "sender",
          "type": "address"
        }
      ],
      "name": "RoleRevoked",
      "type": "event"
    },
    {
      "anonymous": false,
      "inputs": [
        {
          "indexed": true,
          "internalType": "address",
          "name": "from",
          "type": "address"
        },
        {
          "indexed": true,
          "internalType": "address",
          "name": "to",
          "type": "address"
        },
        {
          "indexed": true,
          "internalType": "uint256",
          "name": "tokenId",
          "type": "uint256"
        }
      ],
      "name": "Transfer",
      "type": "event"
    },
    {
      "anonymous": false,
      "inputs": [
        {
          "indexed": false,
          "internalType": "uint256",
          "name": "soulFundId",
          "type": "uint256"
        },
        {
          "indexed": false,
          "internalType": "uint256",
          "name": "vestedAmount",
          "type": "uint256"
        }
      ],
      "name": "VestedFundClaimed",
      "type": "event"
    },
    {
      "anonymous": false,
      "inputs": [
        {
          "indexed": false,
          "internalType": "uint256",
          "name": "tokenId",
          "type": "uint256"
        },
        {
          "indexed": false,
          "internalType": "uint256",
          "name": "rewardAmount",
          "type": "uint256"
        },
        {
          "indexed": false,
          "internalType": "address",
          "name": "nftAddress",
          "type": "address"
        },
        {
          "indexed": false,
          "internalType": "uint256",
          "name": "nftTokenId",
          "type": "uint256"
        }
      ],
      "name": "VestedFundsClaimedEarly",
      "type": "event"
    },
    {
      "inputs": [],
      "name": "BENEFICIARY_ROLE",
      "outputs": [
        {
          "internalType": "bytes32",
          "name": "",
          "type": "bytes32"
        }
      ],
      "stateMutability": "view",
      "type": "function"
    },
    {
      "inputs": [],
      "name": "DEFAULT_ADMIN_ROLE",
      "outputs": [
        {
          "internalType": "bytes32",
          "name": "",
          "type": "bytes32"
        }
      ],
      "stateMutability": "view",
      "type": "function"
    },
    {
      "inputs": [],
      "name": "FIVE_PERCENT",
      "outputs": [
        {
          "internalType": "uint256",
          "name": "",
          "type": "uint256"
        }
      ],
      "stateMutability": "view",
      "type": "function"
    },
    {
      "inputs": [],
      "name": "GRANTER_ROLE",
      "outputs": [
        {
          "internalType": "bytes32",
          "name": "",
          "type": "bytes32"
        }
      ],
      "stateMutability": "view",
      "type": "function"
    },
    {
      "inputs": [
        {
          "internalType": "address",
          "name": "to",
          "type": "address"
        },
        {
          "internalType": "uint256",
          "name": "tokenId",
          "type": "uint256"
        }
      ],
      "name": "approve",
      "outputs": [],
      "stateMutability": "nonpayable",
      "type": "function"
    },
    {
      "inputs": [
        {
          "internalType": "address",
          "name": "owner",
          "type": "address"
        }
      ],
      "name": "balanceOf",
      "outputs": [
        {
          "internalType": "uint256",
          "name": "",
          "type": "uint256"
        }
      ],
      "stateMutability": "view",
      "type": "function"
    },
    {
      "inputs": [
        {
          "internalType": "uint256",
          "name": "",
          "type": "uint256"
        },
        {
          "internalType": "uint256",
          "name": "",
          "type": "uint256"
        }
      ],
      "name": "balances",
      "outputs": [
        {
          "internalType": "address",
          "name": "token",
          "type": "address"
        },
        {
          "internalType": "uint256",
          "name": "balance",
          "type": "uint256"
        }
      ],
      "stateMutability": "view",
      "type": "function"
    },
    {
      "inputs": [
        {
          "internalType": "uint256",
          "name": "_tokenId",
          "type": "uint256"
        }
      ],
      "name": "balancesExt",
      "outputs": [
        {
          "components": [
            {
              "internalType": "address",
              "name": "token",
              "type": "address"
            },
            {
              "internalType": "uint256",
              "name": "balance",
              "type": "uint256"
            }
          ],
          "internalType": "struct ISoulFund.Balances[5]",
          "name": "",
          "type": "tuple[5]"
        }
      ],
      "stateMutability": "view",
      "type": "function"
    },
    {
      "inputs": [
        {
          "internalType": "uint256",
          "name": "_soulFundId",
          "type": "uint256"
        }
      ],
      "name": "claimAllVestedFunds",
      "outputs": [],
      "stateMutability": "payable",
      "type": "function"
    },
    {
      "inputs": [
        {
          "internalType": "address",
          "name": "_nftAddress",
          "type": "address"
        },
        {
          "internalType": "uint256",
          "name": "_soulFundId",
          "type": "uint256"
        },
        {
          "internalType": "uint256",
          "name": "_nftId",
          "type": "uint256"
        }
      ],
      "name": "claimFundsEarly",
      "outputs": [],
      "stateMutability": "payable",
      "type": "function"
    },
    {
      "inputs": [
        {
          "internalType": "uint256",
          "name": "",
          "type": "uint256"
        },
        {
          "internalType": "address",
          "name": "",
          "type": "address"
        }
      ],
      "name": "currencyIndices",
      "outputs": [
        {
          "internalType": "uint256",
          "name": "",
          "type": "uint256"
        }
      ],
      "stateMutability": "view",
      "type": "function"
    },
    {
      "inputs": [
        {
          "internalType": "uint256",
          "name": "soulFundId",
          "type": "uint256"
        },
        {
          "internalType": "address",
          "name": "currency",
          "type": "address"
        },
        {
          "internalType": "uint256",
          "name": "amount",
          "type": "uint256"
        }
      ],
      "name": "depositFund",
      "outputs": [],
      "stateMutability": "payable",
      "type": "function"
    },
    {
      "inputs": [
        {
          "internalType": "uint256",
          "name": "tokenId",
          "type": "uint256"
        }
      ],
      "name": "getApproved",
      "outputs": [
        {
          "internalType": "address",
          "name": "",
          "type": "address"
        }
      ],
      "stateMutability": "view",
      "type": "function"
    },
    {
      "inputs": [
        {
          "internalType": "bytes32",
          "name": "role",
          "type": "bytes32"
        }
      ],
      "name": "getRoleAdmin",
      "outputs": [
        {
          "internalType": "bytes32",
          "name": "",
          "type": "bytes32"
        }
      ],
      "stateMutability": "view",
      "type": "function"
    },
    {
      "inputs": [
        {
          "internalType": "bytes32",
          "name": "role",
          "type": "bytes32"
        },
        {
          "internalType": "address",
          "name": "account",
          "type": "address"
        }
      ],
      "name": "grantRole",
      "outputs": [],
      "stateMutability": "nonpayable",
      "type": "function"
    },
    {
      "inputs": [
        {
          "internalType": "bytes32",
          "name": "role",
          "type": "bytes32"
        },
        {
          "internalType": "address",
          "name": "account",
          "type": "address"
        }
      ],
      "name": "hasRole",
      "outputs": [
        {
          "internalType": "bool",
          "name": "",
          "type": "bool"
        }
      ],
      "stateMutability": "view",
      "type": "function"
    },
    {
      "inputs": [
        {
          "internalType": "address",
          "name": "owner",
          "type": "address"
        },
        {
          "internalType": "address",
          "name": "operator",
          "type": "address"
        }
      ],
      "name": "isApprovedForAll",
      "outputs": [
        {
          "internalType": "bool",
          "name": "",
          "type": "bool"
        }
      ],
      "stateMutability": "view",
      "type": "function"
    },
    {
      "inputs": [],
      "name": "name",
      "outputs": [
        {
          "internalType": "string",
          "name": "",
          "type": "string"
        }
      ],
      "stateMutability": "view",
      "type": "function"
    },
    {
      "inputs": [
        {
          "internalType": "uint256",
          "name": "",
          "type": "uint256"
        },
        {
          "internalType": "address",
          "name": "",
          "type": "address"
        }
      ],
      "name": "nftIsSpent",
      "outputs": [
        {
          "internalType": "bool",
          "name": "",
          "type": "bool"
        }
      ],
      "stateMutability": "view",
      "type": "function"
    },
    {
      "inputs": [
        {
          "internalType": "uint256",
          "name": "",
          "type": "uint256"
        }
      ],
      "name": "numCurrencies",
      "outputs": [
        {
          "internalType": "uint256",
          "name": "",
          "type": "uint256"
        }
      ],
      "stateMutability": "view",
      "type": "function"
    },
    {
      "inputs": [
        {
          "internalType": "uint256",
          "name": "tokenId",
          "type": "uint256"
        }
      ],
      "name": "ownerOf",
      "outputs": [
        {
          "internalType": "address",
          "name": "",
          "type": "address"
        }
      ],
      "stateMutability": "view",
      "type": "function"
    },
    {
      "inputs": [
        {
          "internalType": "bytes32",
          "name": "role",
          "type": "bytes32"
        },
        {
          "internalType": "address",
          "name": "account",
          "type": "address"
        }
      ],
      "name": "renounceRole",
      "outputs": [],
      "stateMutability": "nonpayable",
      "type": "function"
    },
    {
      "inputs": [
        {
          "internalType": "bytes32",
          "name": "role",
          "type": "bytes32"
        },
        {
          "internalType": "address",
          "name": "account",
          "type": "address"
        }
      ],
      "name": "revokeRole",
      "outputs": [],
      "stateMutability": "nonpayable",
      "type": "function"
    },
    {
      "inputs": [
        {
          "internalType": "address",
          "name": "_to",
          "type": "address"
        }
      ],
      "name": "safeMint",
      "outputs": [],
      "stateMutability": "nonpayable",
      "type": "function"
    },
    {
      "inputs": [
        {
          "internalType": "address",
          "name": "from",
          "type": "address"
        },
        {
          "internalType": "address",
          "name": "to",
          "type": "address"
        },
        {
          "internalType": "uint256",
          "name": "tokenId",
          "type": "uint256"
        }
      ],
      "name": "safeTransferFrom",
      "outputs": [],
      "stateMutability": "nonpayable",
      "type": "function"
    },
    {
      "inputs": [
        {
          "internalType": "address",
          "name": "from",
          "type": "address"
        },
        {
          "internalType": "address",
          "name": "to",
          "type": "address"
        },
        {
          "internalType": "uint256",
          "name": "tokenId",
          "type": "uint256"
        },
        {
          "internalType": "bytes",
          "name": "data",
          "type": "bytes"
        }
      ],
      "name": "safeTransferFrom",
      "outputs": [],
      "stateMutability": "nonpayable",
      "type": "function"
    },
    {
      "inputs": [
        {
          "internalType": "address",
          "name": "operator",
          "type": "address"
        },
        {
          "internalType": "bool",
          "name": "approved",
          "type": "bool"
        }
      ],
      "name": "setApprovalForAll",
      "outputs": [],
      "stateMutability": "nonpayable",
      "type": "function"
    },
    {
      "inputs": [
        {
          "internalType": "bytes4",
          "name": "_interfaceId",
          "type": "bytes4"
        }
      ],
      "name": "supportsInterface",
      "outputs": [
        {
          "internalType": "bool",
          "name": "",
          "type": "bool"
        }
      ],
      "stateMutability": "view",
      "type": "function"
    },
    {
      "inputs": [],
      "name": "symbol",
      "outputs": [
        {
          "internalType": "string",
          "name": "",
          "type": "string"
        }
      ],
      "stateMutability": "view",
      "type": "function"
    },
    {
      "inputs": [
        {
          "internalType": "uint256",
          "name": "tokenId",
          "type": "uint256"
        }
      ],
      "name": "tokenURI",
      "outputs": [
        {
          "internalType": "string",
          "name": "",
          "type": "string"
        }
      ],
      "stateMutability": "view",
      "type": "function"
    },
    {
      "inputs": [
        {
          "internalType": "address",
          "name": "from",
          "type": "address"
        },
        {
          "internalType": "address",
          "name": "to",
          "type": "address"
        },
        {
          "internalType": "uint256",
          "name": "tokenId",
          "type": "uint256"
        }
      ],
      "name": "transferFrom",
      "outputs": [],
      "stateMutability": "nonpayable",
      "type": "function"
    },
    {
      "inputs": [],
      "name": "vestingDate",
      "outputs": [
        {
          "internalType": "uint256",
          "name": "",
          "type": "uint256"
        }
      ],
      "stateMutability": "view",
      "type": "function"
    },
    {
      "inputs": [
        {
          "internalType": "address",
          "name": "_newNftAddress",
          "type": "address"
        },
        {
          "internalType": "uint256",
          "name": "_tokenId",
          "type": "uint256"
        }
      ],
      "name": "whitelistNft",
      "outputs": [],
      "stateMutability": "nonpayable",
      "type": "function"
    },
    {
      "inputs": [
        {
          "internalType": "uint256",
          "name": "",
          "type": "uint256"
        },
        {
          "internalType": "address",
          "name": "",
          "type": "address"
        }
      ],
      "name": "whitelistedNfts",
      "outputs": [
        {
          "internalType": "bool",
          "name": "",
          "type": "bool"
        }
      ],
      "stateMutability": "view",
      "type": "function"
    }
  ],
  "bytecode": "0x60806040526040516200515a3803806200515a8339818101604052810190620000299190620004b8565b6040518060400160405280600881526020017f536f756c46756e640000000000000000000000000000000000000000000000008152506040518060400160405280600381526020017f534c4600000000000000000000000000000000000000000000000000000000008152508160009080519060200190620000ad92919062000363565b508060019080519060200190620000c692919062000363565b505050826008819055506001600960006001815260200190815260200160002060008373ffffffffffffffffffffffffffffffffffffffff1673ffffffffffffffffffffffffffffffffffffffff16815260200190815260200160002060006101000a81548160ff0219169083151502179055506200014f6000801b33620001fe60201b60201c565b620001817f2dee5dd865e09c7ce6788d674a03682994f0b44339403ca07ac129a9de4bed6a33620001fe60201b60201c565b620001b37fc8a41221bcd7fcf2c225f5a9265e1d4d39949d89197159d59e5f4b87b62c419e85620001fe60201b60201c565b81600e60006101000a81548173ffffffffffffffffffffffffffffffffffffffff021916908373ffffffffffffffffffffffffffffffffffffffff160217905550505050506200058f565b620002108282620002f060201b60201c565b620002ec5760016006600084815260200190815260200160002060000160008373ffffffffffffffffffffffffffffffffffffffff1673ffffffffffffffffffffffffffffffffffffffff16815260200190815260200160002060006101000a81548160ff021916908315150217905550620002916200035b60201b60201c565b73ffffffffffffffffffffffffffffffffffffffff168173ffffffffffffffffffffffffffffffffffffffff16837f2f8788117e7eff1d82e926ec794901d17c78024a50270940304540a733656f0d60405160405180910390a45b5050565b60006006600084815260200190815260200160002060000160008373ffffffffffffffffffffffffffffffffffffffff1673ffffffffffffffffffffffffffffffffffffffff16815260200190815260200160002060009054906101000a900460ff16905092915050565b600033905090565b828054620003719062000559565b90600052602060002090601f016020900481019282620003955760008555620003e1565b82601f10620003b057805160ff1916838001178555620003e1565b82800160010185558215620003e1579182015b82811115620003e0578251825591602001919060010190620003c3565b5b509050620003f09190620003f4565b5090565b5b808211156200040f576000816000905550600101620003f5565b5090565b600080fd5b600073ffffffffffffffffffffffffffffffffffffffff82169050919050565b6000620004458262000418565b9050919050565b620004578162000438565b81146200046357600080fd5b50565b60008151905062000477816200044c565b92915050565b6000819050919050565b62000492816200047d565b81146200049e57600080fd5b50565b600081519050620004b28162000487565b92915050565b60008060008060808587031215620004d557620004d462000413565b5b6000620004e58782880162000466565b9450506020620004f887828801620004a1565b93505060406200050b8782880162000466565b92505060606200051e8782880162000466565b91505092959194509250565b7f4e487b7100000000000000000000000000000000000000000000000000000000600052602260045260246000fd5b600060028204905060018216806200057257607f821691505b602082108114156200058957620005886200052a565b5b50919050565b614bbb806200059f6000396000f3fe6080604052600436106101f95760003560e01c806395d89b411161010d578063cef5234f116100a0578063db4796c01161006f578063db4796c014610772578063e985e9c5146107af578063f94c0a11146107ec578063fdb0467a14610817578063fedce7a814610833576101f9565b8063cef5234f146106c5578063d547741f14610702578063d67063281461072b578063d8f5df6614610747576101f9565b8063b7134dfa116100dc578063b7134dfa146105f6578063b88d4fde14610634578063c87b56dd1461065d578063ced3a4031461069a576101f9565b806395d89b411461053a5780639e42ce1814610565578063a217fddf146105a2578063a22cb465146105cd576101f9565b806340d097c3116101905780636352211e1161015f5780636352211e1461043c57806370a08231146104795780637ef65609146104b657806391d14854146104e15780639590cf751461051e576101f9565b806340d097c31461038457806342842e0e146103ad578063438a8ece146103d6578063551d4f2a14610413576101f9565b806323b872dd116101cc57806323b872dd146102cc578063248a9ca3146102f55780632f2ff15d1461033257806336568abe1461035b576101f9565b806301ffc9a7146101fe57806306fdde031461023b578063081812fc14610266578063095ea7b3146102a3575b600080fd5b34801561020a57600080fd5b50610225600480360381019061022091906130d8565b610870565b6040516102329190613120565b60405180910390f35b34801561024757600080fd5b50610250610882565b60405161025d91906131d4565b60405180910390f35b34801561027257600080fd5b5061028d6004803603810190610288919061322c565b610914565b60405161029a919061329a565b60405180910390f35b3480156102af57600080fd5b506102ca60048036038101906102c591906132e1565b61095a565b005b3480156102d857600080fd5b506102f360048036038101906102ee9190613321565b610a72565b005b34801561030157600080fd5b5061031c600480360381019061031791906133aa565b610ad2565b60405161032991906133e6565b60405180910390f35b34801561033e57600080fd5b5061035960048036038101906103549190613401565b610af2565b005b34801561036757600080fd5b50610382600480360381019061037d9190613401565b610b13565b005b34801561039057600080fd5b506103ab60048036038101906103a69190613441565b610b96565b005b3480156103b957600080fd5b506103d460048036038101906103cf9190613321565b610be7565b005b3480156103e257600080fd5b506103fd60048036038101906103f8919061346e565b610c07565b60405161040a91906134bd565b60405180910390f35b34801561041f57600080fd5b5061043a600480360381019061043591906132e1565b610c2c565b005b34801561044857600080fd5b50610463600480360381019061045e919061322c565b610df4565b604051610470919061329a565b60405180910390f35b34801561048557600080fd5b506104a0600480360381019061049b9190613441565b610ea6565b6040516104ad91906134bd565b60405180910390f35b3480156104c257600080fd5b506104cb610f5e565b6040516104d891906134bd565b60405180910390f35b3480156104ed57600080fd5b5061050860048036038101906105039190613401565b610f64565b6040516105159190613120565b60405180910390f35b6105386004803603810190610533919061322c565b610fcf565b005b34801561054657600080fd5b5061054f611095565b60405161055c91906131d4565b60405180910390f35b34801561057157600080fd5b5061058c6004803603810190610587919061322c565b611127565b60405161059991906134bd565b60405180910390f35b3480156105ae57600080fd5b506105b761113f565b6040516105c491906133e6565b60405180910390f35b3480156105d957600080fd5b506105f460048036038101906105ef9190613504565b611146565b005b34801561060257600080fd5b5061061d60048036038101906106189190613544565b61115c565b60405161062b929190613584565b60405180910390f35b34801561064057600080fd5b5061065b600480360381019061065691906136e2565b6111b3565b005b34801561066957600080fd5b50610684600480360381019061067f919061322c565b611215565b60405161069191906131d4565b60405180910390f35b3480156106a657600080fd5b506106af611264565b6040516106bc91906133e6565b60405180910390f35b3480156106d157600080fd5b506106ec60048036038101906106e7919061346e565b611288565b6040516106f99190613120565b60405180910390f35b34801561070e57600080fd5b5061072960048036038101906107249190613401565b6112b7565b005b61074560048036038101906107409190613765565b6112d8565b005b34801561075357600080fd5b5061075c6116ff565b60405161076991906134bd565b60405180910390f35b34801561077e57600080fd5b506107996004803603810190610794919061322c565b611705565b6040516107a691906138a1565b60405180910390f35b3480156107bb57600080fd5b506107d660048036038101906107d191906138bd565b6117ca565b6040516107e39190613120565b60405180910390f35b3480156107f857600080fd5b5061080161185e565b60405161080e91906133e6565b60405180910390f35b610831600480360381019061082c91906138fd565b611882565b005b34801561083f57600080fd5b5061085a6004803603810190610855919061346e565b611c3e565b6040516108679190613120565b60405180910390f35b600061087b82611c6d565b9050919050565b6060600080546108919061397f565b80601f01602080910402602001604051908101604052809291908181526020018280546108bd9061397f565b801561090a5780601f106108df5761010080835404028352916020019161090a565b820191906000526020600020905b8154815290600101906020018083116108ed57829003601f168201915b5050505050905090565b600061091f82611ce7565b6004600083815260200190815260200160002060009054906101000a900473ffffffffffffffffffffffffffffffffffffffff169050919050565b600061096582610df4565b90508073ffffffffffffffffffffffffffffffffffffffff168373ffffffffffffffffffffffffffffffffffffffff1614156109d6576040517f08c379a00000000000000000000000000000000000000000000000000000000081526004016109cd90613a23565b60405180910390fd5b8073ffffffffffffffffffffffffffffffffffffffff166109f5611d32565b73ffffffffffffffffffffffffffffffffffffffff161480610a245750610a2381610a1e611d32565b6117ca565b5b610a63576040517f08c379a0000000000000000000000000000000000000000000000000000000008152600401610a5a90613ab5565b60405180910390fd5b610a6d8383611d3a565b505050565b610a83610a7d611d32565b82611df3565b610ac2576040517f08c379a0000000000000000000000000000000000000000000000000000000008152600401610ab990613b47565b60405180910390fd5b610acd838383611e88565b505050565b600060066000838152602001908152602001600020600101549050919050565b610afb82610ad2565b610b04816120ef565b610b0e8383612103565b505050565b610b1b611d32565b73ffffffffffffffffffffffffffffffffffffffff168173ffffffffffffffffffffffffffffffffffffffff1614610b88576040517f08c379a0000000000000000000000000000000000000000000000000000000008152600401610b7f90613bd9565b60405180910390fd5b610b9282826121e4565b5050565b7f2dee5dd865e09c7ce6788d674a03682994f0b44339403ca07ac129a9de4bed6a610bc0816120ef565b6000610bcc60076122c6565b9050610bd860076122d4565b610be283826122ea565b505050565b610c02838383604051806020016040528060008152506111b3565b505050565b600c602052816000526040600020602052806000526040600020600091509150505481565b6000801b610c39816120ef565b600015156009600084815260200190815260200160002060008573ffffffffffffffffffffffffffffffffffffffff1673ffffffffffffffffffffffffffffffffffffffff16815260200190815260200160002060009054906101000a900460ff16151514610cdd576040517f08c379a0000000000000000000000000000000000000000000000000000000008152600401610cd490613c6b565b60405180910390fd5b600073ffffffffffffffffffffffffffffffffffffffff168373ffffffffffffffffffffffffffffffffffffffff161415610d4d576040517f08c379a0000000000000000000000000000000000000000000000000000000008152600401610d4490613cfd565b60405180910390fd5b60016009600084815260200190815260200160002060008573ffffffffffffffffffffffffffffffffffffffff1673ffffffffffffffffffffffffffffffffffffffff16815260200190815260200160002060006101000a81548160ff0219169083151502179055507fda2d276774468c5f10e6d2a90d49391d28dcf5f45b97f6f4f867444ff4d3319e8383604051610de7929190613584565b60405180910390a1505050565b6000806002600084815260200190815260200160002060009054906101000a900473ffffffffffffffffffffffffffffffffffffffff169050600073ffffffffffffffffffffffffffffffffffffffff168173ffffffffffffffffffffffffffffffffffffffff161415610e9d576040517f08c379a0000000000000000000000000000000000000000000000000000000008152600401610e9490613d69565b60405180910390fd5b80915050919050565b60008073ffffffffffffffffffffffffffffffffffffffff168273ffffffffffffffffffffffffffffffffffffffff161415610f17576040517f08c379a0000000000000000000000000000000000000000000000000000000008152600401610f0e90613dfb565b60405180910390fd5b600360008373ffffffffffffffffffffffffffffffffffffffff1673ffffffffffffffffffffffffffffffffffffffff168152602001908152602001600020549050919050565b6101f481565b60006006600084815260200190815260200160002060000160008373ffffffffffffffffffffffffffffffffffffffff1673ffffffffffffffffffffffffffffffffffffffff16815260200190815260200160002060009054906101000a900460ff16905092915050565b600073ffffffffffffffffffffffffffffffffffffffff16610ff082610df4565b73ffffffffffffffffffffffffffffffffffffffff161415611047576040517f08c379a000000000000000000000000000000000000000000000000000000000815260040161103e90613e8d565b60405180910390fd5b611052816001612308565b6000600190507f34ef4ac64e0eac8a04fe2b95d0d037921287716ff3019d01b6712d2e950750958282604051611089929190613ead565b60405180910390a15050565b6060600180546110a49061397f565b80601f01602080910402602001604051908101604052809291908181526020018280546110d09061397f565b801561111d5780601f106110f25761010080835404028352916020019161111d565b820191906000526020600020905b81548152906001019060200180831161110057829003601f168201915b5050505050905090565b600d6020528060005260406000206000915090505481565b6000801b81565b611158611151611d32565b838361253d565b5050565b600b602052816000526040600020816005811061117857600080fd5b60020201600091509150508060000160009054906101000a900473ffffffffffffffffffffffffffffffffffffffff16908060010154905082565b6111c46111be611d32565b83611df3565b611203576040517f08c379a00000000000000000000000000000000000000000000000000000000081526004016111fa90613b47565b60405180910390fd5b61120f848484846126aa565b50505050565b606061122082612706565b61125f576040517f08c379a000000000000000000000000000000000000000000000000000000000815260040161125690613f22565b60405180910390fd5b919050565b7fc8a41221bcd7fcf2c225f5a9265e1d4d39949d89197159d59e5f4b87b62c419e81565b600a6020528160005260406000206020528060005260406000206000915091509054906101000a900460ff1681565b6112c082610ad2565b6112c9816120ef565b6112d383836121e4565b505050565b7f2dee5dd865e09c7ce6788d674a03682994f0b44339403ca07ac129a9de4bed6a611302816120ef565b6000600c600086815260200190815260200160002060008573ffffffffffffffffffffffffffffffffffffffff1673ffffffffffffffffffffffffffffffffffffffff168152602001908152602001600020541015801561137657506005600d600086815260200190815260200160002054105b6113b5576040517f08c379a00000000000000000000000000000000000000000000000000000000081526004016113ac90613fb4565b60405180910390fd5b6000600c600086815260200190815260200160002060008573ffffffffffffffffffffffffffffffffffffffff1673ffffffffffffffffffffffffffffffffffffffff168152602001908152602001600020549050600081141561156357600d6000868152602001908152602001600020600081548092919061143790614003565b9190505550600d600086815260200190815260200160002054600c600087815260200190815260200160002060008673ffffffffffffffffffffffffffffffffffffffff1673ffffffffffffffffffffffffffffffffffffffff16815260200190815260200160002081905550600c600086815260200190815260200160002060008573ffffffffffffffffffffffffffffffffffffffff1673ffffffffffffffffffffffffffffffffffffffff16815260200190815260200160002054905083600b6000878152602001908152602001600020826005811061151d5761151c61404c565b5b6002020160000160006101000a81548173ffffffffffffffffffffffffffffffffffffffff021916908373ffffffffffffffffffffffffffffffffffffffff1602179055505b600073ffffffffffffffffffffffffffffffffffffffff168473ffffffffffffffffffffffffffffffffffffffff1614156115df578234146115da576040517f08c379a00000000000000000000000000000000000000000000000000000000081526004016115d1906140ed565b60405180910390fd5b611670565b8373ffffffffffffffffffffffffffffffffffffffff166323b872dd3330866040518463ffffffff1660e01b815260040161161c9392919061410d565b602060405180830381600087803b15801561163657600080fd5b505af115801561164a573d6000803e3d6000fd5b505050506040513d601f19601f8201168201806040525081019061166e9190614159565b505b82600b600087815260200190815260200160002082600581106116965761169561404c565b5b6002020160010160008282546116ac9190614186565b925050819055507f03b9932ccfcbee04cee8cedad7802dbe5c786c57591e9a7cd4c8fea13b13be828585856116e089610df4565b6040516116f094939291906141dc565b60405180910390a15050505050565b60085481565b61170d61300f565b600b6000838152602001908152602001600020600580602002604051908101604052809291906000905b828210156117bf578382600202016040518060400160405290816000820160009054906101000a900473ffffffffffffffffffffffffffffffffffffffff1673ffffffffffffffffffffffffffffffffffffffff1673ffffffffffffffffffffffffffffffffffffffff16815260200160018201548152505081526020019060010190611737565b505050509050919050565b6000600560008473ffffffffffffffffffffffffffffffffffffffff1673ffffffffffffffffffffffffffffffffffffffff16815260200190815260200160002060008373ffffffffffffffffffffffffffffffffffffffff1673ffffffffffffffffffffffffffffffffffffffff16815260200190815260200160002060009054906101000a900460ff16905092915050565b7f2dee5dd865e09c7ce6788d674a03682994f0b44339403ca07ac129a9de4bed6a81565b6009600083815260200190815260200160002060008473ffffffffffffffffffffffffffffffffffffffff1673ffffffffffffffffffffffffffffffffffffffff16815260200190815260200160002060009054906101000a900460ff1661191f576040517f08c379a000000000000000000000000000000000000000000000000000000000815260040161191690614293565b60405180910390fd5b600061192a83610df4565b90508073ffffffffffffffffffffffffffffffffffffffff168473ffffffffffffffffffffffffffffffffffffffff16636352211e846040518263ffffffff1660e01b815260040161197c91906134bd565b60206040518083038186803b15801561199457600080fd5b505afa1580156119a8573d6000803e3d6000fd5b505050506040513d601f19601f820116820180604052508101906119cc91906142c8565b73ffffffffffffffffffffffffffffffffffffffff1614611a22576040517f08c379a0000000000000000000000000000000000000000000000000000000008152600401611a199061438d565b60405180910390fd5b600073ffffffffffffffffffffffffffffffffffffffff16611a4384610df4565b73ffffffffffffffffffffffffffffffffffffffff161415611a9a576040517f08c379a0000000000000000000000000000000000000000000000000000000008152600401611a9190613e8d565b60405180910390fd5b600a600083815260200190815260200160002060008573ffffffffffffffffffffffffffffffffffffffff1673ffffffffffffffffffffffffffffffffffffffff16815260200190815260200160002060009054906101000a900460ff1615611b38576040517f08c379a0000000000000000000000000000000000000000000000000000000008152600401611b2f9061441f565b60405180910390fd5b611b44836101f4612308565b6000600190506001600a600085815260200190815260200160002060008773ffffffffffffffffffffffffffffffffffffffff1673ffffffffffffffffffffffffffffffffffffffff16815260200190815260200160002060006101000a81548160ff0219169083151502179055508173ffffffffffffffffffffffffffffffffffffffff166108fc829081150290604051600060405180830381858888f19350505050158015611bf9573d6000803e3d6000fd5b507f1063fb17e9a9b2ee9e38c97a5ded9fa5840d8f7023bebf0b0e0489f2e1344bbb84828786604051611c2f949392919061443f565b60405180910390a15050505050565b60096020528160005260406000206020528060005260406000206000915091509054906101000a900460ff1681565b60007f7965db0b000000000000000000000000000000000000000000000000000000007bffffffffffffffffffffffffffffffffffffffffffffffffffffffff1916827bffffffffffffffffffffffffffffffffffffffffffffffffffffffff19161480611ce05750611cdf82612772565b5b9050919050565b611cf081612706565b611d2f576040517f08c379a0000000000000000000000000000000000000000000000000000000008152600401611d2690613d69565b60405180910390fd5b50565b600033905090565b816004600083815260200190815260200160002060006101000a81548173ffffffffffffffffffffffffffffffffffffffff021916908373ffffffffffffffffffffffffffffffffffffffff160217905550808273ffffffffffffffffffffffffffffffffffffffff16611dad83610df4565b73ffffffffffffffffffffffffffffffffffffffff167f8c5be1e5ebec7d5bd14f71427d1e84f3dd0314c0f7b2291e5b200ac8c7c3b92560405160405180910390a45050565b600080611dff83610df4565b90508073ffffffffffffffffffffffffffffffffffffffff168473ffffffffffffffffffffffffffffffffffffffff161480611e415750611e4081856117ca565b5b80611e7f57508373ffffffffffffffffffffffffffffffffffffffff16611e6784610914565b73ffffffffffffffffffffffffffffffffffffffff16145b91505092915050565b8273ffffffffffffffffffffffffffffffffffffffff16611ea882610df4565b73ffffffffffffffffffffffffffffffffffffffff1614611efe576040517f08c379a0000000000000000000000000000000000000000000000000000000008152600401611ef5906144f6565b60405180910390fd5b600073ffffffffffffffffffffffffffffffffffffffff168273ffffffffffffffffffffffffffffffffffffffff161415611f6e576040517f08c379a0000000000000000000000000000000000000000000000000000000008152600401611f6590614588565b60405180910390fd5b611f79838383612854565b611f84600082611d3a565b6001600360008573ffffffffffffffffffffffffffffffffffffffff1673ffffffffffffffffffffffffffffffffffffffff1681526020019081526020016000206000828254611fd491906145a8565b925050819055506001600360008473ffffffffffffffffffffffffffffffffffffffff1673ffffffffffffffffffffffffffffffffffffffff168152602001908152602001600020600082825461202b9190614186565b92505081905550816002600083815260200190815260200160002060006101000a81548173ffffffffffffffffffffffffffffffffffffffff021916908373ffffffffffffffffffffffffffffffffffffffff160217905550808273ffffffffffffffffffffffffffffffffffffffff168473ffffffffffffffffffffffffffffffffffffffff167fddf252ad1be2c89b69c2b068fc378daa952ba7f163c4a11628f55a4df523b3ef60405160405180910390a46120ea8383836128d3565b505050565b612100816120fb611d32565b6128d8565b50565b61210d8282610f64565b6121e05760016006600084815260200190815260200160002060000160008373ffffffffffffffffffffffffffffffffffffffff1673ffffffffffffffffffffffffffffffffffffffff16815260200190815260200160002060006101000a81548160ff021916908315150217905550612185611d32565b73ffffffffffffffffffffffffffffffffffffffff168173ffffffffffffffffffffffffffffffffffffffff16837f2f8788117e7eff1d82e926ec794901d17c78024a50270940304540a733656f0d60405160405180910390a45b5050565b6121ee8282610f64565b156122c25760006006600084815260200190815260200160002060000160008373ffffffffffffffffffffffffffffffffffffffff1673ffffffffffffffffffffffffffffffffffffffff16815260200190815260200160002060006101000a81548160ff021916908315150217905550612267611d32565b73ffffffffffffffffffffffffffffffffffffffff168173ffffffffffffffffffffffffffffffffffffffff16837ff6391f5c32d9c69d2a47ea670b442974b53935d1edc7fd64eb21e047a839171b60405160405180910390a45b5050565b600081600001549050919050565b6001816000016000828254019250508190555050565b612304828260405180602001604052806000815250612975565b5050565b60005b600d600084815260200190815260200160002054811015612538576000600b6000858152602001908152602001600020826005811061234d5761234c61404c565b5b6002020160000160009054906101000a900473ffffffffffffffffffffffffffffffffffffffff169050600061271084600b600088815260200190815260200160002085600581106123a2576123a161404c565b5b60020201600101546123b491906145dc565b6123be9190614665565b905080600b600087815260200190815260200160002084600581106123e6576123e561404c565b5b6002020160010160008282546123fc91906145a8565b92505081905550600073ffffffffffffffffffffffffffffffffffffffff168273ffffffffffffffffffffffffffffffffffffffff16141561248c5761244185610df4565b73ffffffffffffffffffffffffffffffffffffffff166108fc829081150290604051600060405180830381858888f19350505050158015612486573d6000803e3d6000fd5b50612523565b8173ffffffffffffffffffffffffffffffffffffffff1663a9059cbb6124b187610df4565b836040518363ffffffff1660e01b81526004016124cf929190613584565b602060405180830381600087803b1580156124e957600080fd5b505af11580156124fd573d6000803e3d6000fd5b505050506040513d601f19601f820116820180604052508101906125219190614159565b505b5050808061253090614003565b91505061230b565b505050565b8173ffffffffffffffffffffffffffffffffffffffff168373ffffffffffffffffffffffffffffffffffffffff1614156125ac576040517f08c379a00000000000000000000000000000000000000000000000000000000081526004016125a3906146e2565b60405180910390fd5b80600560008573ffffffffffffffffffffffffffffffffffffffff1673ffffffffffffffffffffffffffffffffffffffff16815260200190815260200160002060008473ffffffffffffffffffffffffffffffffffffffff1673ffffffffffffffffffffffffffffffffffffffff16815260200190815260200160002060006101000a81548160ff0219169083151502179055508173ffffffffffffffffffffffffffffffffffffffff168373ffffffffffffffffffffffffffffffffffffffff167f17307eab39ab6107e8899845ad3d59bd9653f200f220920489ca2b5937696c318360405161269d9190613120565b60405180910390a3505050565b6126b5848484611e88565b6126c1848484846129d0565b612700576040517f08c379a00000000000000000000000000000000000000000000000000000000081526004016126f790614774565b60405180910390fd5b50505050565b60008073ffffffffffffffffffffffffffffffffffffffff166002600084815260200190815260200160002060009054906101000a900473ffffffffffffffffffffffffffffffffffffffff1673ffffffffffffffffffffffffffffffffffffffff1614159050919050565b60007f80ac58cd000000000000000000000000000000000000000000000000000000007bffffffffffffffffffffffffffffffffffffffffffffffffffffffff1916827bffffffffffffffffffffffffffffffffffffffffffffffffffffffff1916148061283d57507f5b5e139f000000000000000000000000000000000000000000000000000000007bffffffffffffffffffffffffffffffffffffffffffffffffffffffff1916827bffffffffffffffffffffffffffffffffffffffffffffffffffffffff1916145b8061284d575061284c82612b67565b5b9050919050565b600073ffffffffffffffffffffffffffffffffffffffff168373ffffffffffffffffffffffffffffffffffffffff16146128c3576040517f08c379a00000000000000000000000000000000000000000000000000000000081526004016128ba90614806565b60405180910390fd5b6128ce838383612bd1565b505050565b505050565b6128e28282610f64565b612971576129078173ffffffffffffffffffffffffffffffffffffffff166014612bd6565b6129158360001c6020612bd6565b6040516020016129269291906148fa565b6040516020818303038152906040526040517f08c379a000000000000000000000000000000000000000000000000000000000815260040161296891906131d4565b60405180910390fd5b5050565b61297f8383612e12565b61298c60008484846129d0565b6129cb576040517f08c379a00000000000000000000000000000000000000000000000000000000081526004016129c290614774565b60405180910390fd5b505050565b60006129f18473ffffffffffffffffffffffffffffffffffffffff16612fec565b15612b5a578373ffffffffffffffffffffffffffffffffffffffff1663150b7a02612a1a611d32565b8786866040518563ffffffff1660e01b8152600401612a3c9493929190614989565b602060405180830381600087803b158015612a5657600080fd5b505af1925050508015612a8757506040513d601f19601f82011682018060405250810190612a8491906149ea565b60015b612b0a573d8060008114612ab7576040519150601f19603f3d011682016040523d82523d6000602084013e612abc565b606091505b50600081511415612b02576040517f08c379a0000000000000000000000000000000000000000000000000000000008152600401612af990614774565b60405180910390fd5b805181602001fd5b63150b7a0260e01b7bffffffffffffffffffffffffffffffffffffffffffffffffffffffff1916817bffffffffffffffffffffffffffffffffffffffffffffffffffffffff191614915050612b5f565b600190505b949350505050565b60007f01ffc9a7000000000000000000000000000000000000000000000000000000007bffffffffffffffffffffffffffffffffffffffffffffffffffffffff1916827bffffffffffffffffffffffffffffffffffffffffffffffffffffffff1916149050919050565b505050565b606060006002836002612be991906145dc565b612bf39190614186565b67ffffffffffffffff811115612c0c57612c0b6135b7565b5b6040519080825280601f01601f191660200182016040528015612c3e5781602001600182028036833780820191505090505b5090507f300000000000000000000000000000000000000000000000000000000000000081600081518110612c7657612c7561404c565b5b60200101907effffffffffffffffffffffffffffffffffffffffffffffffffffffffffffff1916908160001a9053507f780000000000000000000000000000000000000000000000000000000000000081600181518110612cda57612cd961404c565b5b60200101907effffffffffffffffffffffffffffffffffffffffffffffffffffffffffffff1916908160001a90535060006001846002612d1a91906145dc565b612d249190614186565b90505b6001811115612dc4577f3031323334353637383961626364656600000000000000000000000000000000600f861660108110612d6657612d6561404c565b5b1a60f81b828281518110612d7d57612d7c61404c565b5b60200101907effffffffffffffffffffffffffffffffffffffffffffffffffffffffffffff1916908160001a905350600485901c945080612dbd90614a17565b9050612d27565b5060008414612e08576040517f08c379a0000000000000000000000000000000000000000000000000000000008152600401612dff90614a8d565b60405180910390fd5b8091505092915050565b600073ffffffffffffffffffffffffffffffffffffffff168273ffffffffffffffffffffffffffffffffffffffff161415612e82576040517f08c379a0000000000000000000000000000000000000000000000000000000008152600401612e7990614af9565b60405180910390fd5b612e8b81612706565b15612ecb576040517f08c379a0000000000000000000000000000000000000000000000000000000008152600401612ec290614b65565b60405180910390fd5b612ed760008383612854565b6001600360008473ffffffffffffffffffffffffffffffffffffffff1673ffffffffffffffffffffffffffffffffffffffff1681526020019081526020016000206000828254612f279190614186565b92505081905550816002600083815260200190815260200160002060006101000a81548173ffffffffffffffffffffffffffffffffffffffff021916908373ffffffffffffffffffffffffffffffffffffffff160217905550808273ffffffffffffffffffffffffffffffffffffffff16600073ffffffffffffffffffffffffffffffffffffffff167fddf252ad1be2c89b69c2b068fc378daa952ba7f163c4a11628f55a4df523b3ef60405160405180910390a4612fe8600083836128d3565b5050565b6000808273ffffffffffffffffffffffffffffffffffffffff163b119050919050565b6040518060a001604052806005905b61302661303c565b81526020019060019003908161301e5790505090565b6040518060400160405280600073ffffffffffffffffffffffffffffffffffffffff168152602001600081525090565b6000604051905090565b600080fd5b600080fd5b60007fffffffff0000000000000000000000000000000000000000000000000000000082169050919050565b6130b581613080565b81146130c057600080fd5b50565b6000813590506130d2816130ac565b92915050565b6000602082840312156130ee576130ed613076565b5b60006130fc848285016130c3565b91505092915050565b60008115159050919050565b61311a81613105565b82525050565b60006020820190506131356000830184613111565b92915050565b600081519050919050565b600082825260208201905092915050565b60005b8381101561317557808201518184015260208101905061315a565b83811115613184576000848401525b50505050565b6000601f19601f8301169050919050565b60006131a68261313b565b6131b08185613146565b93506131c0818560208601613157565b6131c98161318a565b840191505092915050565b600060208201905081810360008301526131ee818461319b565b905092915050565b6000819050919050565b613209816131f6565b811461321457600080fd5b50565b60008135905061322681613200565b92915050565b60006020828403121561324257613241613076565b5b600061325084828501613217565b91505092915050565b600073ffffffffffffffffffffffffffffffffffffffff82169050919050565b600061328482613259565b9050919050565b61329481613279565b82525050565b60006020820190506132af600083018461328b565b92915050565b6132be81613279565b81146132c957600080fd5b50565b6000813590506132db816132b5565b92915050565b600080604083850312156132f8576132f7613076565b5b6000613306858286016132cc565b925050602061331785828601613217565b9150509250929050565b60008060006060848603121561333a57613339613076565b5b6000613348868287016132cc565b9350506020613359868287016132cc565b925050604061336a86828701613217565b9150509250925092565b6000819050919050565b61338781613374565b811461339257600080fd5b50565b6000813590506133a48161337e565b92915050565b6000602082840312156133c0576133bf613076565b5b60006133ce84828501613395565b91505092915050565b6133e081613374565b82525050565b60006020820190506133fb60008301846133d7565b92915050565b6000806040838503121561341857613417613076565b5b600061342685828601613395565b9250506020613437858286016132cc565b9150509250929050565b60006020828403121561345757613456613076565b5b6000613465848285016132cc565b91505092915050565b6000806040838503121561348557613484613076565b5b600061349385828601613217565b92505060206134a4858286016132cc565b9150509250929050565b6134b7816131f6565b82525050565b60006020820190506134d260008301846134ae565b92915050565b6134e181613105565b81146134ec57600080fd5b50565b6000813590506134fe816134d8565b92915050565b6000806040838503121561351b5761351a613076565b5b6000613529858286016132cc565b925050602061353a858286016134ef565b9150509250929050565b6000806040838503121561355b5761355a613076565b5b600061356985828601613217565b925050602061357a85828601613217565b9150509250929050565b6000604082019050613599600083018561328b565b6135a660208301846134ae565b9392505050565b600080fd5b600080fd5b7f4e487b7100000000000000000000000000000000000000000000000000000000600052604160045260246000fd5b6135ef8261318a565b810181811067ffffffffffffffff8211171561360e5761360d6135b7565b5b80604052505050565b600061362161306c565b905061362d82826135e6565b919050565b600067ffffffffffffffff82111561364d5761364c6135b7565b5b6136568261318a565b9050602081019050919050565b82818337600083830152505050565b600061368561368084613632565b613617565b9050828152602081018484840111156136a1576136a06135b2565b5b6136ac848285613663565b509392505050565b600082601f8301126136c9576136c86135ad565b5b81356136d9848260208601613672565b91505092915050565b600080600080608085870312156136fc576136fb613076565b5b600061370a878288016132cc565b945050602061371b878288016132cc565b935050604061372c87828801613217565b925050606085013567ffffffffffffffff81111561374d5761374c61307b565b5b613759878288016136b4565b91505092959194509250565b60008060006060848603121561377e5761377d613076565b5b600061378c86828701613217565b935050602061379d868287016132cc565b92505060406137ae86828701613217565b9150509250925092565b600060059050919050565b600081905092915050565b6000819050919050565b6137e181613279565b82525050565b6137f0816131f6565b82525050565b60408201600082015161380c60008501826137d8565b50602082015161381f60208501826137e7565b50505050565b600061383183836137f6565b60408301905092915050565b6000602082019050919050565b613853816137b8565b61385d81846137c3565b9250613868826137ce565b8060005b838110156138995781516138808782613825565b965061388b8361383d565b92505060018101905061386c565b505050505050565b6000610140820190506138b7600083018461384a565b92915050565b600080604083850312156138d4576138d3613076565b5b60006138e2858286016132cc565b92505060206138f3858286016132cc565b9150509250929050565b60008060006060848603121561391657613915613076565b5b6000613924868287016132cc565b935050602061393586828701613217565b925050604061394686828701613217565b9150509250925092565b7f4e487b7100000000000000000000000000000000000000000000000000000000600052602260045260246000fd5b6000600282049050600182168061399757607f821691505b602082108114156139ab576139aa613950565b5b50919050565b7f4552433732313a20617070726f76616c20746f2063757272656e74206f776e6560008201527f7200000000000000000000000000000000000000000000000000000000000000602082015250565b6000613a0d602183613146565b9150613a18826139b1565b604082019050919050565b60006020820190508181036000830152613a3c81613a00565b9050919050565b7f4552433732313a20617070726f76652063616c6c6572206973206e6f7420746f60008201527f6b656e206f776e6572206e6f7220617070726f76656420666f7220616c6c0000602082015250565b6000613a9f603e83613146565b9150613aaa82613a43565b604082019050919050565b60006020820190508181036000830152613ace81613a92565b9050919050565b7f4552433732313a2063616c6c6572206973206e6f7420746f6b656e206f776e6560008201527f72206e6f7220617070726f766564000000000000000000000000000000000000602082015250565b6000613b31602e83613146565b9150613b3c82613ad5565b604082019050919050565b60006020820190508181036000830152613b6081613b24565b9050919050565b7f416363657373436f6e74726f6c3a2063616e206f6e6c792072656e6f756e636560008201527f20726f6c657320666f722073656c660000000000000000000000000000000000602082015250565b6000613bc3602f83613146565b9150613bce82613b67565b604082019050919050565b60006020820190508181036000830152613bf281613bb6565b9050919050565b7f536f756c46756e642e77686974656c6973744e66743a2061646472657373206160008201527f6c72656164792061646465640000000000000000000000000000000000000000602082015250565b6000613c55602c83613146565b9150613c6082613bf9565b604082019050919050565b60006020820190508181036000830152613c8481613c48565b9050919050565b7f536f756c46756e642e77686974656c6973744e66743a2063616e6e6f7420616460008201527f6420302061646472657373000000000000000000000000000000000000000000602082015250565b6000613ce7602b83613146565b9150613cf282613c8b565b604082019050919050565b60006020820190508181036000830152613d1681613cda565b9050919050565b7f4552433732313a20696e76616c696420746f6b656e2049440000000000000000600082015250565b6000613d53601883613146565b9150613d5e82613d1d565b602082019050919050565b60006020820190508181036000830152613d8281613d46565b9050919050565b7f4552433732313a2061646472657373207a65726f206973206e6f74206120766160008201527f6c6964206f776e65720000000000000000000000000000000000000000000000602082015250565b6000613de5602983613146565b9150613df082613d89565b604082019050919050565b60006020820190508181036000830152613e1481613dd8565b9050919050565b7f536f756c46756e642e636c61696d46756e64734561726c793a2066756e64206460008201527f6f6573206e6f7420657869737400000000000000000000000000000000000000602082015250565b6000613e77602d83613146565b9150613e8282613e1b565b604082019050919050565b60006020820190508181036000830152613ea681613e6a565b9050919050565b6000604082019050613ec260008301856134ae565b613ecf60208301846134ae565b9392505050565b7f546f6b656e20646f6573206e6f74206578697374000000000000000000000000600082015250565b6000613f0c601483613146565b9150613f1782613ed6565b602082019050919050565b60006020820190508181036000830152613f3b81613eff565b9050919050565b7f536f756c46756e642e6465706f73697446756e643a206d61782063757272656e60008201527f6379207479706520726561636865642e00000000000000000000000000000000602082015250565b6000613f9e603083613146565b9150613fa982613f42565b604082019050919050565b60006020820190508181036000830152613fcd81613f91565b9050919050565b7f4e487b7100000000000000000000000000000000000000000000000000000000600052601160045260246000fd5b600061400e826131f6565b91507fffffffffffffffffffffffffffffffffffffffffffffffffffffffffffffffff82141561404157614040613fd4565b5b600182019050919050565b7f4e487b7100000000000000000000000000000000000000000000000000000000600052603260045260246000fd5b7f536f756c46756e642e6465706f73697446756e643a20616d6f756e74206d697360008201527f6d617463682e0000000000000000000000000000000000000000000000000000602082015250565b60006140d7602683613146565b91506140e28261407b565b604082019050919050565b60006020820190508181036000830152614106816140ca565b9050919050565b6000606082019050614122600083018661328b565b61412f602083018561328b565b61413c60408301846134ae565b949350505050565b600081519050614153816134d8565b92915050565b60006020828403121561416f5761416e613076565b5b600061417d84828501614144565b91505092915050565b6000614191826131f6565b915061419c836131f6565b9250827fffffffffffffffffffffffffffffffffffffffffffffffffffffffffffffffff038211156141d1576141d0613fd4565b5b828201905092915050565b60006080820190506141f160008301876134ae565b6141fe602083018661328b565b61420b60408301856134ae565b614218606083018461328b565b95945050505050565b7f536f756c46756e642e636c61696d46756e64734561726c793a204e4654206e6f60008201527f742077686974656c697374656400000000000000000000000000000000000000602082015250565b600061427d602d83613146565b915061428882614221565b604082019050919050565b600060208201905081810360008301526142ac81614270565b9050919050565b6000815190506142c2816132b5565b92915050565b6000602082840312156142de576142dd613076565b5b60006142ec848285016142b3565b91505092915050565b7f536f756c46756e642e636c61696d46756e64734561726c793a2062656e65666960008201527f636961727920646f6573206e6f74206f776e206e66742072657175697265642060208201527f746f20636c61696d2066756e6473000000000000000000000000000000000000604082015250565b6000614377604e83613146565b9150614382826142f5565b606082019050919050565b600060208201905081810360008301526143a68161436a565b9050919050565b7f536f756c46756e642e636c61696d46756e64734561726c793a20436c61696d2060008201527f746f6b656e204e46542068617320616c7265616479206265656e207370656e74602082015250565b6000614409604083613146565b9150614414826143ad565b604082019050919050565b60006020820190508181036000830152614438816143fc565b9050919050565b600060808201905061445460008301876134ae565b61446160208301866134ae565b61446e604083018561328b565b61447b60608301846134ae565b95945050505050565b7f4552433732313a207472616e736665722066726f6d20696e636f72726563742060008201527f6f776e6572000000000000000000000000000000000000000000000000000000602082015250565b60006144e0602583613146565b91506144eb82614484565b604082019050919050565b6000602082019050818103600083015261450f816144d3565b9050919050565b7f4552433732313a207472616e7366657220746f20746865207a65726f2061646460008201527f7265737300000000000000000000000000000000000000000000000000000000602082015250565b6000614572602483613146565b915061457d82614516565b604082019050919050565b600060208201905081810360008301526145a181614565565b9050919050565b60006145b3826131f6565b91506145be836131f6565b9250828210156145d1576145d0613fd4565b5b828203905092915050565b60006145e7826131f6565b91506145f2836131f6565b9250817fffffffffffffffffffffffffffffffffffffffffffffffffffffffffffffffff048311821515161561462b5761462a613fd4565b5b828202905092915050565b7f4e487b7100000000000000000000000000000000000000000000000000000000600052601260045260246000fd5b6000614670826131f6565b915061467b836131f6565b92508261468b5761468a614636565b5b828204905092915050565b7f4552433732313a20617070726f766520746f2063616c6c657200000000000000600082015250565b60006146cc601983613146565b91506146d782614696565b602082019050919050565b600060208201905081810360008301526146fb816146bf565b9050919050565b7f4552433732313a207472616e7366657220746f206e6f6e20455243373231526560008201527f63656976657220696d706c656d656e7465720000000000000000000000000000602082015250565b600061475e603283613146565b915061476982614702565b604082019050919050565b6000602082019050818103600083015261478d81614751565b9050919050565b7f536f756c46756e643a20736f756c20626f756e6420746f6b656e2063616e6e6f60008201527f74206265207472616e7366657272656400000000000000000000000000000000602082015250565b60006147f0603083613146565b91506147fb82614794565b604082019050919050565b6000602082019050818103600083015261481f816147e3565b9050919050565b600081905092915050565b7f416363657373436f6e74726f6c3a206163636f756e7420000000000000000000600082015250565b6000614867601783614826565b915061487282614831565b601782019050919050565b60006148888261313b565b6148928185614826565b93506148a2818560208601613157565b80840191505092915050565b7f206973206d697373696e6720726f6c6520000000000000000000000000000000600082015250565b60006148e4601183614826565b91506148ef826148ae565b601182019050919050565b60006149058261485a565b9150614911828561487d565b915061491c826148d7565b9150614928828461487d565b91508190509392505050565b600081519050919050565b600082825260208201905092915050565b600061495b82614934565b614965818561493f565b9350614975818560208601613157565b61497e8161318a565b840191505092915050565b600060808201905061499e600083018761328b565b6149ab602083018661328b565b6149b860408301856134ae565b81810360608301526149ca8184614950565b905095945050505050565b6000815190506149e4816130ac565b92915050565b600060208284031215614a00576149ff613076565b5b6000614a0e848285016149d5565b91505092915050565b6000614a22826131f6565b91506000821415614a3657614a35613fd4565b5b600182039050919050565b7f537472696e67733a20686578206c656e67746820696e73756666696369656e74600082015250565b6000614a77602083613146565b9150614a8282614a41565b602082019050919050565b60006020820190508181036000830152614aa681614a6a565b9050919050565b7f4552433732313a206d696e7420746f20746865207a65726f2061646472657373600082015250565b6000614ae3602083613146565b9150614aee82614aad565b602082019050919050565b60006020820190508181036000830152614b1281614ad6565b9050919050565b7f4552433732313a20746f6b656e20616c7265616479206d696e74656400000000600082015250565b6000614b4f601c83613146565b9150614b5a82614b19565b602082019050919050565b60006020820190508181036000830152614b7e81614b42565b905091905056fea2646970667358221220c08f1b06cb0bda6874eb47b99a6e3965603fe0a5a1c66b83f8e3eaa3cce17ac364736f6c63430008090033",
  "linkReferences": {},
  "deployedLinkReferences": {}
}